{
  "_format": "hh-sol-artifact-1",
  "contractName": "LoanRequest",
  "sourceName": "contracts/LoanRequest.sol",
  "abi": [
    {
      "inputs": [
        {
          "internalType": "uint256",
          "name": "_loanAmount",
          "type": "uint256"
        },
        {
          "internalType": "uint256",
          "name": "_feeAmount",
          "type": "uint256"
        },
        {
          "internalType": "uint256",
          "name": "_ethCollateralAmount",
          "type": "uint256"
        },
        {
          "internalType": "uint256",
          "name": "_repayByTimestamp",
          "type": "uint256"
        },
        {
          "internalType": "uint256",
          "name": "_fixedRate",
          "type": "uint256"
        },
        {
          "internalType": "uint256",
          "name": "_floatingRate",
          "type": "uint256"
        },
        {
          "internalType": "address",
          "name": "_oracle",
          "type": "address"
        }
      ],
      "stateMutability": "nonpayable",
      "type": "constructor"
    },
    {
      "anonymous": false,
      "inputs": [
        {
          "indexed": true,
          "internalType": "address",
          "name": "lender",
          "type": "address"
        },
        {
          "indexed": false,
          "internalType": "uint256",
          "name": "loanAmount",
          "type": "uint256"
        }
      ],
      "name": "LoanFunded",
      "type": "event"
    },
    {
      "anonymous": false,
      "inputs": [
        {
          "indexed": true,
          "internalType": "address",
          "name": "borrower",
          "type": "address"
        },
        {
          "indexed": true,
          "internalType": "address",
          "name": "lender",
          "type": "address"
        },
        {
          "indexed": false,
          "internalType": "uint256",
          "name": "collateralAmount",
          "type": "uint256"
        }
      ],
      "name": "LoanLiquidated",
      "type": "event"
    },
    {
      "anonymous": false,
      "inputs": [
        {
          "indexed": true,
          "internalType": "address",
          "name": "borrower",
          "type": "address"
        },
        {
          "indexed": false,
          "internalType": "uint256",
          "name": "repaymentAmount",
          "type": "uint256"
        }
      ],
      "name": "LoanRepaid",
      "type": "event"
    },
    {
      "anonymous": false,
      "inputs": [
        {
          "indexed": true,
          "internalType": "address",
          "name": "borrower",
          "type": "address"
        },
        {
          "indexed": false,
          "internalType": "uint256",
          "name": "loanAmount",
          "type": "uint256"
        }
      ],
      "name": "LoanTaken",
      "type": "event"
    },
    {
      "anonymous": false,
      "inputs": [
        {
          "indexed": true,
          "internalType": "address",
          "name": "borrower",
          "type": "address"
        },
        {
          "indexed": false,
          "internalType": "uint256",
          "name": "collateralAmount",
          "type": "uint256"
        }
      ],
      "name": "LoanTermsAccepted",
      "type": "event"
    },
    {
      "inputs": [],
      "name": "acceptLoanTerms",
      "outputs": [],
      "stateMutability": "payable",
      "type": "function"
    },
    {
      "inputs": [],
      "name": "borrower",
      "outputs": [
        {
          "internalType": "address payable",
          "name": "",
          "type": "address"
        }
      ],
      "stateMutability": "view",
      "type": "function"
    },
    {
      "inputs": [],
      "name": "calculateInterest",
      "outputs": [
        {
          "internalType": "uint256",
          "name": "",
          "type": "uint256"
        }
      ],
      "stateMutability": "view",
      "type": "function"
    },
    {
      "inputs": [],
      "name": "currentRateType",
      "outputs": [
        {
          "internalType": "enum LoanRequest.InterestRateType",
          "name": "",
          "type": "uint8"
        }
      ],
      "stateMutability": "view",
      "type": "function"
    },
    {
      "inputs": [],
      "name": "ethCollateralAmount",
      "outputs": [
        {
          "internalType": "uint256",
          "name": "",
          "type": "uint256"
        }
      ],
      "stateMutability": "view",
      "type": "function"
    },
    {
      "inputs": [],
      "name": "feeAmount",
      "outputs": [
        {
          "internalType": "uint256",
          "name": "",
          "type": "uint256"
        }
      ],
      "stateMutability": "view",
      "type": "function"
    },
    {
      "inputs": [],
      "name": "fixedRate",
      "outputs": [
        {
          "internalType": "uint256",
          "name": "",
          "type": "uint256"
        }
      ],
      "stateMutability": "view",
      "type": "function"
    },
    {
      "inputs": [],
      "name": "floatingRate",
      "outputs": [
        {
          "internalType": "uint256",
          "name": "",
          "type": "uint256"
        }
      ],
      "stateMutability": "view",
      "type": "function"
    },
    {
      "inputs": [],
      "name": "fundLoan",
      "outputs": [],
      "stateMutability": "payable",
      "type": "function"
    },
    {
      "inputs": [],
      "name": "getEthCollateralAmount",
      "outputs": [
        {
          "internalType": "uint256",
          "name": "",
          "type": "uint256"
        }
      ],
      "stateMutability": "view",
      "type": "function"
    },
    {
      "inputs": [],
      "name": "getFeeAmount",
      "outputs": [
        {
          "internalType": "uint256",
          "name": "",
          "type": "uint256"
        }
      ],
      "stateMutability": "view",
      "type": "function"
    },
    {
      "inputs": [],
      "name": "getFixedRate",
      "outputs": [
        {
          "internalType": "uint256",
          "name": "",
          "type": "uint256"
        }
      ],
      "stateMutability": "view",
      "type": "function"
    },
    {
      "inputs": [],
      "name": "getFloatingRate",
      "outputs": [
        {
          "internalType": "uint256",
          "name": "",
          "type": "uint256"
        }
      ],
      "stateMutability": "view",
      "type": "function"
    },
    {
      "inputs": [],
      "name": "getLoanAmount",
      "outputs": [
        {
          "internalType": "uint256",
          "name": "",
          "type": "uint256"
        }
      ],
      "stateMutability": "view",
      "type": "function"
    },
    {
      "inputs": [],
      "name": "getLoanState",
      "outputs": [
        {
          "internalType": "enum LoanRequest.LoanState",
          "name": "",
          "type": "uint8"
        }
      ],
      "stateMutability": "view",
      "type": "function"
    },
    {
      "inputs": [],
      "name": "getRepayByTimestamp",
      "outputs": [
        {
          "internalType": "uint256",
          "name": "",
          "type": "uint256"
        }
      ],
      "stateMutability": "view",
      "type": "function"
    },
    {
      "inputs": [],
      "name": "lender",
      "outputs": [
        {
          "internalType": "address payable",
          "name": "",
          "type": "address"
        }
      ],
      "stateMutability": "view",
      "type": "function"
    },
    {
      "inputs": [],
      "name": "liquidate",
      "outputs": [],
      "stateMutability": "nonpayable",
      "type": "function"
    },
    {
      "inputs": [],
      "name": "loanAmount",
      "outputs": [
        {
          "internalType": "uint256",
          "name": "",
          "type": "uint256"
        }
      ],
      "stateMutability": "view",
      "type": "function"
    },
    {
      "inputs": [],
      "name": "repay",
      "outputs": [],
      "stateMutability": "payable",
      "type": "function"
    },
    {
      "inputs": [],
      "name": "repayByTimestamp",
      "outputs": [
        {
          "internalType": "uint256",
          "name": "",
          "type": "uint256"
        }
      ],
      "stateMutability": "view",
      "type": "function"
    },
    {
      "inputs": [],
      "name": "state",
      "outputs": [
        {
          "internalType": "enum LoanRequest.LoanState",
          "name": "",
          "type": "uint8"
        }
      ],
      "stateMutability": "view",
      "type": "function"
    },
    {
      "inputs": [],
      "name": "switchRateType",
      "outputs": [],
      "stateMutability": "nonpayable",
      "type": "function"
    },
    {
      "inputs": [],
      "name": "takeLoan",
      "outputs": [],
      "stateMutability": "payable",
      "type": "function"
    },
    {
      "inputs": [],
      "name": "terms",
      "outputs": [
        {
          "internalType": "uint256",
          "name": "loanAmount",
          "type": "uint256"
        },
        {
          "internalType": "uint256",
          "name": "feeAmount",
          "type": "uint256"
        },
        {
          "internalType": "uint256",
          "name": "ethCollateralAmount",
          "type": "uint256"
        },
        {
          "internalType": "uint256",
          "name": "repayByTimestamp",
          "type": "uint256"
        },
        {
          "internalType": "uint256",
          "name": "fixedRate",
          "type": "uint256"
        },
        {
          "internalType": "uint256",
          "name": "floatingRate",
          "type": "uint256"
        }
      ],
      "stateMutability": "view",
      "type": "function"
    },
    {
      "inputs": [],
      "name": "updateRates",
      "outputs": [],
      "stateMutability": "nonpayable",
      "type": "function"
    }
  ],
  "bytecode": "0x608060405234801561001057600080fd5b5060405161207d38038061207d833981810160405281019061003291906101d7565b8660098190555085600a8190555084600b8190555083600c8190555082600d8190555081600e8190555080600060026101000a81548173ffffffffffffffffffffffffffffffffffffffff021916908373ffffffffffffffffffffffffffffffffffffffff16021790555060008060006101000a81548160ff021916908360058111156100c2576100c1610279565b5b021790555060008060016101000a81548160ff021916908360018111156100ec576100eb610279565b5b021790555033600760006101000a81548173ffffffffffffffffffffffffffffffffffffffff021916908373ffffffffffffffffffffffffffffffffffffffff160217905550505050505050506102a8565b600080fd5b6000819050919050565b61015681610143565b811461016157600080fd5b50565b6000815190506101738161014d565b92915050565b600073ffffffffffffffffffffffffffffffffffffffff82169050919050565b60006101a482610179565b9050919050565b6101b481610199565b81146101bf57600080fd5b50565b6000815190506101d1816101ab565b92915050565b600080600080600080600060e0888a0312156101f6576101f561013e565b5b60006102048a828b01610164565b97505060206102158a828b01610164565b96505060406102268a828b01610164565b95505060606102378a828b01610164565b94505060806102488a828b01610164565b93505060a06102598a828b01610164565b92505060c061026a8a828b016101c2565b91505092959891949750929550565b7f4e487b7100000000000000000000000000000000000000000000000000000000600052602160045260246000fd5b611dc6806102b76000396000f3fe6080604052600436106101815760003560e01c80639d585f7f116100d1578063bf5e67341161008a578063eb0c495511610064578063eb0c49551461047d578063f4b01b18146104a8578063f5513354146104d3578063f71dd46c146104fe57610181565b8063bf5e673414610418578063c19d93fb14610422578063d50256251461044d57610181565b80639d585f7f146103165780639e9f669c14610341578063ab2078d11461036c578063b113888514610397578063bcead63e146103c2578063bf5c9822146103ed57610181565b806373c051781161013e57806385dfc5791161011857806385dfc579146102c05780638db57994146102eb57806398a88f2c146102f557806398e05a491461030c57610181565b806373c051781461023f5780637df1f1b91461026a578063802d14221461029557610181565b806328a07025146101865780633c3821f41461019d578063402d8883146101b457806340963da0146101be57806344d0d0c6146101e957806369e1540414610214575b600080fd5b34801561019257600080fd5b5061019b610529565b005b3480156101a957600080fd5b506101b26107b3565b005b6101bc610890565b005b3480156101ca57600080fd5b506101d3610b3e565b6040516101e0919061138d565b60405180910390f35b3480156101f557600080fd5b506101fe610b48565b60405161020b919061138d565b60405180910390f35b34801561022057600080fd5b50610229610b4e565b604051610236919061138d565b60405180910390f35b34801561024b57600080fd5b50610254610b54565b604051610261919061138d565b60405180910390f35b34801561027657600080fd5b5061027f610b5e565b60405161028c91906113e9565b60405180910390f35b3480156102a157600080fd5b506102aa610b84565b6040516102b7919061138d565b60405180910390f35b3480156102cc57600080fd5b506102d5610b8a565b6040516102e2919061138d565b60405180910390f35b6102f3610b94565b005b34801561030157600080fd5b5061030a610d99565b005b610314610e31565b005b34801561032257600080fd5b5061032b61101c565b604051610338919061138d565b60405180910390f35b34801561034d57600080fd5b50610356611022565b604051610363919061147b565b60405180910390f35b34801561037857600080fd5b50610381611038565b60405161038e919061138d565b60405180910390f35b3480156103a357600080fd5b506103ac61103e565b6040516103b9919061138d565b60405180910390f35b3480156103ce57600080fd5b506103d7611048565b6040516103e491906113e9565b60405180910390f35b3480156103f957600080fd5b5061040261106e565b60405161040f919061138d565b60405180910390f35b610420611078565b005b34801561042e57600080fd5b5061043761127d565b604051610444919061147b565b60405180910390f35b34801561045957600080fd5b5061046261128e565b60405161047496959493929190611496565b60405180910390f35b34801561048957600080fd5b506104926112b8565b60405161049f919061138d565b60405180910390f35b3480156104b457600080fd5b506104bd611351565b6040516104ca919061138d565b60405180910390f35b3480156104df57600080fd5b506104e861135b565b6040516104f5919061153f565b60405180910390f35b34801561050a57600080fd5b5061051361136e565b604051610520919061138d565b60405180910390f35b6003600581111561053d5761053c611404565b5b60008054906101000a900460ff16600581111561055d5761055c611404565b5b1461059d576040517f08c379a0000000000000000000000000000000000000000000000000000000008152600401610594906115b7565b60405180910390fd5b600c5442116105e1576040517f08c379a00000000000000000000000000000000000000000000000000000000081526004016105d890611649565b60405180910390fd5b600760009054906101000a900473ffffffffffffffffffffffffffffffffffffffff1673ffffffffffffffffffffffffffffffffffffffff163373ffffffffffffffffffffffffffffffffffffffff1614610671576040517f08c379a0000000000000000000000000000000000000000000000000000000008152600401610668906116db565b60405180910390fd5b60056000806101000a81548160ff0219169083600581111561069657610695611404565b5b0217905550600760009054906101000a900473ffffffffffffffffffffffffffffffffffffffff1673ffffffffffffffffffffffffffffffffffffffff166108fc600b549081150290604051600060405180830381858888f19350505050158015610705573d6000803e3d6000fd5b50600760009054906101000a900473ffffffffffffffffffffffffffffffffffffffff1673ffffffffffffffffffffffffffffffffffffffff16600860009054906101000a900473ffffffffffffffffffffffffffffffffffffffff1673ffffffffffffffffffffffffffffffffffffffff167fd4bfdcd3d7029abe0d70d4a6f1f560c5eac8d3cd6ecef801c6d3d67a49be6068600b546040516107a9919061138d565b60405180910390a3565b60008060029054906101000a900473ffffffffffffffffffffffffffffffffffffffff1673ffffffffffffffffffffffffffffffffffffffff1663feaf968c6040518163ffffffff1660e01b815260040160a060405180830381865afa158015610821573d6000803e3d6000fd5b505050506040513d601f19601f8201168201806040525081019061084591906117a4565b5050509150506000620f424060648361085e919061184e565b61086891906118bf565b905080600e8190555060006001905080600e5461088591906118f0565b600d81905550505050565b600360058111156108a4576108a3611404565b5b60008054906101000a900460ff1660058111156108c4576108c3611404565b5b14610904576040517f08c379a00000000000000000000000000000000000000000000000000000000081526004016108fb906115b7565b60405180910390fd5b600860009054906101000a900473ffffffffffffffffffffffffffffffffffffffff1673ffffffffffffffffffffffffffffffffffffffff163373ffffffffffffffffffffffffffffffffffffffff1614610994576040517f08c379a000000000000000000000000000000000000000000000000000000000815260040161098b90611970565b60405180910390fd5b600061099e6112b8565b6009546109ab91906118f0565b90508034146109ef576040517f08c379a00000000000000000000000000000000000000000000000000000000081526004016109e6906119dc565b60405180910390fd5b60046000806101000a81548160ff02191690836005811115610a1457610a13611404565b5b0217905550600760009054906101000a900473ffffffffffffffffffffffffffffffffffffffff1673ffffffffffffffffffffffffffffffffffffffff166108fc829081150290604051600060405180830381858888f19350505050158015610a81573d6000803e3d6000fd5b50600860009054906101000a900473ffffffffffffffffffffffffffffffffffffffff1673ffffffffffffffffffffffffffffffffffffffff166108fc600b549081150290604051600060405180830381858888f19350505050158015610aec573d6000803e3d6000fd5b503373ffffffffffffffffffffffffffffffffffffffff167fc200a1f31dd659e356e0f112c82558e25f49f7b0f84438691cd96f5cb355882382604051610b33919061138d565b60405180910390a250565b6000600c54905090565b600b5481565b600a5481565b6000600d54905090565b600860009054906101000a900473ffffffffffffffffffffffffffffffffffffffff1681565b600d5481565b6000600e54905090565b60006005811115610ba857610ba7611404565b5b60008054906101000a900460ff166005811115610bc857610bc7611404565b5b14610c08576040517f08c379a0000000000000000000000000000000000000000000000000000000008152600401610bff90611a48565b60405180910390fd5b600760009054906101000a900473ffffffffffffffffffffffffffffffffffffffff1673ffffffffffffffffffffffffffffffffffffffff163373ffffffffffffffffffffffffffffffffffffffff1614610c98576040517f08c379a0000000000000000000000000000000000000000000000000000000008152600401610c8f90611ab4565b60405180910390fd5b6009543414610cdc576040517f08c379a0000000000000000000000000000000000000000000000000000000008152600401610cd390611b20565b60405180910390fd5b33600760006101000a81548173ffffffffffffffffffffffffffffffffffffffff021916908373ffffffffffffffffffffffffffffffffffffffff16021790555060016000806101000a81548160ff02191690836005811115610d4257610d41611404565b5b02179055503373ffffffffffffffffffffffffffffffffffffffff167f726d5f1a838fe31748f737fa3ae5539ccff95952adfc593a1299532b643ff7a8600954604051610d8f919061138d565b60405180910390a2565b60006001811115610dad57610dac611404565b5b600060019054906101000a900460ff166001811115610dcf57610dce611404565b5b03610e04576001600060016101000a81548160ff02191690836001811115610dfa57610df9611404565b5b0217905550610e2f565b60008060016101000a81548160ff02191690836001811115610e2957610e28611404565b5b02179055505b565b60026005811115610e4557610e44611404565b5b60008054906101000a900460ff166005811115610e6557610e64611404565b5b14610ea5576040517f08c379a0000000000000000000000000000000000000000000000000000000008152600401610e9c90611b8c565b60405180910390fd5b600860009054906101000a900473ffffffffffffffffffffffffffffffffffffffff1673ffffffffffffffffffffffffffffffffffffffff163373ffffffffffffffffffffffffffffffffffffffff1614610f35576040517f08c379a0000000000000000000000000000000000000000000000000000000008152600401610f2c90611bf8565b60405180910390fd5b60036000806101000a81548160ff02191690836005811115610f5a57610f59611404565b5b0217905550600860009054906101000a900473ffffffffffffffffffffffffffffffffffffffff1673ffffffffffffffffffffffffffffffffffffffff166108fc6009549081150290604051600060405180830381858888f19350505050158015610fc9573d6000803e3d6000fd5b503373ffffffffffffffffffffffffffffffffffffffff167fd5c776eab9418d89c040ffee59f2310d225f5ff682191bcee59b0413a7fd4835600954604051611012919061138d565b60405180910390a2565b60095481565b60008060009054906101000a900460ff16905090565b600c5481565b6000600b54905090565b600760009054906101000a900473ffffffffffffffffffffffffffffffffffffffff1681565b6000600a54905090565b6001600581111561108c5761108b611404565b5b60008054906101000a900460ff1660058111156110ac576110ab611404565b5b146110ec576040517f08c379a00000000000000000000000000000000000000000000000000000000081526004016110e390611c64565b60405180910390fd5b600760009054906101000a900473ffffffffffffffffffffffffffffffffffffffff1673ffffffffffffffffffffffffffffffffffffffff163373ffffffffffffffffffffffffffffffffffffffff160361117c576040517f08c379a000000000000000000000000000000000000000000000000000000000815260040161117390611cd0565b60405180910390fd5b600b5434146111c0576040517f08c379a00000000000000000000000000000000000000000000000000000000081526004016111b790611d3c565b60405180910390fd5b33600860006101000a81548173ffffffffffffffffffffffffffffffffffffffff021916908373ffffffffffffffffffffffffffffffffffffffff16021790555060026000806101000a81548160ff0219169083600581111561122657611225611404565b5b02179055503373ffffffffffffffffffffffffffffffffffffffff167f329f3f0a323b6707cfce03bd3ca41f8b814a00b01c6a417528c8e3ea66422e47600b54604051611273919061138d565b60405180910390a2565b60008054906101000a900460ff1681565b60018060000154908060010154908060020154908060030154908060040154908060050154905086565b600080600060018111156112cf576112ce611404565b5b600060019054906101000a900460ff1660018111156112f1576112f0611404565b5b146112fe57600e54611302565b600d545b90506000600160030154426113179190611d5c565b9050600063b6d1c2008284600160000154611332919061184e565b61133c919061184e565b61134691906118bf565b905080935050505090565b6000600954905090565b600060019054906101000a900460ff1681565b600e5481565b6000819050919050565b61138781611374565b82525050565b60006020820190506113a2600083018461137e565b92915050565b600073ffffffffffffffffffffffffffffffffffffffff82169050919050565b60006113d3826113a8565b9050919050565b6113e3816113c8565b82525050565b60006020820190506113fe60008301846113da565b92915050565b7f4e487b7100000000000000000000000000000000000000000000000000000000600052602160045260246000fd5b6006811061144457611443611404565b5b50565b600081905061145582611433565b919050565b600061146582611447565b9050919050565b6114758161145a565b82525050565b6000602082019050611490600083018461146c565b92915050565b600060c0820190506114ab600083018961137e565b6114b8602083018861137e565b6114c5604083018761137e565b6114d2606083018661137e565b6114df608083018561137e565b6114ec60a083018461137e565b979650505050505050565b6002811061150857611507611404565b5b50565b6000819050611519826114f7565b919050565b60006115298261150b565b9050919050565b6115398161151e565b82525050565b60006020820190506115546000830184611530565b92915050565b600082825260208201905092915050565b7f4c6f616e206973206e6f7420696e2054616b656e207374617465000000000000600082015250565b60006115a1601a8361155a565b91506115ac8261156b565b602082019050919050565b600060208201905081810360008301526115d081611594565b9050919050565b7f52657061796d656e7420646561646c696e6520686173206e6f7420706173736560008201527f6400000000000000000000000000000000000000000000000000000000000000602082015250565b600061163360218361155a565b915061163e826115d7565b604082019050919050565b6000602082019050818103600083015261166281611626565b9050919050565b7f4f6e6c79206c656e6465722063616e206c697175696461746520746865206c6f60008201527f616e000000000000000000000000000000000000000000000000000000000000602082015250565b60006116c560228361155a565b91506116d082611669565b604082019050919050565b600060208201905081810360008301526116f4816116b8565b9050919050565b600080fd5b600069ffffffffffffffffffff82169050919050565b61171f81611700565b811461172a57600080fd5b50565b60008151905061173c81611716565b92915050565b6000819050919050565b61175581611742565b811461176057600080fd5b50565b6000815190506117728161174c565b92915050565b61178181611374565b811461178c57600080fd5b50565b60008151905061179e81611778565b92915050565b600080600080600060a086880312156117c0576117bf6116fb565b5b60006117ce8882890161172d565b95505060206117df88828901611763565b94505060406117f08882890161178f565b93505060606118018882890161178f565b92505060806118128882890161172d565b9150509295509295909350565b7f4e487b7100000000000000000000000000000000000000000000000000000000600052601160045260246000fd5b600061185982611374565b915061186483611374565b925082820261187281611374565b915082820484148315176118895761188861181f565b5b5092915050565b7f4e487b7100000000000000000000000000000000000000000000000000000000600052601260045260246000fd5b60006118ca82611374565b91506118d583611374565b9250826118e5576118e4611890565b5b828204905092915050565b60006118fb82611374565b915061190683611374565b925082820190508082111561191e5761191d61181f565b5b92915050565b7f4f6e6c7920626f72726f7765722063616e20726570617920746865206c6f616e600082015250565b600061195a60208361155a565b915061196582611924565b602082019050919050565b600060208201905081810360008301526119898161194d565b9050919050565b7f496e636f72726563742072657061796d656e7420616d6f756e74000000000000600082015250565b60006119c6601a8361155a565b91506119d182611990565b602082019050919050565b600060208201905081810360008301526119f5816119b9565b9050919050565b7f4c6f616e206973206e6f7420696e204372656174656420737461746500000000600082015250565b6000611a32601c8361155a565b9150611a3d826119fc565b602082019050919050565b60006020820190508181036000830152611a6181611a25565b9050919050565b7f4f6e6c79206c656e6465722063616e2066756e6420746865206c6f616e000000600082015250565b6000611a9e601d8361155a565b9150611aa982611a68565b602082019050919050565b60006020820190508181036000830152611acd81611a91565b9050919050565b7f496e636f7272656374206c6f616e20616d6f756e740000000000000000000000600082015250565b6000611b0a60158361155a565b9150611b1582611ad4565b602082019050919050565b60006020820190508181036000830152611b3981611afd565b9050919050565b7f4c6f616e206973206e6f7420696e206163636570746564207374617465000000600082015250565b6000611b76601d8361155a565b9150611b8182611b40565b602082019050919050565b60006020820190508181036000830152611ba581611b69565b9050919050565b7f4f6e6c7920626f72726f7765722063616e2074616b6520746865206c6f616e00600082015250565b6000611be2601f8361155a565b9150611bed82611bac565b602082019050919050565b60006020820190508181036000830152611c1181611bd5565b9050919050565b7f4c6f616e206973206e6f7420696e2046756e6465642073746174650000000000600082015250565b6000611c4e601b8361155a565b9150611c5982611c18565b602082019050919050565b60006020820190508181036000830152611c7d81611c41565b9050919050565b7f4c656e6465722063616e6e6f742074616b6520746865206c6f616e0000000000600082015250565b6000611cba601b8361155a565b9150611cc582611c84565b602082019050919050565b60006020820190508181036000830152611ce981611cad565b9050919050565b7f496e636f727265637420636f6c6c61746572616c20616d6f756e740000000000600082015250565b6000611d26601b8361155a565b9150611d3182611cf0565b602082019050919050565b60006020820190508181036000830152611d5581611d19565b9050919050565b6000611d6782611374565b9150611d7283611374565b9250828203905081811115611d8a57611d8961181f565b5b9291505056fea264697066735822122045f2021e51f5dedc8a1894b1cc5a426d74f5f623b147cdb6385d778f0fbdbf7164736f6c634300081c0033",
  "linkReferences": {},
  "deployedLinkReferences": {}
}