{
  "_format": "hh-sol-artifact-1",
  "contractName": "LoanRequest",
  "sourceName": "contracts/LoanRequest.sol",
  "abi": [
    {
      "inputs": [
        {
          "internalType": "uint256",
          "name": "_loanAmount",
          "type": "uint256"
        },
        {
          "internalType": "uint256",
          "name": "_feeAmount",
          "type": "uint256"
        },
        {
          "internalType": "uint256",
          "name": "_ethCollateralAmount",
          "type": "uint256"
        },
        {
          "internalType": "uint256",
          "name": "_repayByTimestamp",
          "type": "uint256"
        },
        {
          "internalType": "uint256",
          "name": "_fixedRate",
          "type": "uint256"
        },
        {
          "internalType": "uint256",
          "name": "_floatingRate",
          "type": "uint256"
        },
        {
          "internalType": "address",
          "name": "_oracleAddress",
          "type": "address"
        }
      ],
      "stateMutability": "nonpayable",
      "type": "constructor"
    },
    {
      "anonymous": false,
      "inputs": [
        {
          "indexed": true,
          "internalType": "address",
          "name": "lender",
          "type": "address"
        },
        {
          "indexed": false,
          "internalType": "uint256",
          "name": "loanAmount",
          "type": "uint256"
        }
      ],
      "name": "LoanFunded",
      "type": "event"
    },
    {
      "anonymous": false,
      "inputs": [
        {
          "indexed": true,
          "internalType": "address",
          "name": "borrower",
          "type": "address"
        },
        {
          "indexed": true,
          "internalType": "address",
          "name": "lender",
          "type": "address"
        },
        {
          "indexed": false,
          "internalType": "uint256",
          "name": "collateralAmount",
          "type": "uint256"
        }
      ],
      "name": "LoanLiquidated",
      "type": "event"
    },
    {
      "anonymous": false,
      "inputs": [
        {
          "indexed": true,
          "internalType": "address",
          "name": "borrower",
          "type": "address"
        },
        {
          "indexed": false,
          "internalType": "uint256",
          "name": "repaymentAmount",
          "type": "uint256"
        }
      ],
      "name": "LoanRepaid",
      "type": "event"
    },
    {
      "anonymous": false,
      "inputs": [
        {
          "indexed": true,
          "internalType": "address",
          "name": "borrower",
          "type": "address"
        },
        {
          "indexed": false,
          "internalType": "uint256",
          "name": "loanAmount",
          "type": "uint256"
        }
      ],
      "name": "LoanTaken",
      "type": "event"
    },
    {
      "anonymous": false,
      "inputs": [
        {
          "indexed": true,
          "internalType": "address",
          "name": "borrower",
          "type": "address"
        },
        {
          "indexed": false,
          "internalType": "uint256",
          "name": "collateralAmount",
          "type": "uint256"
        }
      ],
      "name": "LoanTermsAccepted",
      "type": "event"
    },
    {
      "inputs": [],
      "name": "acceptLoanTerms",
      "outputs": [],
      "stateMutability": "payable",
      "type": "function"
    },
    {
      "inputs": [],
      "name": "borrower",
      "outputs": [
        {
          "internalType": "address payable",
          "name": "",
          "type": "address"
        }
      ],
      "stateMutability": "view",
      "type": "function"
    },
    {
      "inputs": [],
      "name": "calculateInterest",
      "outputs": [
        {
          "internalType": "uint256",
          "name": "",
          "type": "uint256"
        }
      ],
      "stateMutability": "view",
      "type": "function"
    },
    {
      "inputs": [],
      "name": "currentRateType",
      "outputs": [
        {
          "internalType": "enum LoanRequest.InterestRateType",
          "name": "",
          "type": "uint8"
        }
      ],
      "stateMutability": "view",
      "type": "function"
    },
    {
      "inputs": [],
      "name": "ethCollateralAmount",
      "outputs": [
        {
          "internalType": "uint256",
          "name": "",
          "type": "uint256"
        }
      ],
      "stateMutability": "view",
      "type": "function"
    },
    {
      "inputs": [],
      "name": "feeAmount",
      "outputs": [
        {
          "internalType": "uint256",
          "name": "",
          "type": "uint256"
        }
      ],
      "stateMutability": "view",
      "type": "function"
    },
    {
      "inputs": [],
      "name": "fixedRate",
      "outputs": [
        {
          "internalType": "uint256",
          "name": "",
          "type": "uint256"
        }
      ],
      "stateMutability": "view",
      "type": "function"
    },
    {
      "inputs": [],
      "name": "floatingRate",
      "outputs": [
        {
          "internalType": "uint256",
          "name": "",
          "type": "uint256"
        }
      ],
      "stateMutability": "view",
      "type": "function"
    },
    {
      "inputs": [],
      "name": "fundLoan",
      "outputs": [],
      "stateMutability": "payable",
      "type": "function"
    },
    {
      "inputs": [],
      "name": "getFixedRate",
      "outputs": [
        {
          "internalType": "uint256",
          "name": "",
          "type": "uint256"
        }
      ],
      "stateMutability": "view",
      "type": "function"
    },
    {
      "inputs": [],
      "name": "getFloatingRate",
      "outputs": [
        {
          "internalType": "uint256",
          "name": "",
          "type": "uint256"
        }
      ],
      "stateMutability": "view",
      "type": "function"
    },
    {
      "inputs": [],
      "name": "lender",
      "outputs": [
        {
          "internalType": "address payable",
          "name": "",
          "type": "address"
        }
      ],
      "stateMutability": "view",
      "type": "function"
    },
    {
      "inputs": [],
      "name": "liquidate",
      "outputs": [],
      "stateMutability": "nonpayable",
      "type": "function"
    },
    {
      "inputs": [],
      "name": "loanAmount",
      "outputs": [
        {
          "internalType": "uint256",
          "name": "",
          "type": "uint256"
        }
      ],
      "stateMutability": "view",
      "type": "function"
    },
    {
      "inputs": [],
      "name": "repay",
      "outputs": [],
      "stateMutability": "payable",
      "type": "function"
    },
    {
      "inputs": [],
      "name": "repayByTimestamp",
      "outputs": [
        {
          "internalType": "uint256",
          "name": "",
          "type": "uint256"
        }
      ],
      "stateMutability": "view",
      "type": "function"
    },
    {
      "inputs": [],
      "name": "state",
      "outputs": [
        {
          "internalType": "enum LoanRequest.LoanState",
          "name": "",
          "type": "uint8"
        }
      ],
      "stateMutability": "view",
      "type": "function"
    },
    {
      "inputs": [],
      "name": "switchRateType",
      "outputs": [],
      "stateMutability": "nonpayable",
      "type": "function"
    },
    {
      "inputs": [],
      "name": "takeALoan",
      "outputs": [],
      "stateMutability": "payable",
      "type": "function"
    },
    {
      "inputs": [],
      "name": "terms",
      "outputs": [
        {
          "internalType": "uint256",
          "name": "loanAmount",
          "type": "uint256"
        },
        {
          "internalType": "uint256",
          "name": "feeAmount",
          "type": "uint256"
        },
        {
          "internalType": "uint256",
          "name": "ethCollateralAmount",
          "type": "uint256"
        },
        {
          "internalType": "uint256",
          "name": "repayByTimestamp",
          "type": "uint256"
        },
        {
          "internalType": "uint256",
          "name": "fixedRate",
          "type": "uint256"
        },
        {
          "internalType": "uint256",
          "name": "floatingRate",
          "type": "uint256"
        }
      ],
      "stateMutability": "view",
      "type": "function"
    },
    {
      "inputs": [],
      "name": "updateFloatingRate",
      "outputs": [],
      "stateMutability": "nonpayable",
      "type": "function"
    }
  ],
  "bytecode": "0x608060405234801561001057600080fd5b50604051612054380380612054833981810160405281019061003291906101d7565b86600a8190555085600b8190555084600c8190555083600d8190555082600e8190555081600f8190555080600060026101000a81548173ffffffffffffffffffffffffffffffffffffffff021916908373ffffffffffffffffffffffffffffffffffffffff16021790555060008060006101000a81548160ff021916908360058111156100c2576100c1610279565b5b021790555060008060016101000a81548160ff021916908360018111156100ec576100eb610279565b5b021790555033600860006101000a81548173ffffffffffffffffffffffffffffffffffffffff021916908373ffffffffffffffffffffffffffffffffffffffff160217905550505050505050506102a8565b600080fd5b6000819050919050565b61015681610143565b811461016157600080fd5b50565b6000815190506101738161014d565b92915050565b600073ffffffffffffffffffffffffffffffffffffffff82169050919050565b60006101a482610179565b9050919050565b6101b481610199565b81146101bf57600080fd5b50565b6000815190506101d1816101ab565b92915050565b600080600080600080600060e0888a0312156101f6576101f561013e565b5b60006102048a828b01610164565b97505060206102158a828b01610164565b96505060406102268a828b01610164565b95505060606102378a828b01610164565b94505060806102488a828b01610164565b93505060a06102598a828b01610164565b92505060c061026a8a828b016101c2565b91505092959891949750929550565b7f4e487b7100000000000000000000000000000000000000000000000000000000600052602160045260246000fd5b611d9d806102b76000396000f3fe60806040526004361061012a5760003560e01c806398a88f2c116100ab578063c19d93fb1161006f578063c19d93fb14610315578063d502562514610340578063eb0c495514610370578063f55133541461039b578063f71dd46c146103c6578063fd3ed168146103f15761012a565b806398a88f2c146102735780639d585f7f1461028a578063ab2078d1146102b5578063bcead63e146102e0578063bf5e67341461030b5761012a565b806374eddc19116100f257806374eddc19146101d15780637df1f1b9146101e8578063802d14221461021357806385dfc5791461023e5780638db57994146102695761012a565b806328a070251461012f578063402d88831461014657806344d0d0c61461015057806369e154041461017b57806373c05178146101a6575b600080fd5b34801561013b57600080fd5b506101446103fb565b005b61014e6106eb565b005b34801561015c57600080fd5b50610165610999565b604051610172919061127a565b60405180910390f35b34801561018757600080fd5b5061019061099f565b60405161019d919061127a565b60405180910390f35b3480156101b257600080fd5b506101bb6109a5565b6040516101c8919061127a565b60405180910390f35b3480156101dd57600080fd5b506101e66109af565b005b3480156101f457600080fd5b506101fd610a95565b60405161020a91906112d6565b60405180910390f35b34801561021f57600080fd5b50610228610abb565b604051610235919061127a565b60405180910390f35b34801561024a57600080fd5b50610253610ac1565b604051610260919061127a565b60405180910390f35b610271610acb565b005b34801561027f57600080fd5b50610288610cd0565b005b34801561029657600080fd5b5061029f610d68565b6040516102ac919061127a565b60405180910390f35b3480156102c157600080fd5b506102ca610d6e565b6040516102d7919061127a565b60405180910390f35b3480156102ec57600080fd5b506102f5610d74565b60405161030291906112d6565b60405180910390f35b610313610d9a565b005b34801561032157600080fd5b5061032a610f9f565b6040516103379190611368565b60405180910390f35b34801561034c57600080fd5b50610355610fb0565b60405161036796959493929190611383565b60405180910390f35b34801561037c57600080fd5b50610385610fda565b604051610392919061127a565b60405180910390f35b3480156103a757600080fd5b506103b061105d565b6040516103bd919061142c565b60405180910390f35b3480156103d257600080fd5b506103db611070565b6040516103e8919061127a565b60405180910390f35b6103f9611076565b005b6003600581111561040f5761040e6112f1565b5b60008054906101000a900460ff16600581111561042f5761042e6112f1565b5b1461046f576040517f08c379a0000000000000000000000000000000000000000000000000000000008152600401610466906114a4565b60405180910390fd5b600d5442116104b3576040517f08c379a00000000000000000000000000000000000000000000000000000000081526004016104aa90611536565b60405180910390fd5b600860009054906101000a900473ffffffffffffffffffffffffffffffffffffffff1673ffffffffffffffffffffffffffffffffffffffff163373ffffffffffffffffffffffffffffffffffffffff1614610543576040517f08c379a000000000000000000000000000000000000000000000000000000000815260040161053a906115c8565b60405180910390fd5b60056000806101000a81548160ff02191690836005811115610568576105676112f1565b5b02179055506000600860009054906101000a900473ffffffffffffffffffffffffffffffffffffffff1673ffffffffffffffffffffffffffffffffffffffff16600c546040516105b790611619565b60006040518083038185875af1925050503d80600081146105f4576040519150601f19603f3d011682016040523d82523d6000602084013e6105f9565b606091505b505090508061063d576040517f08c379a00000000000000000000000000000000000000000000000000000000081526004016106349061167a565b60405180910390fd5b600860009054906101000a900473ffffffffffffffffffffffffffffffffffffffff1673ffffffffffffffffffffffffffffffffffffffff16600960009054906101000a900473ffffffffffffffffffffffffffffffffffffffff1673ffffffffffffffffffffffffffffffffffffffff167fd4bfdcd3d7029abe0d70d4a6f1f560c5eac8d3cd6ecef801c6d3d67a49be6068600c546040516106e0919061127a565b60405180910390a350565b600360058111156106ff576106fe6112f1565b5b60008054906101000a900460ff16600581111561071f5761071e6112f1565b5b1461075f576040517f08c379a0000000000000000000000000000000000000000000000000000000008152600401610756906114a4565b60405180910390fd5b600960009054906101000a900473ffffffffffffffffffffffffffffffffffffffff1673ffffffffffffffffffffffffffffffffffffffff163373ffffffffffffffffffffffffffffffffffffffff16146107ef576040517f08c379a00000000000000000000000000000000000000000000000000000000081526004016107e6906116e6565b60405180910390fd5b60006107f9610fda565b600a546108069190611735565b905080341461084a576040517f08c379a0000000000000000000000000000000000000000000000000000000008152600401610841906117b5565b60405180910390fd5b60046000806101000a81548160ff0219169083600581111561086f5761086e6112f1565b5b0217905550600860009054906101000a900473ffffffffffffffffffffffffffffffffffffffff1673ffffffffffffffffffffffffffffffffffffffff166108fc829081150290604051600060405180830381858888f193505050501580156108dc573d6000803e3d6000fd5b50600960009054906101000a900473ffffffffffffffffffffffffffffffffffffffff1673ffffffffffffffffffffffffffffffffffffffff166108fc600c549081150290604051600060405180830381858888f19350505050158015610947573d6000803e3d6000fd5b503373ffffffffffffffffffffffffffffffffffffffff167fc200a1f31dd659e356e0f112c82558e25f49f7b0f84438691cd96f5cb35588238260405161098e919061127a565b60405180910390a250565b600c5481565b600b5481565b6000600e54905090565b6000600160009054906101000a900473ffffffffffffffffffffffffffffffffffffffff1673ffffffffffffffffffffffffffffffffffffffff1663feaf968c6040518163ffffffff1660e01b815260040160a060405180830381865afa158015610a1e573d6000803e3d6000fd5b505050506040513d601f19601f82011682018060405250810190610a42919061187e565b50505091505060008113610a8b576040517f08c379a0000000000000000000000000000000000000000000000000000000008152600401610a8290611945565b60405180910390fd5b80600f8190555050565b600960009054906101000a900473ffffffffffffffffffffffffffffffffffffffff1681565b600e5481565b6000600f54905090565b60006005811115610adf57610ade6112f1565b5b60008054906101000a900460ff166005811115610aff57610afe6112f1565b5b14610b3f576040517f08c379a0000000000000000000000000000000000000000000000000000000008152600401610b36906119b1565b60405180910390fd5b600860009054906101000a900473ffffffffffffffffffffffffffffffffffffffff1673ffffffffffffffffffffffffffffffffffffffff163373ffffffffffffffffffffffffffffffffffffffff1614610bcf576040517f08c379a0000000000000000000000000000000000000000000000000000000008152600401610bc690611a1d565b60405180910390fd5b600a543414610c13576040517f08c379a0000000000000000000000000000000000000000000000000000000008152600401610c0a90611a89565b60405180910390fd5b33600860006101000a81548173ffffffffffffffffffffffffffffffffffffffff021916908373ffffffffffffffffffffffffffffffffffffffff16021790555060016000806101000a81548160ff02191690836005811115610c7957610c786112f1565b5b02179055503373ffffffffffffffffffffffffffffffffffffffff167f726d5f1a838fe31748f737fa3ae5539ccff95952adfc593a1299532b643ff7a8600a54604051610cc6919061127a565b60405180910390a2565b60006001811115610ce457610ce36112f1565b5b600060019054906101000a900460ff166001811115610d0657610d056112f1565b5b03610d3b576001600060016101000a81548160ff02191690836001811115610d3157610d306112f1565b5b0217905550610d66565b60008060016101000a81548160ff02191690836001811115610d6057610d5f6112f1565b5b02179055505b565b600a5481565b600d5481565b600860009054906101000a900473ffffffffffffffffffffffffffffffffffffffff1681565b60016005811115610dae57610dad6112f1565b5b60008054906101000a900460ff166005811115610dce57610dcd6112f1565b5b14610e0e576040517f08c379a0000000000000000000000000000000000000000000000000000000008152600401610e0590611af5565b60405180910390fd5b600860009054906101000a900473ffffffffffffffffffffffffffffffffffffffff1673ffffffffffffffffffffffffffffffffffffffff163373ffffffffffffffffffffffffffffffffffffffff1603610e9e576040517f08c379a0000000000000000000000000000000000000000000000000000000008152600401610e9590611b61565b60405180910390fd5b600c543414610ee2576040517f08c379a0000000000000000000000000000000000000000000000000000000008152600401610ed990611bcd565b60405180910390fd5b33600960006101000a81548173ffffffffffffffffffffffffffffffffffffffff021916908373ffffffffffffffffffffffffffffffffffffffff16021790555060026000806101000a81548160ff02191690836005811115610f4857610f476112f1565b5b02179055503373ffffffffffffffffffffffffffffffffffffffff167f329f3f0a323b6707cfce03bd3ca41f8b814a00b01c6a417528c8e3ea66422e47600c54604051610f95919061127a565b60405180910390a2565b60008054906101000a900460ff1681565b60028060000154908060010154908060020154908060030154908060040154908060050154905086565b6000806001811115610fef57610fee6112f1565b5b600060019054906101000a900460ff166001811115611011576110106112f1565b5b0361103a57612710600e54600a546110299190611bed565b6110339190611c5e565b905061105a565b612710600f54600a5461104d9190611bed565b6110579190611c5e565b90505b90565b600060019054906101000a900460ff1681565b600f5481565b6002600581111561108a576110896112f1565b5b60008054906101000a900460ff1660058111156110aa576110a96112f1565b5b146110ea576040517f08c379a00000000000000000000000000000000000000000000000000000000081526004016110e190611cdb565b60405180910390fd5b600960009054906101000a900473ffffffffffffffffffffffffffffffffffffffff1673ffffffffffffffffffffffffffffffffffffffff163373ffffffffffffffffffffffffffffffffffffffff161461117a576040517f08c379a000000000000000000000000000000000000000000000000000000000815260040161117190611d47565b60405180910390fd5b60036000806101000a81548160ff0219169083600581111561119f5761119e6112f1565b5b0217905550600960009054906101000a900473ffffffffffffffffffffffffffffffffffffffff1673ffffffffffffffffffffffffffffffffffffffff166108fc600a549081150290604051600060405180830381858888f1935050505015801561120e573d6000803e3d6000fd5b503373ffffffffffffffffffffffffffffffffffffffff167fd5c776eab9418d89c040ffee59f2310d225f5ff682191bcee59b0413a7fd4835600a54604051611257919061127a565b60405180910390a2565b6000819050919050565b61127481611261565b82525050565b600060208201905061128f600083018461126b565b92915050565b600073ffffffffffffffffffffffffffffffffffffffff82169050919050565b60006112c082611295565b9050919050565b6112d0816112b5565b82525050565b60006020820190506112eb60008301846112c7565b92915050565b7f4e487b7100000000000000000000000000000000000000000000000000000000600052602160045260246000fd5b60068110611331576113306112f1565b5b50565b600081905061134282611320565b919050565b600061135282611334565b9050919050565b61136281611347565b82525050565b600060208201905061137d6000830184611359565b92915050565b600060c082019050611398600083018961126b565b6113a5602083018861126b565b6113b2604083018761126b565b6113bf606083018661126b565b6113cc608083018561126b565b6113d960a083018461126b565b979650505050505050565b600281106113f5576113f46112f1565b5b50565b6000819050611406826113e4565b919050565b6000611416826113f8565b9050919050565b6114268161140b565b82525050565b6000602082019050611441600083018461141d565b92915050565b600082825260208201905092915050565b7f4c6f616e206973206e6f7420696e2054616b656e207374617465000000000000600082015250565b600061148e601a83611447565b915061149982611458565b602082019050919050565b600060208201905081810360008301526114bd81611481565b9050919050565b7f52657061796d656e7420646561646c696e6520686173206e6f7420706173736560008201527f6400000000000000000000000000000000000000000000000000000000000000602082015250565b6000611520602183611447565b915061152b826114c4565b604082019050919050565b6000602082019050818103600083015261154f81611513565b9050919050565b7f4f6e6c79206c656e6465722063616e206c697175696461746520746865206c6f60008201527f616e000000000000000000000000000000000000000000000000000000000000602082015250565b60006115b2602283611447565b91506115bd82611556565b604082019050919050565b600060208201905081810360008301526115e1816115a5565b9050919050565b600081905092915050565b50565b60006116036000836115e8565b915061160e826115f3565b600082019050919050565b6000611624826115f6565b9150819050919050565b7f436f6c6c61746572616c207472616e73666572206661696c6564000000000000600082015250565b6000611664601a83611447565b915061166f8261162e565b602082019050919050565b6000602082019050818103600083015261169381611657565b9050919050565b7f4f6e6c7920626f72726f7765722063616e20726570617920746865206c6f616e600082015250565b60006116d0602083611447565b91506116db8261169a565b602082019050919050565b600060208201905081810360008301526116ff816116c3565b9050919050565b7f4e487b7100000000000000000000000000000000000000000000000000000000600052601160045260246000fd5b600061174082611261565b915061174b83611261565b925082820190508082111561176357611762611706565b5b92915050565b7f496e636f72726563742072657061796d656e7420616d6f756e74000000000000600082015250565b600061179f601a83611447565b91506117aa82611769565b602082019050919050565b600060208201905081810360008301526117ce81611792565b9050919050565b600080fd5b600069ffffffffffffffffffff82169050919050565b6117f9816117da565b811461180457600080fd5b50565b600081519050611816816117f0565b92915050565b6000819050919050565b61182f8161181c565b811461183a57600080fd5b50565b60008151905061184c81611826565b92915050565b61185b81611261565b811461186657600080fd5b50565b60008151905061187881611852565b92915050565b600080600080600060a0868803121561189a576118996117d5565b5b60006118a888828901611807565b95505060206118b98882890161183d565b94505060406118ca88828901611869565b93505060606118db88828901611869565b92505060806118ec88828901611807565b9150509295509295909350565b7f496e76616c696420707269636500000000000000000000000000000000000000600082015250565b600061192f600d83611447565b915061193a826118f9565b602082019050919050565b6000602082019050818103600083015261195e81611922565b9050919050565b7f4c6f616e206973206e6f7420696e204372656174656420737461746500000000600082015250565b600061199b601c83611447565b91506119a682611965565b602082019050919050565b600060208201905081810360008301526119ca8161198e565b9050919050565b7f4f6e6c79206c656e6465722063616e2066756e6420746865206c6f616e000000600082015250565b6000611a07601d83611447565b9150611a12826119d1565b602082019050919050565b60006020820190508181036000830152611a36816119fa565b9050919050565b7f496e636f7272656374206c6f616e20616d6f756e740000000000000000000000600082015250565b6000611a73601583611447565b9150611a7e82611a3d565b602082019050919050565b60006020820190508181036000830152611aa281611a66565b9050919050565b7f4c6f616e206973206e6f7420696e2046756e6465642073746174650000000000600082015250565b6000611adf601b83611447565b9150611aea82611aa9565b602082019050919050565b60006020820190508181036000830152611b0e81611ad2565b9050919050565b7f4c656e6465722063616e6e6f742074616b6520746865206c6f616e0000000000600082015250565b6000611b4b601b83611447565b9150611b5682611b15565b602082019050919050565b60006020820190508181036000830152611b7a81611b3e565b9050919050565b7f496e636f727265637420636f6c6c61746572616c20616d6f756e740000000000600082015250565b6000611bb7601b83611447565b9150611bc282611b81565b602082019050919050565b60006020820190508181036000830152611be681611baa565b9050919050565b6000611bf882611261565b9150611c0383611261565b9250828202611c1181611261565b91508282048414831517611c2857611c27611706565b5b5092915050565b7f4e487b7100000000000000000000000000000000000000000000000000000000600052601260045260246000fd5b6000611c6982611261565b9150611c7483611261565b925082611c8457611c83611c2f565b5b828204905092915050565b7f4c6f616e206973206e6f7420696e206163636570746564207374617465000000600082015250565b6000611cc5601d83611447565b9150611cd082611c8f565b602082019050919050565b60006020820190508181036000830152611cf481611cb8565b9050919050565b7f4f6e6c7920626f72726f7765722063616e2074616b6520746865206c6f616e00600082015250565b6000611d31601f83611447565b9150611d3c82611cfb565b602082019050919050565b60006020820190508181036000830152611d6081611d24565b905091905056fea2646970667358221220e45f95532f1a89a23a917a8f4334addcff45b36ddf0d9cbb111087b00d9f63ac64736f6c634300081c0033",
  "linkReferences": {},
  "deployedLinkReferences": {}
}