{
  "_format": "hh-sol-artifact-1",
  "contractName": "LoanRequest",
  "sourceName": "contracts/LoanRequest.sol",
  "abi": [
    {
      "inputs": [
        {
          "internalType": "uint256",
          "name": "_loanAmount",
          "type": "uint256"
        },
        {
          "internalType": "uint256",
          "name": "_feeAmount",
          "type": "uint256"
        },
        {
          "internalType": "uint256",
          "name": "_ethCollateralAmount",
          "type": "uint256"
        },
        {
          "internalType": "uint256",
          "name": "_repayByTimestamp",
          "type": "uint256"
        },
        {
          "internalType": "uint256",
          "name": "_fixedRate",
          "type": "uint256"
        },
        {
          "internalType": "uint256",
          "name": "_floatingRate",
          "type": "uint256"
        },
        {
          "internalType": "address",
          "name": "_oracle",
          "type": "address"
        }
      ],
      "stateMutability": "nonpayable",
      "type": "constructor"
    },
    {
      "anonymous": false,
      "inputs": [
        {
          "indexed": true,
          "internalType": "address",
          "name": "lender",
          "type": "address"
        },
        {
          "indexed": false,
          "internalType": "uint256",
          "name": "loanAmount",
          "type": "uint256"
        }
      ],
      "name": "LoanFunded",
      "type": "event"
    },
    {
      "anonymous": false,
      "inputs": [
        {
          "indexed": true,
          "internalType": "address",
          "name": "borrower",
          "type": "address"
        },
        {
          "indexed": true,
          "internalType": "address",
          "name": "lender",
          "type": "address"
        },
        {
          "indexed": false,
          "internalType": "uint256",
          "name": "collateralAmount",
          "type": "uint256"
        }
      ],
      "name": "LoanLiquidated",
      "type": "event"
    },
    {
      "anonymous": false,
      "inputs": [
        {
          "indexed": true,
          "internalType": "address",
          "name": "borrower",
          "type": "address"
        },
        {
          "indexed": false,
          "internalType": "uint256",
          "name": "repaymentAmount",
          "type": "uint256"
        }
      ],
      "name": "LoanRepaid",
      "type": "event"
    },
    {
      "anonymous": false,
      "inputs": [
        {
          "indexed": true,
          "internalType": "address",
          "name": "borrower",
          "type": "address"
        },
        {
          "indexed": false,
          "internalType": "uint256",
          "name": "loanAmount",
          "type": "uint256"
        }
      ],
      "name": "LoanTaken",
      "type": "event"
    },
    {
      "anonymous": false,
      "inputs": [
        {
          "indexed": true,
          "internalType": "address",
          "name": "borrower",
          "type": "address"
        },
        {
          "indexed": false,
          "internalType": "uint256",
          "name": "collateralAmount",
          "type": "uint256"
        }
      ],
      "name": "LoanTermsAccepted",
      "type": "event"
    },
    {
      "inputs": [],
      "name": "acceptLoanTerms",
      "outputs": [],
      "stateMutability": "payable",
      "type": "function"
    },
    {
      "inputs": [],
      "name": "borrower",
      "outputs": [
        {
          "internalType": "address payable",
          "name": "",
          "type": "address"
        }
      ],
      "stateMutability": "view",
      "type": "function"
    },
    {
      "inputs": [],
      "name": "calculateInterest",
      "outputs": [],
      "stateMutability": "nonpayable",
      "type": "function"
    },
    {
      "inputs": [],
      "name": "currentRateType",
      "outputs": [
        {
          "internalType": "enum LoanRequest.InterestRateType",
          "name": "",
          "type": "uint8"
        }
      ],
      "stateMutability": "view",
      "type": "function"
    },
    {
      "inputs": [],
      "name": "ethCollateralAmount",
      "outputs": [
        {
          "internalType": "uint256",
          "name": "",
          "type": "uint256"
        }
      ],
      "stateMutability": "view",
      "type": "function"
    },
    {
      "inputs": [],
      "name": "feeAmount",
      "outputs": [
        {
          "internalType": "uint256",
          "name": "",
          "type": "uint256"
        }
      ],
      "stateMutability": "view",
      "type": "function"
    },
    {
      "inputs": [],
      "name": "fixedRate",
      "outputs": [
        {
          "internalType": "uint256",
          "name": "",
          "type": "uint256"
        }
      ],
      "stateMutability": "view",
      "type": "function"
    },
    {
      "inputs": [],
      "name": "floatingRate",
      "outputs": [
        {
          "internalType": "uint256",
          "name": "",
          "type": "uint256"
        }
      ],
      "stateMutability": "view",
      "type": "function"
    },
    {
      "inputs": [],
      "name": "fundLoan",
      "outputs": [],
      "stateMutability": "payable",
      "type": "function"
    },
    {
      "inputs": [],
      "name": "getEthCollateralAmount",
      "outputs": [
        {
          "internalType": "uint256",
          "name": "",
          "type": "uint256"
        }
      ],
      "stateMutability": "view",
      "type": "function"
    },
    {
      "inputs": [],
      "name": "getFeeAmount",
      "outputs": [
        {
          "internalType": "uint256",
          "name": "",
          "type": "uint256"
        }
      ],
      "stateMutability": "view",
      "type": "function"
    },
    {
      "inputs": [],
      "name": "getFixedRate",
      "outputs": [
        {
          "internalType": "uint256",
          "name": "",
          "type": "uint256"
        }
      ],
      "stateMutability": "view",
      "type": "function"
    },
    {
      "inputs": [],
      "name": "getFloatingRate",
      "outputs": [
        {
          "internalType": "uint256",
          "name": "",
          "type": "uint256"
        }
      ],
      "stateMutability": "view",
      "type": "function"
    },
    {
      "inputs": [],
      "name": "getInterest",
      "outputs": [
        {
          "internalType": "uint256",
          "name": "",
          "type": "uint256"
        }
      ],
      "stateMutability": "view",
      "type": "function"
    },
    {
      "inputs": [],
      "name": "getLoanAmount",
      "outputs": [
        {
          "internalType": "uint256",
          "name": "",
          "type": "uint256"
        }
      ],
      "stateMutability": "view",
      "type": "function"
    },
    {
      "inputs": [],
      "name": "getLoanState",
      "outputs": [
        {
          "internalType": "enum LoanRequest.LoanState",
          "name": "",
          "type": "uint8"
        }
      ],
      "stateMutability": "view",
      "type": "function"
    },
    {
      "inputs": [],
      "name": "getRepayByTimestamp",
      "outputs": [
        {
          "internalType": "uint256",
          "name": "",
          "type": "uint256"
        }
      ],
      "stateMutability": "view",
      "type": "function"
    },
    {
      "inputs": [],
      "name": "interest",
      "outputs": [
        {
          "internalType": "uint256",
          "name": "",
          "type": "uint256"
        }
      ],
      "stateMutability": "view",
      "type": "function"
    },
    {
      "inputs": [],
      "name": "lender",
      "outputs": [
        {
          "internalType": "address payable",
          "name": "",
          "type": "address"
        }
      ],
      "stateMutability": "view",
      "type": "function"
    },
    {
      "inputs": [],
      "name": "liquidate",
      "outputs": [],
      "stateMutability": "nonpayable",
      "type": "function"
    },
    {
      "inputs": [],
      "name": "loanAmount",
      "outputs": [
        {
          "internalType": "uint256",
          "name": "",
          "type": "uint256"
        }
      ],
      "stateMutability": "view",
      "type": "function"
    },
    {
      "inputs": [],
      "name": "loanTakenTimestamp",
      "outputs": [
        {
          "internalType": "uint256",
          "name": "",
          "type": "uint256"
        }
      ],
      "stateMutability": "view",
      "type": "function"
    },
    {
      "inputs": [],
      "name": "repay",
      "outputs": [],
      "stateMutability": "payable",
      "type": "function"
    },
    {
      "inputs": [],
      "name": "repayByTimestamp",
      "outputs": [
        {
          "internalType": "uint256",
          "name": "",
          "type": "uint256"
        }
      ],
      "stateMutability": "view",
      "type": "function"
    },
    {
      "inputs": [],
      "name": "state",
      "outputs": [
        {
          "internalType": "enum LoanRequest.LoanState",
          "name": "",
          "type": "uint8"
        }
      ],
      "stateMutability": "view",
      "type": "function"
    },
    {
      "inputs": [],
      "name": "switchRateType",
      "outputs": [],
      "stateMutability": "nonpayable",
      "type": "function"
    },
    {
      "inputs": [],
      "name": "takeLoan",
      "outputs": [],
      "stateMutability": "payable",
      "type": "function"
    },
    {
      "inputs": [],
      "name": "terms",
      "outputs": [
        {
          "internalType": "uint256",
          "name": "loanAmount",
          "type": "uint256"
        },
        {
          "internalType": "uint256",
          "name": "feeAmount",
          "type": "uint256"
        },
        {
          "internalType": "uint256",
          "name": "ethCollateralAmount",
          "type": "uint256"
        },
        {
          "internalType": "uint256",
          "name": "repayByTimestamp",
          "type": "uint256"
        },
        {
          "internalType": "uint256",
          "name": "fixedRate",
          "type": "uint256"
        },
        {
          "internalType": "uint256",
          "name": "floatingRate",
          "type": "uint256"
        }
      ],
      "stateMutability": "view",
      "type": "function"
    },
    {
      "inputs": [],
      "name": "updateRates",
      "outputs": [],
      "stateMutability": "nonpayable",
      "type": "function"
    }
  ],
  "bytecode": "0x608060405234801561001057600080fd5b506040516121b43803806121b4833981810160405281019061003291906101d8565b86600b8190555085600c8190555084600d8190555083600e8190555082600f819055508160108190555080600260016101000a81548173ffffffffffffffffffffffffffffffffffffffff021916908373ffffffffffffffffffffffffffffffffffffffff16021790555060008060006101000a81548160ff021916908360058111156100c2576100c161027a565b5b02179055506000600260006101000a81548160ff021916908360018111156100ed576100ec61027a565b5b021790555033600960006101000a81548173ffffffffffffffffffffffffffffffffffffffff021916908373ffffffffffffffffffffffffffffffffffffffff160217905550505050505050506102a9565b600080fd5b6000819050919050565b61015781610144565b811461016257600080fd5b50565b6000815190506101748161014e565b92915050565b600073ffffffffffffffffffffffffffffffffffffffff82169050919050565b60006101a58261017a565b9050919050565b6101b58161019a565b81146101c057600080fd5b50565b6000815190506101d2816101ac565b92915050565b600080600080600080600060e0888a0312156101f7576101f661013f565b5b60006102058a828b01610165565b97505060206102168a828b01610165565b96505060406102278a828b01610165565b95505060606102388a828b01610165565b94505060806102498a828b01610165565b93505060a061025a8a828b01610165565b92505060c061026b8a828b016101c3565b91505092959891949750929550565b7f4e487b7100000000000000000000000000000000000000000000000000000000600052602160045260246000fd5b611efc806102b86000396000f3fe6080604052600436106101c25760003560e01c80639d585f7f116100f7578063c19d93fb11610095578063eb0c495511610064578063eb0c49551461053f578063f4b01b1814610556578063f551335414610581578063f71dd46c146105ac576101c2565b8063c19d93fb1461048e578063c392f766146104b9578063d5025625146104e4578063e5a4bed314610514576101c2565b8063b1138885116100d1578063b113888514610403578063bcead63e1461042e578063bf5c982214610459578063bf5e673414610484576101c2565b80639d585f7f146103825780639e9f669c146103ad578063ab2078d1146103d8576101c2565b80637df1f1b91161016457806387b8f9eb1161013e57806387b8f9eb1461032c5780638db579941461035757806398a88f2c1461036157806398e05a4914610378576101c2565b80637df1f1b9146102ab578063802d1422146102d657806385dfc57914610301576101c2565b806340963da0116101a057806340963da0146101ff57806344d0d0c61461022a57806369e154041461025557806373c0517814610280576101c2565b806328a07025146101c75780633c3821f4146101de578063402d8883146101f5575b600080fd5b3480156101d357600080fd5b506101dc6105d7565b005b3480156101ea57600080fd5b506101f3610861565b005b6101fd61093f565b005b34801561020b57600080fd5b50610214610bed565b60405161022191906114c3565b60405180910390f35b34801561023657600080fd5b5061023f610bf7565b60405161024c91906114c3565b60405180910390f35b34801561026157600080fd5b5061026a610bfd565b60405161027791906114c3565b60405180910390f35b34801561028c57600080fd5b50610295610c03565b6040516102a291906114c3565b60405180910390f35b3480156102b757600080fd5b506102c0610c0d565b6040516102cd919061151f565b60405180910390f35b3480156102e257600080fd5b506102eb610c33565b6040516102f891906114c3565b60405180910390f35b34801561030d57600080fd5b50610316610c39565b60405161032391906114c3565b60405180910390f35b34801561033857600080fd5b50610341610c43565b60405161034e91906114c3565b60405180910390f35b61035f610c49565b005b34801561036d57600080fd5b50610376610e4e565b005b610380610ee7565b005b34801561038e57600080fd5b506103976110d9565b6040516103a491906114c3565b60405180910390f35b3480156103b957600080fd5b506103c26110df565b6040516103cf91906115b1565b60405180910390f35b3480156103e457600080fd5b506103ed6110f5565b6040516103fa91906114c3565b60405180910390f35b34801561040f57600080fd5b506104186110fb565b60405161042591906114c3565b60405180910390f35b34801561043a57600080fd5b50610443611105565b604051610450919061151f565b60405180910390f35b34801561046557600080fd5b5061046e61112b565b60405161047b91906114c3565b60405180910390f35b61048c611135565b005b34801561049a57600080fd5b506104a361133a565b6040516104b091906115b1565b60405180910390f35b3480156104c557600080fd5b506104ce61134b565b6040516104db91906114c3565b60405180910390f35b3480156104f057600080fd5b506104f9611351565b60405161050b969594939291906115cc565b60405180910390f35b34801561052057600080fd5b5061052961137b565b60405161053691906114c3565b60405180910390f35b34801561054b57600080fd5b50610554611385565b005b34801561056257600080fd5b5061056b611487565b60405161057891906114c3565b60405180910390f35b34801561058d57600080fd5b50610596611491565b6040516105a39190611675565b60405180910390f35b3480156105b857600080fd5b506105c16114a4565b6040516105ce91906114c3565b60405180910390f35b600360058111156105eb576105ea61153a565b5b60008054906101000a900460ff16600581111561060b5761060a61153a565b5b1461064b576040517f08c379a0000000000000000000000000000000000000000000000000000000008152600401610642906116ed565b60405180910390fd5b600e54421161068f576040517f08c379a00000000000000000000000000000000000000000000000000000000081526004016106869061177f565b60405180910390fd5b600960009054906101000a900473ffffffffffffffffffffffffffffffffffffffff1673ffffffffffffffffffffffffffffffffffffffff163373ffffffffffffffffffffffffffffffffffffffff161461071f576040517f08c379a000000000000000000000000000000000000000000000000000000000815260040161071690611811565b60405180910390fd5b60056000806101000a81548160ff021916908360058111156107445761074361153a565b5b0217905550600960009054906101000a900473ffffffffffffffffffffffffffffffffffffffff1673ffffffffffffffffffffffffffffffffffffffff166108fc600d549081150290604051600060405180830381858888f193505050501580156107b3573d6000803e3d6000fd5b50600960009054906101000a900473ffffffffffffffffffffffffffffffffffffffff1673ffffffffffffffffffffffffffffffffffffffff16600a60009054906101000a900473ffffffffffffffffffffffffffffffffffffffff1673ffffffffffffffffffffffffffffffffffffffff167fd4bfdcd3d7029abe0d70d4a6f1f560c5eac8d3cd6ecef801c6d3d67a49be6068600d5460405161085791906114c3565b60405180910390a3565b6000600260019054906101000a900473ffffffffffffffffffffffffffffffffffffffff1673ffffffffffffffffffffffffffffffffffffffff1663feaf968c6040518163ffffffff1660e01b815260040160a060405180830381865afa1580156108d0573d6000803e3d6000fd5b505050506040513d601f19601f820116820180604052508101906108f491906118da565b5050509150506000620f424060648361090d9190611984565b61091791906119f5565b905080601081905550600060019050806010546109349190611a26565b600f81905550505050565b600360058111156109535761095261153a565b5b60008054906101000a900460ff1660058111156109735761097261153a565b5b146109b3576040517f08c379a00000000000000000000000000000000000000000000000000000000081526004016109aa906116ed565b60405180910390fd5b600a60009054906101000a900473ffffffffffffffffffffffffffffffffffffffff1673ffffffffffffffffffffffffffffffffffffffff163373ffffffffffffffffffffffffffffffffffffffff1614610a43576040517f08c379a0000000000000000000000000000000000000000000000000000000008152600401610a3a90611aa6565b60405180910390fd5b6000610a4d61137b565b600b54610a5a9190611a26565b9050803414610a9e576040517f08c379a0000000000000000000000000000000000000000000000000000000008152600401610a9590611b12565b60405180910390fd5b60046000806101000a81548160ff02191690836005811115610ac357610ac261153a565b5b0217905550600960009054906101000a900473ffffffffffffffffffffffffffffffffffffffff1673ffffffffffffffffffffffffffffffffffffffff166108fc829081150290604051600060405180830381858888f19350505050158015610b30573d6000803e3d6000fd5b50600a60009054906101000a900473ffffffffffffffffffffffffffffffffffffffff1673ffffffffffffffffffffffffffffffffffffffff166108fc600d549081150290604051600060405180830381858888f19350505050158015610b9b573d6000803e3d6000fd5b503373ffffffffffffffffffffffffffffffffffffffff167fc200a1f31dd659e356e0f112c82558e25f49f7b0f84438691cd96f5cb355882382604051610be291906114c3565b60405180910390a250565b6000600e54905090565b600d5481565b600c5481565b6000600f54905090565b600a60009054906101000a900473ffffffffffffffffffffffffffffffffffffffff1681565b600f5481565b6000601054905090565b60115481565b60006005811115610c5d57610c5c61153a565b5b60008054906101000a900460ff166005811115610c7d57610c7c61153a565b5b14610cbd576040517f08c379a0000000000000000000000000000000000000000000000000000000008152600401610cb490611b7e565b60405180910390fd5b600960009054906101000a900473ffffffffffffffffffffffffffffffffffffffff1673ffffffffffffffffffffffffffffffffffffffff163373ffffffffffffffffffffffffffffffffffffffff1614610d4d576040517f08c379a0000000000000000000000000000000000000000000000000000000008152600401610d4490611bea565b60405180910390fd5b600b543414610d91576040517f08c379a0000000000000000000000000000000000000000000000000000000008152600401610d8890611c56565b60405180910390fd5b33600960006101000a81548173ffffffffffffffffffffffffffffffffffffffff021916908373ffffffffffffffffffffffffffffffffffffffff16021790555060016000806101000a81548160ff02191690836005811115610df757610df661153a565b5b02179055503373ffffffffffffffffffffffffffffffffffffffff167f726d5f1a838fe31748f737fa3ae5539ccff95952adfc593a1299532b643ff7a8600b54604051610e4491906114c3565b60405180910390a2565b60006001811115610e6257610e6161153a565b5b600260009054906101000a900460ff166001811115610e8457610e8361153a565b5b03610eb9576001600260006101000a81548160ff02191690836001811115610eaf57610eae61153a565b5b0217905550610ee5565b6000600260006101000a81548160ff02191690836001811115610edf57610ede61153a565b5b02179055505b565b60026005811115610efb57610efa61153a565b5b60008054906101000a900460ff166005811115610f1b57610f1a61153a565b5b14610f5b576040517f08c379a0000000000000000000000000000000000000000000000000000000008152600401610f5290611cc2565b60405180910390fd5b600a60009054906101000a900473ffffffffffffffffffffffffffffffffffffffff1673ffffffffffffffffffffffffffffffffffffffff163373ffffffffffffffffffffffffffffffffffffffff1614610feb576040517f08c379a0000000000000000000000000000000000000000000000000000000008152600401610fe290611d2e565b60405180910390fd5b60036000806101000a81548160ff021916908360058111156110105761100f61153a565b5b021790555042601181905550600a60009054906101000a900473ffffffffffffffffffffffffffffffffffffffff1673ffffffffffffffffffffffffffffffffffffffff166108fc600b549081150290604051600060405180830381858888f19350505050158015611086573d6000803e3d6000fd5b503373ffffffffffffffffffffffffffffffffffffffff167fd5c776eab9418d89c040ffee59f2310d225f5ff682191bcee59b0413a7fd4835600b546040516110cf91906114c3565b60405180910390a2565b600b5481565b60008060009054906101000a900460ff16905090565b600e5481565b6000600d54905090565b600960009054906101000a900473ffffffffffffffffffffffffffffffffffffffff1681565b6000600c54905090565b600160058111156111495761114861153a565b5b60008054906101000a900460ff1660058111156111695761116861153a565b5b146111a9576040517f08c379a00000000000000000000000000000000000000000000000000000000081526004016111a090611d9a565b60405180910390fd5b600960009054906101000a900473ffffffffffffffffffffffffffffffffffffffff1673ffffffffffffffffffffffffffffffffffffffff163373ffffffffffffffffffffffffffffffffffffffff1603611239576040517f08c379a000000000000000000000000000000000000000000000000000000000815260040161123090611e06565b60405180910390fd5b600d54341461127d576040517f08c379a000000000000000000000000000000000000000000000000000000000815260040161127490611e72565b60405180910390fd5b33600a60006101000a81548173ffffffffffffffffffffffffffffffffffffffff021916908373ffffffffffffffffffffffffffffffffffffffff16021790555060026000806101000a81548160ff021916908360058111156112e3576112e261153a565b5b02179055503373ffffffffffffffffffffffffffffffffffffffff167f329f3f0a323b6707cfce03bd3ca41f8b814a00b01c6a417528c8e3ea66422e47600d5460405161133091906114c3565b60405180910390a2565b60008054906101000a900460ff1681565b60015481565b60038060000154908060010154908060020154908060030154908060040154908060050154905086565b6000600154905090565b600360058111156113995761139861153a565b5b60008054906101000a900460ff1660058111156113b9576113b861153a565b5b146113f9576040517f08c379a00000000000000000000000000000000000000000000000000000000081526004016113f0906116ed565b60405180910390fd5b600080600181111561140e5761140d61153a565b5b600260009054906101000a900460ff1660018111156114305761142f61153a565b5b1461143d57601054611441565b600f545b90506000601154426114539190611e92565b905063bbf81e008183600b546114699190611984565b6114739190611984565b61147d91906119f5565b6001819055505050565b6000600b54905090565b600260009054906101000a900460ff1681565b60105481565b6000819050919050565b6114bd816114aa565b82525050565b60006020820190506114d860008301846114b4565b92915050565b600073ffffffffffffffffffffffffffffffffffffffff82169050919050565b6000611509826114de565b9050919050565b611519816114fe565b82525050565b60006020820190506115346000830184611510565b92915050565b7f4e487b7100000000000000000000000000000000000000000000000000000000600052602160045260246000fd5b6006811061157a5761157961153a565b5b50565b600081905061158b82611569565b919050565b600061159b8261157d565b9050919050565b6115ab81611590565b82525050565b60006020820190506115c660008301846115a2565b92915050565b600060c0820190506115e160008301896114b4565b6115ee60208301886114b4565b6115fb60408301876114b4565b61160860608301866114b4565b61161560808301856114b4565b61162260a08301846114b4565b979650505050505050565b6002811061163e5761163d61153a565b5b50565b600081905061164f8261162d565b919050565b600061165f82611641565b9050919050565b61166f81611654565b82525050565b600060208201905061168a6000830184611666565b92915050565b600082825260208201905092915050565b7f4c6f616e206973206e6f7420696e2054616b656e207374617465000000000000600082015250565b60006116d7601a83611690565b91506116e2826116a1565b602082019050919050565b60006020820190508181036000830152611706816116ca565b9050919050565b7f52657061796d656e7420646561646c696e6520686173206e6f7420706173736560008201527f6400000000000000000000000000000000000000000000000000000000000000602082015250565b6000611769602183611690565b91506117748261170d565b604082019050919050565b600060208201905081810360008301526117988161175c565b9050919050565b7f4f6e6c79206c656e6465722063616e206c697175696461746520746865206c6f60008201527f616e000000000000000000000000000000000000000000000000000000000000602082015250565b60006117fb602283611690565b91506118068261179f565b604082019050919050565b6000602082019050818103600083015261182a816117ee565b9050919050565b600080fd5b600069ffffffffffffffffffff82169050919050565b61185581611836565b811461186057600080fd5b50565b6000815190506118728161184c565b92915050565b6000819050919050565b61188b81611878565b811461189657600080fd5b50565b6000815190506118a881611882565b92915050565b6118b7816114aa565b81146118c257600080fd5b50565b6000815190506118d4816118ae565b92915050565b600080600080600060a086880312156118f6576118f5611831565b5b600061190488828901611863565b955050602061191588828901611899565b9450506040611926888289016118c5565b9350506060611937888289016118c5565b925050608061194888828901611863565b9150509295509295909350565b7f4e487b7100000000000000000000000000000000000000000000000000000000600052601160045260246000fd5b600061198f826114aa565b915061199a836114aa565b92508282026119a8816114aa565b915082820484148315176119bf576119be611955565b5b5092915050565b7f4e487b7100000000000000000000000000000000000000000000000000000000600052601260045260246000fd5b6000611a00826114aa565b9150611a0b836114aa565b925082611a1b57611a1a6119c6565b5b828204905092915050565b6000611a31826114aa565b9150611a3c836114aa565b9250828201905080821115611a5457611a53611955565b5b92915050565b7f4f6e6c7920626f72726f7765722063616e20726570617920746865206c6f616e600082015250565b6000611a90602083611690565b9150611a9b82611a5a565b602082019050919050565b60006020820190508181036000830152611abf81611a83565b9050919050565b7f496e636f72726563742072657061796d656e7420616d6f756e74000000000000600082015250565b6000611afc601a83611690565b9150611b0782611ac6565b602082019050919050565b60006020820190508181036000830152611b2b81611aef565b9050919050565b7f4c6f616e206973206e6f7420696e204372656174656420737461746500000000600082015250565b6000611b68601c83611690565b9150611b7382611b32565b602082019050919050565b60006020820190508181036000830152611b9781611b5b565b9050919050565b7f4f6e6c79206c656e6465722063616e2066756e6420746865206c6f616e000000600082015250565b6000611bd4601d83611690565b9150611bdf82611b9e565b602082019050919050565b60006020820190508181036000830152611c0381611bc7565b9050919050565b7f496e636f7272656374206c6f616e20616d6f756e740000000000000000000000600082015250565b6000611c40601583611690565b9150611c4b82611c0a565b602082019050919050565b60006020820190508181036000830152611c6f81611c33565b9050919050565b7f4c6f616e206973206e6f7420696e206163636570746564207374617465000000600082015250565b6000611cac601d83611690565b9150611cb782611c76565b602082019050919050565b60006020820190508181036000830152611cdb81611c9f565b9050919050565b7f4f6e6c7920626f72726f7765722063616e2074616b6520746865206c6f616e00600082015250565b6000611d18601f83611690565b9150611d2382611ce2565b602082019050919050565b60006020820190508181036000830152611d4781611d0b565b9050919050565b7f4c6f616e206973206e6f7420696e2046756e6465642073746174650000000000600082015250565b6000611d84601b83611690565b9150611d8f82611d4e565b602082019050919050565b60006020820190508181036000830152611db381611d77565b9050919050565b7f4c656e6465722063616e6e6f742074616b6520746865206c6f616e0000000000600082015250565b6000611df0601b83611690565b9150611dfb82611dba565b602082019050919050565b60006020820190508181036000830152611e1f81611de3565b9050919050565b7f496e636f727265637420636f6c6c61746572616c20616d6f756e740000000000600082015250565b6000611e5c601b83611690565b9150611e6782611e26565b602082019050919050565b60006020820190508181036000830152611e8b81611e4f565b9050919050565b6000611e9d826114aa565b9150611ea8836114aa565b9250828203905081811115611ec057611ebf611955565b5b9291505056fea26469706673582212202b21ae42b857512c8540c108df53fe7dd97fe9bf5348f818ed25cd9b92a305f964736f6c634300081c0033",
  "linkReferences": {},
  "deployedLinkReferences": {}
}