{
  "_format": "hh-sol-artifact-1",
  "contractName": "LoanRequest",
  "sourceName": "contracts/LoanRequest.sol",
  "abi": [
    {
      "inputs": [
        {
          "internalType": "uint256",
          "name": "_loanAmount",
          "type": "uint256"
        },
        {
          "internalType": "uint256",
          "name": "_feeAmount",
          "type": "uint256"
        },
        {
          "internalType": "uint256",
          "name": "_ethCollateralAmount",
          "type": "uint256"
        },
        {
          "internalType": "uint256",
          "name": "_repayByTimestamp",
          "type": "uint256"
        },
        {
          "internalType": "uint256",
          "name": "_fixedRate",
          "type": "uint256"
        },
        {
          "internalType": "uint256",
          "name": "_floatingRate",
          "type": "uint256"
        },
        {
          "internalType": "address",
          "name": "_oracle",
          "type": "address"
        }
      ],
      "stateMutability": "nonpayable",
      "type": "constructor"
    },
    {
      "anonymous": false,
      "inputs": [
        {
          "indexed": true,
          "internalType": "address",
          "name": "lender",
          "type": "address"
        },
        {
          "indexed": false,
          "internalType": "uint256",
          "name": "loanAmount",
          "type": "uint256"
        }
      ],
      "name": "LoanFunded",
      "type": "event"
    },
    {
      "anonymous": false,
      "inputs": [
        {
          "indexed": true,
          "internalType": "address",
          "name": "borrower",
          "type": "address"
        },
        {
          "indexed": true,
          "internalType": "address",
          "name": "lender",
          "type": "address"
        },
        {
          "indexed": false,
          "internalType": "uint256",
          "name": "collateralAmount",
          "type": "uint256"
        }
      ],
      "name": "LoanLiquidated",
      "type": "event"
    },
    {
      "anonymous": false,
      "inputs": [
        {
          "indexed": true,
          "internalType": "address",
          "name": "borrower",
          "type": "address"
        },
        {
          "indexed": false,
          "internalType": "uint256",
          "name": "repaymentAmount",
          "type": "uint256"
        }
      ],
      "name": "LoanRepaid",
      "type": "event"
    },
    {
      "anonymous": false,
      "inputs": [
        {
          "indexed": true,
          "internalType": "address",
          "name": "borrower",
          "type": "address"
        },
        {
          "indexed": false,
          "internalType": "uint256",
          "name": "loanAmount",
          "type": "uint256"
        }
      ],
      "name": "LoanTaken",
      "type": "event"
    },
    {
      "anonymous": false,
      "inputs": [
        {
          "indexed": true,
          "internalType": "address",
          "name": "borrower",
          "type": "address"
        },
        {
          "indexed": false,
          "internalType": "uint256",
          "name": "collateralAmount",
          "type": "uint256"
        }
      ],
      "name": "LoanTermsAccepted",
      "type": "event"
    },
    {
      "inputs": [],
      "name": "acceptLoanTerms",
      "outputs": [],
      "stateMutability": "payable",
      "type": "function"
    },
    {
      "inputs": [],
      "name": "borrower",
      "outputs": [
        {
          "internalType": "address payable",
          "name": "",
          "type": "address"
        }
      ],
      "stateMutability": "view",
      "type": "function"
    },
    {
      "inputs": [],
      "name": "calculateInterest",
      "outputs": [
        {
          "internalType": "uint256",
          "name": "",
          "type": "uint256"
        }
      ],
      "stateMutability": "view",
      "type": "function"
    },
    {
      "inputs": [],
      "name": "currentRateType",
      "outputs": [
        {
          "internalType": "enum LoanRequest.InterestRateType",
          "name": "",
          "type": "uint8"
        }
      ],
      "stateMutability": "view",
      "type": "function"
    },
    {
      "inputs": [],
      "name": "ethCollateralAmount",
      "outputs": [
        {
          "internalType": "uint256",
          "name": "",
          "type": "uint256"
        }
      ],
      "stateMutability": "view",
      "type": "function"
    },
    {
      "inputs": [],
      "name": "feeAmount",
      "outputs": [
        {
          "internalType": "uint256",
          "name": "",
          "type": "uint256"
        }
      ],
      "stateMutability": "view",
      "type": "function"
    },
    {
      "inputs": [],
      "name": "fixedRate",
      "outputs": [
        {
          "internalType": "uint256",
          "name": "",
          "type": "uint256"
        }
      ],
      "stateMutability": "view",
      "type": "function"
    },
    {
      "inputs": [],
      "name": "floatingRate",
      "outputs": [
        {
          "internalType": "uint256",
          "name": "",
          "type": "uint256"
        }
      ],
      "stateMutability": "view",
      "type": "function"
    },
    {
      "inputs": [],
      "name": "fundLoan",
      "outputs": [],
      "stateMutability": "payable",
      "type": "function"
    },
    {
      "inputs": [],
      "name": "getFixedRate",
      "outputs": [
        {
          "internalType": "uint256",
          "name": "",
          "type": "uint256"
        }
      ],
      "stateMutability": "view",
      "type": "function"
    },
    {
      "inputs": [],
      "name": "getFloatingRate",
      "outputs": [
        {
          "internalType": "uint256",
          "name": "",
          "type": "uint256"
        }
      ],
      "stateMutability": "view",
      "type": "function"
    },
    {
      "inputs": [],
      "name": "getLoanState",
      "outputs": [
        {
          "internalType": "enum LoanRequest.LoanState",
          "name": "",
          "type": "uint8"
        }
      ],
      "stateMutability": "view",
      "type": "function"
    },
    {
      "inputs": [],
      "name": "lender",
      "outputs": [
        {
          "internalType": "address payable",
          "name": "",
          "type": "address"
        }
      ],
      "stateMutability": "view",
      "type": "function"
    },
    {
      "inputs": [],
      "name": "liquidate",
      "outputs": [],
      "stateMutability": "nonpayable",
      "type": "function"
    },
    {
      "inputs": [],
      "name": "loanAmount",
      "outputs": [
        {
          "internalType": "uint256",
          "name": "",
          "type": "uint256"
        }
      ],
      "stateMutability": "view",
      "type": "function"
    },
    {
      "inputs": [],
      "name": "repay",
      "outputs": [],
      "stateMutability": "payable",
      "type": "function"
    },
    {
      "inputs": [],
      "name": "repayByTimestamp",
      "outputs": [
        {
          "internalType": "uint256",
          "name": "",
          "type": "uint256"
        }
      ],
      "stateMutability": "view",
      "type": "function"
    },
    {
      "inputs": [],
      "name": "state",
      "outputs": [
        {
          "internalType": "enum LoanRequest.LoanState",
          "name": "",
          "type": "uint8"
        }
      ],
      "stateMutability": "view",
      "type": "function"
    },
    {
      "inputs": [],
      "name": "switchRateType",
      "outputs": [],
      "stateMutability": "nonpayable",
      "type": "function"
    },
    {
      "inputs": [],
      "name": "takeLoan",
      "outputs": [],
      "stateMutability": "payable",
      "type": "function"
    },
    {
      "inputs": [],
      "name": "terms",
      "outputs": [
        {
          "internalType": "uint256",
          "name": "loanAmount",
          "type": "uint256"
        },
        {
          "internalType": "uint256",
          "name": "feeAmount",
          "type": "uint256"
        },
        {
          "internalType": "uint256",
          "name": "ethCollateralAmount",
          "type": "uint256"
        },
        {
          "internalType": "uint256",
          "name": "repayByTimestamp",
          "type": "uint256"
        },
        {
          "internalType": "uint256",
          "name": "fixedRate",
          "type": "uint256"
        },
        {
          "internalType": "uint256",
          "name": "floatingRate",
          "type": "uint256"
        }
      ],
      "stateMutability": "view",
      "type": "function"
    },
    {
      "inputs": [],
      "name": "updateRates",
      "outputs": [],
      "stateMutability": "nonpayable",
      "type": "function"
    }
  ],
  "bytecode": "0x608060405234801561001057600080fd5b50604051611f5d380380611f5d833981810160405281019061003291906101d7565b8660098190555085600a8190555084600b8190555083600c8190555082600d8190555081600e8190555080600060026101000a81548173ffffffffffffffffffffffffffffffffffffffff021916908373ffffffffffffffffffffffffffffffffffffffff16021790555060008060006101000a81548160ff021916908360058111156100c2576100c1610279565b5b021790555060008060016101000a81548160ff021916908360018111156100ec576100eb610279565b5b021790555033600760006101000a81548173ffffffffffffffffffffffffffffffffffffffff021916908373ffffffffffffffffffffffffffffffffffffffff160217905550505050505050506102a8565b600080fd5b6000819050919050565b61015681610143565b811461016157600080fd5b50565b6000815190506101738161014d565b92915050565b600073ffffffffffffffffffffffffffffffffffffffff82169050919050565b60006101a482610179565b9050919050565b6101b481610199565b81146101bf57600080fd5b50565b6000815190506101d1816101ab565b92915050565b600080600080600080600060e0888a0312156101f6576101f561013e565b5b60006102048a828b01610164565b97505060206102158a828b01610164565b96505060406102268a828b01610164565b95505060606102378a828b01610164565b94505060806102488a828b01610164565b93505060a06102598a828b01610164565b92505060c061026a8a828b016101c2565b91505092959891949750929550565b7f4e487b7100000000000000000000000000000000000000000000000000000000600052602160045260246000fd5b611ca6806102b76000396000f3fe6080604052600436106101355760003560e01c806398e05a49116100ab578063bf5e67341161006f578063bf5e67341461034b578063c19d93fb14610355578063d502562514610380578063eb0c4955146103b0578063f5513354146103db578063f71dd46c1461040657610135565b806398e05a49146102955780639d585f7f1461029f5780639e9f669c146102ca578063ab2078d1146102f5578063bcead63e1461032057610135565b806373c05178116100fd57806373c05178146101c85780637df1f1b9146101f3578063802d14221461021e57806385dfc579146102495780638db579941461027457806398a88f2c1461027e57610135565b806328a070251461013a5780633c3821f414610151578063402d88831461016857806344d0d0c61461017257806369e154041461019d575b600080fd5b34801561014657600080fd5b5061014f610431565b005b34801561015d57600080fd5b506101666106bb565b005b610170610798565b005b34801561017e57600080fd5b50610187610a46565b604051610194919061126d565b60405180910390f35b3480156101a957600080fd5b506101b2610a4c565b6040516101bf919061126d565b60405180910390f35b3480156101d457600080fd5b506101dd610a52565b6040516101ea919061126d565b60405180910390f35b3480156101ff57600080fd5b50610208610a5c565b60405161021591906112c9565b60405180910390f35b34801561022a57600080fd5b50610233610a82565b604051610240919061126d565b60405180910390f35b34801561025557600080fd5b5061025e610a88565b60405161026b919061126d565b60405180910390f35b61027c610a92565b005b34801561028a57600080fd5b50610293610c97565b005b61029d610d2f565b005b3480156102ab57600080fd5b506102b4610f1a565b6040516102c1919061126d565b60405180910390f35b3480156102d657600080fd5b506102df610f20565b6040516102ec919061135b565b60405180910390f35b34801561030157600080fd5b5061030a610f36565b604051610317919061126d565b60405180910390f35b34801561032c57600080fd5b50610335610f3c565b60405161034291906112c9565b60405180910390f35b610353610f62565b005b34801561036157600080fd5b5061036a611167565b604051610377919061135b565b60405180910390f35b34801561038c57600080fd5b50610395611178565b6040516103a796959493929190611376565b60405180910390f35b3480156103bc57600080fd5b506103c56111a2565b6040516103d2919061126d565b60405180910390f35b3480156103e757600080fd5b506103f061123b565b6040516103fd919061141f565b60405180910390f35b34801561041257600080fd5b5061041b61124e565b604051610428919061126d565b60405180910390f35b60036005811115610445576104446112e4565b5b60008054906101000a900460ff166005811115610465576104646112e4565b5b146104a5576040517f08c379a000000000000000000000000000000000000000000000000000000000815260040161049c90611497565b60405180910390fd5b600c5442116104e9576040517f08c379a00000000000000000000000000000000000000000000000000000000081526004016104e090611529565b60405180910390fd5b600760009054906101000a900473ffffffffffffffffffffffffffffffffffffffff1673ffffffffffffffffffffffffffffffffffffffff163373ffffffffffffffffffffffffffffffffffffffff1614610579576040517f08c379a0000000000000000000000000000000000000000000000000000000008152600401610570906115bb565b60405180910390fd5b60056000806101000a81548160ff0219169083600581111561059e5761059d6112e4565b5b0217905550600760009054906101000a900473ffffffffffffffffffffffffffffffffffffffff1673ffffffffffffffffffffffffffffffffffffffff166108fc600b549081150290604051600060405180830381858888f1935050505015801561060d573d6000803e3d6000fd5b50600760009054906101000a900473ffffffffffffffffffffffffffffffffffffffff1673ffffffffffffffffffffffffffffffffffffffff16600860009054906101000a900473ffffffffffffffffffffffffffffffffffffffff1673ffffffffffffffffffffffffffffffffffffffff167fd4bfdcd3d7029abe0d70d4a6f1f560c5eac8d3cd6ecef801c6d3d67a49be6068600b546040516106b1919061126d565b60405180910390a3565b60008060029054906101000a900473ffffffffffffffffffffffffffffffffffffffff1673ffffffffffffffffffffffffffffffffffffffff1663feaf968c6040518163ffffffff1660e01b815260040160a060405180830381865afa158015610729573d6000803e3d6000fd5b505050506040513d601f19601f8201168201806040525081019061074d9190611684565b5050509150506000620f424060c883610766919061172e565b610770919061179f565b905080600e8190555060006001905080600e5461078d91906117d0565b600d81905550505050565b600360058111156107ac576107ab6112e4565b5b60008054906101000a900460ff1660058111156107cc576107cb6112e4565b5b1461080c576040517f08c379a000000000000000000000000000000000000000000000000000000000815260040161080390611497565b60405180910390fd5b600860009054906101000a900473ffffffffffffffffffffffffffffffffffffffff1673ffffffffffffffffffffffffffffffffffffffff163373ffffffffffffffffffffffffffffffffffffffff161461089c576040517f08c379a000000000000000000000000000000000000000000000000000000000815260040161089390611850565b60405180910390fd5b60006108a66111a2565b6009546108b391906117d0565b90508034146108f7576040517f08c379a00000000000000000000000000000000000000000000000000000000081526004016108ee906118bc565b60405180910390fd5b60046000806101000a81548160ff0219169083600581111561091c5761091b6112e4565b5b0217905550600760009054906101000a900473ffffffffffffffffffffffffffffffffffffffff1673ffffffffffffffffffffffffffffffffffffffff166108fc829081150290604051600060405180830381858888f19350505050158015610989573d6000803e3d6000fd5b50600860009054906101000a900473ffffffffffffffffffffffffffffffffffffffff1673ffffffffffffffffffffffffffffffffffffffff166108fc600b549081150290604051600060405180830381858888f193505050501580156109f4573d6000803e3d6000fd5b503373ffffffffffffffffffffffffffffffffffffffff167fc200a1f31dd659e356e0f112c82558e25f49f7b0f84438691cd96f5cb355882382604051610a3b919061126d565b60405180910390a250565b600b5481565b600a5481565b6000600d54905090565b600860009054906101000a900473ffffffffffffffffffffffffffffffffffffffff1681565b600d5481565b6000600e54905090565b60006005811115610aa657610aa56112e4565b5b60008054906101000a900460ff166005811115610ac657610ac56112e4565b5b14610b06576040517f08c379a0000000000000000000000000000000000000000000000000000000008152600401610afd90611928565b60405180910390fd5b600760009054906101000a900473ffffffffffffffffffffffffffffffffffffffff1673ffffffffffffffffffffffffffffffffffffffff163373ffffffffffffffffffffffffffffffffffffffff1614610b96576040517f08c379a0000000000000000000000000000000000000000000000000000000008152600401610b8d90611994565b60405180910390fd5b6009543414610bda576040517f08c379a0000000000000000000000000000000000000000000000000000000008152600401610bd190611a00565b60405180910390fd5b33600760006101000a81548173ffffffffffffffffffffffffffffffffffffffff021916908373ffffffffffffffffffffffffffffffffffffffff16021790555060016000806101000a81548160ff02191690836005811115610c4057610c3f6112e4565b5b02179055503373ffffffffffffffffffffffffffffffffffffffff167f726d5f1a838fe31748f737fa3ae5539ccff95952adfc593a1299532b643ff7a8600954604051610c8d919061126d565b60405180910390a2565b60006001811115610cab57610caa6112e4565b5b600060019054906101000a900460ff166001811115610ccd57610ccc6112e4565b5b03610d02576001600060016101000a81548160ff02191690836001811115610cf857610cf76112e4565b5b0217905550610d2d565b60008060016101000a81548160ff02191690836001811115610d2757610d266112e4565b5b02179055505b565b60026005811115610d4357610d426112e4565b5b60008054906101000a900460ff166005811115610d6357610d626112e4565b5b14610da3576040517f08c379a0000000000000000000000000000000000000000000000000000000008152600401610d9a90611a6c565b60405180910390fd5b600860009054906101000a900473ffffffffffffffffffffffffffffffffffffffff1673ffffffffffffffffffffffffffffffffffffffff163373ffffffffffffffffffffffffffffffffffffffff1614610e33576040517f08c379a0000000000000000000000000000000000000000000000000000000008152600401610e2a90611ad8565b60405180910390fd5b60036000806101000a81548160ff02191690836005811115610e5857610e576112e4565b5b0217905550600860009054906101000a900473ffffffffffffffffffffffffffffffffffffffff1673ffffffffffffffffffffffffffffffffffffffff166108fc6009549081150290604051600060405180830381858888f19350505050158015610ec7573d6000803e3d6000fd5b503373ffffffffffffffffffffffffffffffffffffffff167fd5c776eab9418d89c040ffee59f2310d225f5ff682191bcee59b0413a7fd4835600954604051610f10919061126d565b60405180910390a2565b60095481565b60008060009054906101000a900460ff16905090565b600c5481565b600760009054906101000a900473ffffffffffffffffffffffffffffffffffffffff1681565b60016005811115610f7657610f756112e4565b5b60008054906101000a900460ff166005811115610f9657610f956112e4565b5b14610fd6576040517f08c379a0000000000000000000000000000000000000000000000000000000008152600401610fcd90611b44565b60405180910390fd5b600760009054906101000a900473ffffffffffffffffffffffffffffffffffffffff1673ffffffffffffffffffffffffffffffffffffffff163373ffffffffffffffffffffffffffffffffffffffff1603611066576040517f08c379a000000000000000000000000000000000000000000000000000000000815260040161105d90611bb0565b60405180910390fd5b600b5434146110aa576040517f08c379a00000000000000000000000000000000000000000000000000000000081526004016110a190611c1c565b60405180910390fd5b33600860006101000a81548173ffffffffffffffffffffffffffffffffffffffff021916908373ffffffffffffffffffffffffffffffffffffffff16021790555060026000806101000a81548160ff021916908360058111156111105761110f6112e4565b5b02179055503373ffffffffffffffffffffffffffffffffffffffff167f329f3f0a323b6707cfce03bd3ca41f8b814a00b01c6a417528c8e3ea66422e47600b5460405161115d919061126d565b60405180910390a2565b60008054906101000a900460ff1681565b60018060000154908060010154908060020154908060030154908060040154908060050154905086565b600080600060018111156111b9576111b86112e4565b5b600060019054906101000a900460ff1660018111156111db576111da6112e4565b5b146111e857600e546111ec565b600d545b90506000600160030154426112019190611c3c565b9050600063b6d1c200828460016000015461121c919061172e565b611226919061172e565b611230919061179f565b905080935050505090565b600060019054906101000a900460ff1681565b600e5481565b6000819050919050565b61126781611254565b82525050565b6000602082019050611282600083018461125e565b92915050565b600073ffffffffffffffffffffffffffffffffffffffff82169050919050565b60006112b382611288565b9050919050565b6112c3816112a8565b82525050565b60006020820190506112de60008301846112ba565b92915050565b7f4e487b7100000000000000000000000000000000000000000000000000000000600052602160045260246000fd5b60068110611324576113236112e4565b5b50565b600081905061133582611313565b919050565b600061134582611327565b9050919050565b6113558161133a565b82525050565b6000602082019050611370600083018461134c565b92915050565b600060c08201905061138b600083018961125e565b611398602083018861125e565b6113a5604083018761125e565b6113b2606083018661125e565b6113bf608083018561125e565b6113cc60a083018461125e565b979650505050505050565b600281106113e8576113e76112e4565b5b50565b60008190506113f9826113d7565b919050565b6000611409826113eb565b9050919050565b611419816113fe565b82525050565b60006020820190506114346000830184611410565b92915050565b600082825260208201905092915050565b7f4c6f616e206973206e6f7420696e2054616b656e207374617465000000000000600082015250565b6000611481601a8361143a565b915061148c8261144b565b602082019050919050565b600060208201905081810360008301526114b081611474565b9050919050565b7f52657061796d656e7420646561646c696e6520686173206e6f7420706173736560008201527f6400000000000000000000000000000000000000000000000000000000000000602082015250565b600061151360218361143a565b915061151e826114b7565b604082019050919050565b6000602082019050818103600083015261154281611506565b9050919050565b7f4f6e6c79206c656e6465722063616e206c697175696461746520746865206c6f60008201527f616e000000000000000000000000000000000000000000000000000000000000602082015250565b60006115a560228361143a565b91506115b082611549565b604082019050919050565b600060208201905081810360008301526115d481611598565b9050919050565b600080fd5b600069ffffffffffffffffffff82169050919050565b6115ff816115e0565b811461160a57600080fd5b50565b60008151905061161c816115f6565b92915050565b6000819050919050565b61163581611622565b811461164057600080fd5b50565b6000815190506116528161162c565b92915050565b61166181611254565b811461166c57600080fd5b50565b60008151905061167e81611658565b92915050565b600080600080600060a086880312156116a05761169f6115db565b5b60006116ae8882890161160d565b95505060206116bf88828901611643565b94505060406116d08882890161166f565b93505060606116e18882890161166f565b92505060806116f28882890161160d565b9150509295509295909350565b7f4e487b7100000000000000000000000000000000000000000000000000000000600052601160045260246000fd5b600061173982611254565b915061174483611254565b925082820261175281611254565b91508282048414831517611769576117686116ff565b5b5092915050565b7f4e487b7100000000000000000000000000000000000000000000000000000000600052601260045260246000fd5b60006117aa82611254565b91506117b583611254565b9250826117c5576117c4611770565b5b828204905092915050565b60006117db82611254565b91506117e683611254565b92508282019050808211156117fe576117fd6116ff565b5b92915050565b7f4f6e6c7920626f72726f7765722063616e20726570617920746865206c6f616e600082015250565b600061183a60208361143a565b915061184582611804565b602082019050919050565b600060208201905081810360008301526118698161182d565b9050919050565b7f496e636f72726563742072657061796d656e7420616d6f756e74000000000000600082015250565b60006118a6601a8361143a565b91506118b182611870565b602082019050919050565b600060208201905081810360008301526118d581611899565b9050919050565b7f4c6f616e206973206e6f7420696e204372656174656420737461746500000000600082015250565b6000611912601c8361143a565b915061191d826118dc565b602082019050919050565b6000602082019050818103600083015261194181611905565b9050919050565b7f4f6e6c79206c656e6465722063616e2066756e6420746865206c6f616e000000600082015250565b600061197e601d8361143a565b915061198982611948565b602082019050919050565b600060208201905081810360008301526119ad81611971565b9050919050565b7f496e636f7272656374206c6f616e20616d6f756e740000000000000000000000600082015250565b60006119ea60158361143a565b91506119f5826119b4565b602082019050919050565b60006020820190508181036000830152611a19816119dd565b9050919050565b7f4c6f616e206973206e6f7420696e206163636570746564207374617465000000600082015250565b6000611a56601d8361143a565b9150611a6182611a20565b602082019050919050565b60006020820190508181036000830152611a8581611a49565b9050919050565b7f4f6e6c7920626f72726f7765722063616e2074616b6520746865206c6f616e00600082015250565b6000611ac2601f8361143a565b9150611acd82611a8c565b602082019050919050565b60006020820190508181036000830152611af181611ab5565b9050919050565b7f4c6f616e206973206e6f7420696e2046756e6465642073746174650000000000600082015250565b6000611b2e601b8361143a565b9150611b3982611af8565b602082019050919050565b60006020820190508181036000830152611b5d81611b21565b9050919050565b7f4c656e6465722063616e6e6f742074616b6520746865206c6f616e0000000000600082015250565b6000611b9a601b8361143a565b9150611ba582611b64565b602082019050919050565b60006020820190508181036000830152611bc981611b8d565b9050919050565b7f496e636f727265637420636f6c6c61746572616c20616d6f756e740000000000600082015250565b6000611c06601b8361143a565b9150611c1182611bd0565b602082019050919050565b60006020820190508181036000830152611c3581611bf9565b9050919050565b6000611c4782611254565b9150611c5283611254565b9250828203905081811115611c6a57611c696116ff565b5b9291505056fea26469706673582212208f45d7140fbe19feb3fbac584ee1be1ff1b41e6679f4bac6b4addc7a0a69ae8864736f6c634300081c0033",
  "linkReferences": {},
  "deployedLinkReferences": {}
}