{
  "_format": "hh-sol-artifact-1",
  "contractName": "LoanRequest",
  "sourceName": "contracts/LoanRequest.sol",
  "abi": [
    {
      "inputs": [
        {
          "internalType": "uint256",
          "name": "_loanAmount",
          "type": "uint256"
        },
        {
          "internalType": "uint256",
          "name": "_feeAmount",
          "type": "uint256"
        },
        {
          "internalType": "uint256",
          "name": "_ethCollateralAmount",
          "type": "uint256"
        },
        {
          "internalType": "uint256",
          "name": "_repayByTimestamp",
          "type": "uint256"
        },
        {
          "internalType": "uint256",
          "name": "_fixedRate",
          "type": "uint256"
        },
        {
          "internalType": "uint256",
          "name": "_floatingRate",
          "type": "uint256"
        },
        {
          "internalType": "address",
          "name": "_oracle",
          "type": "address"
        }
      ],
      "stateMutability": "nonpayable",
      "type": "constructor"
    },
    {
      "anonymous": false,
      "inputs": [
        {
          "indexed": true,
          "internalType": "address",
          "name": "lender",
          "type": "address"
        },
        {
          "indexed": false,
          "internalType": "uint256",
          "name": "loanAmount",
          "type": "uint256"
        }
      ],
      "name": "LoanFunded",
      "type": "event"
    },
    {
      "anonymous": false,
      "inputs": [
        {
          "indexed": true,
          "internalType": "address",
          "name": "borrower",
          "type": "address"
        },
        {
          "indexed": true,
          "internalType": "address",
          "name": "lender",
          "type": "address"
        },
        {
          "indexed": false,
          "internalType": "uint256",
          "name": "collateralAmount",
          "type": "uint256"
        }
      ],
      "name": "LoanLiquidated",
      "type": "event"
    },
    {
      "anonymous": false,
      "inputs": [
        {
          "indexed": true,
          "internalType": "address",
          "name": "borrower",
          "type": "address"
        },
        {
          "indexed": false,
          "internalType": "uint256",
          "name": "repaymentAmount",
          "type": "uint256"
        }
      ],
      "name": "LoanRepaid",
      "type": "event"
    },
    {
      "anonymous": false,
      "inputs": [
        {
          "indexed": true,
          "internalType": "address",
          "name": "borrower",
          "type": "address"
        },
        {
          "indexed": false,
          "internalType": "uint256",
          "name": "loanAmount",
          "type": "uint256"
        }
      ],
      "name": "LoanTaken",
      "type": "event"
    },
    {
      "anonymous": false,
      "inputs": [
        {
          "indexed": true,
          "internalType": "address",
          "name": "borrower",
          "type": "address"
        },
        {
          "indexed": false,
          "internalType": "uint256",
          "name": "collateralAmount",
          "type": "uint256"
        }
      ],
      "name": "LoanTermsAccepted",
      "type": "event"
    },
    {
      "inputs": [],
      "name": "acceptLoanTerms",
      "outputs": [],
      "stateMutability": "payable",
      "type": "function"
    },
    {
      "inputs": [],
      "name": "borrower",
      "outputs": [
        {
          "internalType": "address payable",
          "name": "",
          "type": "address"
        }
      ],
      "stateMutability": "view",
      "type": "function"
    },
    {
      "inputs": [],
      "name": "calculateInterest",
      "outputs": [],
      "stateMutability": "nonpayable",
      "type": "function"
    },
    {
      "inputs": [],
      "name": "currentRateType",
      "outputs": [
        {
          "internalType": "enum LoanRequest.InterestRateType",
          "name": "",
          "type": "uint8"
        }
      ],
      "stateMutability": "view",
      "type": "function"
    },
    {
      "inputs": [],
      "name": "ethCollateralAmount",
      "outputs": [
        {
          "internalType": "uint256",
          "name": "",
          "type": "uint256"
        }
      ],
      "stateMutability": "view",
      "type": "function"
    },
    {
      "inputs": [],
      "name": "feeAmount",
      "outputs": [
        {
          "internalType": "uint256",
          "name": "",
          "type": "uint256"
        }
      ],
      "stateMutability": "view",
      "type": "function"
    },
    {
      "inputs": [],
      "name": "fixedRate",
      "outputs": [
        {
          "internalType": "uint256",
          "name": "",
          "type": "uint256"
        }
      ],
      "stateMutability": "view",
      "type": "function"
    },
    {
      "inputs": [],
      "name": "floatingRate",
      "outputs": [
        {
          "internalType": "uint256",
          "name": "",
          "type": "uint256"
        }
      ],
      "stateMutability": "view",
      "type": "function"
    },
    {
      "inputs": [],
      "name": "fundLoan",
      "outputs": [],
      "stateMutability": "payable",
      "type": "function"
    },
    {
      "inputs": [],
      "name": "getEthCollateralAmount",
      "outputs": [
        {
          "internalType": "uint256",
          "name": "",
          "type": "uint256"
        }
      ],
      "stateMutability": "view",
      "type": "function"
    },
    {
      "inputs": [],
      "name": "getFeeAmount",
      "outputs": [
        {
          "internalType": "uint256",
          "name": "",
          "type": "uint256"
        }
      ],
      "stateMutability": "view",
      "type": "function"
    },
    {
      "inputs": [],
      "name": "getFixedRate",
      "outputs": [
        {
          "internalType": "uint256",
          "name": "",
          "type": "uint256"
        }
      ],
      "stateMutability": "view",
      "type": "function"
    },
    {
      "inputs": [],
      "name": "getFloatingRate",
      "outputs": [
        {
          "internalType": "uint256",
          "name": "",
          "type": "uint256"
        }
      ],
      "stateMutability": "view",
      "type": "function"
    },
    {
      "inputs": [],
      "name": "getInterest",
      "outputs": [
        {
          "internalType": "uint256",
          "name": "",
          "type": "uint256"
        }
      ],
      "stateMutability": "view",
      "type": "function"
    },
    {
      "inputs": [],
      "name": "getLoanAmount",
      "outputs": [
        {
          "internalType": "uint256",
          "name": "",
          "type": "uint256"
        }
      ],
      "stateMutability": "view",
      "type": "function"
    },
    {
      "inputs": [],
      "name": "getLoanState",
      "outputs": [
        {
          "internalType": "enum LoanRequest.LoanState",
          "name": "",
          "type": "uint8"
        }
      ],
      "stateMutability": "view",
      "type": "function"
    },
    {
      "inputs": [],
      "name": "getRepayByTimestamp",
      "outputs": [
        {
          "internalType": "uint256",
          "name": "",
          "type": "uint256"
        }
      ],
      "stateMutability": "view",
      "type": "function"
    },
    {
      "inputs": [],
      "name": "interest",
      "outputs": [
        {
          "internalType": "uint256",
          "name": "",
          "type": "uint256"
        }
      ],
      "stateMutability": "view",
      "type": "function"
    },
    {
      "inputs": [],
      "name": "lender",
      "outputs": [
        {
          "internalType": "address payable",
          "name": "",
          "type": "address"
        }
      ],
      "stateMutability": "view",
      "type": "function"
    },
    {
      "inputs": [],
      "name": "liquidate",
      "outputs": [],
      "stateMutability": "nonpayable",
      "type": "function"
    },
    {
      "inputs": [],
      "name": "loanAmount",
      "outputs": [
        {
          "internalType": "uint256",
          "name": "",
          "type": "uint256"
        }
      ],
      "stateMutability": "view",
      "type": "function"
    },
    {
      "inputs": [],
      "name": "loanTakenTimestamp",
      "outputs": [
        {
          "internalType": "uint256",
          "name": "",
          "type": "uint256"
        }
      ],
      "stateMutability": "view",
      "type": "function"
    },
    {
      "inputs": [],
      "name": "repay",
      "outputs": [],
      "stateMutability": "payable",
      "type": "function"
    },
    {
      "inputs": [],
      "name": "repayByTimestamp",
      "outputs": [
        {
          "internalType": "uint256",
          "name": "",
          "type": "uint256"
        }
      ],
      "stateMutability": "view",
      "type": "function"
    },
    {
      "inputs": [],
      "name": "state",
      "outputs": [
        {
          "internalType": "enum LoanRequest.LoanState",
          "name": "",
          "type": "uint8"
        }
      ],
      "stateMutability": "view",
      "type": "function"
    },
    {
      "inputs": [],
      "name": "switchRateType",
      "outputs": [],
      "stateMutability": "nonpayable",
      "type": "function"
    },
    {
      "inputs": [],
      "name": "takeLoan",
      "outputs": [],
      "stateMutability": "payable",
      "type": "function"
    },
    {
      "inputs": [],
      "name": "terms",
      "outputs": [
        {
          "internalType": "uint256",
          "name": "loanAmount",
          "type": "uint256"
        },
        {
          "internalType": "uint256",
          "name": "feeAmount",
          "type": "uint256"
        },
        {
          "internalType": "uint256",
          "name": "ethCollateralAmount",
          "type": "uint256"
        },
        {
          "internalType": "uint256",
          "name": "repayByTimestamp",
          "type": "uint256"
        },
        {
          "internalType": "uint256",
          "name": "fixedRate",
          "type": "uint256"
        },
        {
          "internalType": "uint256",
          "name": "floatingRate",
          "type": "uint256"
        }
      ],
      "stateMutability": "view",
      "type": "function"
    },
    {
      "inputs": [],
      "name": "updateRates",
      "outputs": [],
      "stateMutability": "nonpayable",
      "type": "function"
    }
  ],
  "bytecode": "0x608060405234801561001057600080fd5b506040516121af3803806121af833981810160405281019061003291906101d8565b86600b8190555085600c8190555084600d8190555083600e8190555082600f819055508160108190555080600260016101000a81548173ffffffffffffffffffffffffffffffffffffffff021916908373ffffffffffffffffffffffffffffffffffffffff16021790555060008060006101000a81548160ff021916908360058111156100c2576100c161027a565b5b02179055506000600260006101000a81548160ff021916908360018111156100ed576100ec61027a565b5b021790555033600960006101000a81548173ffffffffffffffffffffffffffffffffffffffff021916908373ffffffffffffffffffffffffffffffffffffffff160217905550505050505050506102a9565b600080fd5b6000819050919050565b61015781610144565b811461016257600080fd5b50565b6000815190506101748161014e565b92915050565b600073ffffffffffffffffffffffffffffffffffffffff82169050919050565b60006101a58261017a565b9050919050565b6101b58161019a565b81146101c057600080fd5b50565b6000815190506101d2816101ac565b92915050565b600080600080600080600060e0888a0312156101f7576101f661013f565b5b60006102058a828b01610165565b97505060206102168a828b01610165565b96505060406102278a828b01610165565b95505060606102388a828b01610165565b94505060806102498a828b01610165565b93505060a061025a8a828b01610165565b92505060c061026b8a828b016101c3565b91505092959891949750929550565b7f4e487b7100000000000000000000000000000000000000000000000000000000600052602160045260246000fd5b611ef7806102b86000396000f3fe6080604052600436106101c25760003560e01c80639d585f7f116100f7578063c19d93fb11610095578063eb0c495511610064578063eb0c49551461053f578063f4b01b1814610556578063f551335414610581578063f71dd46c146105ac576101c2565b8063c19d93fb1461048e578063c392f766146104b9578063d5025625146104e4578063e5a4bed314610514576101c2565b8063b1138885116100d1578063b113888514610403578063bcead63e1461042e578063bf5c982214610459578063bf5e673414610484576101c2565b80639d585f7f146103825780639e9f669c146103ad578063ab2078d1146103d8576101c2565b80637df1f1b91161016457806387b8f9eb1161013e57806387b8f9eb1461032c5780638db579941461035757806398a88f2c1461036157806398e05a4914610378576101c2565b80637df1f1b9146102ab578063802d1422146102d657806385dfc57914610301576101c2565b806340963da0116101a057806340963da0146101ff57806344d0d0c61461022a57806369e154041461025557806373c0517814610280576101c2565b806328a07025146101c75780633c3821f4146101de578063402d8883146101f5575b600080fd5b3480156101d357600080fd5b506101dc6105d7565b005b3480156101ea57600080fd5b506101f3610861565b005b6101fd61093f565b005b34801561020b57600080fd5b50610214610be8565b60405161022191906114be565b60405180910390f35b34801561023657600080fd5b5061023f610bf2565b60405161024c91906114be565b60405180910390f35b34801561026157600080fd5b5061026a610bf8565b60405161027791906114be565b60405180910390f35b34801561028c57600080fd5b50610295610bfe565b6040516102a291906114be565b60405180910390f35b3480156102b757600080fd5b506102c0610c08565b6040516102cd919061151a565b60405180910390f35b3480156102e257600080fd5b506102eb610c2e565b6040516102f891906114be565b60405180910390f35b34801561030d57600080fd5b50610316610c34565b60405161032391906114be565b60405180910390f35b34801561033857600080fd5b50610341610c3e565b60405161034e91906114be565b60405180910390f35b61035f610c44565b005b34801561036d57600080fd5b50610376610e49565b005b610380610ee2565b005b34801561038e57600080fd5b506103976110d4565b6040516103a491906114be565b60405180910390f35b3480156103b957600080fd5b506103c26110da565b6040516103cf91906115ac565b60405180910390f35b3480156103e457600080fd5b506103ed6110f0565b6040516103fa91906114be565b60405180910390f35b34801561040f57600080fd5b506104186110f6565b60405161042591906114be565b60405180910390f35b34801561043a57600080fd5b50610443611100565b604051610450919061151a565b60405180910390f35b34801561046557600080fd5b5061046e611126565b60405161047b91906114be565b60405180910390f35b61048c611130565b005b34801561049a57600080fd5b506104a3611335565b6040516104b091906115ac565b60405180910390f35b3480156104c557600080fd5b506104ce611346565b6040516104db91906114be565b60405180910390f35b3480156104f057600080fd5b506104f961134c565b60405161050b969594939291906115c7565b60405180910390f35b34801561052057600080fd5b50610529611376565b60405161053691906114be565b60405180910390f35b34801561054b57600080fd5b50610554611380565b005b34801561056257600080fd5b5061056b611482565b60405161057891906114be565b60405180910390f35b34801561058d57600080fd5b5061059661148c565b6040516105a39190611670565b60405180910390f35b3480156105b857600080fd5b506105c161149f565b6040516105ce91906114be565b60405180910390f35b600360058111156105eb576105ea611535565b5b60008054906101000a900460ff16600581111561060b5761060a611535565b5b1461064b576040517f08c379a0000000000000000000000000000000000000000000000000000000008152600401610642906116e8565b60405180910390fd5b600e54421161068f576040517f08c379a00000000000000000000000000000000000000000000000000000000081526004016106869061177a565b60405180910390fd5b600960009054906101000a900473ffffffffffffffffffffffffffffffffffffffff1673ffffffffffffffffffffffffffffffffffffffff163373ffffffffffffffffffffffffffffffffffffffff161461071f576040517f08c379a00000000000000000000000000000000000000000000000000000000081526004016107169061180c565b60405180910390fd5b60056000806101000a81548160ff0219169083600581111561074457610743611535565b5b0217905550600960009054906101000a900473ffffffffffffffffffffffffffffffffffffffff1673ffffffffffffffffffffffffffffffffffffffff166108fc600d549081150290604051600060405180830381858888f193505050501580156107b3573d6000803e3d6000fd5b50600960009054906101000a900473ffffffffffffffffffffffffffffffffffffffff1673ffffffffffffffffffffffffffffffffffffffff16600a60009054906101000a900473ffffffffffffffffffffffffffffffffffffffff1673ffffffffffffffffffffffffffffffffffffffff167fd4bfdcd3d7029abe0d70d4a6f1f560c5eac8d3cd6ecef801c6d3d67a49be6068600d5460405161085791906114be565b60405180910390a3565b6000600260019054906101000a900473ffffffffffffffffffffffffffffffffffffffff1673ffffffffffffffffffffffffffffffffffffffff1663feaf968c6040518163ffffffff1660e01b815260040160a060405180830381865afa1580156108d0573d6000803e3d6000fd5b505050506040513d601f19601f820116820180604052508101906108f491906118d5565b5050509150506000620f424060648361090d919061197f565b61091791906119f0565b905080601081905550600060019050806010546109349190611a21565b600f81905550505050565b6003600581111561095357610952611535565b5b60008054906101000a900460ff16600581111561097357610972611535565b5b146109b3576040517f08c379a00000000000000000000000000000000000000000000000000000000081526004016109aa906116e8565b60405180910390fd5b600a60009054906101000a900473ffffffffffffffffffffffffffffffffffffffff1673ffffffffffffffffffffffffffffffffffffffff163373ffffffffffffffffffffffffffffffffffffffff1614610a43576040517f08c379a0000000000000000000000000000000000000000000000000000000008152600401610a3a90611aa1565b60405180910390fd5b6000600154600b54610a559190611a21565b9050803414610a99576040517f08c379a0000000000000000000000000000000000000000000000000000000008152600401610a9090611b0d565b60405180910390fd5b60046000806101000a81548160ff02191690836005811115610abe57610abd611535565b5b0217905550600960009054906101000a900473ffffffffffffffffffffffffffffffffffffffff1673ffffffffffffffffffffffffffffffffffffffff166108fc829081150290604051600060405180830381858888f19350505050158015610b2b573d6000803e3d6000fd5b50600a60009054906101000a900473ffffffffffffffffffffffffffffffffffffffff1673ffffffffffffffffffffffffffffffffffffffff166108fc600d549081150290604051600060405180830381858888f19350505050158015610b96573d6000803e3d6000fd5b503373ffffffffffffffffffffffffffffffffffffffff167fc200a1f31dd659e356e0f112c82558e25f49f7b0f84438691cd96f5cb355882382604051610bdd91906114be565b60405180910390a250565b6000600e54905090565b600d5481565b600c5481565b6000600f54905090565b600a60009054906101000a900473ffffffffffffffffffffffffffffffffffffffff1681565b600f5481565b6000601054905090565b60115481565b60006005811115610c5857610c57611535565b5b60008054906101000a900460ff166005811115610c7857610c77611535565b5b14610cb8576040517f08c379a0000000000000000000000000000000000000000000000000000000008152600401610caf90611b79565b60405180910390fd5b600960009054906101000a900473ffffffffffffffffffffffffffffffffffffffff1673ffffffffffffffffffffffffffffffffffffffff163373ffffffffffffffffffffffffffffffffffffffff1614610d48576040517f08c379a0000000000000000000000000000000000000000000000000000000008152600401610d3f90611be5565b60405180910390fd5b600b543414610d8c576040517f08c379a0000000000000000000000000000000000000000000000000000000008152600401610d8390611c51565b60405180910390fd5b33600960006101000a81548173ffffffffffffffffffffffffffffffffffffffff021916908373ffffffffffffffffffffffffffffffffffffffff16021790555060016000806101000a81548160ff02191690836005811115610df257610df1611535565b5b02179055503373ffffffffffffffffffffffffffffffffffffffff167f726d5f1a838fe31748f737fa3ae5539ccff95952adfc593a1299532b643ff7a8600b54604051610e3f91906114be565b60405180910390a2565b60006001811115610e5d57610e5c611535565b5b600260009054906101000a900460ff166001811115610e7f57610e7e611535565b5b03610eb4576001600260006101000a81548160ff02191690836001811115610eaa57610ea9611535565b5b0217905550610ee0565b6000600260006101000a81548160ff02191690836001811115610eda57610ed9611535565b5b02179055505b565b60026005811115610ef657610ef5611535565b5b60008054906101000a900460ff166005811115610f1657610f15611535565b5b14610f56576040517f08c379a0000000000000000000000000000000000000000000000000000000008152600401610f4d90611cbd565b60405180910390fd5b600a60009054906101000a900473ffffffffffffffffffffffffffffffffffffffff1673ffffffffffffffffffffffffffffffffffffffff163373ffffffffffffffffffffffffffffffffffffffff1614610fe6576040517f08c379a0000000000000000000000000000000000000000000000000000000008152600401610fdd90611d29565b60405180910390fd5b60036000806101000a81548160ff0219169083600581111561100b5761100a611535565b5b021790555042601181905550600a60009054906101000a900473ffffffffffffffffffffffffffffffffffffffff1673ffffffffffffffffffffffffffffffffffffffff166108fc600b549081150290604051600060405180830381858888f19350505050158015611081573d6000803e3d6000fd5b503373ffffffffffffffffffffffffffffffffffffffff167fd5c776eab9418d89c040ffee59f2310d225f5ff682191bcee59b0413a7fd4835600b546040516110ca91906114be565b60405180910390a2565b600b5481565b60008060009054906101000a900460ff16905090565b600e5481565b6000600d54905090565b600960009054906101000a900473ffffffffffffffffffffffffffffffffffffffff1681565b6000600c54905090565b6001600581111561114457611143611535565b5b60008054906101000a900460ff16600581111561116457611163611535565b5b146111a4576040517f08c379a000000000000000000000000000000000000000000000000000000000815260040161119b90611d95565b60405180910390fd5b600960009054906101000a900473ffffffffffffffffffffffffffffffffffffffff1673ffffffffffffffffffffffffffffffffffffffff163373ffffffffffffffffffffffffffffffffffffffff1603611234576040517f08c379a000000000000000000000000000000000000000000000000000000000815260040161122b90611e01565b60405180910390fd5b600d543414611278576040517f08c379a000000000000000000000000000000000000000000000000000000000815260040161126f90611e6d565b60405180910390fd5b33600a60006101000a81548173ffffffffffffffffffffffffffffffffffffffff021916908373ffffffffffffffffffffffffffffffffffffffff16021790555060026000806101000a81548160ff021916908360058111156112de576112dd611535565b5b02179055503373ffffffffffffffffffffffffffffffffffffffff167f329f3f0a323b6707cfce03bd3ca41f8b814a00b01c6a417528c8e3ea66422e47600d5460405161132b91906114be565b60405180910390a2565b60008054906101000a900460ff1681565b60015481565b60038060000154908060010154908060020154908060030154908060040154908060050154905086565b6000600154905090565b6003600581111561139457611393611535565b5b60008054906101000a900460ff1660058111156113b4576113b3611535565b5b146113f4576040517f08c379a00000000000000000000000000000000000000000000000000000000081526004016113eb906116e8565b60405180910390fd5b600080600181111561140957611408611535565b5b600260009054906101000a900460ff16600181111561142b5761142a611535565b5b146114385760105461143c565b600f545b905060006011544261144e9190611e8d565b905063bbf81e008183600b54611464919061197f565b61146e919061197f565b61147891906119f0565b6001819055505050565b6000600b54905090565b600260009054906101000a900460ff1681565b60105481565b6000819050919050565b6114b8816114a5565b82525050565b60006020820190506114d360008301846114af565b92915050565b600073ffffffffffffffffffffffffffffffffffffffff82169050919050565b6000611504826114d9565b9050919050565b611514816114f9565b82525050565b600060208201905061152f600083018461150b565b92915050565b7f4e487b7100000000000000000000000000000000000000000000000000000000600052602160045260246000fd5b6006811061157557611574611535565b5b50565b600081905061158682611564565b919050565b600061159682611578565b9050919050565b6115a68161158b565b82525050565b60006020820190506115c1600083018461159d565b92915050565b600060c0820190506115dc60008301896114af565b6115e960208301886114af565b6115f660408301876114af565b61160360608301866114af565b61161060808301856114af565b61161d60a08301846114af565b979650505050505050565b6002811061163957611638611535565b5b50565b600081905061164a82611628565b919050565b600061165a8261163c565b9050919050565b61166a8161164f565b82525050565b60006020820190506116856000830184611661565b92915050565b600082825260208201905092915050565b7f4c6f616e206973206e6f7420696e2054616b656e207374617465000000000000600082015250565b60006116d2601a8361168b565b91506116dd8261169c565b602082019050919050565b60006020820190508181036000830152611701816116c5565b9050919050565b7f52657061796d656e7420646561646c696e6520686173206e6f7420706173736560008201527f6400000000000000000000000000000000000000000000000000000000000000602082015250565b600061176460218361168b565b915061176f82611708565b604082019050919050565b6000602082019050818103600083015261179381611757565b9050919050565b7f4f6e6c79206c656e6465722063616e206c697175696461746520746865206c6f60008201527f616e000000000000000000000000000000000000000000000000000000000000602082015250565b60006117f660228361168b565b91506118018261179a565b604082019050919050565b60006020820190508181036000830152611825816117e9565b9050919050565b600080fd5b600069ffffffffffffffffffff82169050919050565b61185081611831565b811461185b57600080fd5b50565b60008151905061186d81611847565b92915050565b6000819050919050565b61188681611873565b811461189157600080fd5b50565b6000815190506118a38161187d565b92915050565b6118b2816114a5565b81146118bd57600080fd5b50565b6000815190506118cf816118a9565b92915050565b600080600080600060a086880312156118f1576118f061182c565b5b60006118ff8882890161185e565b955050602061191088828901611894565b9450506040611921888289016118c0565b9350506060611932888289016118c0565b92505060806119438882890161185e565b9150509295509295909350565b7f4e487b7100000000000000000000000000000000000000000000000000000000600052601160045260246000fd5b600061198a826114a5565b9150611995836114a5565b92508282026119a3816114a5565b915082820484148315176119ba576119b9611950565b5b5092915050565b7f4e487b7100000000000000000000000000000000000000000000000000000000600052601260045260246000fd5b60006119fb826114a5565b9150611a06836114a5565b925082611a1657611a156119c1565b5b828204905092915050565b6000611a2c826114a5565b9150611a37836114a5565b9250828201905080821115611a4f57611a4e611950565b5b92915050565b7f4f6e6c7920626f72726f7765722063616e20726570617920746865206c6f616e600082015250565b6000611a8b60208361168b565b9150611a9682611a55565b602082019050919050565b60006020820190508181036000830152611aba81611a7e565b9050919050565b7f496e636f72726563742072657061796d656e7420616d6f756e74000000000000600082015250565b6000611af7601a8361168b565b9150611b0282611ac1565b602082019050919050565b60006020820190508181036000830152611b2681611aea565b9050919050565b7f4c6f616e206973206e6f7420696e204372656174656420737461746500000000600082015250565b6000611b63601c8361168b565b9150611b6e82611b2d565b602082019050919050565b60006020820190508181036000830152611b9281611b56565b9050919050565b7f4f6e6c79206c656e6465722063616e2066756e6420746865206c6f616e000000600082015250565b6000611bcf601d8361168b565b9150611bda82611b99565b602082019050919050565b60006020820190508181036000830152611bfe81611bc2565b9050919050565b7f496e636f7272656374206c6f616e20616d6f756e740000000000000000000000600082015250565b6000611c3b60158361168b565b9150611c4682611c05565b602082019050919050565b60006020820190508181036000830152611c6a81611c2e565b9050919050565b7f4c6f616e206973206e6f7420696e206163636570746564207374617465000000600082015250565b6000611ca7601d8361168b565b9150611cb282611c71565b602082019050919050565b60006020820190508181036000830152611cd681611c9a565b9050919050565b7f4f6e6c7920626f72726f7765722063616e2074616b6520746865206c6f616e00600082015250565b6000611d13601f8361168b565b9150611d1e82611cdd565b602082019050919050565b60006020820190508181036000830152611d4281611d06565b9050919050565b7f4c6f616e206973206e6f7420696e2046756e6465642073746174650000000000600082015250565b6000611d7f601b8361168b565b9150611d8a82611d49565b602082019050919050565b60006020820190508181036000830152611dae81611d72565b9050919050565b7f4c656e6465722063616e6e6f742074616b6520746865206c6f616e0000000000600082015250565b6000611deb601b8361168b565b9150611df682611db5565b602082019050919050565b60006020820190508181036000830152611e1a81611dde565b9050919050565b7f496e636f727265637420636f6c6c61746572616c20616d6f756e740000000000600082015250565b6000611e57601b8361168b565b9150611e6282611e21565b602082019050919050565b60006020820190508181036000830152611e8681611e4a565b9050919050565b6000611e98826114a5565b9150611ea3836114a5565b9250828203905081811115611ebb57611eba611950565b5b9291505056fea264697066735822122034389f7d6027fc889b11c215c28f46e0e1d291ac007197e73bd6106cdc20479364736f6c634300081c0033",
  "linkReferences": {},
  "deployedLinkReferences": {}
}