{
  "_format": "hh-sol-artifact-1",
  "contractName": "LoanRequest",
  "sourceName": "contracts/LoanRequest.sol",
  "abi": [
    {
      "inputs": [
        {
          "internalType": "uint256",
          "name": "_loanAmount",
          "type": "uint256"
        },
        {
          "internalType": "uint256",
          "name": "_feeAmount",
          "type": "uint256"
        },
        {
          "internalType": "uint256",
          "name": "_ethCollateralAmount",
          "type": "uint256"
        },
        {
          "internalType": "uint256",
          "name": "_repayByTimestamp",
          "type": "uint256"
        },
        {
          "internalType": "uint256",
          "name": "_fixedRate",
          "type": "uint256"
        },
        {
          "internalType": "uint256",
          "name": "_floatingRate",
          "type": "uint256"
        },
        {
          "internalType": "address",
          "name": "_oracle",
          "type": "address"
        }
      ],
      "stateMutability": "nonpayable",
      "type": "constructor"
    },
    {
      "anonymous": false,
      "inputs": [
        {
          "indexed": true,
          "internalType": "address",
          "name": "lender",
          "type": "address"
        },
        {
          "indexed": false,
          "internalType": "uint256",
          "name": "loanAmount",
          "type": "uint256"
        }
      ],
      "name": "LoanFunded",
      "type": "event"
    },
    {
      "anonymous": false,
      "inputs": [
        {
          "indexed": true,
          "internalType": "address",
          "name": "borrower",
          "type": "address"
        },
        {
          "indexed": true,
          "internalType": "address",
          "name": "lender",
          "type": "address"
        },
        {
          "indexed": false,
          "internalType": "uint256",
          "name": "collateralAmount",
          "type": "uint256"
        }
      ],
      "name": "LoanLiquidated",
      "type": "event"
    },
    {
      "anonymous": false,
      "inputs": [
        {
          "indexed": true,
          "internalType": "address",
          "name": "borrower",
          "type": "address"
        },
        {
          "indexed": false,
          "internalType": "uint256",
          "name": "repaymentAmount",
          "type": "uint256"
        }
      ],
      "name": "LoanRepaid",
      "type": "event"
    },
    {
      "anonymous": false,
      "inputs": [
        {
          "indexed": true,
          "internalType": "address",
          "name": "borrower",
          "type": "address"
        },
        {
          "indexed": false,
          "internalType": "uint256",
          "name": "loanAmount",
          "type": "uint256"
        }
      ],
      "name": "LoanTaken",
      "type": "event"
    },
    {
      "anonymous": false,
      "inputs": [
        {
          "indexed": true,
          "internalType": "address",
          "name": "borrower",
          "type": "address"
        },
        {
          "indexed": false,
          "internalType": "uint256",
          "name": "collateralAmount",
          "type": "uint256"
        }
      ],
      "name": "LoanTermsAccepted",
      "type": "event"
    },
    {
      "inputs": [],
      "name": "acceptLoanTerms",
      "outputs": [],
      "stateMutability": "payable",
      "type": "function"
    },
    {
      "inputs": [],
      "name": "borrower",
      "outputs": [
        {
          "internalType": "address payable",
          "name": "",
          "type": "address"
        }
      ],
      "stateMutability": "view",
      "type": "function"
    },
    {
      "inputs": [],
      "name": "calculateInterest",
      "outputs": [
        {
          "internalType": "uint256",
          "name": "",
          "type": "uint256"
        }
      ],
      "stateMutability": "view",
      "type": "function"
    },
    {
      "inputs": [],
      "name": "currentRateType",
      "outputs": [
        {
          "internalType": "enum LoanRequest.InterestRateType",
          "name": "",
          "type": "uint8"
        }
      ],
      "stateMutability": "view",
      "type": "function"
    },
    {
      "inputs": [],
      "name": "ethCollateralAmount",
      "outputs": [
        {
          "internalType": "uint256",
          "name": "",
          "type": "uint256"
        }
      ],
      "stateMutability": "view",
      "type": "function"
    },
    {
      "inputs": [],
      "name": "feeAmount",
      "outputs": [
        {
          "internalType": "uint256",
          "name": "",
          "type": "uint256"
        }
      ],
      "stateMutability": "view",
      "type": "function"
    },
    {
      "inputs": [],
      "name": "fixedRate",
      "outputs": [
        {
          "internalType": "uint256",
          "name": "",
          "type": "uint256"
        }
      ],
      "stateMutability": "view",
      "type": "function"
    },
    {
      "inputs": [],
      "name": "floatingRate",
      "outputs": [
        {
          "internalType": "uint256",
          "name": "",
          "type": "uint256"
        }
      ],
      "stateMutability": "view",
      "type": "function"
    },
    {
      "inputs": [],
      "name": "fundLoan",
      "outputs": [],
      "stateMutability": "payable",
      "type": "function"
    },
    {
      "inputs": [],
      "name": "getFixedRate",
      "outputs": [
        {
          "internalType": "uint256",
          "name": "",
          "type": "uint256"
        }
      ],
      "stateMutability": "view",
      "type": "function"
    },
    {
      "inputs": [],
      "name": "getFloatingRate",
      "outputs": [
        {
          "internalType": "uint256",
          "name": "",
          "type": "uint256"
        }
      ],
      "stateMutability": "view",
      "type": "function"
    },
    {
      "inputs": [],
      "name": "lender",
      "outputs": [
        {
          "internalType": "address payable",
          "name": "",
          "type": "address"
        }
      ],
      "stateMutability": "view",
      "type": "function"
    },
    {
      "inputs": [],
      "name": "liquidate",
      "outputs": [],
      "stateMutability": "nonpayable",
      "type": "function"
    },
    {
      "inputs": [],
      "name": "loanAmount",
      "outputs": [
        {
          "internalType": "uint256",
          "name": "",
          "type": "uint256"
        }
      ],
      "stateMutability": "view",
      "type": "function"
    },
    {
      "inputs": [],
      "name": "repay",
      "outputs": [],
      "stateMutability": "payable",
      "type": "function"
    },
    {
      "inputs": [],
      "name": "repayByTimestamp",
      "outputs": [
        {
          "internalType": "uint256",
          "name": "",
          "type": "uint256"
        }
      ],
      "stateMutability": "view",
      "type": "function"
    },
    {
      "inputs": [],
      "name": "state",
      "outputs": [
        {
          "internalType": "enum LoanRequest.LoanState",
          "name": "",
          "type": "uint8"
        }
      ],
      "stateMutability": "view",
      "type": "function"
    },
    {
      "inputs": [],
      "name": "switchRateType",
      "outputs": [],
      "stateMutability": "nonpayable",
      "type": "function"
    },
    {
      "inputs": [],
      "name": "takeALoan",
      "outputs": [],
      "stateMutability": "payable",
      "type": "function"
    },
    {
      "inputs": [],
      "name": "terms",
      "outputs": [
        {
          "internalType": "uint256",
          "name": "loanAmount",
          "type": "uint256"
        },
        {
          "internalType": "uint256",
          "name": "feeAmount",
          "type": "uint256"
        },
        {
          "internalType": "uint256",
          "name": "ethCollateralAmount",
          "type": "uint256"
        },
        {
          "internalType": "uint256",
          "name": "repayByTimestamp",
          "type": "uint256"
        },
        {
          "internalType": "uint256",
          "name": "fixedRate",
          "type": "uint256"
        },
        {
          "internalType": "uint256",
          "name": "floatingRate",
          "type": "uint256"
        }
      ],
      "stateMutability": "view",
      "type": "function"
    },
    {
      "inputs": [],
      "name": "updateFloatingRate",
      "outputs": [],
      "stateMutability": "nonpayable",
      "type": "function"
    }
  ],
  "bytecode": "0x608060405234801561001057600080fd5b50604051611f85380380611f85833981810160405281019061003291906101d7565b8660098190555085600a8190555084600b8190555083600c8190555082600d8190555081600e8190555080600060026101000a81548173ffffffffffffffffffffffffffffffffffffffff021916908373ffffffffffffffffffffffffffffffffffffffff16021790555060008060006101000a81548160ff021916908360058111156100c2576100c1610279565b5b021790555060008060016101000a81548160ff021916908360018111156100ec576100eb610279565b5b021790555033600760006101000a81548173ffffffffffffffffffffffffffffffffffffffff021916908373ffffffffffffffffffffffffffffffffffffffff160217905550505050505050506102a8565b600080fd5b6000819050919050565b61015681610143565b811461016157600080fd5b50565b6000815190506101738161014d565b92915050565b600073ffffffffffffffffffffffffffffffffffffffff82169050919050565b60006101a482610179565b9050919050565b6101b481610199565b81146101bf57600080fd5b50565b6000815190506101d1816101ab565b92915050565b600080600080600080600060e0888a0312156101f6576101f561013e565b5b60006102048a828b01610164565b97505060206102158a828b01610164565b96505060406102268a828b01610164565b95505060606102378a828b01610164565b94505060806102488a828b01610164565b93505060a06102598a828b01610164565b92505060c061026a8a828b016101c2565b91505092959891949750929550565b7f4e487b7100000000000000000000000000000000000000000000000000000000600052602160045260246000fd5b611cce806102b76000396000f3fe60806040526004361061012a5760003560e01c806398a88f2c116100ab578063c19d93fb1161006f578063c19d93fb14610315578063d502562514610340578063eb0c495514610370578063f55133541461039b578063f71dd46c146103c6578063fd3ed168146103f15761012a565b806398a88f2c146102735780639d585f7f1461028a578063ab2078d1146102b5578063bcead63e146102e0578063bf5e67341461030b5761012a565b806374eddc19116100f257806374eddc19146101d15780637df1f1b9146101e8578063802d14221461021357806385dfc5791461023e5780638db57994146102695761012a565b806328a070251461012f578063402d88831461014657806344d0d0c61461015057806369e154041461017b57806373c05178146101a6575b600080fd5b34801561013b57600080fd5b506101446103fb565b005b61014e610685565b005b34801561015c57600080fd5b50610165610933565b6040516101729190611229565b60405180910390f35b34801561018757600080fd5b50610190610939565b60405161019d9190611229565b60405180910390f35b3480156101b257600080fd5b506101bb61093f565b6040516101c89190611229565b60405180910390f35b3480156101dd57600080fd5b506101e6610949565b005b3480156101f457600080fd5b506101fd610a2e565b60405161020a9190611285565b60405180910390f35b34801561021f57600080fd5b50610228610a54565b6040516102359190611229565b60405180910390f35b34801561024a57600080fd5b50610253610a5a565b6040516102609190611229565b60405180910390f35b610271610a64565b005b34801561027f57600080fd5b50610288610c69565b005b34801561029657600080fd5b5061029f610d01565b6040516102ac9190611229565b60405180910390f35b3480156102c157600080fd5b506102ca610d07565b6040516102d79190611229565b60405180910390f35b3480156102ec57600080fd5b506102f5610d0d565b6040516103029190611285565b60405180910390f35b610313610d33565b005b34801561032157600080fd5b5061032a610f38565b6040516103379190611317565b60405180910390f35b34801561034c57600080fd5b50610355610f49565b60405161036796959493929190611332565b60405180910390f35b34801561037c57600080fd5b50610385610f73565b6040516103929190611229565b60405180910390f35b3480156103a757600080fd5b506103b061100c565b6040516103bd91906113db565b60405180910390f35b3480156103d257600080fd5b506103db61101f565b6040516103e89190611229565b60405180910390f35b6103f9611025565b005b6003600581111561040f5761040e6112a0565b5b60008054906101000a900460ff16600581111561042f5761042e6112a0565b5b1461046f576040517f08c379a000000000000000000000000000000000000000000000000000000000815260040161046690611453565b60405180910390fd5b600c5442116104b3576040517f08c379a00000000000000000000000000000000000000000000000000000000081526004016104aa906114e5565b60405180910390fd5b600760009054906101000a900473ffffffffffffffffffffffffffffffffffffffff1673ffffffffffffffffffffffffffffffffffffffff163373ffffffffffffffffffffffffffffffffffffffff1614610543576040517f08c379a000000000000000000000000000000000000000000000000000000000815260040161053a90611577565b60405180910390fd5b60056000806101000a81548160ff02191690836005811115610568576105676112a0565b5b0217905550600760009054906101000a900473ffffffffffffffffffffffffffffffffffffffff1673ffffffffffffffffffffffffffffffffffffffff166108fc600b549081150290604051600060405180830381858888f193505050501580156105d7573d6000803e3d6000fd5b50600760009054906101000a900473ffffffffffffffffffffffffffffffffffffffff1673ffffffffffffffffffffffffffffffffffffffff16600860009054906101000a900473ffffffffffffffffffffffffffffffffffffffff1673ffffffffffffffffffffffffffffffffffffffff167fd4bfdcd3d7029abe0d70d4a6f1f560c5eac8d3cd6ecef801c6d3d67a49be6068600b5460405161067b9190611229565b60405180910390a3565b60036005811115610699576106986112a0565b5b60008054906101000a900460ff1660058111156106b9576106b86112a0565b5b146106f9576040517f08c379a00000000000000000000000000000000000000000000000000000000081526004016106f090611453565b60405180910390fd5b600860009054906101000a900473ffffffffffffffffffffffffffffffffffffffff1673ffffffffffffffffffffffffffffffffffffffff163373ffffffffffffffffffffffffffffffffffffffff1614610789576040517f08c379a0000000000000000000000000000000000000000000000000000000008152600401610780906115e3565b60405180910390fd5b6000610793610f73565b6009546107a09190611632565b90508034146107e4576040517f08c379a00000000000000000000000000000000000000000000000000000000081526004016107db906116b2565b60405180910390fd5b60046000806101000a81548160ff02191690836005811115610809576108086112a0565b5b0217905550600760009054906101000a900473ffffffffffffffffffffffffffffffffffffffff1673ffffffffffffffffffffffffffffffffffffffff166108fc829081150290604051600060405180830381858888f19350505050158015610876573d6000803e3d6000fd5b50600860009054906101000a900473ffffffffffffffffffffffffffffffffffffffff1673ffffffffffffffffffffffffffffffffffffffff166108fc600b549081150290604051600060405180830381858888f193505050501580156108e1573d6000803e3d6000fd5b503373ffffffffffffffffffffffffffffffffffffffff167fc200a1f31dd659e356e0f112c82558e25f49f7b0f84438691cd96f5cb3558823826040516109289190611229565b60405180910390a250565b600b5481565b600a5481565b6000600d54905090565b60008060029054906101000a900473ffffffffffffffffffffffffffffffffffffffff1673ffffffffffffffffffffffffffffffffffffffff1663feaf968c6040518163ffffffff1660e01b815260040160a060405180830381865afa1580156109b7573d6000803e3d6000fd5b505050506040513d601f19601f820116820180604052508101906109db919061177b565b50505091505060008113610a24576040517f08c379a0000000000000000000000000000000000000000000000000000000008152600401610a1b90611842565b60405180910390fd5b80600e8190555050565b600860009054906101000a900473ffffffffffffffffffffffffffffffffffffffff1681565b600d5481565b6000600e54905090565b60006005811115610a7857610a776112a0565b5b60008054906101000a900460ff166005811115610a9857610a976112a0565b5b14610ad8576040517f08c379a0000000000000000000000000000000000000000000000000000000008152600401610acf906118ae565b60405180910390fd5b600760009054906101000a900473ffffffffffffffffffffffffffffffffffffffff1673ffffffffffffffffffffffffffffffffffffffff163373ffffffffffffffffffffffffffffffffffffffff1614610b68576040517f08c379a0000000000000000000000000000000000000000000000000000000008152600401610b5f9061191a565b60405180910390fd5b6009543414610bac576040517f08c379a0000000000000000000000000000000000000000000000000000000008152600401610ba390611986565b60405180910390fd5b33600760006101000a81548173ffffffffffffffffffffffffffffffffffffffff021916908373ffffffffffffffffffffffffffffffffffffffff16021790555060016000806101000a81548160ff02191690836005811115610c1257610c116112a0565b5b02179055503373ffffffffffffffffffffffffffffffffffffffff167f726d5f1a838fe31748f737fa3ae5539ccff95952adfc593a1299532b643ff7a8600954604051610c5f9190611229565b60405180910390a2565b60006001811115610c7d57610c7c6112a0565b5b600060019054906101000a900460ff166001811115610c9f57610c9e6112a0565b5b03610cd4576001600060016101000a81548160ff02191690836001811115610cca57610cc96112a0565b5b0217905550610cff565b60008060016101000a81548160ff02191690836001811115610cf957610cf86112a0565b5b02179055505b565b60095481565b600c5481565b600760009054906101000a900473ffffffffffffffffffffffffffffffffffffffff1681565b60016005811115610d4757610d466112a0565b5b60008054906101000a900460ff166005811115610d6757610d666112a0565b5b14610da7576040517f08c379a0000000000000000000000000000000000000000000000000000000008152600401610d9e906119f2565b60405180910390fd5b600760009054906101000a900473ffffffffffffffffffffffffffffffffffffffff1673ffffffffffffffffffffffffffffffffffffffff163373ffffffffffffffffffffffffffffffffffffffff1603610e37576040517f08c379a0000000000000000000000000000000000000000000000000000000008152600401610e2e90611a5e565b60405180910390fd5b600b543414610e7b576040517f08c379a0000000000000000000000000000000000000000000000000000000008152600401610e7290611aca565b60405180910390fd5b33600860006101000a81548173ffffffffffffffffffffffffffffffffffffffff021916908373ffffffffffffffffffffffffffffffffffffffff16021790555060026000806101000a81548160ff02191690836005811115610ee157610ee06112a0565b5b02179055503373ffffffffffffffffffffffffffffffffffffffff167f329f3f0a323b6707cfce03bd3ca41f8b814a00b01c6a417528c8e3ea66422e47600b54604051610f2e9190611229565b60405180910390a2565b60008054906101000a900460ff1681565b60018060000154908060010154908060020154908060030154908060040154908060050154905086565b60008060006001811115610f8a57610f896112a0565b5b600060019054906101000a900460ff166001811115610fac57610fab6112a0565b5b14610fb957600e54610fbd565b600d545b9050600060016003015442610fd29190611aea565b9050600063b6d1c2008284600160000154610fed9190611b1e565b610ff79190611b1e565b6110019190611b8f565b905080935050505090565b600060019054906101000a900460ff1681565b600e5481565b60026005811115611039576110386112a0565b5b60008054906101000a900460ff166005811115611059576110586112a0565b5b14611099576040517f08c379a000000000000000000000000000000000000000000000000000000000815260040161109090611c0c565b60405180910390fd5b600860009054906101000a900473ffffffffffffffffffffffffffffffffffffffff1673ffffffffffffffffffffffffffffffffffffffff163373ffffffffffffffffffffffffffffffffffffffff1614611129576040517f08c379a000000000000000000000000000000000000000000000000000000000815260040161112090611c78565b60405180910390fd5b60036000806101000a81548160ff0219169083600581111561114e5761114d6112a0565b5b0217905550600860009054906101000a900473ffffffffffffffffffffffffffffffffffffffff1673ffffffffffffffffffffffffffffffffffffffff166108fc6009549081150290604051600060405180830381858888f193505050501580156111bd573d6000803e3d6000fd5b503373ffffffffffffffffffffffffffffffffffffffff167fd5c776eab9418d89c040ffee59f2310d225f5ff682191bcee59b0413a7fd48356009546040516112069190611229565b60405180910390a2565b6000819050919050565b61122381611210565b82525050565b600060208201905061123e600083018461121a565b92915050565b600073ffffffffffffffffffffffffffffffffffffffff82169050919050565b600061126f82611244565b9050919050565b61127f81611264565b82525050565b600060208201905061129a6000830184611276565b92915050565b7f4e487b7100000000000000000000000000000000000000000000000000000000600052602160045260246000fd5b600681106112e0576112df6112a0565b5b50565b60008190506112f1826112cf565b919050565b6000611301826112e3565b9050919050565b611311816112f6565b82525050565b600060208201905061132c6000830184611308565b92915050565b600060c082019050611347600083018961121a565b611354602083018861121a565b611361604083018761121a565b61136e606083018661121a565b61137b608083018561121a565b61138860a083018461121a565b979650505050505050565b600281106113a4576113a36112a0565b5b50565b60008190506113b582611393565b919050565b60006113c5826113a7565b9050919050565b6113d5816113ba565b82525050565b60006020820190506113f060008301846113cc565b92915050565b600082825260208201905092915050565b7f4c6f616e206973206e6f7420696e2054616b656e207374617465000000000000600082015250565b600061143d601a836113f6565b915061144882611407565b602082019050919050565b6000602082019050818103600083015261146c81611430565b9050919050565b7f52657061796d656e7420646561646c696e6520686173206e6f7420706173736560008201527f6400000000000000000000000000000000000000000000000000000000000000602082015250565b60006114cf6021836113f6565b91506114da82611473565b604082019050919050565b600060208201905081810360008301526114fe816114c2565b9050919050565b7f4f6e6c79206c656e6465722063616e206c697175696461746520746865206c6f60008201527f616e000000000000000000000000000000000000000000000000000000000000602082015250565b60006115616022836113f6565b915061156c82611505565b604082019050919050565b6000602082019050818103600083015261159081611554565b9050919050565b7f4f6e6c7920626f72726f7765722063616e20726570617920746865206c6f616e600082015250565b60006115cd6020836113f6565b91506115d882611597565b602082019050919050565b600060208201905081810360008301526115fc816115c0565b9050919050565b7f4e487b7100000000000000000000000000000000000000000000000000000000600052601160045260246000fd5b600061163d82611210565b915061164883611210565b92508282019050808211156116605761165f611603565b5b92915050565b7f496e636f72726563742072657061796d656e7420616d6f756e74000000000000600082015250565b600061169c601a836113f6565b91506116a782611666565b602082019050919050565b600060208201905081810360008301526116cb8161168f565b9050919050565b600080fd5b600069ffffffffffffffffffff82169050919050565b6116f6816116d7565b811461170157600080fd5b50565b600081519050611713816116ed565b92915050565b6000819050919050565b61172c81611719565b811461173757600080fd5b50565b60008151905061174981611723565b92915050565b61175881611210565b811461176357600080fd5b50565b6000815190506117758161174f565b92915050565b600080600080600060a08688031215611797576117966116d2565b5b60006117a588828901611704565b95505060206117b68882890161173a565b94505060406117c788828901611766565b93505060606117d888828901611766565b92505060806117e988828901611704565b9150509295509295909350565b7f496e76616c696420707269636500000000000000000000000000000000000000600082015250565b600061182c600d836113f6565b9150611837826117f6565b602082019050919050565b6000602082019050818103600083015261185b8161181f565b9050919050565b7f4c6f616e206973206e6f7420696e204372656174656420737461746500000000600082015250565b6000611898601c836113f6565b91506118a382611862565b602082019050919050565b600060208201905081810360008301526118c78161188b565b9050919050565b7f4f6e6c79206c656e6465722063616e2066756e6420746865206c6f616e000000600082015250565b6000611904601d836113f6565b915061190f826118ce565b602082019050919050565b60006020820190508181036000830152611933816118f7565b9050919050565b7f496e636f7272656374206c6f616e20616d6f756e740000000000000000000000600082015250565b60006119706015836113f6565b915061197b8261193a565b602082019050919050565b6000602082019050818103600083015261199f81611963565b9050919050565b7f4c6f616e206973206e6f7420696e2046756e6465642073746174650000000000600082015250565b60006119dc601b836113f6565b91506119e7826119a6565b602082019050919050565b60006020820190508181036000830152611a0b816119cf565b9050919050565b7f4c656e6465722063616e6e6f742074616b6520746865206c6f616e0000000000600082015250565b6000611a48601b836113f6565b9150611a5382611a12565b602082019050919050565b60006020820190508181036000830152611a7781611a3b565b9050919050565b7f496e636f727265637420636f6c6c61746572616c20616d6f756e740000000000600082015250565b6000611ab4601b836113f6565b9150611abf82611a7e565b602082019050919050565b60006020820190508181036000830152611ae381611aa7565b9050919050565b6000611af582611210565b9150611b0083611210565b9250828203905081811115611b1857611b17611603565b5b92915050565b6000611b2982611210565b9150611b3483611210565b9250828202611b4281611210565b91508282048414831517611b5957611b58611603565b5b5092915050565b7f4e487b7100000000000000000000000000000000000000000000000000000000600052601260045260246000fd5b6000611b9a82611210565b9150611ba583611210565b925082611bb557611bb4611b60565b5b828204905092915050565b7f4c6f616e206973206e6f7420696e206163636570746564207374617465000000600082015250565b6000611bf6601d836113f6565b9150611c0182611bc0565b602082019050919050565b60006020820190508181036000830152611c2581611be9565b9050919050565b7f4f6e6c7920626f72726f7765722063616e2074616b6520746865206c6f616e00600082015250565b6000611c62601f836113f6565b9150611c6d82611c2c565b602082019050919050565b60006020820190508181036000830152611c9181611c55565b905091905056fea2646970667358221220326e063f74c548e106bf6e043dc2ce0c019c436e3b2cf62b98a145e1e67610c464736f6c634300081c0033",
  "linkReferences": {},
  "deployedLinkReferences": {}
}