{
  "_format": "hh-sol-artifact-1",
  "contractName": "LoanRequest",
  "sourceName": "contracts/LoanRequest.sol",
  "abi": [
    {
      "inputs": [
        {
          "components": [
            {
              "internalType": "uint256",
              "name": "loanDaiAmount",
              "type": "uint256"
            },
            {
              "internalType": "uint256",
              "name": "feeDaiAmount",
              "type": "uint256"
            },
            {
              "internalType": "uint256",
              "name": "ethCollateralAmount",
              "type": "uint256"
            },
            {
              "internalType": "uint256",
              "name": "repayByTimestamp",
              "type": "uint256"
            },
            {
              "internalType": "uint256",
              "name": "fixedRate",
              "type": "uint256"
            },
            {
              "internalType": "uint256",
              "name": "floatingRate",
              "type": "uint256"
            }
          ],
          "internalType": "struct LoanRequest.Terms",
          "name": "_terms",
          "type": "tuple"
        },
        {
          "internalType": "address",
          "name": "_daiAddress",
          "type": "address"
        }
      ],
      "stateMutability": "nonpayable",
      "type": "constructor"
    },
    {
      "anonymous": false,
      "inputs": [
        {
          "indexed": true,
          "internalType": "address",
          "name": "lender",
          "type": "address"
        },
        {
          "indexed": false,
          "internalType": "uint256",
          "name": "loanDaiAmount",
          "type": "uint256"
        }
      ],
      "name": "LoanFunded",
      "type": "event"
    },
    {
      "anonymous": false,
      "inputs": [
        {
          "indexed": true,
          "internalType": "address",
          "name": "lender",
          "type": "address"
        },
        {
          "indexed": false,
          "internalType": "uint256",
          "name": "collateralAmount",
          "type": "uint256"
        }
      ],
      "name": "LoanLiquidated",
      "type": "event"
    },
    {
      "anonymous": false,
      "inputs": [
        {
          "indexed": true,
          "internalType": "address",
          "name": "borrower",
          "type": "address"
        },
        {
          "indexed": false,
          "internalType": "uint256",
          "name": "repaymentAmount",
          "type": "uint256"
        },
        {
          "indexed": false,
          "internalType": "uint256",
          "name": "interestAmount",
          "type": "uint256"
        }
      ],
      "name": "LoanRepaid",
      "type": "event"
    },
    {
      "anonymous": false,
      "inputs": [
        {
          "indexed": true,
          "internalType": "address",
          "name": "borrower",
          "type": "address"
        },
        {
          "indexed": false,
          "internalType": "uint256",
          "name": "collateralAmount",
          "type": "uint256"
        },
        {
          "indexed": false,
          "internalType": "uint256",
          "name": "loanAmount",
          "type": "uint256"
        }
      ],
      "name": "LoanTaken",
      "type": "event"
    },
    {
      "anonymous": false,
      "inputs": [
        {
          "indexed": true,
          "internalType": "address",
          "name": "borrower",
          "type": "address"
        },
        {
          "indexed": false,
          "internalType": "enum LoanRequest.InterestRateType",
          "name": "newLoanType",
          "type": "uint8"
        }
      ],
      "name": "RateSwitched",
      "type": "event"
    },
    {
      "inputs": [],
      "name": "borrower",
      "outputs": [
        {
          "internalType": "address payable",
          "name": "",
          "type": "address"
        }
      ],
      "stateMutability": "view",
      "type": "function"
    },
    {
      "inputs": [],
      "name": "daiAddress",
      "outputs": [
        {
          "internalType": "address",
          "name": "",
          "type": "address"
        }
      ],
      "stateMutability": "view",
      "type": "function"
    },
    {
      "inputs": [],
      "name": "fundLoan",
      "outputs": [],
      "stateMutability": "nonpayable",
      "type": "function"
    },
    {
      "inputs": [],
      "name": "lender",
      "outputs": [
        {
          "internalType": "address payable",
          "name": "",
          "type": "address"
        }
      ],
      "stateMutability": "view",
      "type": "function"
    },
    {
      "inputs": [],
      "name": "liquidate",
      "outputs": [],
      "stateMutability": "nonpayable",
      "type": "function"
    },
    {
      "inputs": [],
      "name": "rateType",
      "outputs": [
        {
          "internalType": "enum LoanRequest.InterestRateType",
          "name": "",
          "type": "uint8"
        }
      ],
      "stateMutability": "view",
      "type": "function"
    },
    {
      "inputs": [],
      "name": "repay",
      "outputs": [],
      "stateMutability": "nonpayable",
      "type": "function"
    },
    {
      "inputs": [],
      "name": "state",
      "outputs": [
        {
          "internalType": "enum LoanRequest.LoanState",
          "name": "",
          "type": "uint8"
        }
      ],
      "stateMutability": "view",
      "type": "function"
    },
    {
      "inputs": [],
      "name": "switchRate",
      "outputs": [],
      "stateMutability": "nonpayable",
      "type": "function"
    },
    {
      "inputs": [],
      "name": "takeALoanAndAcceptLoanTerms",
      "outputs": [],
      "stateMutability": "payable",
      "type": "function"
    },
    {
      "inputs": [],
      "name": "terms",
      "outputs": [
        {
          "internalType": "uint256",
          "name": "loanDaiAmount",
          "type": "uint256"
        },
        {
          "internalType": "uint256",
          "name": "feeDaiAmount",
          "type": "uint256"
        },
        {
          "internalType": "uint256",
          "name": "ethCollateralAmount",
          "type": "uint256"
        },
        {
          "internalType": "uint256",
          "name": "repayByTimestamp",
          "type": "uint256"
        },
        {
          "internalType": "uint256",
          "name": "fixedRate",
          "type": "uint256"
        },
        {
          "internalType": "uint256",
          "name": "floatingRate",
          "type": "uint256"
        }
      ],
      "stateMutability": "view",
      "type": "function"
    }
  ],
  "bytecode": "0x608060405234801561001057600080fd5b50604051611e52380380611e5283398181016040528101906100329190610326565b8160008082015181600001556020820151816001015560408201518160020155606082015181600301556080820151816004015560a0820151816005015590505080600860006101000a81548173ffffffffffffffffffffffffffffffffffffffff021916908373ffffffffffffffffffffffffffffffffffffffff16021790555033600660026101000a81548173ffffffffffffffffffffffffffffffffffffffff021916908373ffffffffffffffffffffffffffffffffffffffff1602179055506000600660006101000a81548160ff0219169083600481111561011b5761011a610366565b5b02179055506000600660016101000a81548160ff0219169083600181111561014657610145610366565b5b02179055505050610395565b6000604051905090565b600080fd5b600080fd5b6000601f19601f8301169050919050565b7f4e487b7100000000000000000000000000000000000000000000000000000000600052604160045260246000fd5b6101af82610166565b810181811067ffffffffffffffff821117156101ce576101cd610177565b5b80604052505050565b60006101e1610152565b90506101ed82826101a6565b919050565b6000819050919050565b610205816101f2565b811461021057600080fd5b50565b600081519050610222816101fc565b92915050565b600060c0828403121561023e5761023d610161565b5b61024860c06101d7565b9050600061025884828501610213565b600083015250602061026c84828501610213565b602083015250604061028084828501610213565b604083015250606061029484828501610213565b60608301525060806102a884828501610213565b60808301525060a06102bc84828501610213565b60a08301525092915050565b600073ffffffffffffffffffffffffffffffffffffffff82169050919050565b60006102f3826102c8565b9050919050565b610303816102e8565b811461030e57600080fd5b50565b600081519050610320816102fa565b92915050565b60008060e0838503121561033d5761033c61015c565b5b600061034b85828601610228565b92505060c061035c85828601610311565b9150509250929050565b7f4e487b7100000000000000000000000000000000000000000000000000000000600052602160045260246000fd5b611aae806103a46000396000f3fe60806040526004361061009c5760003560e01c80637df1f1b9116100645780637df1f1b91461012f578063818a60f01461015a5780638db5799414610171578063bcead63e14610188578063c19d93fb146101b3578063d5025625146101de5761009c565b806328a07025146100a15780632c387275146100b8578063402d8883146100e35780634c4b28f6146100fa5780636b3f345e14610104575b600080fd5b3480156100ad57600080fd5b506100b661020e565b005b3480156100c457600080fd5b506100cd6104b2565b6040516100da91906110c2565b60405180910390f35b3480156100ef57600080fd5b506100f86104d8565b005b6101026108de565b005b34801561011057600080fd5b50610119610b63565b6040516101269190611154565b60405180910390f35b34801561013b57600080fd5b50610144610b76565b6040516101519190611190565b60405180910390f35b34801561016657600080fd5b5061016f610b9c565b005b34801561017d57600080fd5b50610186610d71565b005b34801561019457600080fd5b5061019d61101e565b6040516101aa9190611190565b60405180910390f35b3480156101bf57600080fd5b506101c8611044565b6040516101d591906111f3565b60405180910390f35b3480156101ea57600080fd5b506101f3611057565b60405161020596959493929190611227565b60405180910390f35b6002806004811115610223576102226110dd565b5b600660009054906101000a900460ff166004811115610245576102446110dd565b5b14610285576040517f08c379a000000000000000000000000000000000000000000000000000000000815260040161027c906112e5565b60405180910390fd5b600660029054906101000a900473ffffffffffffffffffffffffffffffffffffffff1673ffffffffffffffffffffffffffffffffffffffff163373ffffffffffffffffffffffffffffffffffffffff1614610315576040517f08c379a000000000000000000000000000000000000000000000000000000000815260040161030c90611351565b60405180910390fd5b60006003015442101561035d576040517f08c379a0000000000000000000000000000000000000000000000000000000008152600401610354906113e3565b60405180910390fd5b6004600660006101000a81548160ff02191690836004811115610383576103826110dd565b5b02179055506000600660029054906101000a900473ffffffffffffffffffffffffffffffffffffffff1673ffffffffffffffffffffffffffffffffffffffff166000600201546040516103d590611434565b60006040518083038185875af1925050503d8060008114610412576040519150601f19603f3d011682016040523d82523d6000602084013e610417565b606091505b505090508061045b576040517f08c379a000000000000000000000000000000000000000000000000000000000815260040161045290611495565b60405180910390fd5b3373ffffffffffffffffffffffffffffffffffffffff167fd75168f1c9346a6c18eaeba0d3c95ea70b5dc2c0c280274a670c97cb8e4f415b6000600201546040516104a691906114b5565b60405180910390a25050565b600860009054906101000a900473ffffffffffffffffffffffffffffffffffffffff1681565b60028060048111156104ed576104ec6110dd565b5b600660009054906101000a900460ff16600481111561050f5761050e6110dd565b5b1461054f576040517f08c379a0000000000000000000000000000000000000000000000000000000008152600401610546906112e5565b60405180910390fd5b600760009054906101000a900473ffffffffffffffffffffffffffffffffffffffff1673ffffffffffffffffffffffffffffffffffffffff163373ffffffffffffffffffffffffffffffffffffffff16146105df576040517f08c379a00000000000000000000000000000000000000000000000000000000081526004016105d690611542565b60405180910390fd5b60008060018111156105f4576105f36110dd565b5b600660019054906101000a900460ff166001811115610616576106156110dd565b5b146106265760006005015461062d565b6000600401545b905060006127108260008001546106449190611591565b61064e9190611602565b905060008160008001546106629190611633565b9050600860009054906101000a900473ffffffffffffffffffffffffffffffffffffffff1673ffffffffffffffffffffffffffffffffffffffff166323b872dd600760009054906101000a900473ffffffffffffffffffffffffffffffffffffffff16600660029054906101000a900473ffffffffffffffffffffffffffffffffffffffff16846040518463ffffffff1660e01b8152600401610707939291906116c6565b6020604051808303816000875af1158015610726573d6000803e3d6000fd5b505050506040513d601f19601f8201168201806040525081019061074a919061173a565b610789576040517f08c379a0000000000000000000000000000000000000000000000000000000008152600401610780906117b3565b60405180910390fd5b6003600660006101000a81548160ff021916908360048111156107af576107ae6110dd565b5b02179055506000600760009054906101000a900473ffffffffffffffffffffffffffffffffffffffff1673ffffffffffffffffffffffffffffffffffffffff1660006002015460405161080190611434565b60006040518083038185875af1925050503d806000811461083e576040519150601f19603f3d011682016040523d82523d6000602084013e610843565b606091505b5050905080610887576040517f08c379a000000000000000000000000000000000000000000000000000000000815260040161087e90611495565b60405180910390fd5b3373ffffffffffffffffffffffffffffffffffffffff167fc7ce0a35f17b490de2a317e7fecb2cae86b1abffb03800b2f49282352138269883856040516108cf9291906117d3565b60405180910390a25050505050565b60018060048111156108f3576108f26110dd565b5b600660009054906101000a900460ff166004811115610915576109146110dd565b5b14610955576040517f08c379a000000000000000000000000000000000000000000000000000000000815260040161094c906112e5565b60405180910390fd5b600060020154341461099c576040517f08c379a000000000000000000000000000000000000000000000000000000000815260040161099390611848565b60405180910390fd5b33600760006101000a81548173ffffffffffffffffffffffffffffffffffffffff021916908373ffffffffffffffffffffffffffffffffffffffff1602179055506002600660006101000a81548160ff02191690836004811115610a0357610a026110dd565b5b0217905550600860009054906101000a900473ffffffffffffffffffffffffffffffffffffffff1673ffffffffffffffffffffffffffffffffffffffff1663a9059cbb600760009054906101000a900473ffffffffffffffffffffffffffffffffffffffff1660008001546040518363ffffffff1660e01b8152600401610a8b929190611868565b6020604051808303816000875af1158015610aaa573d6000803e3d6000fd5b505050506040513d601f19601f82011682018060405250810190610ace919061173a565b610b0d576040517f08c379a0000000000000000000000000000000000000000000000000000000008152600401610b04906118dd565b60405180910390fd5b3373ffffffffffffffffffffffffffffffffffffffff167e6b9bb4766cf5ab74b890df959e4fad0e54b1c3885e49c9541d36253a6e39e6346000800154604051610b589291906117d3565b60405180910390a250565b600660019054906101000a900460ff1681565b600760009054906101000a900473ffffffffffffffffffffffffffffffffffffffff1681565b6002806004811115610bb157610bb06110dd565b5b600660009054906101000a900460ff166004811115610bd357610bd26110dd565b5b14610c13576040517f08c379a0000000000000000000000000000000000000000000000000000000008152600401610c0a906112e5565b60405180910390fd5b600760009054906101000a900473ffffffffffffffffffffffffffffffffffffffff1673ffffffffffffffffffffffffffffffffffffffff163373ffffffffffffffffffffffffffffffffffffffff1614610ca3576040517f08c379a0000000000000000000000000000000000000000000000000000000008152600401610c9a90611949565b60405180910390fd5b60006001811115610cb757610cb66110dd565b5b600660019054906101000a900460ff166001811115610cd957610cd86110dd565b5b14610ce5576000610ce8565b60015b600660016101000a81548160ff02191690836001811115610d0c57610d0b6110dd565b5b02179055503373ffffffffffffffffffffffffffffffffffffffff167ffbeb344693e2af6892dd30703df8c6b064a49ed841f1b7948639c802548f2976600660019054906101000a900460ff16604051610d669190611154565b60405180910390a250565b6000806004811115610d8657610d856110dd565b5b600660009054906101000a900460ff166004811115610da857610da76110dd565b5b14610de8576040517f08c379a0000000000000000000000000000000000000000000000000000000008152600401610ddf906112e5565b60405180910390fd5b600760009054906101000a900473ffffffffffffffffffffffffffffffffffffffff1673ffffffffffffffffffffffffffffffffffffffff163373ffffffffffffffffffffffffffffffffffffffff1603610e78576040517f08c379a0000000000000000000000000000000000000000000000000000000008152600401610e6f906119b5565b60405180910390fd5b600860009054906101000a900473ffffffffffffffffffffffffffffffffffffffff1673ffffffffffffffffffffffffffffffffffffffff166323b872dd333060008001546040518463ffffffff1660e01b8152600401610edb939291906119d5565b6020604051808303816000875af1158015610efa573d6000803e3d6000fd5b505050506040513d601f19601f82011682018060405250810190610f1e919061173a565b610f5d576040517f08c379a0000000000000000000000000000000000000000000000000000000008152600401610f5490611a58565b60405180910390fd5b6001600660006101000a81548160ff02191690836004811115610f8357610f826110dd565b5b021790555033600660026101000a81548173ffffffffffffffffffffffffffffffffffffffff021916908373ffffffffffffffffffffffffffffffffffffffff1602179055503373ffffffffffffffffffffffffffffffffffffffff167f726d5f1a838fe31748f737fa3ae5539ccff95952adfc593a1299532b643ff7a8600080015460405161101391906114b5565b60405180910390a250565b600660029054906101000a900473ffffffffffffffffffffffffffffffffffffffff1681565b600660009054906101000a900460ff1681565b60008060000154908060010154908060020154908060030154908060040154908060050154905086565b600073ffffffffffffffffffffffffffffffffffffffff82169050919050565b60006110ac82611081565b9050919050565b6110bc816110a1565b82525050565b60006020820190506110d760008301846110b3565b92915050565b7f4e487b7100000000000000000000000000000000000000000000000000000000600052602160045260246000fd5b6002811061111d5761111c6110dd565b5b50565b600081905061112e8261110c565b919050565b600061113e82611120565b9050919050565b61114e81611133565b82525050565b60006020820190506111696000830184611145565b92915050565b600061117a82611081565b9050919050565b61118a8161116f565b82525050565b60006020820190506111a56000830184611181565b92915050565b600581106111bc576111bb6110dd565b5b50565b60008190506111cd826111ab565b919050565b60006111dd826111bf565b9050919050565b6111ed816111d2565b82525050565b600060208201905061120860008301846111e4565b92915050565b6000819050919050565b6112218161120e565b82525050565b600060c08201905061123c6000830189611218565b6112496020830188611218565b6112566040830187611218565b6112636060830186611218565b6112706080830185611218565b61127d60a0830184611218565b979650505050505050565b600082825260208201905092915050565b7f4e6f7420616c6c6f77656420696e207468697320737461746500000000000000600082015250565b60006112cf601983611288565b91506112da82611299565b602082019050919050565b600060208201905081810360008301526112fe816112c2565b9050919050565b7f4f6e6c79206c656e6465722063616e206c6971756964617465206c6f616e0000600082015250565b600061133b601e83611288565b915061134682611305565b602082019050919050565b6000602082019050818103600083015261136a8161132e565b9050919050565b7f43616e206e6f74206c6971756964617465206265666f7265206c6f616e20697360008201527f2064756500000000000000000000000000000000000000000000000000000000602082015250565b60006113cd602483611288565b91506113d882611371565b604082019050919050565b600060208201905081810360008301526113fc816113c0565b9050919050565b600081905092915050565b50565b600061141e600083611403565b91506114298261140e565b600082019050919050565b600061143f82611411565b9150819050919050565b7f436f6c6c61746572616c20726566756e64206661696c65640000000000000000600082015250565b600061147f601883611288565b915061148a82611449565b602082019050919050565b600060208201905081810360008301526114ae81611472565b9050919050565b60006020820190506114ca6000830184611218565b92915050565b7f4f6e6c792074686520626f72726f7765722063616e207265706179207468652060008201527f6c6f616e00000000000000000000000000000000000000000000000000000000602082015250565b600061152c602483611288565b9150611537826114d0565b604082019050919050565b6000602082019050818103600083015261155b8161151f565b9050919050565b7f4e487b7100000000000000000000000000000000000000000000000000000000600052601160045260246000fd5b600061159c8261120e565b91506115a78361120e565b92508282026115b58161120e565b915082820484148315176115cc576115cb611562565b5b5092915050565b7f4e487b7100000000000000000000000000000000000000000000000000000000600052601260045260246000fd5b600061160d8261120e565b91506116188361120e565b925082611628576116276115d3565b5b828204905092915050565b600061163e8261120e565b91506116498361120e565b925082820190508082111561166157611660611562565b5b92915050565b6000819050919050565b600061168c61168761168284611081565b611667565b611081565b9050919050565b600061169e82611671565b9050919050565b60006116b082611693565b9050919050565b6116c0816116a5565b82525050565b60006060820190506116db60008301866116b7565b6116e860208301856116b7565b6116f56040830184611218565b949350505050565b600080fd5b60008115159050919050565b61171781611702565b811461172257600080fd5b50565b6000815190506117348161170e565b92915050565b6000602082840312156117505761174f6116fd565b5b600061175e84828501611725565b91505092915050565b7f444149207472616e73666572206661696c656400000000000000000000000000600082015250565b600061179d601383611288565b91506117a882611767565b602082019050919050565b600060208201905081810360008301526117cc81611790565b9050919050565b60006040820190506117e86000830185611218565b6117f56020830184611218565b9392505050565b7f496e76616c696420636f6c6c61746572616c20616d6f756e7400000000000000600082015250565b6000611832601983611288565b915061183d826117fc565b602082019050919050565b6000602082019050818103600083015261186181611825565b9050919050565b600060408201905061187d60008301856116b7565b61188a6020830184611218565b9392505050565b7f5472616e7366657220746f20626f72726f776572206661696c65640000000000600082015250565b60006118c7601b83611288565b91506118d282611891565b602082019050919050565b600060208201905081810360008301526118f6816118ba565b9050919050565b7f4f6e6c7920626f72726f7765722063616e207377697463682072617465730000600082015250565b6000611933601e83611288565b915061193e826118fd565b602082019050919050565b6000602082019050818103600083015261196281611926565b9050919050565b7f426f72726f7765722063616e6e6f742066756e64206c6f616e00000000000000600082015250565b600061199f601983611288565b91506119aa82611969565b602082019050919050565b600060208201905081810360008301526119ce81611992565b9050919050565b60006060820190506119ea60008301866110b3565b6119f760208301856110b3565b611a046040830184611218565b949350505050565b7f5472616e73666572206661696c65640000000000000000000000000000000000600082015250565b6000611a42600f83611288565b9150611a4d82611a0c565b602082019050919050565b60006020820190508181036000830152611a7181611a35565b905091905056fea2646970667358221220be0bab28f9e019c59cf44b13ade7fa98459db39e3daf3e32c457b5656e12665d64736f6c634300081c0033",
  "linkReferences": {},
  "deployedLinkReferences": {}
}