{
  "_format": "hh-sol-artifact-1",
  "contractName": "LoanRequest",
  "sourceName": "contracts/LoanRequest.sol",
  "abi": [
    {
      "inputs": [
        {
          "internalType": "uint256",
          "name": "_loanDaiAmount",
          "type": "uint256"
        },
        {
          "internalType": "uint256",
          "name": "_feeDaiAmount",
          "type": "uint256"
        },
        {
          "internalType": "uint256",
          "name": "_ethCollateralAmount",
          "type": "uint256"
        },
        {
          "internalType": "uint256",
          "name": "_repayByTimestamp",
          "type": "uint256"
        },
        {
          "internalType": "uint256",
          "name": "_fixedRate",
          "type": "uint256"
        },
        {
          "internalType": "uint256",
          "name": "_floatingRate",
          "type": "uint256"
        },
        {
          "internalType": "address",
          "name": "_daiToken",
          "type": "address"
        },
        {
          "internalType": "address",
          "name": "_oracleAddress",
          "type": "address"
        }
      ],
      "stateMutability": "nonpayable",
      "type": "constructor"
    },
    {
      "anonymous": false,
      "inputs": [
        {
          "indexed": true,
          "internalType": "address",
          "name": "borrower",
          "type": "address"
        },
        {
          "indexed": true,
          "internalType": "address",
          "name": "lender",
          "type": "address"
        },
        {
          "indexed": false,
          "internalType": "uint256",
          "name": "collateralAmount",
          "type": "uint256"
        }
      ],
      "name": "LoanLiquidated",
      "type": "event"
    },
    {
      "anonymous": false,
      "inputs": [
        {
          "indexed": true,
          "internalType": "address",
          "name": "borrower",
          "type": "address"
        },
        {
          "indexed": false,
          "internalType": "uint256",
          "name": "repaymentAmount",
          "type": "uint256"
        },
        {
          "indexed": false,
          "internalType": "uint256",
          "name": "interestPaid",
          "type": "uint256"
        }
      ],
      "name": "LoanRepaid",
      "type": "event"
    },
    {
      "inputs": [],
      "name": "acceptLoanTerms",
      "outputs": [],
      "stateMutability": "payable",
      "type": "function"
    },
    {
      "inputs": [],
      "name": "borrower",
      "outputs": [
        {
          "internalType": "address",
          "name": "",
          "type": "address"
        }
      ],
      "stateMutability": "view",
      "type": "function"
    },
    {
      "inputs": [],
      "name": "currentRateType",
      "outputs": [
        {
          "internalType": "enum LoanRequest.InterestRateType",
          "name": "",
          "type": "uint8"
        }
      ],
      "stateMutability": "view",
      "type": "function"
    },
    {
      "inputs": [],
      "name": "daiToken",
      "outputs": [
        {
          "internalType": "contract IERC20",
          "name": "",
          "type": "address"
        }
      ],
      "stateMutability": "view",
      "type": "function"
    },
    {
      "inputs": [],
      "name": "ethCollateralAmount",
      "outputs": [
        {
          "internalType": "uint256",
          "name": "",
          "type": "uint256"
        }
      ],
      "stateMutability": "view",
      "type": "function"
    },
    {
      "inputs": [],
      "name": "feeDaiAmount",
      "outputs": [
        {
          "internalType": "uint256",
          "name": "",
          "type": "uint256"
        }
      ],
      "stateMutability": "view",
      "type": "function"
    },
    {
      "inputs": [],
      "name": "fixedRate",
      "outputs": [
        {
          "internalType": "uint256",
          "name": "",
          "type": "uint256"
        }
      ],
      "stateMutability": "view",
      "type": "function"
    },
    {
      "inputs": [],
      "name": "floatingRate",
      "outputs": [
        {
          "internalType": "uint256",
          "name": "",
          "type": "uint256"
        }
      ],
      "stateMutability": "view",
      "type": "function"
    },
    {
      "inputs": [],
      "name": "fundLoan",
      "outputs": [],
      "stateMutability": "payable",
      "type": "function"
    },
    {
      "inputs": [],
      "name": "getFloatingRate",
      "outputs": [
        {
          "internalType": "uint256",
          "name": "",
          "type": "uint256"
        }
      ],
      "stateMutability": "view",
      "type": "function"
    },
    {
      "inputs": [],
      "name": "lender",
      "outputs": [
        {
          "internalType": "address",
          "name": "",
          "type": "address"
        }
      ],
      "stateMutability": "view",
      "type": "function"
    },
    {
      "inputs": [],
      "name": "liquidate",
      "outputs": [],
      "stateMutability": "nonpayable",
      "type": "function"
    },
    {
      "inputs": [],
      "name": "loanDaiAmount",
      "outputs": [
        {
          "internalType": "uint256",
          "name": "",
          "type": "uint256"
        }
      ],
      "stateMutability": "view",
      "type": "function"
    },
    {
      "inputs": [],
      "name": "repay",
      "outputs": [],
      "stateMutability": "nonpayable",
      "type": "function"
    },
    {
      "inputs": [],
      "name": "repayByTimestamp",
      "outputs": [
        {
          "internalType": "uint256",
          "name": "",
          "type": "uint256"
        }
      ],
      "stateMutability": "view",
      "type": "function"
    },
    {
      "inputs": [],
      "name": "state",
      "outputs": [
        {
          "internalType": "enum LoanRequest.LoanState",
          "name": "",
          "type": "uint8"
        }
      ],
      "stateMutability": "view",
      "type": "function"
    },
    {
      "inputs": [],
      "name": "switchRateType",
      "outputs": [],
      "stateMutability": "nonpayable",
      "type": "function"
    },
    {
      "inputs": [],
      "name": "takeALoan",
      "outputs": [],
      "stateMutability": "payable",
      "type": "function"
    },
    {
      "inputs": [],
      "name": "takeALoanAndAcceptLoanTerms",
      "outputs": [],
      "stateMutability": "payable",
      "type": "function"
    },
    {
      "inputs": [],
      "name": "terms",
      "outputs": [
        {
          "internalType": "uint256",
          "name": "loanDaiAmount",
          "type": "uint256"
        },
        {
          "internalType": "uint256",
          "name": "feeDaiAmount",
          "type": "uint256"
        },
        {
          "internalType": "uint256",
          "name": "ethCollateralAmount",
          "type": "uint256"
        },
        {
          "internalType": "uint256",
          "name": "repayByTimestamp",
          "type": "uint256"
        },
        {
          "internalType": "uint256",
          "name": "fixedRate",
          "type": "uint256"
        },
        {
          "internalType": "uint256",
          "name": "floatingRate",
          "type": "uint256"
        }
      ],
      "stateMutability": "view",
      "type": "function"
    },
    {
      "inputs": [],
      "name": "updateFloatingRate",
      "outputs": [],
      "stateMutability": "nonpayable",
      "type": "function"
    }
  ],
  "bytecode": "0x608060405234801561001057600080fd5b506040516125ca3803806125ca83398181016040528101906100329190610219565b87600b8190555086600c8190555085600d8190555084600e8190555083600f819055508260108190555081600a60006101000a81548173ffffffffffffffffffffffffffffffffffffffff021916908373ffffffffffffffffffffffffffffffffffffffff16021790555080600060026101000a81548173ffffffffffffffffffffffffffffffffffffffff021916908373ffffffffffffffffffffffffffffffffffffffff16021790555060008060006101000a81548160ff02191690836005811115610103576101026102cf565b5b021790555060008060016101000a81548160ff0219169083600181111561012d5761012c6102cf565b5b021790555033600860006101000a81548173ffffffffffffffffffffffffffffffffffffffff021916908373ffffffffffffffffffffffffffffffffffffffff16021790555050505050505050506102fe565b600080fd5b6000819050919050565b61019881610185565b81146101a357600080fd5b50565b6000815190506101b58161018f565b92915050565b600073ffffffffffffffffffffffffffffffffffffffff82169050919050565b60006101e6826101bb565b9050919050565b6101f6816101db565b811461020157600080fd5b50565b600081519050610213816101ed565b92915050565b600080600080600080600080610100898b03121561023a57610239610180565b5b60006102488b828c016101a6565b98505060206102598b828c016101a6565b975050604061026a8b828c016101a6565b965050606061027b8b828c016101a6565b955050608061028c8b828c016101a6565b94505060a061029d8b828c016101a6565b93505060c06102ae8b828c01610204565b92505060e06102bf8b828c01610204565b9150509295985092959890939650565b7f4e487b7100000000000000000000000000000000000000000000000000000000600052602160045260246000fd5b6122bd8061030d6000396000f3fe60806040526004361061012a5760003560e01c806398a88f2c116100ab578063c19d93fb1161006f578063c19d93fb14610301578063d50256251461032c578063f55133541461035c578063f71dd46c14610387578063fb760d82146103b2578063fd3ed168146103dd5761012a565b806398a88f2c1461025f578063ab2078d114610276578063bcead63e146102a1578063be22f546146102cc578063bf5e6734146102f75761012a565b806374eddc19116100f257806374eddc19146101bd5780637df1f1b9146101d4578063802d1422146101ff57806385dfc5791461022a5780638db57994146102555761012a565b806328a070251461012f5780632c3fecd114610146578063402d88831461017157806344d0d0c6146101885780634c4b28f6146101b3575b600080fd5b34801561013b57600080fd5b506101446103e7565b005b34801561015257600080fd5b5061015b6106d7565b60405161016891906114e1565b60405180910390f35b34801561017d57600080fd5b506101866106dd565b005b34801561019457600080fd5b5061019d610a88565b6040516101aa91906114e1565b60405180910390f35b6101bb610a8e565b005b3480156101c957600080fd5b506101d2610c6a565b005b3480156101e057600080fd5b506101e9610d50565b6040516101f6919061153d565b60405180910390f35b34801561020b57600080fd5b50610214610d76565b60405161022191906114e1565b60405180910390f35b34801561023657600080fd5b5061023f610d7c565b60405161024c91906114e1565b60405180910390f35b61025d610d86565b005b34801561026b57600080fd5b50610274610efa565b005b34801561028257600080fd5b5061028b610f92565b60405161029891906114e1565b60405180910390f35b3480156102ad57600080fd5b506102b6610f98565b6040516102c3919061153d565b60405180910390f35b3480156102d857600080fd5b506102e1610fbe565b6040516102ee91906115b7565b60405180910390f35b6102ff610fe4565b005b34801561030d57600080fd5b50610316611199565b6040516103239190611649565b60405180910390f35b34801561033857600080fd5b506103416111aa565b60405161035396959493929190611664565b60405180910390f35b34801561036857600080fd5b506103716111d4565b60405161037e919061170d565b60405180910390f35b34801561039357600080fd5b5061039c6111e7565b6040516103a991906114e1565b60405180910390f35b3480156103be57600080fd5b506103c76111ed565b6040516103d491906114e1565b60405180910390f35b6103e56111f3565b005b600360058111156103fb576103fa6115d2565b5b60008054906101000a900460ff16600581111561041b5761041a6115d2565b5b1461045b576040517f08c379a000000000000000000000000000000000000000000000000000000000815260040161045290611785565b60405180910390fd5b600e54421161049f576040517f08c379a000000000000000000000000000000000000000000000000000000000815260040161049690611817565b60405180910390fd5b600860009054906101000a900473ffffffffffffffffffffffffffffffffffffffff1673ffffffffffffffffffffffffffffffffffffffff163373ffffffffffffffffffffffffffffffffffffffff161461052f576040517f08c379a0000000000000000000000000000000000000000000000000000000008152600401610526906118a9565b60405180910390fd5b60056000806101000a81548160ff02191690836005811115610554576105536115d2565b5b02179055506000600860009054906101000a900473ffffffffffffffffffffffffffffffffffffffff1673ffffffffffffffffffffffffffffffffffffffff16600d546040516105a3906118fa565b60006040518083038185875af1925050503d80600081146105e0576040519150601f19603f3d011682016040523d82523d6000602084013e6105e5565b606091505b5050905080610629576040517f08c379a00000000000000000000000000000000000000000000000000000000081526004016106209061195b565b60405180910390fd5b600860009054906101000a900473ffffffffffffffffffffffffffffffffffffffff1673ffffffffffffffffffffffffffffffffffffffff16600960009054906101000a900473ffffffffffffffffffffffffffffffffffffffff1673ffffffffffffffffffffffffffffffffffffffff167fd4bfdcd3d7029abe0d70d4a6f1f560c5eac8d3cd6ecef801c6d3d67a49be6068600d546040516106cc91906114e1565b60405180910390a350565b600b5481565b600360058111156106f1576106f06115d2565b5b60008054906101000a900460ff166005811115610711576107106115d2565b5b14610751576040517f08c379a000000000000000000000000000000000000000000000000000000000815260040161074890611785565b60405180910390fd5b600960009054906101000a900473ffffffffffffffffffffffffffffffffffffffff1673ffffffffffffffffffffffffffffffffffffffff163373ffffffffffffffffffffffffffffffffffffffff16146107e1576040517f08c379a00000000000000000000000000000000000000000000000000000000081526004016107d8906119c7565b60405180910390fd5b6000612710600f54600b546107f69190611a16565b6108009190611a87565b9050600081600b546108129190611ab8565b9050600a60009054906101000a900473ffffffffffffffffffffffffffffffffffffffff1673ffffffffffffffffffffffffffffffffffffffff166323b872dd600960009054906101000a900473ffffffffffffffffffffffffffffffffffffffff16600860009054906101000a900473ffffffffffffffffffffffffffffffffffffffff16846040518463ffffffff1660e01b81526004016108b793929190611aec565b6020604051808303816000875af11580156108d6573d6000803e3d6000fd5b505050506040513d601f19601f820116820180604052508101906108fa9190611b60565b610939576040517f08c379a000000000000000000000000000000000000000000000000000000000815260040161093090611bd9565b60405180910390fd5b60046000806101000a81548160ff0219169083600581111561095e5761095d6115d2565b5b02179055506000600960009054906101000a900473ffffffffffffffffffffffffffffffffffffffff1673ffffffffffffffffffffffffffffffffffffffff16600d546040516109ad906118fa565b60006040518083038185875af1925050503d80600081146109ea576040519150601f19603f3d011682016040523d82523d6000602084013e6109ef565b606091505b5050905080610a33576040517f08c379a0000000000000000000000000000000000000000000000000000000008152600401610a2a90611c45565b60405180910390fd5b3373ffffffffffffffffffffffffffffffffffffffff167fc7ce0a35f17b490de2a317e7fecb2cae86b1abffb03800b2f4928235213826988385604051610a7b929190611c65565b60405180910390a2505050565b600d5481565b60016005811115610aa257610aa16115d2565b5b60008054906101000a900460ff166005811115610ac257610ac16115d2565b5b14610b02576040517f08c379a0000000000000000000000000000000000000000000000000000000008152600401610af990611cda565b60405180910390fd5b600860009054906101000a900473ffffffffffffffffffffffffffffffffffffffff1673ffffffffffffffffffffffffffffffffffffffff163373ffffffffffffffffffffffffffffffffffffffff1603610b92576040517f08c379a0000000000000000000000000000000000000000000000000000000008152600401610b8990611d6c565b60405180910390fd5b33600960006101000a81548173ffffffffffffffffffffffffffffffffffffffff021916908373ffffffffffffffffffffffffffffffffffffffff16021790555060036000806101000a81548160ff02191690836005811115610bf857610bf76115d2565b5b0217905550600960009054906101000a900473ffffffffffffffffffffffffffffffffffffffff1673ffffffffffffffffffffffffffffffffffffffff166108fc600d549081150290604051600060405180830381858888f19350505050158015610c67573d6000803e3d6000fd5b50565b6000600160009054906101000a900473ffffffffffffffffffffffffffffffffffffffff1673ffffffffffffffffffffffffffffffffffffffff1663feaf968c6040518163ffffffff1660e01b815260040160a060405180830381865afa158015610cd9573d6000803e3d6000fd5b505050506040513d601f19601f82011682018060405250810190610cfd9190611e30565b50505091505060008113610d46576040517f08c379a0000000000000000000000000000000000000000000000000000000008152600401610d3d90611ef7565b60405180910390fd5b8060108190555050565b600960009054906101000a900473ffffffffffffffffffffffffffffffffffffffff1681565b600f5481565b6000601054905090565b60006005811115610d9a57610d996115d2565b5b60008054906101000a900460ff166005811115610dba57610db96115d2565b5b14610dfa576040517f08c379a0000000000000000000000000000000000000000000000000000000008152600401610df190611f63565b60405180910390fd5b600860009054906101000a900473ffffffffffffffffffffffffffffffffffffffff1673ffffffffffffffffffffffffffffffffffffffff163373ffffffffffffffffffffffffffffffffffffffff1614610e8a576040517f08c379a0000000000000000000000000000000000000000000000000000000008152600401610e8190611fcf565b60405180910390fd5b600b543414610ece576040517f08c379a0000000000000000000000000000000000000000000000000000000008152600401610ec59061203b565b60405180910390fd5b60016000806101000a81548160ff02191690836005811115610ef357610ef26115d2565b5b0217905550565b60006001811115610f0e57610f0d6115d2565b5b600060019054906101000a900460ff166001811115610f3057610f2f6115d2565b5b03610f65576001600060016101000a81548160ff02191690836001811115610f5b57610f5a6115d2565b5b0217905550610f90565b60008060016101000a81548160ff02191690836001811115610f8a57610f896115d2565b5b02179055505b565b600e5481565b600860009054906101000a900473ffffffffffffffffffffffffffffffffffffffff1681565b600a60009054906101000a900473ffffffffffffffffffffffffffffffffffffffff1681565b60016005811115610ff857610ff76115d2565b5b60008054906101000a900460ff166005811115611018576110176115d2565b5b14611058576040517f08c379a000000000000000000000000000000000000000000000000000000000815260040161104f90611cda565b60405180910390fd5b600860009054906101000a900473ffffffffffffffffffffffffffffffffffffffff1673ffffffffffffffffffffffffffffffffffffffff163373ffffffffffffffffffffffffffffffffffffffff16036110e8576040517f08c379a00000000000000000000000000000000000000000000000000000000081526004016110df906120a7565b60405180910390fd5b600d54341461112c576040517f08c379a000000000000000000000000000000000000000000000000000000000815260040161112390612113565b60405180910390fd5b33600960006101000a81548173ffffffffffffffffffffffffffffffffffffffff021916908373ffffffffffffffffffffffffffffffffffffffff16021790555060026000806101000a81548160ff02191690836005811115611192576111916115d2565b5b0217905550565b60008054906101000a900460ff1681565b60028060000154908060010154908060020154908060030154908060040154908060050154905086565b600060019054906101000a900460ff1681565b60105481565b600c5481565b60026005811115611207576112066115d2565b5b60008054906101000a900460ff166005811115611227576112266115d2565b5b14611267576040517f08c379a000000000000000000000000000000000000000000000000000000000815260040161125e9061217f565b60405180910390fd5b600860009054906101000a900473ffffffffffffffffffffffffffffffffffffffff1673ffffffffffffffffffffffffffffffffffffffff163373ffffffffffffffffffffffffffffffffffffffff16036112f7576040517f08c379a00000000000000000000000000000000000000000000000000000000081526004016112ee906120a7565b60405180910390fd5b600b54600a60009054906101000a900473ffffffffffffffffffffffffffffffffffffffff1673ffffffffffffffffffffffffffffffffffffffff166370a08231306040518263ffffffff1660e01b8152600401611355919061153d565b602060405180830381865afa158015611372573d6000803e3d6000fd5b505050506040513d601f19601f82011682018060405250810190611396919061219f565b10156113d7576040517f08c379a00000000000000000000000000000000000000000000000000000000081526004016113ce9061223e565b60405180910390fd5b60036000806101000a81548160ff021916908360058111156113fc576113fb6115d2565b5b0217905550600a60009054906101000a900473ffffffffffffffffffffffffffffffffffffffff1673ffffffffffffffffffffffffffffffffffffffff1663a9059cbb600960009054906101000a900473ffffffffffffffffffffffffffffffffffffffff16600b546040518363ffffffff1660e01b815260040161148292919061225e565b6020604051808303816000875af11580156114a1573d6000803e3d6000fd5b505050506040513d601f19601f820116820180604052508101906114c59190611b60565b50565b6000819050919050565b6114db816114c8565b82525050565b60006020820190506114f660008301846114d2565b92915050565b600073ffffffffffffffffffffffffffffffffffffffff82169050919050565b6000611527826114fc565b9050919050565b6115378161151c565b82525050565b6000602082019050611552600083018461152e565b92915050565b6000819050919050565b600061157d611578611573846114fc565b611558565b6114fc565b9050919050565b600061158f82611562565b9050919050565b60006115a182611584565b9050919050565b6115b181611596565b82525050565b60006020820190506115cc60008301846115a8565b92915050565b7f4e487b7100000000000000000000000000000000000000000000000000000000600052602160045260246000fd5b60068110611612576116116115d2565b5b50565b600081905061162382611601565b919050565b600061163382611615565b9050919050565b61164381611628565b82525050565b600060208201905061165e600083018461163a565b92915050565b600060c08201905061167960008301896114d2565b61168660208301886114d2565b61169360408301876114d2565b6116a060608301866114d2565b6116ad60808301856114d2565b6116ba60a08301846114d2565b979650505050505050565b600281106116d6576116d56115d2565b5b50565b60008190506116e7826116c5565b919050565b60006116f7826116d9565b9050919050565b611707816116ec565b82525050565b600060208201905061172260008301846116fe565b92915050565b600082825260208201905092915050565b7f4c6f616e206973206e6f7420696e2054616b656e207374617465000000000000600082015250565b600061176f601a83611728565b915061177a82611739565b602082019050919050565b6000602082019050818103600083015261179e81611762565b9050919050565b7f52657061796d656e7420646561646c696e6520686173206e6f7420706173736560008201527f6400000000000000000000000000000000000000000000000000000000000000602082015250565b6000611801602183611728565b915061180c826117a5565b604082019050919050565b60006020820190508181036000830152611830816117f4565b9050919050565b7f4f6e6c79206c656e6465722063616e206c697175696461746520746865206c6f60008201527f616e000000000000000000000000000000000000000000000000000000000000602082015250565b6000611893602283611728565b915061189e82611837565b604082019050919050565b600060208201905081810360008301526118c281611886565b9050919050565b600081905092915050565b50565b60006118e46000836118c9565b91506118ef826118d4565b600082019050919050565b6000611905826118d7565b9150819050919050565b7f436f6c6c61746572616c207472616e73666572206661696c6564000000000000600082015250565b6000611945601a83611728565b91506119508261190f565b602082019050919050565b6000602082019050818103600083015261197481611938565b9050919050565b7f4f6e6c7920626f72726f7765722063616e20726570617920746865206c6f616e600082015250565b60006119b1602083611728565b91506119bc8261197b565b602082019050919050565b600060208201905081810360008301526119e0816119a4565b9050919050565b7f4e487b7100000000000000000000000000000000000000000000000000000000600052601160045260246000fd5b6000611a21826114c8565b9150611a2c836114c8565b9250828202611a3a816114c8565b91508282048414831517611a5157611a506119e7565b5b5092915050565b7f4e487b7100000000000000000000000000000000000000000000000000000000600052601260045260246000fd5b6000611a92826114c8565b9150611a9d836114c8565b925082611aad57611aac611a58565b5b828204905092915050565b6000611ac3826114c8565b9150611ace836114c8565b9250828201905080821115611ae657611ae56119e7565b5b92915050565b6000606082019050611b01600083018661152e565b611b0e602083018561152e565b611b1b60408301846114d2565b949350505050565b600080fd5b60008115159050919050565b611b3d81611b28565b8114611b4857600080fd5b50565b600081519050611b5a81611b34565b92915050565b600060208284031215611b7657611b75611b23565b5b6000611b8484828501611b4b565b91505092915050565b7f444149207472616e73666572206661696c656400000000000000000000000000600082015250565b6000611bc3601383611728565b9150611bce82611b8d565b602082019050919050565b60006020820190508181036000830152611bf281611bb6565b9050919050565b7f436f6c6c61746572616c20726566756e64206661696c65640000000000000000600082015250565b6000611c2f601883611728565b9150611c3a82611bf9565b602082019050919050565b60006020820190508181036000830152611c5e81611c22565b9050919050565b6000604082019050611c7a60008301856114d2565b611c8760208301846114d2565b9392505050565b7f4c6f616e206973206e6f7420696e2046756e6465642073746174650000000000600082015250565b6000611cc4601b83611728565b9150611ccf82611c8e565b602082019050919050565b60006020820190508181036000830152611cf381611cb7565b9050919050565b7f4c656e6465722063616e6e6f742061636365707420746865206c6f616e20746560008201527f726d730000000000000000000000000000000000000000000000000000000000602082015250565b6000611d56602383611728565b9150611d6182611cfa565b604082019050919050565b60006020820190508181036000830152611d8581611d49565b9050919050565b600069ffffffffffffffffffff82169050919050565b611dab81611d8c565b8114611db657600080fd5b50565b600081519050611dc881611da2565b92915050565b6000819050919050565b611de181611dce565b8114611dec57600080fd5b50565b600081519050611dfe81611dd8565b92915050565b611e0d816114c8565b8114611e1857600080fd5b50565b600081519050611e2a81611e04565b92915050565b600080600080600060a08688031215611e4c57611e4b611b23565b5b6000611e5a88828901611db9565b9550506020611e6b88828901611def565b9450506040611e7c88828901611e1b565b9350506060611e8d88828901611e1b565b9250506080611e9e88828901611db9565b9150509295509295909350565b7f496e76616c696420707269636500000000000000000000000000000000000000600082015250565b6000611ee1600d83611728565b9150611eec82611eab565b602082019050919050565b60006020820190508181036000830152611f1081611ed4565b9050919050565b7f4c6f616e206973206e6f7420696e204372656174656420737461746500000000600082015250565b6000611f4d601c83611728565b9150611f5882611f17565b602082019050919050565b60006020820190508181036000830152611f7c81611f40565b9050919050565b7f4f6e6c79206c656e6465722063616e2066756e6420746865206c6f616e000000600082015250565b6000611fb9601d83611728565b9150611fc482611f83565b602082019050919050565b60006020820190508181036000830152611fe881611fac565b9050919050565b7f496e636f7272656374206c6f616e20616d6f756e740000000000000000000000600082015250565b6000612025601583611728565b915061203082611fef565b602082019050919050565b6000602082019050818103600083015261205481612018565b9050919050565b7f4c656e6465722063616e6e6f742074616b6520746865206c6f616e0000000000600082015250565b6000612091601b83611728565b915061209c8261205b565b602082019050919050565b600060208201905081810360008301526120c081612084565b9050919050565b7f496e636f727265637420636f6c6c61746572616c20616d6f756e740000000000600082015250565b60006120fd601b83611728565b9150612108826120c7565b602082019050919050565b6000602082019050818103600083015261212c816120f0565b9050919050565b7f4c6f616e206973206e6f7420696e206163636570746564207374617465000000600082015250565b6000612169601d83611728565b915061217482612133565b602082019050919050565b600060208201905081810360008301526121988161215c565b9050919050565b6000602082840312156121b5576121b4611b23565b5b60006121c384828501611e1b565b91505092915050565b7f496e73756666696369656e74204441492062616c616e636520696e20636f6e7460008201527f7261637400000000000000000000000000000000000000000000000000000000602082015250565b6000612228602483611728565b9150612233826121cc565b604082019050919050565b600060208201905081810360008301526122578161221b565b9050919050565b6000604082019050612273600083018561152e565b61228060208301846114d2565b939250505056fea2646970667358221220fad3114c0f644872e9f5fcb1f190a89c1fe944c16057144050c088c9cd59c95064736f6c634300081c0033",
  "linkReferences": {},
  "deployedLinkReferences": {}
}