{
  "_format": "hh-sol-artifact-1",
  "contractName": "LoanRequest",
  "sourceName": "contracts/LoanRequest.sol",
  "abi": [
    {
      "inputs": [
        {
          "internalType": "uint256",
          "name": "_loanAmount",
          "type": "uint256"
        },
        {
          "internalType": "uint256",
          "name": "_feeAmount",
          "type": "uint256"
        },
        {
          "internalType": "uint256",
          "name": "_ethCollateralAmount",
          "type": "uint256"
        },
        {
          "internalType": "uint256",
          "name": "_repayByTimestamp",
          "type": "uint256"
        },
        {
          "internalType": "uint256",
          "name": "_fixedRate",
          "type": "uint256"
        },
        {
          "internalType": "uint256",
          "name": "_floatingRate",
          "type": "uint256"
        },
        {
          "internalType": "address",
          "name": "_oracle",
          "type": "address"
        }
      ],
      "stateMutability": "nonpayable",
      "type": "constructor"
    },
    {
      "anonymous": false,
      "inputs": [
        {
          "indexed": true,
          "internalType": "address",
          "name": "lender",
          "type": "address"
        },
        {
          "indexed": false,
          "internalType": "uint256",
          "name": "loanAmount",
          "type": "uint256"
        }
      ],
      "name": "LoanFunded",
      "type": "event"
    },
    {
      "anonymous": false,
      "inputs": [
        {
          "indexed": true,
          "internalType": "address",
          "name": "borrower",
          "type": "address"
        },
        {
          "indexed": true,
          "internalType": "address",
          "name": "lender",
          "type": "address"
        },
        {
          "indexed": false,
          "internalType": "uint256",
          "name": "collateralAmount",
          "type": "uint256"
        }
      ],
      "name": "LoanLiquidated",
      "type": "event"
    },
    {
      "anonymous": false,
      "inputs": [
        {
          "indexed": true,
          "internalType": "address",
          "name": "borrower",
          "type": "address"
        },
        {
          "indexed": false,
          "internalType": "uint256",
          "name": "repaymentAmount",
          "type": "uint256"
        }
      ],
      "name": "LoanRepaid",
      "type": "event"
    },
    {
      "anonymous": false,
      "inputs": [
        {
          "indexed": true,
          "internalType": "address",
          "name": "borrower",
          "type": "address"
        },
        {
          "indexed": false,
          "internalType": "uint256",
          "name": "loanAmount",
          "type": "uint256"
        }
      ],
      "name": "LoanTaken",
      "type": "event"
    },
    {
      "anonymous": false,
      "inputs": [
        {
          "indexed": true,
          "internalType": "address",
          "name": "borrower",
          "type": "address"
        },
        {
          "indexed": false,
          "internalType": "uint256",
          "name": "collateralAmount",
          "type": "uint256"
        }
      ],
      "name": "LoanTermsAccepted",
      "type": "event"
    },
    {
      "inputs": [],
      "name": "acceptLoanTerms",
      "outputs": [],
      "stateMutability": "payable",
      "type": "function"
    },
    {
      "inputs": [],
      "name": "borrower",
      "outputs": [
        {
          "internalType": "address payable",
          "name": "",
          "type": "address"
        }
      ],
      "stateMutability": "view",
      "type": "function"
    },
    {
      "inputs": [],
      "name": "calculateInterest",
      "outputs": [
        {
          "internalType": "uint256",
          "name": "",
          "type": "uint256"
        }
      ],
      "stateMutability": "view",
      "type": "function"
    },
    {
      "inputs": [],
      "name": "currentRateType",
      "outputs": [
        {
          "internalType": "enum LoanRequest.InterestRateType",
          "name": "",
          "type": "uint8"
        }
      ],
      "stateMutability": "view",
      "type": "function"
    },
    {
      "inputs": [],
      "name": "ethCollateralAmount",
      "outputs": [
        {
          "internalType": "uint256",
          "name": "",
          "type": "uint256"
        }
      ],
      "stateMutability": "view",
      "type": "function"
    },
    {
      "inputs": [],
      "name": "feeAmount",
      "outputs": [
        {
          "internalType": "uint256",
          "name": "",
          "type": "uint256"
        }
      ],
      "stateMutability": "view",
      "type": "function"
    },
    {
      "inputs": [],
      "name": "fixedRate",
      "outputs": [
        {
          "internalType": "uint256",
          "name": "",
          "type": "uint256"
        }
      ],
      "stateMutability": "view",
      "type": "function"
    },
    {
      "inputs": [],
      "name": "floatingRate",
      "outputs": [
        {
          "internalType": "uint256",
          "name": "",
          "type": "uint256"
        }
      ],
      "stateMutability": "view",
      "type": "function"
    },
    {
      "inputs": [],
      "name": "fundLoan",
      "outputs": [],
      "stateMutability": "payable",
      "type": "function"
    },
    {
      "inputs": [],
      "name": "getEthCollateralAmount",
      "outputs": [
        {
          "internalType": "uint256",
          "name": "",
          "type": "uint256"
        }
      ],
      "stateMutability": "view",
      "type": "function"
    },
    {
      "inputs": [],
      "name": "getFeeAmount",
      "outputs": [
        {
          "internalType": "uint256",
          "name": "",
          "type": "uint256"
        }
      ],
      "stateMutability": "view",
      "type": "function"
    },
    {
      "inputs": [],
      "name": "getFixedRate",
      "outputs": [
        {
          "internalType": "uint256",
          "name": "",
          "type": "uint256"
        }
      ],
      "stateMutability": "view",
      "type": "function"
    },
    {
      "inputs": [],
      "name": "getFloatingRate",
      "outputs": [
        {
          "internalType": "uint256",
          "name": "",
          "type": "uint256"
        }
      ],
      "stateMutability": "view",
      "type": "function"
    },
    {
      "inputs": [],
      "name": "getLoanAmount",
      "outputs": [
        {
          "internalType": "uint256",
          "name": "",
          "type": "uint256"
        }
      ],
      "stateMutability": "view",
      "type": "function"
    },
    {
      "inputs": [],
      "name": "getLoanState",
      "outputs": [
        {
          "internalType": "enum LoanRequest.LoanState",
          "name": "",
          "type": "uint8"
        }
      ],
      "stateMutability": "view",
      "type": "function"
    },
    {
      "inputs": [],
      "name": "getRepayByTimestamp",
      "outputs": [
        {
          "internalType": "uint256",
          "name": "",
          "type": "uint256"
        }
      ],
      "stateMutability": "view",
      "type": "function"
    },
    {
      "inputs": [],
      "name": "lender",
      "outputs": [
        {
          "internalType": "address payable",
          "name": "",
          "type": "address"
        }
      ],
      "stateMutability": "view",
      "type": "function"
    },
    {
      "inputs": [],
      "name": "liquidate",
      "outputs": [],
      "stateMutability": "nonpayable",
      "type": "function"
    },
    {
      "inputs": [],
      "name": "loanAmount",
      "outputs": [
        {
          "internalType": "uint256",
          "name": "",
          "type": "uint256"
        }
      ],
      "stateMutability": "view",
      "type": "function"
    },
    {
      "inputs": [],
      "name": "loanTakenTimestamp",
      "outputs": [
        {
          "internalType": "uint256",
          "name": "",
          "type": "uint256"
        }
      ],
      "stateMutability": "view",
      "type": "function"
    },
    {
      "inputs": [],
      "name": "repay",
      "outputs": [],
      "stateMutability": "payable",
      "type": "function"
    },
    {
      "inputs": [],
      "name": "repayByTimestamp",
      "outputs": [
        {
          "internalType": "uint256",
          "name": "",
          "type": "uint256"
        }
      ],
      "stateMutability": "view",
      "type": "function"
    },
    {
      "inputs": [],
      "name": "state",
      "outputs": [
        {
          "internalType": "enum LoanRequest.LoanState",
          "name": "",
          "type": "uint8"
        }
      ],
      "stateMutability": "view",
      "type": "function"
    },
    {
      "inputs": [],
      "name": "switchRateType",
      "outputs": [],
      "stateMutability": "nonpayable",
      "type": "function"
    },
    {
      "inputs": [],
      "name": "takeLoan",
      "outputs": [],
      "stateMutability": "payable",
      "type": "function"
    },
    {
      "inputs": [],
      "name": "terms",
      "outputs": [
        {
          "internalType": "uint256",
          "name": "loanAmount",
          "type": "uint256"
        },
        {
          "internalType": "uint256",
          "name": "feeAmount",
          "type": "uint256"
        },
        {
          "internalType": "uint256",
          "name": "ethCollateralAmount",
          "type": "uint256"
        },
        {
          "internalType": "uint256",
          "name": "repayByTimestamp",
          "type": "uint256"
        },
        {
          "internalType": "uint256",
          "name": "fixedRate",
          "type": "uint256"
        },
        {
          "internalType": "uint256",
          "name": "floatingRate",
          "type": "uint256"
        }
      ],
      "stateMutability": "view",
      "type": "function"
    },
    {
      "inputs": [],
      "name": "updateRates",
      "outputs": [],
      "stateMutability": "nonpayable",
      "type": "function"
    }
  ],
  "bytecode": "0x608060405234801561001057600080fd5b5060405161213e38038061213e833981810160405281019061003291906101d7565b8660098190555085600a8190555084600b8190555083600c8190555082600d8190555081600e8190555080600060026101000a81548173ffffffffffffffffffffffffffffffffffffffff021916908373ffffffffffffffffffffffffffffffffffffffff16021790555060008060006101000a81548160ff021916908360058111156100c2576100c1610279565b5b021790555060008060016101000a81548160ff021916908360018111156100ec576100eb610279565b5b021790555033600760006101000a81548173ffffffffffffffffffffffffffffffffffffffff021916908373ffffffffffffffffffffffffffffffffffffffff160217905550505050505050506102a8565b600080fd5b6000819050919050565b61015681610143565b811461016157600080fd5b50565b6000815190506101738161014d565b92915050565b600073ffffffffffffffffffffffffffffffffffffffff82169050919050565b60006101a482610179565b9050919050565b6101b481610199565b81146101bf57600080fd5b50565b6000815190506101d1816101ab565b92915050565b600080600080600080600060e0888a0312156101f6576101f561013e565b5b60006102048a828b01610164565b97505060206102158a828b01610164565b96505060406102268a828b01610164565b95505060606102378a828b01610164565b94505060806102488a828b01610164565b93505060a06102598a828b01610164565b92505060c061026a8a828b016101c2565b91505092959891949750929550565b7f4e487b7100000000000000000000000000000000000000000000000000000000600052602160045260246000fd5b611e87806102b76000396000f3fe60806040526004361061019c5760003560e01c806398e05a49116100ec578063bf5e67341161008a578063eb0c495511610064578063eb0c4955146104c3578063f4b01b18146104ee578063f551335414610519578063f71dd46c146105445761019c565b8063bf5e67341461045e578063c19d93fb14610468578063d5025625146104935761019c565b8063ab2078d1116100c6578063ab2078d1146103b2578063b1138885146103dd578063bcead63e14610408578063bf5c9822146104335761019c565b806398e05a49146103525780639d585f7f1461035c5780639e9f669c146103875761019c565b806373c051781161015957806385dfc5791161013357806385dfc579146102db57806387b8f9eb146103065780638db579941461033157806398a88f2c1461033b5761019c565b806373c051781461025a5780637df1f1b914610285578063802d1422146102b05761019c565b806328a07025146101a15780633c3821f4146101b8578063402d8883146101cf57806340963da0146101d957806344d0d0c61461020457806369e154041461022f575b600080fd5b3480156101ad57600080fd5b506101b661056f565b005b3480156101c457600080fd5b506101cd6107f9565b005b6101d76108d6565b005b3480156101e557600080fd5b506101ee610b84565b6040516101fb919061144e565b60405180910390f35b34801561021057600080fd5b50610219610b8e565b604051610226919061144e565b60405180910390f35b34801561023b57600080fd5b50610244610b94565b604051610251919061144e565b60405180910390f35b34801561026657600080fd5b5061026f610b9a565b60405161027c919061144e565b60405180910390f35b34801561029157600080fd5b5061029a610ba4565b6040516102a791906114aa565b60405180910390f35b3480156102bc57600080fd5b506102c5610bca565b6040516102d2919061144e565b60405180910390f35b3480156102e757600080fd5b506102f0610bd0565b6040516102fd919061144e565b60405180910390f35b34801561031257600080fd5b5061031b610bda565b604051610328919061144e565b60405180910390f35b610339610be0565b005b34801561034757600080fd5b50610350610de5565b005b61035a610e7d565b005b34801561036857600080fd5b5061037161106f565b60405161037e919061144e565b60405180910390f35b34801561039357600080fd5b5061039c611075565b6040516103a9919061153c565b60405180910390f35b3480156103be57600080fd5b506103c761108b565b6040516103d4919061144e565b60405180910390f35b3480156103e957600080fd5b506103f2611091565b6040516103ff919061144e565b60405180910390f35b34801561041457600080fd5b5061041d61109b565b60405161042a91906114aa565b60405180910390f35b34801561043f57600080fd5b506104486110c1565b604051610455919061144e565b60405180910390f35b6104666110cb565b005b34801561047457600080fd5b5061047d6112d0565b60405161048a919061153c565b60405180910390f35b34801561049f57600080fd5b506104a86112e1565b6040516104ba96959493929190611557565b60405180910390f35b3480156104cf57600080fd5b506104d861130b565b6040516104e5919061144e565b60405180910390f35b3480156104fa57600080fd5b50610503611412565b604051610510919061144e565b60405180910390f35b34801561052557600080fd5b5061052e61141c565b60405161053b9190611600565b60405180910390f35b34801561055057600080fd5b5061055961142f565b604051610566919061144e565b60405180910390f35b60036005811115610583576105826114c5565b5b60008054906101000a900460ff1660058111156105a3576105a26114c5565b5b146105e3576040517f08c379a00000000000000000000000000000000000000000000000000000000081526004016105da90611678565b60405180910390fd5b600c544211610627576040517f08c379a000000000000000000000000000000000000000000000000000000000815260040161061e9061170a565b60405180910390fd5b600760009054906101000a900473ffffffffffffffffffffffffffffffffffffffff1673ffffffffffffffffffffffffffffffffffffffff163373ffffffffffffffffffffffffffffffffffffffff16146106b7576040517f08c379a00000000000000000000000000000000000000000000000000000000081526004016106ae9061179c565b60405180910390fd5b60056000806101000a81548160ff021916908360058111156106dc576106db6114c5565b5b0217905550600760009054906101000a900473ffffffffffffffffffffffffffffffffffffffff1673ffffffffffffffffffffffffffffffffffffffff166108fc600b549081150290604051600060405180830381858888f1935050505015801561074b573d6000803e3d6000fd5b50600760009054906101000a900473ffffffffffffffffffffffffffffffffffffffff1673ffffffffffffffffffffffffffffffffffffffff16600860009054906101000a900473ffffffffffffffffffffffffffffffffffffffff1673ffffffffffffffffffffffffffffffffffffffff167fd4bfdcd3d7029abe0d70d4a6f1f560c5eac8d3cd6ecef801c6d3d67a49be6068600b546040516107ef919061144e565b60405180910390a3565b60008060029054906101000a900473ffffffffffffffffffffffffffffffffffffffff1673ffffffffffffffffffffffffffffffffffffffff1663feaf968c6040518163ffffffff1660e01b815260040160a060405180830381865afa158015610867573d6000803e3d6000fd5b505050506040513d601f19601f8201168201806040525081019061088b9190611865565b5050509150506000620f42406064836108a4919061190f565b6108ae9190611980565b905080600e8190555060006001905080600e546108cb91906119b1565b600d81905550505050565b600360058111156108ea576108e96114c5565b5b60008054906101000a900460ff16600581111561090a576109096114c5565b5b1461094a576040517f08c379a000000000000000000000000000000000000000000000000000000000815260040161094190611678565b60405180910390fd5b600860009054906101000a900473ffffffffffffffffffffffffffffffffffffffff1673ffffffffffffffffffffffffffffffffffffffff163373ffffffffffffffffffffffffffffffffffffffff16146109da576040517f08c379a00000000000000000000000000000000000000000000000000000000081526004016109d190611a31565b60405180910390fd5b60006109e461130b565b6009546109f191906119b1565b9050803414610a35576040517f08c379a0000000000000000000000000000000000000000000000000000000008152600401610a2c90611a9d565b60405180910390fd5b60046000806101000a81548160ff02191690836005811115610a5a57610a596114c5565b5b0217905550600760009054906101000a900473ffffffffffffffffffffffffffffffffffffffff1673ffffffffffffffffffffffffffffffffffffffff166108fc829081150290604051600060405180830381858888f19350505050158015610ac7573d6000803e3d6000fd5b50600860009054906101000a900473ffffffffffffffffffffffffffffffffffffffff1673ffffffffffffffffffffffffffffffffffffffff166108fc600b549081150290604051600060405180830381858888f19350505050158015610b32573d6000803e3d6000fd5b503373ffffffffffffffffffffffffffffffffffffffff167fc200a1f31dd659e356e0f112c82558e25f49f7b0f84438691cd96f5cb355882382604051610b79919061144e565b60405180910390a250565b6000600c54905090565b600b5481565b600a5481565b6000600d54905090565b600860009054906101000a900473ffffffffffffffffffffffffffffffffffffffff1681565b600d5481565b6000600e54905090565b600f5481565b60006005811115610bf457610bf36114c5565b5b60008054906101000a900460ff166005811115610c1457610c136114c5565b5b14610c54576040517f08c379a0000000000000000000000000000000000000000000000000000000008152600401610c4b90611b09565b60405180910390fd5b600760009054906101000a900473ffffffffffffffffffffffffffffffffffffffff1673ffffffffffffffffffffffffffffffffffffffff163373ffffffffffffffffffffffffffffffffffffffff1614610ce4576040517f08c379a0000000000000000000000000000000000000000000000000000000008152600401610cdb90611b75565b60405180910390fd5b6009543414610d28576040517f08c379a0000000000000000000000000000000000000000000000000000000008152600401610d1f90611be1565b60405180910390fd5b33600760006101000a81548173ffffffffffffffffffffffffffffffffffffffff021916908373ffffffffffffffffffffffffffffffffffffffff16021790555060016000806101000a81548160ff02191690836005811115610d8e57610d8d6114c5565b5b02179055503373ffffffffffffffffffffffffffffffffffffffff167f726d5f1a838fe31748f737fa3ae5539ccff95952adfc593a1299532b643ff7a8600954604051610ddb919061144e565b60405180910390a2565b60006001811115610df957610df86114c5565b5b600060019054906101000a900460ff166001811115610e1b57610e1a6114c5565b5b03610e50576001600060016101000a81548160ff02191690836001811115610e4657610e456114c5565b5b0217905550610e7b565b60008060016101000a81548160ff02191690836001811115610e7557610e746114c5565b5b02179055505b565b60026005811115610e9157610e906114c5565b5b60008054906101000a900460ff166005811115610eb157610eb06114c5565b5b14610ef1576040517f08c379a0000000000000000000000000000000000000000000000000000000008152600401610ee890611c4d565b60405180910390fd5b600860009054906101000a900473ffffffffffffffffffffffffffffffffffffffff1673ffffffffffffffffffffffffffffffffffffffff163373ffffffffffffffffffffffffffffffffffffffff1614610f81576040517f08c379a0000000000000000000000000000000000000000000000000000000008152600401610f7890611cb9565b60405180910390fd5b60036000806101000a81548160ff02191690836005811115610fa657610fa56114c5565b5b021790555042600f81905550600860009054906101000a900473ffffffffffffffffffffffffffffffffffffffff1673ffffffffffffffffffffffffffffffffffffffff166108fc6009549081150290604051600060405180830381858888f1935050505015801561101c573d6000803e3d6000fd5b503373ffffffffffffffffffffffffffffffffffffffff167fd5c776eab9418d89c040ffee59f2310d225f5ff682191bcee59b0413a7fd4835600954604051611065919061144e565b60405180910390a2565b60095481565b60008060009054906101000a900460ff16905090565b600c5481565b6000600b54905090565b600760009054906101000a900473ffffffffffffffffffffffffffffffffffffffff1681565b6000600a54905090565b600160058111156110df576110de6114c5565b5b60008054906101000a900460ff1660058111156110ff576110fe6114c5565b5b1461113f576040517f08c379a000000000000000000000000000000000000000000000000000000000815260040161113690611d25565b60405180910390fd5b600760009054906101000a900473ffffffffffffffffffffffffffffffffffffffff1673ffffffffffffffffffffffffffffffffffffffff163373ffffffffffffffffffffffffffffffffffffffff16036111cf576040517f08c379a00000000000000000000000000000000000000000000000000000000081526004016111c690611d91565b60405180910390fd5b600b543414611213576040517f08c379a000000000000000000000000000000000000000000000000000000000815260040161120a90611dfd565b60405180910390fd5b33600860006101000a81548173ffffffffffffffffffffffffffffffffffffffff021916908373ffffffffffffffffffffffffffffffffffffffff16021790555060026000806101000a81548160ff02191690836005811115611279576112786114c5565b5b02179055503373ffffffffffffffffffffffffffffffffffffffff167f329f3f0a323b6707cfce03bd3ca41f8b814a00b01c6a417528c8e3ea66422e47600b546040516112c6919061144e565b60405180910390a2565b60008054906101000a900460ff1681565b60018060000154908060010154908060020154908060030154908060040154908060050154905086565b600060036005811115611321576113206114c5565b5b60008054906101000a900460ff166005811115611341576113406114c5565b5b14611381576040517f08c379a000000000000000000000000000000000000000000000000000000000815260040161137890611678565b60405180910390fd5b6000806001811115611396576113956114c5565b5b600060019054906101000a900460ff1660018111156113b8576113b76114c5565b5b146113c557600e546113c9565b600d545b90506000600f54426113db9190611e1d565b9050600063bbf81e0082846009546113f3919061190f565b6113fd919061190f565b6114079190611980565b905080935050505090565b6000600954905090565b600060019054906101000a900460ff1681565b600e5481565b6000819050919050565b61144881611435565b82525050565b6000602082019050611463600083018461143f565b92915050565b600073ffffffffffffffffffffffffffffffffffffffff82169050919050565b600061149482611469565b9050919050565b6114a481611489565b82525050565b60006020820190506114bf600083018461149b565b92915050565b7f4e487b7100000000000000000000000000000000000000000000000000000000600052602160045260246000fd5b60068110611505576115046114c5565b5b50565b6000819050611516826114f4565b919050565b600061152682611508565b9050919050565b6115368161151b565b82525050565b6000602082019050611551600083018461152d565b92915050565b600060c08201905061156c600083018961143f565b611579602083018861143f565b611586604083018761143f565b611593606083018661143f565b6115a0608083018561143f565b6115ad60a083018461143f565b979650505050505050565b600281106115c9576115c86114c5565b5b50565b60008190506115da826115b8565b919050565b60006115ea826115cc565b9050919050565b6115fa816115df565b82525050565b600060208201905061161560008301846115f1565b92915050565b600082825260208201905092915050565b7f4c6f616e206973206e6f7420696e2054616b656e207374617465000000000000600082015250565b6000611662601a8361161b565b915061166d8261162c565b602082019050919050565b6000602082019050818103600083015261169181611655565b9050919050565b7f52657061796d656e7420646561646c696e6520686173206e6f7420706173736560008201527f6400000000000000000000000000000000000000000000000000000000000000602082015250565b60006116f460218361161b565b91506116ff82611698565b604082019050919050565b60006020820190508181036000830152611723816116e7565b9050919050565b7f4f6e6c79206c656e6465722063616e206c697175696461746520746865206c6f60008201527f616e000000000000000000000000000000000000000000000000000000000000602082015250565b600061178660228361161b565b91506117918261172a565b604082019050919050565b600060208201905081810360008301526117b581611779565b9050919050565b600080fd5b600069ffffffffffffffffffff82169050919050565b6117e0816117c1565b81146117eb57600080fd5b50565b6000815190506117fd816117d7565b92915050565b6000819050919050565b61181681611803565b811461182157600080fd5b50565b6000815190506118338161180d565b92915050565b61184281611435565b811461184d57600080fd5b50565b60008151905061185f81611839565b92915050565b600080600080600060a08688031215611881576118806117bc565b5b600061188f888289016117ee565b95505060206118a088828901611824565b94505060406118b188828901611850565b93505060606118c288828901611850565b92505060806118d3888289016117ee565b9150509295509295909350565b7f4e487b7100000000000000000000000000000000000000000000000000000000600052601160045260246000fd5b600061191a82611435565b915061192583611435565b925082820261193381611435565b9150828204841483151761194a576119496118e0565b5b5092915050565b7f4e487b7100000000000000000000000000000000000000000000000000000000600052601260045260246000fd5b600061198b82611435565b915061199683611435565b9250826119a6576119a5611951565b5b828204905092915050565b60006119bc82611435565b91506119c783611435565b92508282019050808211156119df576119de6118e0565b5b92915050565b7f4f6e6c7920626f72726f7765722063616e20726570617920746865206c6f616e600082015250565b6000611a1b60208361161b565b9150611a26826119e5565b602082019050919050565b60006020820190508181036000830152611a4a81611a0e565b9050919050565b7f496e636f72726563742072657061796d656e7420616d6f756e74000000000000600082015250565b6000611a87601a8361161b565b9150611a9282611a51565b602082019050919050565b60006020820190508181036000830152611ab681611a7a565b9050919050565b7f4c6f616e206973206e6f7420696e204372656174656420737461746500000000600082015250565b6000611af3601c8361161b565b9150611afe82611abd565b602082019050919050565b60006020820190508181036000830152611b2281611ae6565b9050919050565b7f4f6e6c79206c656e6465722063616e2066756e6420746865206c6f616e000000600082015250565b6000611b5f601d8361161b565b9150611b6a82611b29565b602082019050919050565b60006020820190508181036000830152611b8e81611b52565b9050919050565b7f496e636f7272656374206c6f616e20616d6f756e740000000000000000000000600082015250565b6000611bcb60158361161b565b9150611bd682611b95565b602082019050919050565b60006020820190508181036000830152611bfa81611bbe565b9050919050565b7f4c6f616e206973206e6f7420696e206163636570746564207374617465000000600082015250565b6000611c37601d8361161b565b9150611c4282611c01565b602082019050919050565b60006020820190508181036000830152611c6681611c2a565b9050919050565b7f4f6e6c7920626f72726f7765722063616e2074616b6520746865206c6f616e00600082015250565b6000611ca3601f8361161b565b9150611cae82611c6d565b602082019050919050565b60006020820190508181036000830152611cd281611c96565b9050919050565b7f4c6f616e206973206e6f7420696e2046756e6465642073746174650000000000600082015250565b6000611d0f601b8361161b565b9150611d1a82611cd9565b602082019050919050565b60006020820190508181036000830152611d3e81611d02565b9050919050565b7f4c656e6465722063616e6e6f742074616b6520746865206c6f616e0000000000600082015250565b6000611d7b601b8361161b565b9150611d8682611d45565b602082019050919050565b60006020820190508181036000830152611daa81611d6e565b9050919050565b7f496e636f727265637420636f6c6c61746572616c20616d6f756e740000000000600082015250565b6000611de7601b8361161b565b9150611df282611db1565b602082019050919050565b60006020820190508181036000830152611e1681611dda565b9050919050565b6000611e2882611435565b9150611e3383611435565b9250828203905081811115611e4b57611e4a6118e0565b5b9291505056fea26469706673582212207ad8e7eb6fa4a6268e7e19433f6d321084ea313404d06b7546100478096166d864736f6c634300081c0033",
  "linkReferences": {},
  "deployedLinkReferences": {}
}