{
  "_format": "hh-sol-artifact-1",
  "contractName": "LoanRequest",
  "sourceName": "contracts/LoanRequest.sol",
  "abi": [
    {
      "inputs": [
        {
          "internalType": "uint256",
          "name": "_loanAmount",
          "type": "uint256"
        },
        {
          "internalType": "uint256",
          "name": "_feeAmount",
          "type": "uint256"
        },
        {
          "internalType": "uint256",
          "name": "_ethCollateralAmount",
          "type": "uint256"
        },
        {
          "internalType": "uint256",
          "name": "_repayByTimestamp",
          "type": "uint256"
        },
        {
          "internalType": "uint256",
          "name": "_fixedRate",
          "type": "uint256"
        },
        {
          "internalType": "uint256",
          "name": "_floatingRate",
          "type": "uint256"
        },
        {
          "internalType": "address",
          "name": "_oracle",
          "type": "address"
        }
      ],
      "stateMutability": "nonpayable",
      "type": "constructor"
    },
    {
      "anonymous": false,
      "inputs": [
        {
          "indexed": true,
          "internalType": "address",
          "name": "lender",
          "type": "address"
        },
        {
          "indexed": false,
          "internalType": "uint256",
          "name": "loanAmount",
          "type": "uint256"
        }
      ],
      "name": "LoanFunded",
      "type": "event"
    },
    {
      "anonymous": false,
      "inputs": [
        {
          "indexed": true,
          "internalType": "address",
          "name": "borrower",
          "type": "address"
        },
        {
          "indexed": true,
          "internalType": "address",
          "name": "lender",
          "type": "address"
        },
        {
          "indexed": false,
          "internalType": "uint256",
          "name": "collateralAmount",
          "type": "uint256"
        }
      ],
      "name": "LoanLiquidated",
      "type": "event"
    },
    {
      "anonymous": false,
      "inputs": [
        {
          "indexed": true,
          "internalType": "address",
          "name": "borrower",
          "type": "address"
        },
        {
          "indexed": false,
          "internalType": "uint256",
          "name": "repaymentAmount",
          "type": "uint256"
        }
      ],
      "name": "LoanRepaid",
      "type": "event"
    },
    {
      "anonymous": false,
      "inputs": [
        {
          "indexed": true,
          "internalType": "address",
          "name": "borrower",
          "type": "address"
        },
        {
          "indexed": false,
          "internalType": "uint256",
          "name": "loanAmount",
          "type": "uint256"
        }
      ],
      "name": "LoanTaken",
      "type": "event"
    },
    {
      "anonymous": false,
      "inputs": [
        {
          "indexed": true,
          "internalType": "address",
          "name": "borrower",
          "type": "address"
        },
        {
          "indexed": false,
          "internalType": "uint256",
          "name": "collateralAmount",
          "type": "uint256"
        }
      ],
      "name": "LoanTermsAccepted",
      "type": "event"
    },
    {
      "inputs": [],
      "name": "acceptLoanTerms",
      "outputs": [],
      "stateMutability": "payable",
      "type": "function"
    },
    {
      "inputs": [],
      "name": "borrower",
      "outputs": [
        {
          "internalType": "address payable",
          "name": "",
          "type": "address"
        }
      ],
      "stateMutability": "view",
      "type": "function"
    },
    {
      "inputs": [],
      "name": "calculateInterest",
      "outputs": [
        {
          "internalType": "uint256",
          "name": "",
          "type": "uint256"
        }
      ],
      "stateMutability": "view",
      "type": "function"
    },
    {
      "inputs": [],
      "name": "currentRateType",
      "outputs": [
        {
          "internalType": "enum LoanRequest.InterestRateType",
          "name": "",
          "type": "uint8"
        }
      ],
      "stateMutability": "view",
      "type": "function"
    },
    {
      "inputs": [],
      "name": "ethCollateralAmount",
      "outputs": [
        {
          "internalType": "uint256",
          "name": "",
          "type": "uint256"
        }
      ],
      "stateMutability": "view",
      "type": "function"
    },
    {
      "inputs": [],
      "name": "feeAmount",
      "outputs": [
        {
          "internalType": "uint256",
          "name": "",
          "type": "uint256"
        }
      ],
      "stateMutability": "view",
      "type": "function"
    },
    {
      "inputs": [],
      "name": "fixedRate",
      "outputs": [
        {
          "internalType": "uint256",
          "name": "",
          "type": "uint256"
        }
      ],
      "stateMutability": "view",
      "type": "function"
    },
    {
      "inputs": [],
      "name": "floatingRate",
      "outputs": [
        {
          "internalType": "uint256",
          "name": "",
          "type": "uint256"
        }
      ],
      "stateMutability": "view",
      "type": "function"
    },
    {
      "inputs": [],
      "name": "fundLoan",
      "outputs": [],
      "stateMutability": "payable",
      "type": "function"
    },
    {
      "inputs": [],
      "name": "getFixedRate",
      "outputs": [
        {
          "internalType": "uint256",
          "name": "",
          "type": "uint256"
        }
      ],
      "stateMutability": "view",
      "type": "function"
    },
    {
      "inputs": [],
      "name": "getFloatingRate",
      "outputs": [
        {
          "internalType": "uint256",
          "name": "",
          "type": "uint256"
        }
      ],
      "stateMutability": "view",
      "type": "function"
    },
    {
      "inputs": [],
      "name": "getLoanState",
      "outputs": [
        {
          "internalType": "enum LoanRequest.LoanState",
          "name": "",
          "type": "uint8"
        }
      ],
      "stateMutability": "view",
      "type": "function"
    },
    {
      "inputs": [],
      "name": "lender",
      "outputs": [
        {
          "internalType": "address payable",
          "name": "",
          "type": "address"
        }
      ],
      "stateMutability": "view",
      "type": "function"
    },
    {
      "inputs": [],
      "name": "liquidate",
      "outputs": [],
      "stateMutability": "nonpayable",
      "type": "function"
    },
    {
      "inputs": [],
      "name": "loanAmount",
      "outputs": [
        {
          "internalType": "uint256",
          "name": "",
          "type": "uint256"
        }
      ],
      "stateMutability": "view",
      "type": "function"
    },
    {
      "inputs": [],
      "name": "repay",
      "outputs": [],
      "stateMutability": "payable",
      "type": "function"
    },
    {
      "inputs": [],
      "name": "repayByTimestamp",
      "outputs": [
        {
          "internalType": "uint256",
          "name": "",
          "type": "uint256"
        }
      ],
      "stateMutability": "view",
      "type": "function"
    },
    {
      "inputs": [],
      "name": "state",
      "outputs": [
        {
          "internalType": "enum LoanRequest.LoanState",
          "name": "",
          "type": "uint8"
        }
      ],
      "stateMutability": "view",
      "type": "function"
    },
    {
      "inputs": [],
      "name": "switchRateType",
      "outputs": [],
      "stateMutability": "nonpayable",
      "type": "function"
    },
    {
      "inputs": [],
      "name": "takeLoan",
      "outputs": [],
      "stateMutability": "payable",
      "type": "function"
    },
    {
      "inputs": [],
      "name": "terms",
      "outputs": [
        {
          "internalType": "uint256",
          "name": "loanAmount",
          "type": "uint256"
        },
        {
          "internalType": "uint256",
          "name": "feeAmount",
          "type": "uint256"
        },
        {
          "internalType": "uint256",
          "name": "ethCollateralAmount",
          "type": "uint256"
        },
        {
          "internalType": "uint256",
          "name": "repayByTimestamp",
          "type": "uint256"
        },
        {
          "internalType": "uint256",
          "name": "fixedRate",
          "type": "uint256"
        },
        {
          "internalType": "uint256",
          "name": "floatingRate",
          "type": "uint256"
        }
      ],
      "stateMutability": "view",
      "type": "function"
    },
    {
      "inputs": [],
      "name": "updateFloatingRate",
      "outputs": [],
      "stateMutability": "nonpayable",
      "type": "function"
    }
  ],
  "bytecode": "0x608060405234801561001057600080fd5b50604051611fe0380380611fe0833981810160405281019061003291906101d7565b8660098190555085600a8190555084600b8190555083600c8190555082600d8190555081600e8190555080600060026101000a81548173ffffffffffffffffffffffffffffffffffffffff021916908373ffffffffffffffffffffffffffffffffffffffff16021790555060008060006101000a81548160ff021916908360058111156100c2576100c1610279565b5b021790555060008060016101000a81548160ff021916908360018111156100ec576100eb610279565b5b021790555033600760006101000a81548173ffffffffffffffffffffffffffffffffffffffff021916908373ffffffffffffffffffffffffffffffffffffffff160217905550505050505050506102a8565b600080fd5b6000819050919050565b61015681610143565b811461016157600080fd5b50565b6000815190506101738161014d565b92915050565b600073ffffffffffffffffffffffffffffffffffffffff82169050919050565b60006101a482610179565b9050919050565b6101b481610199565b81146101bf57600080fd5b50565b6000815190506101d1816101ab565b92915050565b600080600080600080600060e0888a0312156101f6576101f561013e565b5b60006102048a828b01610164565b97505060206102158a828b01610164565b96505060406102268a828b01610164565b95505060606102378a828b01610164565b94505060806102488a828b01610164565b93505060a06102598a828b01610164565b92505060c061026a8a828b016101c2565b91505092959891949750929550565b7f4e487b7100000000000000000000000000000000000000000000000000000000600052602160045260246000fd5b611d29806102b76000396000f3fe6080604052600436106101355760003560e01c806398e05a49116100ab578063bf5e67341161006f578063bf5e67341461034b578063c19d93fb14610355578063d502562514610380578063eb0c4955146103b0578063f5513354146103db578063f71dd46c1461040657610135565b806398e05a49146102955780639d585f7f1461029f5780639e9f669c146102ca578063ab2078d1146102f5578063bcead63e1461032057610135565b806374eddc19116100fd57806374eddc19146101dc5780637df1f1b9146101f3578063802d14221461021e57806385dfc579146102495780638db579941461027457806398a88f2c1461027e57610135565b806328a070251461013a578063402d88831461015157806344d0d0c61461015b57806369e154041461018657806373c05178146101b1575b600080fd5b34801561014657600080fd5b5061014f610431565b005b6101596106bb565b005b34801561016757600080fd5b50610170610969565b60405161017d9190611284565b60405180910390f35b34801561019257600080fd5b5061019b61096f565b6040516101a89190611284565b60405180910390f35b3480156101bd57600080fd5b506101c6610975565b6040516101d39190611284565b60405180910390f35b3480156101e857600080fd5b506101f161097f565b005b3480156101ff57600080fd5b50610208610a73565b60405161021591906112e0565b60405180910390f35b34801561022a57600080fd5b50610233610a99565b6040516102409190611284565b60405180910390f35b34801561025557600080fd5b5061025e610a9f565b60405161026b9190611284565b60405180910390f35b61027c610aa9565b005b34801561028a57600080fd5b50610293610cae565b005b61029d610d46565b005b3480156102ab57600080fd5b506102b4610f31565b6040516102c19190611284565b60405180910390f35b3480156102d657600080fd5b506102df610f37565b6040516102ec9190611372565b60405180910390f35b34801561030157600080fd5b5061030a610f4d565b6040516103179190611284565b60405180910390f35b34801561032c57600080fd5b50610335610f53565b60405161034291906112e0565b60405180910390f35b610353610f79565b005b34801561036157600080fd5b5061036a61117e565b6040516103779190611372565b60405180910390f35b34801561038c57600080fd5b5061039561118f565b6040516103a79695949392919061138d565b60405180910390f35b3480156103bc57600080fd5b506103c56111b9565b6040516103d29190611284565b60405180910390f35b3480156103e757600080fd5b506103f0611252565b6040516103fd9190611436565b60405180910390f35b34801561041257600080fd5b5061041b611265565b6040516104289190611284565b60405180910390f35b60036005811115610445576104446112fb565b5b60008054906101000a900460ff166005811115610465576104646112fb565b5b146104a5576040517f08c379a000000000000000000000000000000000000000000000000000000000815260040161049c906114ae565b60405180910390fd5b600c5442116104e9576040517f08c379a00000000000000000000000000000000000000000000000000000000081526004016104e090611540565b60405180910390fd5b600760009054906101000a900473ffffffffffffffffffffffffffffffffffffffff1673ffffffffffffffffffffffffffffffffffffffff163373ffffffffffffffffffffffffffffffffffffffff1614610579576040517f08c379a0000000000000000000000000000000000000000000000000000000008152600401610570906115d2565b60405180910390fd5b60056000806101000a81548160ff0219169083600581111561059e5761059d6112fb565b5b0217905550600760009054906101000a900473ffffffffffffffffffffffffffffffffffffffff1673ffffffffffffffffffffffffffffffffffffffff166108fc600b549081150290604051600060405180830381858888f1935050505015801561060d573d6000803e3d6000fd5b50600760009054906101000a900473ffffffffffffffffffffffffffffffffffffffff1673ffffffffffffffffffffffffffffffffffffffff16600860009054906101000a900473ffffffffffffffffffffffffffffffffffffffff1673ffffffffffffffffffffffffffffffffffffffff167fd4bfdcd3d7029abe0d70d4a6f1f560c5eac8d3cd6ecef801c6d3d67a49be6068600b546040516106b19190611284565b60405180910390a3565b600360058111156106cf576106ce6112fb565b5b60008054906101000a900460ff1660058111156106ef576106ee6112fb565b5b1461072f576040517f08c379a0000000000000000000000000000000000000000000000000000000008152600401610726906114ae565b60405180910390fd5b600860009054906101000a900473ffffffffffffffffffffffffffffffffffffffff1673ffffffffffffffffffffffffffffffffffffffff163373ffffffffffffffffffffffffffffffffffffffff16146107bf576040517f08c379a00000000000000000000000000000000000000000000000000000000081526004016107b69061163e565b60405180910390fd5b60006107c96111b9565b6009546107d6919061168d565b905080341461081a576040517f08c379a00000000000000000000000000000000000000000000000000000000081526004016108119061170d565b60405180910390fd5b60046000806101000a81548160ff0219169083600581111561083f5761083e6112fb565b5b0217905550600760009054906101000a900473ffffffffffffffffffffffffffffffffffffffff1673ffffffffffffffffffffffffffffffffffffffff166108fc829081150290604051600060405180830381858888f193505050501580156108ac573d6000803e3d6000fd5b50600860009054906101000a900473ffffffffffffffffffffffffffffffffffffffff1673ffffffffffffffffffffffffffffffffffffffff166108fc600b549081150290604051600060405180830381858888f19350505050158015610917573d6000803e3d6000fd5b503373ffffffffffffffffffffffffffffffffffffffff167fc200a1f31dd659e356e0f112c82558e25f49f7b0f84438691cd96f5cb35588238260405161095e9190611284565b60405180910390a250565b600b5481565b600a5481565b6000600d54905090565b60008060029054906101000a900473ffffffffffffffffffffffffffffffffffffffff1673ffffffffffffffffffffffffffffffffffffffff1663feaf968c6040518163ffffffff1660e01b815260040160a060405180830381865afa1580156109ed573d6000803e3d6000fd5b505050506040513d601f19601f82011682018060405250810190610a1191906117d6565b50505091505060008113610a5a576040517f08c379a0000000000000000000000000000000000000000000000000000000008152600401610a519061189d565b60405180910390fd5b6305f5e10081610a6a91906118ec565b600e8190555050565b600860009054906101000a900473ffffffffffffffffffffffffffffffffffffffff1681565b600d5481565b6000600e54905090565b60006005811115610abd57610abc6112fb565b5b60008054906101000a900460ff166005811115610add57610adc6112fb565b5b14610b1d576040517f08c379a0000000000000000000000000000000000000000000000000000000008152600401610b1490611969565b60405180910390fd5b600760009054906101000a900473ffffffffffffffffffffffffffffffffffffffff1673ffffffffffffffffffffffffffffffffffffffff163373ffffffffffffffffffffffffffffffffffffffff1614610bad576040517f08c379a0000000000000000000000000000000000000000000000000000000008152600401610ba4906119d5565b60405180910390fd5b6009543414610bf1576040517f08c379a0000000000000000000000000000000000000000000000000000000008152600401610be890611a41565b60405180910390fd5b33600760006101000a81548173ffffffffffffffffffffffffffffffffffffffff021916908373ffffffffffffffffffffffffffffffffffffffff16021790555060016000806101000a81548160ff02191690836005811115610c5757610c566112fb565b5b02179055503373ffffffffffffffffffffffffffffffffffffffff167f726d5f1a838fe31748f737fa3ae5539ccff95952adfc593a1299532b643ff7a8600954604051610ca49190611284565b60405180910390a2565b60006001811115610cc257610cc16112fb565b5b600060019054906101000a900460ff166001811115610ce457610ce36112fb565b5b03610d19576001600060016101000a81548160ff02191690836001811115610d0f57610d0e6112fb565b5b0217905550610d44565b60008060016101000a81548160ff02191690836001811115610d3e57610d3d6112fb565b5b02179055505b565b60026005811115610d5a57610d596112fb565b5b60008054906101000a900460ff166005811115610d7a57610d796112fb565b5b14610dba576040517f08c379a0000000000000000000000000000000000000000000000000000000008152600401610db190611aad565b60405180910390fd5b600860009054906101000a900473ffffffffffffffffffffffffffffffffffffffff1673ffffffffffffffffffffffffffffffffffffffff163373ffffffffffffffffffffffffffffffffffffffff1614610e4a576040517f08c379a0000000000000000000000000000000000000000000000000000000008152600401610e4190611b19565b60405180910390fd5b60036000806101000a81548160ff02191690836005811115610e6f57610e6e6112fb565b5b0217905550600860009054906101000a900473ffffffffffffffffffffffffffffffffffffffff1673ffffffffffffffffffffffffffffffffffffffff166108fc6009549081150290604051600060405180830381858888f19350505050158015610ede573d6000803e3d6000fd5b503373ffffffffffffffffffffffffffffffffffffffff167fd5c776eab9418d89c040ffee59f2310d225f5ff682191bcee59b0413a7fd4835600954604051610f279190611284565b60405180910390a2565b60095481565b60008060009054906101000a900460ff16905090565b600c5481565b600760009054906101000a900473ffffffffffffffffffffffffffffffffffffffff1681565b60016005811115610f8d57610f8c6112fb565b5b60008054906101000a900460ff166005811115610fad57610fac6112fb565b5b14610fed576040517f08c379a0000000000000000000000000000000000000000000000000000000008152600401610fe490611b85565b60405180910390fd5b600760009054906101000a900473ffffffffffffffffffffffffffffffffffffffff1673ffffffffffffffffffffffffffffffffffffffff163373ffffffffffffffffffffffffffffffffffffffff160361107d576040517f08c379a000000000000000000000000000000000000000000000000000000000815260040161107490611bf1565b60405180910390fd5b600b5434146110c1576040517f08c379a00000000000000000000000000000000000000000000000000000000081526004016110b890611c5d565b60405180910390fd5b33600860006101000a81548173ffffffffffffffffffffffffffffffffffffffff021916908373ffffffffffffffffffffffffffffffffffffffff16021790555060026000806101000a81548160ff02191690836005811115611127576111266112fb565b5b02179055503373ffffffffffffffffffffffffffffffffffffffff167f329f3f0a323b6707cfce03bd3ca41f8b814a00b01c6a417528c8e3ea66422e47600b546040516111749190611284565b60405180910390a2565b60008054906101000a900460ff1681565b60018060000154908060010154908060020154908060030154908060040154908060050154905086565b600080600060018111156111d0576111cf6112fb565b5b600060019054906101000a900460ff1660018111156111f2576111f16112fb565b5b146111ff57600e54611203565b600d545b90506000600160030154426112189190611c7d565b9050600063b6d1c20082846001600001546112339190611cb1565b61123d9190611cb1565b61124791906118ec565b905080935050505090565b600060019054906101000a900460ff1681565b600e5481565b6000819050919050565b61127e8161126b565b82525050565b60006020820190506112996000830184611275565b92915050565b600073ffffffffffffffffffffffffffffffffffffffff82169050919050565b60006112ca8261129f565b9050919050565b6112da816112bf565b82525050565b60006020820190506112f560008301846112d1565b92915050565b7f4e487b7100000000000000000000000000000000000000000000000000000000600052602160045260246000fd5b6006811061133b5761133a6112fb565b5b50565b600081905061134c8261132a565b919050565b600061135c8261133e565b9050919050565b61136c81611351565b82525050565b60006020820190506113876000830184611363565b92915050565b600060c0820190506113a26000830189611275565b6113af6020830188611275565b6113bc6040830187611275565b6113c96060830186611275565b6113d66080830185611275565b6113e360a0830184611275565b979650505050505050565b600281106113ff576113fe6112fb565b5b50565b6000819050611410826113ee565b919050565b600061142082611402565b9050919050565b61143081611415565b82525050565b600060208201905061144b6000830184611427565b92915050565b600082825260208201905092915050565b7f4c6f616e206973206e6f7420696e2054616b656e207374617465000000000000600082015250565b6000611498601a83611451565b91506114a382611462565b602082019050919050565b600060208201905081810360008301526114c78161148b565b9050919050565b7f52657061796d656e7420646561646c696e6520686173206e6f7420706173736560008201527f6400000000000000000000000000000000000000000000000000000000000000602082015250565b600061152a602183611451565b9150611535826114ce565b604082019050919050565b600060208201905081810360008301526115598161151d565b9050919050565b7f4f6e6c79206c656e6465722063616e206c697175696461746520746865206c6f60008201527f616e000000000000000000000000000000000000000000000000000000000000602082015250565b60006115bc602283611451565b91506115c782611560565b604082019050919050565b600060208201905081810360008301526115eb816115af565b9050919050565b7f4f6e6c7920626f72726f7765722063616e20726570617920746865206c6f616e600082015250565b6000611628602083611451565b9150611633826115f2565b602082019050919050565b600060208201905081810360008301526116578161161b565b9050919050565b7f4e487b7100000000000000000000000000000000000000000000000000000000600052601160045260246000fd5b60006116988261126b565b91506116a38361126b565b92508282019050808211156116bb576116ba61165e565b5b92915050565b7f496e636f72726563742072657061796d656e7420616d6f756e74000000000000600082015250565b60006116f7601a83611451565b9150611702826116c1565b602082019050919050565b60006020820190508181036000830152611726816116ea565b9050919050565b600080fd5b600069ffffffffffffffffffff82169050919050565b61175181611732565b811461175c57600080fd5b50565b60008151905061176e81611748565b92915050565b6000819050919050565b61178781611774565b811461179257600080fd5b50565b6000815190506117a48161177e565b92915050565b6117b38161126b565b81146117be57600080fd5b50565b6000815190506117d0816117aa565b92915050565b600080600080600060a086880312156117f2576117f161172d565b5b60006118008882890161175f565b955050602061181188828901611795565b9450506040611822888289016117c1565b9350506060611833888289016117c1565b92505060806118448882890161175f565b9150509295509295909350565b7f496e76616c696420707269636500000000000000000000000000000000000000600082015250565b6000611887600d83611451565b915061189282611851565b602082019050919050565b600060208201905081810360008301526118b68161187a565b9050919050565b7f4e487b7100000000000000000000000000000000000000000000000000000000600052601260045260246000fd5b60006118f78261126b565b91506119028361126b565b925082611912576119116118bd565b5b828204905092915050565b7f4c6f616e206973206e6f7420696e204372656174656420737461746500000000600082015250565b6000611953601c83611451565b915061195e8261191d565b602082019050919050565b6000602082019050818103600083015261198281611946565b9050919050565b7f4f6e6c79206c656e6465722063616e2066756e6420746865206c6f616e000000600082015250565b60006119bf601d83611451565b91506119ca82611989565b602082019050919050565b600060208201905081810360008301526119ee816119b2565b9050919050565b7f496e636f7272656374206c6f616e20616d6f756e740000000000000000000000600082015250565b6000611a2b601583611451565b9150611a36826119f5565b602082019050919050565b60006020820190508181036000830152611a5a81611a1e565b9050919050565b7f4c6f616e206973206e6f7420696e206163636570746564207374617465000000600082015250565b6000611a97601d83611451565b9150611aa282611a61565b602082019050919050565b60006020820190508181036000830152611ac681611a8a565b9050919050565b7f4f6e6c7920626f72726f7765722063616e2074616b6520746865206c6f616e00600082015250565b6000611b03601f83611451565b9150611b0e82611acd565b602082019050919050565b60006020820190508181036000830152611b3281611af6565b9050919050565b7f4c6f616e206973206e6f7420696e2046756e6465642073746174650000000000600082015250565b6000611b6f601b83611451565b9150611b7a82611b39565b602082019050919050565b60006020820190508181036000830152611b9e81611b62565b9050919050565b7f4c656e6465722063616e6e6f742074616b6520746865206c6f616e0000000000600082015250565b6000611bdb601b83611451565b9150611be682611ba5565b602082019050919050565b60006020820190508181036000830152611c0a81611bce565b9050919050565b7f496e636f727265637420636f6c6c61746572616c20616d6f756e740000000000600082015250565b6000611c47601b83611451565b9150611c5282611c11565b602082019050919050565b60006020820190508181036000830152611c7681611c3a565b9050919050565b6000611c888261126b565b9150611c938361126b565b9250828203905081811115611cab57611caa61165e565b5b92915050565b6000611cbc8261126b565b9150611cc78361126b565b9250828202611cd58161126b565b91508282048414831517611cec57611ceb61165e565b5b509291505056fea26469706673582212206c2cf4ed72a5ee33d5d9b76281afb6717d7e442ce0308bfb516a68d4734468bf64736f6c634300081c0033",
  "linkReferences": {},
  "deployedLinkReferences": {}
}