{
  "_format": "hh-sol-artifact-1",
  "contractName": "LoanRequest",
  "sourceName": "contracts/LoanRequest.sol",
  "abi": [
    {
      "inputs": [
        {
          "internalType": "uint256",
          "name": "_loanAmount",
          "type": "uint256"
        },
        {
          "internalType": "uint256",
          "name": "_feeAmount",
          "type": "uint256"
        },
        {
          "internalType": "uint256",
          "name": "_ethCollateralAmount",
          "type": "uint256"
        },
        {
          "internalType": "uint256",
          "name": "_repayByTimestamp",
          "type": "uint256"
        },
        {
          "internalType": "uint256",
          "name": "_fixedRate",
          "type": "uint256"
        },
        {
          "internalType": "uint256",
          "name": "_floatingRate",
          "type": "uint256"
        },
        {
          "internalType": "address",
          "name": "_oracle",
          "type": "address"
        }
      ],
      "stateMutability": "nonpayable",
      "type": "constructor"
    },
    {
      "anonymous": false,
      "inputs": [
        {
          "indexed": true,
          "internalType": "address",
          "name": "lender",
          "type": "address"
        },
        {
          "indexed": false,
          "internalType": "uint256",
          "name": "loanAmount",
          "type": "uint256"
        }
      ],
      "name": "LoanFunded",
      "type": "event"
    },
    {
      "anonymous": false,
      "inputs": [
        {
          "indexed": true,
          "internalType": "address",
          "name": "borrower",
          "type": "address"
        },
        {
          "indexed": true,
          "internalType": "address",
          "name": "lender",
          "type": "address"
        },
        {
          "indexed": false,
          "internalType": "uint256",
          "name": "collateralAmount",
          "type": "uint256"
        }
      ],
      "name": "LoanLiquidated",
      "type": "event"
    },
    {
      "anonymous": false,
      "inputs": [
        {
          "indexed": true,
          "internalType": "address",
          "name": "borrower",
          "type": "address"
        },
        {
          "indexed": false,
          "internalType": "uint256",
          "name": "repaymentAmount",
          "type": "uint256"
        }
      ],
      "name": "LoanRepaid",
      "type": "event"
    },
    {
      "anonymous": false,
      "inputs": [
        {
          "indexed": true,
          "internalType": "address",
          "name": "borrower",
          "type": "address"
        },
        {
          "indexed": false,
          "internalType": "uint256",
          "name": "loanAmount",
          "type": "uint256"
        }
      ],
      "name": "LoanTaken",
      "type": "event"
    },
    {
      "anonymous": false,
      "inputs": [
        {
          "indexed": true,
          "internalType": "address",
          "name": "borrower",
          "type": "address"
        },
        {
          "indexed": false,
          "internalType": "uint256",
          "name": "collateralAmount",
          "type": "uint256"
        }
      ],
      "name": "LoanTermsAccepted",
      "type": "event"
    },
    {
      "inputs": [],
      "name": "acceptLoanTerms",
      "outputs": [],
      "stateMutability": "payable",
      "type": "function"
    },
    {
      "inputs": [],
      "name": "borrower",
      "outputs": [
        {
          "internalType": "address payable",
          "name": "",
          "type": "address"
        }
      ],
      "stateMutability": "view",
      "type": "function"
    },
    {
      "inputs": [],
      "name": "calculateInterest",
      "outputs": [
        {
          "internalType": "uint256",
          "name": "",
          "type": "uint256"
        }
      ],
      "stateMutability": "view",
      "type": "function"
    },
    {
      "inputs": [],
      "name": "currentRateType",
      "outputs": [
        {
          "internalType": "enum LoanRequest.InterestRateType",
          "name": "",
          "type": "uint8"
        }
      ],
      "stateMutability": "view",
      "type": "function"
    },
    {
      "inputs": [],
      "name": "ethCollateralAmount",
      "outputs": [
        {
          "internalType": "uint256",
          "name": "",
          "type": "uint256"
        }
      ],
      "stateMutability": "view",
      "type": "function"
    },
    {
      "inputs": [],
      "name": "feeAmount",
      "outputs": [
        {
          "internalType": "uint256",
          "name": "",
          "type": "uint256"
        }
      ],
      "stateMutability": "view",
      "type": "function"
    },
    {
      "inputs": [],
      "name": "fixedRate",
      "outputs": [
        {
          "internalType": "uint256",
          "name": "",
          "type": "uint256"
        }
      ],
      "stateMutability": "view",
      "type": "function"
    },
    {
      "inputs": [],
      "name": "floatingRate",
      "outputs": [
        {
          "internalType": "uint256",
          "name": "",
          "type": "uint256"
        }
      ],
      "stateMutability": "view",
      "type": "function"
    },
    {
      "inputs": [],
      "name": "fundLoan",
      "outputs": [],
      "stateMutability": "payable",
      "type": "function"
    },
    {
      "inputs": [],
      "name": "getEthCollateralAmount",
      "outputs": [
        {
          "internalType": "uint256",
          "name": "",
          "type": "uint256"
        }
      ],
      "stateMutability": "view",
      "type": "function"
    },
    {
      "inputs": [],
      "name": "getFeeAmount",
      "outputs": [
        {
          "internalType": "uint256",
          "name": "",
          "type": "uint256"
        }
      ],
      "stateMutability": "view",
      "type": "function"
    },
    {
      "inputs": [],
      "name": "getFixedRate",
      "outputs": [
        {
          "internalType": "uint256",
          "name": "",
          "type": "uint256"
        }
      ],
      "stateMutability": "view",
      "type": "function"
    },
    {
      "inputs": [],
      "name": "getFloatingRate",
      "outputs": [
        {
          "internalType": "uint256",
          "name": "",
          "type": "uint256"
        }
      ],
      "stateMutability": "view",
      "type": "function"
    },
    {
      "inputs": [],
      "name": "getLoanAmount",
      "outputs": [
        {
          "internalType": "uint256",
          "name": "",
          "type": "uint256"
        }
      ],
      "stateMutability": "view",
      "type": "function"
    },
    {
      "inputs": [],
      "name": "getLoanState",
      "outputs": [
        {
          "internalType": "enum LoanRequest.LoanState",
          "name": "",
          "type": "uint8"
        }
      ],
      "stateMutability": "view",
      "type": "function"
    },
    {
      "inputs": [],
      "name": "getRepayByTimestamp",
      "outputs": [
        {
          "internalType": "uint256",
          "name": "",
          "type": "uint256"
        }
      ],
      "stateMutability": "view",
      "type": "function"
    },
    {
      "inputs": [],
      "name": "lender",
      "outputs": [
        {
          "internalType": "address payable",
          "name": "",
          "type": "address"
        }
      ],
      "stateMutability": "view",
      "type": "function"
    },
    {
      "inputs": [],
      "name": "liquidate",
      "outputs": [],
      "stateMutability": "nonpayable",
      "type": "function"
    },
    {
      "inputs": [],
      "name": "loanAmount",
      "outputs": [
        {
          "internalType": "uint256",
          "name": "",
          "type": "uint256"
        }
      ],
      "stateMutability": "view",
      "type": "function"
    },
    {
      "inputs": [],
      "name": "loanTakenTimestamp",
      "outputs": [
        {
          "internalType": "uint256",
          "name": "",
          "type": "uint256"
        }
      ],
      "stateMutability": "view",
      "type": "function"
    },
    {
      "inputs": [],
      "name": "repay",
      "outputs": [],
      "stateMutability": "payable",
      "type": "function"
    },
    {
      "inputs": [],
      "name": "repayByTimestamp",
      "outputs": [
        {
          "internalType": "uint256",
          "name": "",
          "type": "uint256"
        }
      ],
      "stateMutability": "view",
      "type": "function"
    },
    {
      "inputs": [],
      "name": "state",
      "outputs": [
        {
          "internalType": "enum LoanRequest.LoanState",
          "name": "",
          "type": "uint8"
        }
      ],
      "stateMutability": "view",
      "type": "function"
    },
    {
      "inputs": [],
      "name": "switchRateType",
      "outputs": [],
      "stateMutability": "nonpayable",
      "type": "function"
    },
    {
      "inputs": [],
      "name": "takeLoan",
      "outputs": [],
      "stateMutability": "payable",
      "type": "function"
    },
    {
      "inputs": [],
      "name": "terms",
      "outputs": [
        {
          "internalType": "uint256",
          "name": "loanAmount",
          "type": "uint256"
        },
        {
          "internalType": "uint256",
          "name": "feeAmount",
          "type": "uint256"
        },
        {
          "internalType": "uint256",
          "name": "ethCollateralAmount",
          "type": "uint256"
        },
        {
          "internalType": "uint256",
          "name": "repayByTimestamp",
          "type": "uint256"
        },
        {
          "internalType": "uint256",
          "name": "fixedRate",
          "type": "uint256"
        },
        {
          "internalType": "uint256",
          "name": "floatingRate",
          "type": "uint256"
        }
      ],
      "stateMutability": "view",
      "type": "function"
    },
    {
      "inputs": [],
      "name": "updateRates",
      "outputs": [],
      "stateMutability": "nonpayable",
      "type": "function"
    }
  ],
  "bytecode": "0x608060405234801561001057600080fd5b5060405161212c38038061212c833981810160405281019061003291906101d7565b8660098190555085600a8190555084600b8190555083600c8190555082600d8190555081600e8190555080600060026101000a81548173ffffffffffffffffffffffffffffffffffffffff021916908373ffffffffffffffffffffffffffffffffffffffff16021790555060008060006101000a81548160ff021916908360058111156100c2576100c1610279565b5b021790555060008060016101000a81548160ff021916908360018111156100ec576100eb610279565b5b021790555033600760006101000a81548173ffffffffffffffffffffffffffffffffffffffff021916908373ffffffffffffffffffffffffffffffffffffffff160217905550505050505050506102a8565b600080fd5b6000819050919050565b61015681610143565b811461016157600080fd5b50565b6000815190506101738161014d565b92915050565b600073ffffffffffffffffffffffffffffffffffffffff82169050919050565b60006101a482610179565b9050919050565b6101b481610199565b81146101bf57600080fd5b50565b6000815190506101d1816101ab565b92915050565b600080600080600080600060e0888a0312156101f6576101f561013e565b5b60006102048a828b01610164565b97505060206102158a828b01610164565b96505060406102268a828b01610164565b95505060606102378a828b01610164565b94505060806102488a828b01610164565b93505060a06102598a828b01610164565b92505060c061026a8a828b016101c2565b91505092959891949750929550565b7f4e487b7100000000000000000000000000000000000000000000000000000000600052602160045260246000fd5b611e75806102b76000396000f3fe60806040526004361061019c5760003560e01c806398e05a49116100ec578063bf5e67341161008a578063eb0c495511610064578063eb0c4955146104c3578063f4b01b18146104ee578063f551335414610519578063f71dd46c146105445761019c565b8063bf5e67341461045e578063c19d93fb14610468578063d5025625146104935761019c565b8063ab2078d1116100c6578063ab2078d1146103b2578063b1138885146103dd578063bcead63e14610408578063bf5c9822146104335761019c565b806398e05a49146103525780639d585f7f1461035c5780639e9f669c146103875761019c565b806373c051781161015957806385dfc5791161013357806385dfc579146102db57806387b8f9eb146103065780638db579941461033157806398a88f2c1461033b5761019c565b806373c051781461025a5780637df1f1b914610285578063802d1422146102b05761019c565b806328a07025146101a15780633c3821f4146101b8578063402d8883146101cf57806340963da0146101d957806344d0d0c61461020457806369e154041461022f575b600080fd5b3480156101ad57600080fd5b506101b661056f565b005b3480156101c457600080fd5b506101cd6107f9565b005b6101d76108d6565b005b3480156101e557600080fd5b506101ee610b72565b6040516101fb919061143c565b60405180910390f35b34801561021057600080fd5b50610219610b7c565b604051610226919061143c565b60405180910390f35b34801561023b57600080fd5b50610244610b82565b604051610251919061143c565b60405180910390f35b34801561026657600080fd5b5061026f610b88565b60405161027c919061143c565b60405180910390f35b34801561029157600080fd5b5061029a610b92565b6040516102a79190611498565b60405180910390f35b3480156102bc57600080fd5b506102c5610bb8565b6040516102d2919061143c565b60405180910390f35b3480156102e757600080fd5b506102f0610bbe565b6040516102fd919061143c565b60405180910390f35b34801561031257600080fd5b5061031b610bc8565b604051610328919061143c565b60405180910390f35b610339610bce565b005b34801561034757600080fd5b50610350610dd3565b005b61035a610e6b565b005b34801561036857600080fd5b5061037161105d565b60405161037e919061143c565b60405180910390f35b34801561039357600080fd5b5061039c611063565b6040516103a9919061152a565b60405180910390f35b3480156103be57600080fd5b506103c7611079565b6040516103d4919061143c565b60405180910390f35b3480156103e957600080fd5b506103f261107f565b6040516103ff919061143c565b60405180910390f35b34801561041457600080fd5b5061041d611089565b60405161042a9190611498565b60405180910390f35b34801561043f57600080fd5b506104486110af565b604051610455919061143c565b60405180910390f35b6104666110b9565b005b34801561047457600080fd5b5061047d6112be565b60405161048a919061152a565b60405180910390f35b34801561049f57600080fd5b506104a86112cf565b6040516104ba96959493929190611545565b60405180910390f35b3480156104cf57600080fd5b506104d86112f9565b6040516104e5919061143c565b60405180910390f35b3480156104fa57600080fd5b50610503611400565b604051610510919061143c565b60405180910390f35b34801561052557600080fd5b5061052e61140a565b60405161053b91906115ee565b60405180910390f35b34801561055057600080fd5b5061055961141d565b604051610566919061143c565b60405180910390f35b60036005811115610583576105826114b3565b5b60008054906101000a900460ff1660058111156105a3576105a26114b3565b5b146105e3576040517f08c379a00000000000000000000000000000000000000000000000000000000081526004016105da90611666565b60405180910390fd5b600c544211610627576040517f08c379a000000000000000000000000000000000000000000000000000000000815260040161061e906116f8565b60405180910390fd5b600760009054906101000a900473ffffffffffffffffffffffffffffffffffffffff1673ffffffffffffffffffffffffffffffffffffffff163373ffffffffffffffffffffffffffffffffffffffff16146106b7576040517f08c379a00000000000000000000000000000000000000000000000000000000081526004016106ae9061178a565b60405180910390fd5b60056000806101000a81548160ff021916908360058111156106dc576106db6114b3565b5b0217905550600760009054906101000a900473ffffffffffffffffffffffffffffffffffffffff1673ffffffffffffffffffffffffffffffffffffffff166108fc600b549081150290604051600060405180830381858888f1935050505015801561074b573d6000803e3d6000fd5b50600760009054906101000a900473ffffffffffffffffffffffffffffffffffffffff1673ffffffffffffffffffffffffffffffffffffffff16600860009054906101000a900473ffffffffffffffffffffffffffffffffffffffff1673ffffffffffffffffffffffffffffffffffffffff167fd4bfdcd3d7029abe0d70d4a6f1f560c5eac8d3cd6ecef801c6d3d67a49be6068600b546040516107ef919061143c565b60405180910390a3565b60008060029054906101000a900473ffffffffffffffffffffffffffffffffffffffff1673ffffffffffffffffffffffffffffffffffffffff1663feaf968c6040518163ffffffff1660e01b815260040160a060405180830381865afa158015610867573d6000803e3d6000fd5b505050506040513d601f19601f8201168201806040525081019061088b9190611853565b5050509150506000620f42406064836108a491906118fd565b6108ae919061196e565b905080600e8190555060006001905080600e546108cb919061199f565b600d81905550505050565b600360058111156108ea576108e96114b3565b5b60008054906101000a900460ff16600581111561090a576109096114b3565b5b1461094a576040517f08c379a000000000000000000000000000000000000000000000000000000000815260040161094190611666565b60405180910390fd5b600860009054906101000a900473ffffffffffffffffffffffffffffffffffffffff1673ffffffffffffffffffffffffffffffffffffffff163373ffffffffffffffffffffffffffffffffffffffff16146109da576040517f08c379a00000000000000000000000000000000000000000000000000000000081526004016109d190611a1f565b60405180910390fd5b60006009549050803414610a23576040517f08c379a0000000000000000000000000000000000000000000000000000000008152600401610a1a90611a8b565b60405180910390fd5b60046000806101000a81548160ff02191690836005811115610a4857610a476114b3565b5b0217905550600760009054906101000a900473ffffffffffffffffffffffffffffffffffffffff1673ffffffffffffffffffffffffffffffffffffffff166108fc829081150290604051600060405180830381858888f19350505050158015610ab5573d6000803e3d6000fd5b50600860009054906101000a900473ffffffffffffffffffffffffffffffffffffffff1673ffffffffffffffffffffffffffffffffffffffff166108fc600b549081150290604051600060405180830381858888f19350505050158015610b20573d6000803e3d6000fd5b503373ffffffffffffffffffffffffffffffffffffffff167fc200a1f31dd659e356e0f112c82558e25f49f7b0f84438691cd96f5cb355882382604051610b67919061143c565b60405180910390a250565b6000600c54905090565b600b5481565b600a5481565b6000600d54905090565b600860009054906101000a900473ffffffffffffffffffffffffffffffffffffffff1681565b600d5481565b6000600e54905090565b600f5481565b60006005811115610be257610be16114b3565b5b60008054906101000a900460ff166005811115610c0257610c016114b3565b5b14610c42576040517f08c379a0000000000000000000000000000000000000000000000000000000008152600401610c3990611af7565b60405180910390fd5b600760009054906101000a900473ffffffffffffffffffffffffffffffffffffffff1673ffffffffffffffffffffffffffffffffffffffff163373ffffffffffffffffffffffffffffffffffffffff1614610cd2576040517f08c379a0000000000000000000000000000000000000000000000000000000008152600401610cc990611b63565b60405180910390fd5b6009543414610d16576040517f08c379a0000000000000000000000000000000000000000000000000000000008152600401610d0d90611bcf565b60405180910390fd5b33600760006101000a81548173ffffffffffffffffffffffffffffffffffffffff021916908373ffffffffffffffffffffffffffffffffffffffff16021790555060016000806101000a81548160ff02191690836005811115610d7c57610d7b6114b3565b5b02179055503373ffffffffffffffffffffffffffffffffffffffff167f726d5f1a838fe31748f737fa3ae5539ccff95952adfc593a1299532b643ff7a8600954604051610dc9919061143c565b60405180910390a2565b60006001811115610de757610de66114b3565b5b600060019054906101000a900460ff166001811115610e0957610e086114b3565b5b03610e3e576001600060016101000a81548160ff02191690836001811115610e3457610e336114b3565b5b0217905550610e69565b60008060016101000a81548160ff02191690836001811115610e6357610e626114b3565b5b02179055505b565b60026005811115610e7f57610e7e6114b3565b5b60008054906101000a900460ff166005811115610e9f57610e9e6114b3565b5b14610edf576040517f08c379a0000000000000000000000000000000000000000000000000000000008152600401610ed690611c3b565b60405180910390fd5b600860009054906101000a900473ffffffffffffffffffffffffffffffffffffffff1673ffffffffffffffffffffffffffffffffffffffff163373ffffffffffffffffffffffffffffffffffffffff1614610f6f576040517f08c379a0000000000000000000000000000000000000000000000000000000008152600401610f6690611ca7565b60405180910390fd5b60036000806101000a81548160ff02191690836005811115610f9457610f936114b3565b5b021790555042600f81905550600860009054906101000a900473ffffffffffffffffffffffffffffffffffffffff1673ffffffffffffffffffffffffffffffffffffffff166108fc6009549081150290604051600060405180830381858888f1935050505015801561100a573d6000803e3d6000fd5b503373ffffffffffffffffffffffffffffffffffffffff167fd5c776eab9418d89c040ffee59f2310d225f5ff682191bcee59b0413a7fd4835600954604051611053919061143c565b60405180910390a2565b60095481565b60008060009054906101000a900460ff16905090565b600c5481565b6000600b54905090565b600760009054906101000a900473ffffffffffffffffffffffffffffffffffffffff1681565b6000600a54905090565b600160058111156110cd576110cc6114b3565b5b60008054906101000a900460ff1660058111156110ed576110ec6114b3565b5b1461112d576040517f08c379a000000000000000000000000000000000000000000000000000000000815260040161112490611d13565b60405180910390fd5b600760009054906101000a900473ffffffffffffffffffffffffffffffffffffffff1673ffffffffffffffffffffffffffffffffffffffff163373ffffffffffffffffffffffffffffffffffffffff16036111bd576040517f08c379a00000000000000000000000000000000000000000000000000000000081526004016111b490611d7f565b60405180910390fd5b600b543414611201576040517f08c379a00000000000000000000000000000000000000000000000000000000081526004016111f890611deb565b60405180910390fd5b33600860006101000a81548173ffffffffffffffffffffffffffffffffffffffff021916908373ffffffffffffffffffffffffffffffffffffffff16021790555060026000806101000a81548160ff02191690836005811115611267576112666114b3565b5b02179055503373ffffffffffffffffffffffffffffffffffffffff167f329f3f0a323b6707cfce03bd3ca41f8b814a00b01c6a417528c8e3ea66422e47600b546040516112b4919061143c565b60405180910390a2565b60008054906101000a900460ff1681565b60018060000154908060010154908060020154908060030154908060040154908060050154905086565b60006003600581111561130f5761130e6114b3565b5b60008054906101000a900460ff16600581111561132f5761132e6114b3565b5b1461136f576040517f08c379a000000000000000000000000000000000000000000000000000000000815260040161136690611666565b60405180910390fd5b6000806001811115611384576113836114b3565b5b600060019054906101000a900460ff1660018111156113a6576113a56114b3565b5b146113b357600e546113b7565b600d545b90506000600f54426113c99190611e0b565b9050600063bbf81e0082846009546113e191906118fd565b6113eb91906118fd565b6113f5919061196e565b905080935050505090565b6000600954905090565b600060019054906101000a900460ff1681565b600e5481565b6000819050919050565b61143681611423565b82525050565b6000602082019050611451600083018461142d565b92915050565b600073ffffffffffffffffffffffffffffffffffffffff82169050919050565b600061148282611457565b9050919050565b61149281611477565b82525050565b60006020820190506114ad6000830184611489565b92915050565b7f4e487b7100000000000000000000000000000000000000000000000000000000600052602160045260246000fd5b600681106114f3576114f26114b3565b5b50565b6000819050611504826114e2565b919050565b6000611514826114f6565b9050919050565b61152481611509565b82525050565b600060208201905061153f600083018461151b565b92915050565b600060c08201905061155a600083018961142d565b611567602083018861142d565b611574604083018761142d565b611581606083018661142d565b61158e608083018561142d565b61159b60a083018461142d565b979650505050505050565b600281106115b7576115b66114b3565b5b50565b60008190506115c8826115a6565b919050565b60006115d8826115ba565b9050919050565b6115e8816115cd565b82525050565b600060208201905061160360008301846115df565b92915050565b600082825260208201905092915050565b7f4c6f616e206973206e6f7420696e2054616b656e207374617465000000000000600082015250565b6000611650601a83611609565b915061165b8261161a565b602082019050919050565b6000602082019050818103600083015261167f81611643565b9050919050565b7f52657061796d656e7420646561646c696e6520686173206e6f7420706173736560008201527f6400000000000000000000000000000000000000000000000000000000000000602082015250565b60006116e2602183611609565b91506116ed82611686565b604082019050919050565b60006020820190508181036000830152611711816116d5565b9050919050565b7f4f6e6c79206c656e6465722063616e206c697175696461746520746865206c6f60008201527f616e000000000000000000000000000000000000000000000000000000000000602082015250565b6000611774602283611609565b915061177f82611718565b604082019050919050565b600060208201905081810360008301526117a381611767565b9050919050565b600080fd5b600069ffffffffffffffffffff82169050919050565b6117ce816117af565b81146117d957600080fd5b50565b6000815190506117eb816117c5565b92915050565b6000819050919050565b611804816117f1565b811461180f57600080fd5b50565b600081519050611821816117fb565b92915050565b61183081611423565b811461183b57600080fd5b50565b60008151905061184d81611827565b92915050565b600080600080600060a0868803121561186f5761186e6117aa565b5b600061187d888289016117dc565b955050602061188e88828901611812565b945050604061189f8882890161183e565b93505060606118b08882890161183e565b92505060806118c1888289016117dc565b9150509295509295909350565b7f4e487b7100000000000000000000000000000000000000000000000000000000600052601160045260246000fd5b600061190882611423565b915061191383611423565b925082820261192181611423565b91508282048414831517611938576119376118ce565b5b5092915050565b7f4e487b7100000000000000000000000000000000000000000000000000000000600052601260045260246000fd5b600061197982611423565b915061198483611423565b9250826119945761199361193f565b5b828204905092915050565b60006119aa82611423565b91506119b583611423565b92508282019050808211156119cd576119cc6118ce565b5b92915050565b7f4f6e6c7920626f72726f7765722063616e20726570617920746865206c6f616e600082015250565b6000611a09602083611609565b9150611a14826119d3565b602082019050919050565b60006020820190508181036000830152611a38816119fc565b9050919050565b7f496e636f72726563742072657061796d656e7420616d6f756e74000000000000600082015250565b6000611a75601a83611609565b9150611a8082611a3f565b602082019050919050565b60006020820190508181036000830152611aa481611a68565b9050919050565b7f4c6f616e206973206e6f7420696e204372656174656420737461746500000000600082015250565b6000611ae1601c83611609565b9150611aec82611aab565b602082019050919050565b60006020820190508181036000830152611b1081611ad4565b9050919050565b7f4f6e6c79206c656e6465722063616e2066756e6420746865206c6f616e000000600082015250565b6000611b4d601d83611609565b9150611b5882611b17565b602082019050919050565b60006020820190508181036000830152611b7c81611b40565b9050919050565b7f496e636f7272656374206c6f616e20616d6f756e740000000000000000000000600082015250565b6000611bb9601583611609565b9150611bc482611b83565b602082019050919050565b60006020820190508181036000830152611be881611bac565b9050919050565b7f4c6f616e206973206e6f7420696e206163636570746564207374617465000000600082015250565b6000611c25601d83611609565b9150611c3082611bef565b602082019050919050565b60006020820190508181036000830152611c5481611c18565b9050919050565b7f4f6e6c7920626f72726f7765722063616e2074616b6520746865206c6f616e00600082015250565b6000611c91601f83611609565b9150611c9c82611c5b565b602082019050919050565b60006020820190508181036000830152611cc081611c84565b9050919050565b7f4c6f616e206973206e6f7420696e2046756e6465642073746174650000000000600082015250565b6000611cfd601b83611609565b9150611d0882611cc7565b602082019050919050565b60006020820190508181036000830152611d2c81611cf0565b9050919050565b7f4c656e6465722063616e6e6f742074616b6520746865206c6f616e0000000000600082015250565b6000611d69601b83611609565b9150611d7482611d33565b602082019050919050565b60006020820190508181036000830152611d9881611d5c565b9050919050565b7f496e636f727265637420636f6c6c61746572616c20616d6f756e740000000000600082015250565b6000611dd5601b83611609565b9150611de082611d9f565b602082019050919050565b60006020820190508181036000830152611e0481611dc8565b9050919050565b6000611e1682611423565b9150611e2183611423565b9250828203905081811115611e3957611e386118ce565b5b9291505056fea2646970667358221220afa69243ac254ae795a008fe6613bfef45bc7483656047ef4ed661f91c857e1664736f6c634300081c0033",
  "linkReferences": {},
  "deployedLinkReferences": {}
}