{
  "_format": "hh-sol-artifact-1",
  "contractName": "LoanRequest",
  "sourceName": "contracts/LoanRequest.sol",
  "abi": [
    {
      "inputs": [
        {
          "internalType": "uint256",
          "name": "_loanAmount",
          "type": "uint256"
        },
        {
          "internalType": "uint256",
          "name": "_feeAmount",
          "type": "uint256"
        },
        {
          "internalType": "uint256",
          "name": "_ethCollateralAmount",
          "type": "uint256"
        },
        {
          "internalType": "uint256",
          "name": "_repayByTimestamp",
          "type": "uint256"
        },
        {
          "internalType": "uint256",
          "name": "_fixedRate",
          "type": "uint256"
        },
        {
          "internalType": "uint256",
          "name": "_floatingRate",
          "type": "uint256"
        },
        {
          "internalType": "address",
          "name": "_oracle",
          "type": "address"
        }
      ],
      "stateMutability": "nonpayable",
      "type": "constructor"
    },
    {
      "anonymous": false,
      "inputs": [
        {
          "indexed": true,
          "internalType": "address",
          "name": "lender",
          "type": "address"
        },
        {
          "indexed": false,
          "internalType": "uint256",
          "name": "loanAmount",
          "type": "uint256"
        }
      ],
      "name": "LoanFunded",
      "type": "event"
    },
    {
      "anonymous": false,
      "inputs": [
        {
          "indexed": true,
          "internalType": "address",
          "name": "borrower",
          "type": "address"
        },
        {
          "indexed": true,
          "internalType": "address",
          "name": "lender",
          "type": "address"
        },
        {
          "indexed": false,
          "internalType": "uint256",
          "name": "collateralAmount",
          "type": "uint256"
        }
      ],
      "name": "LoanLiquidated",
      "type": "event"
    },
    {
      "anonymous": false,
      "inputs": [
        {
          "indexed": true,
          "internalType": "address",
          "name": "borrower",
          "type": "address"
        },
        {
          "indexed": false,
          "internalType": "uint256",
          "name": "repaymentAmount",
          "type": "uint256"
        }
      ],
      "name": "LoanRepaid",
      "type": "event"
    },
    {
      "anonymous": false,
      "inputs": [
        {
          "indexed": true,
          "internalType": "address",
          "name": "borrower",
          "type": "address"
        },
        {
          "indexed": false,
          "internalType": "uint256",
          "name": "loanAmount",
          "type": "uint256"
        }
      ],
      "name": "LoanTaken",
      "type": "event"
    },
    {
      "anonymous": false,
      "inputs": [
        {
          "indexed": true,
          "internalType": "address",
          "name": "borrower",
          "type": "address"
        },
        {
          "indexed": false,
          "internalType": "uint256",
          "name": "collateralAmount",
          "type": "uint256"
        }
      ],
      "name": "LoanTermsAccepted",
      "type": "event"
    },
    {
      "inputs": [],
      "name": "acceptLoanTerms",
      "outputs": [],
      "stateMutability": "payable",
      "type": "function"
    },
    {
      "inputs": [],
      "name": "borrower",
      "outputs": [
        {
          "internalType": "address payable",
          "name": "",
          "type": "address"
        }
      ],
      "stateMutability": "view",
      "type": "function"
    },
    {
      "inputs": [],
      "name": "calculateInterest",
      "outputs": [
        {
          "internalType": "uint256",
          "name": "",
          "type": "uint256"
        }
      ],
      "stateMutability": "view",
      "type": "function"
    },
    {
      "inputs": [],
      "name": "currentRateType",
      "outputs": [
        {
          "internalType": "enum LoanRequest.InterestRateType",
          "name": "",
          "type": "uint8"
        }
      ],
      "stateMutability": "view",
      "type": "function"
    },
    {
      "inputs": [],
      "name": "ethCollateralAmount",
      "outputs": [
        {
          "internalType": "uint256",
          "name": "",
          "type": "uint256"
        }
      ],
      "stateMutability": "view",
      "type": "function"
    },
    {
      "inputs": [],
      "name": "feeAmount",
      "outputs": [
        {
          "internalType": "uint256",
          "name": "",
          "type": "uint256"
        }
      ],
      "stateMutability": "view",
      "type": "function"
    },
    {
      "inputs": [],
      "name": "fixedRate",
      "outputs": [
        {
          "internalType": "uint256",
          "name": "",
          "type": "uint256"
        }
      ],
      "stateMutability": "view",
      "type": "function"
    },
    {
      "inputs": [],
      "name": "floatingRate",
      "outputs": [
        {
          "internalType": "uint256",
          "name": "",
          "type": "uint256"
        }
      ],
      "stateMutability": "view",
      "type": "function"
    },
    {
      "inputs": [],
      "name": "fundLoan",
      "outputs": [],
      "stateMutability": "payable",
      "type": "function"
    },
    {
      "inputs": [],
      "name": "getFixedRate",
      "outputs": [
        {
          "internalType": "uint256",
          "name": "",
          "type": "uint256"
        }
      ],
      "stateMutability": "view",
      "type": "function"
    },
    {
      "inputs": [],
      "name": "getFloatingRate",
      "outputs": [
        {
          "internalType": "uint256",
          "name": "",
          "type": "uint256"
        }
      ],
      "stateMutability": "view",
      "type": "function"
    },
    {
      "inputs": [],
      "name": "getLoanState",
      "outputs": [
        {
          "internalType": "enum LoanRequest.LoanState",
          "name": "",
          "type": "uint8"
        }
      ],
      "stateMutability": "view",
      "type": "function"
    },
    {
      "inputs": [],
      "name": "lender",
      "outputs": [
        {
          "internalType": "address payable",
          "name": "",
          "type": "address"
        }
      ],
      "stateMutability": "view",
      "type": "function"
    },
    {
      "inputs": [],
      "name": "liquidate",
      "outputs": [],
      "stateMutability": "nonpayable",
      "type": "function"
    },
    {
      "inputs": [],
      "name": "loanAmount",
      "outputs": [
        {
          "internalType": "uint256",
          "name": "",
          "type": "uint256"
        }
      ],
      "stateMutability": "view",
      "type": "function"
    },
    {
      "inputs": [],
      "name": "repay",
      "outputs": [],
      "stateMutability": "payable",
      "type": "function"
    },
    {
      "inputs": [],
      "name": "repayByTimestamp",
      "outputs": [
        {
          "internalType": "uint256",
          "name": "",
          "type": "uint256"
        }
      ],
      "stateMutability": "view",
      "type": "function"
    },
    {
      "inputs": [],
      "name": "state",
      "outputs": [
        {
          "internalType": "enum LoanRequest.LoanState",
          "name": "",
          "type": "uint8"
        }
      ],
      "stateMutability": "view",
      "type": "function"
    },
    {
      "inputs": [],
      "name": "switchRateType",
      "outputs": [],
      "stateMutability": "nonpayable",
      "type": "function"
    },
    {
      "inputs": [],
      "name": "takeLoan",
      "outputs": [],
      "stateMutability": "payable",
      "type": "function"
    },
    {
      "inputs": [],
      "name": "terms",
      "outputs": [
        {
          "internalType": "uint256",
          "name": "loanAmount",
          "type": "uint256"
        },
        {
          "internalType": "uint256",
          "name": "feeAmount",
          "type": "uint256"
        },
        {
          "internalType": "uint256",
          "name": "ethCollateralAmount",
          "type": "uint256"
        },
        {
          "internalType": "uint256",
          "name": "repayByTimestamp",
          "type": "uint256"
        },
        {
          "internalType": "uint256",
          "name": "fixedRate",
          "type": "uint256"
        },
        {
          "internalType": "uint256",
          "name": "floatingRate",
          "type": "uint256"
        }
      ],
      "stateMutability": "view",
      "type": "function"
    },
    {
      "inputs": [],
      "name": "updateFloatingRate",
      "outputs": [],
      "stateMutability": "nonpayable",
      "type": "function"
    }
  ],
  "bytecode": "0x608060405234801561001057600080fd5b50604051611fd1380380611fd1833981810160405281019061003291906101d7565b8660098190555085600a8190555084600b8190555083600c8190555082600d8190555081600e8190555080600060026101000a81548173ffffffffffffffffffffffffffffffffffffffff021916908373ffffffffffffffffffffffffffffffffffffffff16021790555060008060006101000a81548160ff021916908360058111156100c2576100c1610279565b5b021790555060008060016101000a81548160ff021916908360018111156100ec576100eb610279565b5b021790555033600760006101000a81548173ffffffffffffffffffffffffffffffffffffffff021916908373ffffffffffffffffffffffffffffffffffffffff160217905550505050505050506102a8565b600080fd5b6000819050919050565b61015681610143565b811461016157600080fd5b50565b6000815190506101738161014d565b92915050565b600073ffffffffffffffffffffffffffffffffffffffff82169050919050565b60006101a482610179565b9050919050565b6101b481610199565b81146101bf57600080fd5b50565b6000815190506101d1816101ab565b92915050565b600080600080600080600060e0888a0312156101f6576101f561013e565b5b60006102048a828b01610164565b97505060206102158a828b01610164565b96505060406102268a828b01610164565b95505060606102378a828b01610164565b94505060806102488a828b01610164565b93505060a06102598a828b01610164565b92505060c061026a8a828b016101c2565b91505092959891949750929550565b7f4e487b7100000000000000000000000000000000000000000000000000000000600052602160045260246000fd5b611d1a806102b76000396000f3fe6080604052600436106101355760003560e01c806398e05a49116100ab578063bf5e67341161006f578063bf5e67341461034b578063c19d93fb14610355578063d502562514610380578063eb0c4955146103b0578063f5513354146103db578063f71dd46c1461040657610135565b806398e05a49146102955780639d585f7f1461029f5780639e9f669c146102ca578063ab2078d1146102f5578063bcead63e1461032057610135565b806374eddc19116100fd57806374eddc19146101dc5780637df1f1b9146101f3578063802d14221461021e57806385dfc579146102495780638db579941461027457806398a88f2c1461027e57610135565b806328a070251461013a578063402d88831461015157806344d0d0c61461015b57806369e154041461018657806373c05178146101b1575b600080fd5b34801561014657600080fd5b5061014f610431565b005b6101596106bb565b005b34801561016757600080fd5b50610170610969565b60405161017d9190611275565b60405180910390f35b34801561019257600080fd5b5061019b61096f565b6040516101a89190611275565b60405180910390f35b3480156101bd57600080fd5b506101c6610975565b6040516101d39190611275565b60405180910390f35b3480156101e857600080fd5b506101f161097f565b005b3480156101ff57600080fd5b50610208610a64565b60405161021591906112d1565b60405180910390f35b34801561022a57600080fd5b50610233610a8a565b6040516102409190611275565b60405180910390f35b34801561025557600080fd5b5061025e610a90565b60405161026b9190611275565b60405180910390f35b61027c610a9a565b005b34801561028a57600080fd5b50610293610c9f565b005b61029d610d37565b005b3480156102ab57600080fd5b506102b4610f22565b6040516102c19190611275565b60405180910390f35b3480156102d657600080fd5b506102df610f28565b6040516102ec9190611363565b60405180910390f35b34801561030157600080fd5b5061030a610f3e565b6040516103179190611275565b60405180910390f35b34801561032c57600080fd5b50610335610f44565b60405161034291906112d1565b60405180910390f35b610353610f6a565b005b34801561036157600080fd5b5061036a61116f565b6040516103779190611363565b60405180910390f35b34801561038c57600080fd5b50610395611180565b6040516103a79695949392919061137e565b60405180910390f35b3480156103bc57600080fd5b506103c56111aa565b6040516103d29190611275565b60405180910390f35b3480156103e757600080fd5b506103f0611243565b6040516103fd9190611427565b60405180910390f35b34801561041257600080fd5b5061041b611256565b6040516104289190611275565b60405180910390f35b60036005811115610445576104446112ec565b5b60008054906101000a900460ff166005811115610465576104646112ec565b5b146104a5576040517f08c379a000000000000000000000000000000000000000000000000000000000815260040161049c9061149f565b60405180910390fd5b600c5442116104e9576040517f08c379a00000000000000000000000000000000000000000000000000000000081526004016104e090611531565b60405180910390fd5b600760009054906101000a900473ffffffffffffffffffffffffffffffffffffffff1673ffffffffffffffffffffffffffffffffffffffff163373ffffffffffffffffffffffffffffffffffffffff1614610579576040517f08c379a0000000000000000000000000000000000000000000000000000000008152600401610570906115c3565b60405180910390fd5b60056000806101000a81548160ff0219169083600581111561059e5761059d6112ec565b5b0217905550600760009054906101000a900473ffffffffffffffffffffffffffffffffffffffff1673ffffffffffffffffffffffffffffffffffffffff166108fc600b549081150290604051600060405180830381858888f1935050505015801561060d573d6000803e3d6000fd5b50600760009054906101000a900473ffffffffffffffffffffffffffffffffffffffff1673ffffffffffffffffffffffffffffffffffffffff16600860009054906101000a900473ffffffffffffffffffffffffffffffffffffffff1673ffffffffffffffffffffffffffffffffffffffff167fd4bfdcd3d7029abe0d70d4a6f1f560c5eac8d3cd6ecef801c6d3d67a49be6068600b546040516106b19190611275565b60405180910390a3565b600360058111156106cf576106ce6112ec565b5b60008054906101000a900460ff1660058111156106ef576106ee6112ec565b5b1461072f576040517f08c379a00000000000000000000000000000000000000000000000000000000081526004016107269061149f565b60405180910390fd5b600860009054906101000a900473ffffffffffffffffffffffffffffffffffffffff1673ffffffffffffffffffffffffffffffffffffffff163373ffffffffffffffffffffffffffffffffffffffff16146107bf576040517f08c379a00000000000000000000000000000000000000000000000000000000081526004016107b69061162f565b60405180910390fd5b60006107c96111aa565b6009546107d6919061167e565b905080341461081a576040517f08c379a0000000000000000000000000000000000000000000000000000000008152600401610811906116fe565b60405180910390fd5b60046000806101000a81548160ff0219169083600581111561083f5761083e6112ec565b5b0217905550600760009054906101000a900473ffffffffffffffffffffffffffffffffffffffff1673ffffffffffffffffffffffffffffffffffffffff166108fc829081150290604051600060405180830381858888f193505050501580156108ac573d6000803e3d6000fd5b50600860009054906101000a900473ffffffffffffffffffffffffffffffffffffffff1673ffffffffffffffffffffffffffffffffffffffff166108fc600b549081150290604051600060405180830381858888f19350505050158015610917573d6000803e3d6000fd5b503373ffffffffffffffffffffffffffffffffffffffff167fc200a1f31dd659e356e0f112c82558e25f49f7b0f84438691cd96f5cb35588238260405161095e9190611275565b60405180910390a250565b600b5481565b600a5481565b6000600d54905090565b60008060029054906101000a900473ffffffffffffffffffffffffffffffffffffffff1673ffffffffffffffffffffffffffffffffffffffff1663feaf968c6040518163ffffffff1660e01b815260040160a060405180830381865afa1580156109ed573d6000803e3d6000fd5b505050506040513d601f19601f82011682018060405250810190610a1191906117c7565b50505091505060008113610a5a576040517f08c379a0000000000000000000000000000000000000000000000000000000008152600401610a519061188e565b60405180910390fd5b80600e8190555050565b600860009054906101000a900473ffffffffffffffffffffffffffffffffffffffff1681565b600d5481565b6000600e54905090565b60006005811115610aae57610aad6112ec565b5b60008054906101000a900460ff166005811115610ace57610acd6112ec565b5b14610b0e576040517f08c379a0000000000000000000000000000000000000000000000000000000008152600401610b05906118fa565b60405180910390fd5b600760009054906101000a900473ffffffffffffffffffffffffffffffffffffffff1673ffffffffffffffffffffffffffffffffffffffff163373ffffffffffffffffffffffffffffffffffffffff1614610b9e576040517f08c379a0000000000000000000000000000000000000000000000000000000008152600401610b9590611966565b60405180910390fd5b6009543414610be2576040517f08c379a0000000000000000000000000000000000000000000000000000000008152600401610bd9906119d2565b60405180910390fd5b33600760006101000a81548173ffffffffffffffffffffffffffffffffffffffff021916908373ffffffffffffffffffffffffffffffffffffffff16021790555060016000806101000a81548160ff02191690836005811115610c4857610c476112ec565b5b02179055503373ffffffffffffffffffffffffffffffffffffffff167f726d5f1a838fe31748f737fa3ae5539ccff95952adfc593a1299532b643ff7a8600954604051610c959190611275565b60405180910390a2565b60006001811115610cb357610cb26112ec565b5b600060019054906101000a900460ff166001811115610cd557610cd46112ec565b5b03610d0a576001600060016101000a81548160ff02191690836001811115610d0057610cff6112ec565b5b0217905550610d35565b60008060016101000a81548160ff02191690836001811115610d2f57610d2e6112ec565b5b02179055505b565b60026005811115610d4b57610d4a6112ec565b5b60008054906101000a900460ff166005811115610d6b57610d6a6112ec565b5b14610dab576040517f08c379a0000000000000000000000000000000000000000000000000000000008152600401610da290611a3e565b60405180910390fd5b600860009054906101000a900473ffffffffffffffffffffffffffffffffffffffff1673ffffffffffffffffffffffffffffffffffffffff163373ffffffffffffffffffffffffffffffffffffffff1614610e3b576040517f08c379a0000000000000000000000000000000000000000000000000000000008152600401610e3290611aaa565b60405180910390fd5b60036000806101000a81548160ff02191690836005811115610e6057610e5f6112ec565b5b0217905550600860009054906101000a900473ffffffffffffffffffffffffffffffffffffffff1673ffffffffffffffffffffffffffffffffffffffff166108fc6009549081150290604051600060405180830381858888f19350505050158015610ecf573d6000803e3d6000fd5b503373ffffffffffffffffffffffffffffffffffffffff167fd5c776eab9418d89c040ffee59f2310d225f5ff682191bcee59b0413a7fd4835600954604051610f189190611275565b60405180910390a2565b60095481565b60008060009054906101000a900460ff16905090565b600c5481565b600760009054906101000a900473ffffffffffffffffffffffffffffffffffffffff1681565b60016005811115610f7e57610f7d6112ec565b5b60008054906101000a900460ff166005811115610f9e57610f9d6112ec565b5b14610fde576040517f08c379a0000000000000000000000000000000000000000000000000000000008152600401610fd590611b16565b60405180910390fd5b600760009054906101000a900473ffffffffffffffffffffffffffffffffffffffff1673ffffffffffffffffffffffffffffffffffffffff163373ffffffffffffffffffffffffffffffffffffffff160361106e576040517f08c379a000000000000000000000000000000000000000000000000000000000815260040161106590611b82565b60405180910390fd5b600b5434146110b2576040517f08c379a00000000000000000000000000000000000000000000000000000000081526004016110a990611bee565b60405180910390fd5b33600860006101000a81548173ffffffffffffffffffffffffffffffffffffffff021916908373ffffffffffffffffffffffffffffffffffffffff16021790555060026000806101000a81548160ff02191690836005811115611118576111176112ec565b5b02179055503373ffffffffffffffffffffffffffffffffffffffff167f329f3f0a323b6707cfce03bd3ca41f8b814a00b01c6a417528c8e3ea66422e47600b546040516111659190611275565b60405180910390a2565b60008054906101000a900460ff1681565b60018060000154908060010154908060020154908060030154908060040154908060050154905086565b600080600060018111156111c1576111c06112ec565b5b600060019054906101000a900460ff1660018111156111e3576111e26112ec565b5b146111f057600e546111f4565b600d545b90506000600160030154426112099190611c0e565b9050600063b6d1c20082846001600001546112249190611c42565b61122e9190611c42565b6112389190611cb3565b905080935050505090565b600060019054906101000a900460ff1681565b600e5481565b6000819050919050565b61126f8161125c565b82525050565b600060208201905061128a6000830184611266565b92915050565b600073ffffffffffffffffffffffffffffffffffffffff82169050919050565b60006112bb82611290565b9050919050565b6112cb816112b0565b82525050565b60006020820190506112e660008301846112c2565b92915050565b7f4e487b7100000000000000000000000000000000000000000000000000000000600052602160045260246000fd5b6006811061132c5761132b6112ec565b5b50565b600081905061133d8261131b565b919050565b600061134d8261132f565b9050919050565b61135d81611342565b82525050565b60006020820190506113786000830184611354565b92915050565b600060c0820190506113936000830189611266565b6113a06020830188611266565b6113ad6040830187611266565b6113ba6060830186611266565b6113c76080830185611266565b6113d460a0830184611266565b979650505050505050565b600281106113f0576113ef6112ec565b5b50565b6000819050611401826113df565b919050565b6000611411826113f3565b9050919050565b61142181611406565b82525050565b600060208201905061143c6000830184611418565b92915050565b600082825260208201905092915050565b7f4c6f616e206973206e6f7420696e2054616b656e207374617465000000000000600082015250565b6000611489601a83611442565b915061149482611453565b602082019050919050565b600060208201905081810360008301526114b88161147c565b9050919050565b7f52657061796d656e7420646561646c696e6520686173206e6f7420706173736560008201527f6400000000000000000000000000000000000000000000000000000000000000602082015250565b600061151b602183611442565b9150611526826114bf565b604082019050919050565b6000602082019050818103600083015261154a8161150e565b9050919050565b7f4f6e6c79206c656e6465722063616e206c697175696461746520746865206c6f60008201527f616e000000000000000000000000000000000000000000000000000000000000602082015250565b60006115ad602283611442565b91506115b882611551565b604082019050919050565b600060208201905081810360008301526115dc816115a0565b9050919050565b7f4f6e6c7920626f72726f7765722063616e20726570617920746865206c6f616e600082015250565b6000611619602083611442565b9150611624826115e3565b602082019050919050565b600060208201905081810360008301526116488161160c565b9050919050565b7f4e487b7100000000000000000000000000000000000000000000000000000000600052601160045260246000fd5b60006116898261125c565b91506116948361125c565b92508282019050808211156116ac576116ab61164f565b5b92915050565b7f496e636f72726563742072657061796d656e7420616d6f756e74000000000000600082015250565b60006116e8601a83611442565b91506116f3826116b2565b602082019050919050565b60006020820190508181036000830152611717816116db565b9050919050565b600080fd5b600069ffffffffffffffffffff82169050919050565b61174281611723565b811461174d57600080fd5b50565b60008151905061175f81611739565b92915050565b6000819050919050565b61177881611765565b811461178357600080fd5b50565b6000815190506117958161176f565b92915050565b6117a48161125c565b81146117af57600080fd5b50565b6000815190506117c18161179b565b92915050565b600080600080600060a086880312156117e3576117e261171e565b5b60006117f188828901611750565b955050602061180288828901611786565b9450506040611813888289016117b2565b9350506060611824888289016117b2565b925050608061183588828901611750565b9150509295509295909350565b7f496e76616c696420707269636500000000000000000000000000000000000000600082015250565b6000611878600d83611442565b915061188382611842565b602082019050919050565b600060208201905081810360008301526118a78161186b565b9050919050565b7f4c6f616e206973206e6f7420696e204372656174656420737461746500000000600082015250565b60006118e4601c83611442565b91506118ef826118ae565b602082019050919050565b60006020820190508181036000830152611913816118d7565b9050919050565b7f4f6e6c79206c656e6465722063616e2066756e6420746865206c6f616e000000600082015250565b6000611950601d83611442565b915061195b8261191a565b602082019050919050565b6000602082019050818103600083015261197f81611943565b9050919050565b7f496e636f7272656374206c6f616e20616d6f756e740000000000000000000000600082015250565b60006119bc601583611442565b91506119c782611986565b602082019050919050565b600060208201905081810360008301526119eb816119af565b9050919050565b7f4c6f616e206973206e6f7420696e206163636570746564207374617465000000600082015250565b6000611a28601d83611442565b9150611a33826119f2565b602082019050919050565b60006020820190508181036000830152611a5781611a1b565b9050919050565b7f4f6e6c7920626f72726f7765722063616e2074616b6520746865206c6f616e00600082015250565b6000611a94601f83611442565b9150611a9f82611a5e565b602082019050919050565b60006020820190508181036000830152611ac381611a87565b9050919050565b7f4c6f616e206973206e6f7420696e2046756e6465642073746174650000000000600082015250565b6000611b00601b83611442565b9150611b0b82611aca565b602082019050919050565b60006020820190508181036000830152611b2f81611af3565b9050919050565b7f4c656e6465722063616e6e6f742074616b6520746865206c6f616e0000000000600082015250565b6000611b6c601b83611442565b9150611b7782611b36565b602082019050919050565b60006020820190508181036000830152611b9b81611b5f565b9050919050565b7f496e636f727265637420636f6c6c61746572616c20616d6f756e740000000000600082015250565b6000611bd8601b83611442565b9150611be382611ba2565b602082019050919050565b60006020820190508181036000830152611c0781611bcb565b9050919050565b6000611c198261125c565b9150611c248361125c565b9250828203905081811115611c3c57611c3b61164f565b5b92915050565b6000611c4d8261125c565b9150611c588361125c565b9250828202611c668161125c565b91508282048414831517611c7d57611c7c61164f565b5b5092915050565b7f4e487b7100000000000000000000000000000000000000000000000000000000600052601260045260246000fd5b6000611cbe8261125c565b9150611cc98361125c565b925082611cd957611cd8611c84565b5b82820490509291505056fea2646970667358221220d561aaf516acd795b0f42c42603fd4da83e5a5c44c4b176f28aefef72462554464736f6c634300081c0033",
  "linkReferences": {},
  "deployedLinkReferences": {}
}