{
  "_format": "hh-sol-artifact-1",
  "contractName": "LoanRequest",
  "sourceName": "contracts/LoanRequest.sol",
  "abi": [
    {
      "inputs": [
        {
          "internalType": "uint256",
          "name": "_loanDaiAmount",
          "type": "uint256"
        },
        {
          "internalType": "uint256",
          "name": "_feeDaiAmount",
          "type": "uint256"
        },
        {
          "internalType": "uint256",
          "name": "_ethCollateralAmount",
          "type": "uint256"
        },
        {
          "internalType": "uint256",
          "name": "_repayByTimestamp",
          "type": "uint256"
        },
        {
          "internalType": "uint256",
          "name": "_fixedRate",
          "type": "uint256"
        },
        {
          "internalType": "uint256",
          "name": "_floatingRate",
          "type": "uint256"
        },
        {
          "internalType": "address",
          "name": "_daiToken",
          "type": "address"
        },
        {
          "internalType": "address",
          "name": "_oracleAddress",
          "type": "address"
        }
      ],
      "stateMutability": "nonpayable",
      "type": "constructor"
    },
    {
      "anonymous": false,
      "inputs": [
        {
          "indexed": true,
          "internalType": "address",
          "name": "borrower",
          "type": "address"
        },
        {
          "indexed": true,
          "internalType": "address",
          "name": "lender",
          "type": "address"
        },
        {
          "indexed": false,
          "internalType": "uint256",
          "name": "collateralAmount",
          "type": "uint256"
        }
      ],
      "name": "LoanLiquidated",
      "type": "event"
    },
    {
      "anonymous": false,
      "inputs": [
        {
          "indexed": true,
          "internalType": "address",
          "name": "borrower",
          "type": "address"
        },
        {
          "indexed": false,
          "internalType": "uint256",
          "name": "repaymentAmount",
          "type": "uint256"
        },
        {
          "indexed": false,
          "internalType": "uint256",
          "name": "interestPaid",
          "type": "uint256"
        }
      ],
      "name": "LoanRepaid",
      "type": "event"
    },
    {
      "inputs": [],
      "name": "borrower",
      "outputs": [
        {
          "internalType": "address",
          "name": "",
          "type": "address"
        }
      ],
      "stateMutability": "view",
      "type": "function"
    },
    {
      "inputs": [],
      "name": "currentRateType",
      "outputs": [
        {
          "internalType": "enum LoanRequest.InterestRateType",
          "name": "",
          "type": "uint8"
        }
      ],
      "stateMutability": "view",
      "type": "function"
    },
    {
      "inputs": [],
      "name": "daiToken",
      "outputs": [
        {
          "internalType": "contract IERC20",
          "name": "",
          "type": "address"
        }
      ],
      "stateMutability": "view",
      "type": "function"
    },
    {
      "inputs": [],
      "name": "ethCollateralAmount",
      "outputs": [
        {
          "internalType": "uint256",
          "name": "",
          "type": "uint256"
        }
      ],
      "stateMutability": "view",
      "type": "function"
    },
    {
      "inputs": [],
      "name": "feeDaiAmount",
      "outputs": [
        {
          "internalType": "uint256",
          "name": "",
          "type": "uint256"
        }
      ],
      "stateMutability": "view",
      "type": "function"
    },
    {
      "inputs": [],
      "name": "fixedRate",
      "outputs": [
        {
          "internalType": "uint256",
          "name": "",
          "type": "uint256"
        }
      ],
      "stateMutability": "view",
      "type": "function"
    },
    {
      "inputs": [],
      "name": "floatingRate",
      "outputs": [
        {
          "internalType": "uint256",
          "name": "",
          "type": "uint256"
        }
      ],
      "stateMutability": "view",
      "type": "function"
    },
    {
      "inputs": [],
      "name": "fundLoan",
      "outputs": [],
      "stateMutability": "nonpayable",
      "type": "function"
    },
    {
      "inputs": [],
      "name": "getFloatingRate",
      "outputs": [
        {
          "internalType": "uint256",
          "name": "",
          "type": "uint256"
        }
      ],
      "stateMutability": "view",
      "type": "function"
    },
    {
      "inputs": [],
      "name": "lender",
      "outputs": [
        {
          "internalType": "address",
          "name": "",
          "type": "address"
        }
      ],
      "stateMutability": "view",
      "type": "function"
    },
    {
      "inputs": [],
      "name": "liquidate",
      "outputs": [],
      "stateMutability": "nonpayable",
      "type": "function"
    },
    {
      "inputs": [],
      "name": "loanDaiAmount",
      "outputs": [
        {
          "internalType": "uint256",
          "name": "",
          "type": "uint256"
        }
      ],
      "stateMutability": "view",
      "type": "function"
    },
    {
      "inputs": [],
      "name": "repay",
      "outputs": [],
      "stateMutability": "nonpayable",
      "type": "function"
    },
    {
      "inputs": [],
      "name": "repayByTimestamp",
      "outputs": [
        {
          "internalType": "uint256",
          "name": "",
          "type": "uint256"
        }
      ],
      "stateMutability": "view",
      "type": "function"
    },
    {
      "inputs": [],
      "name": "state",
      "outputs": [
        {
          "internalType": "enum LoanRequest.LoanState",
          "name": "",
          "type": "uint8"
        }
      ],
      "stateMutability": "view",
      "type": "function"
    },
    {
      "inputs": [],
      "name": "switchRateType",
      "outputs": [],
      "stateMutability": "nonpayable",
      "type": "function"
    },
    {
      "inputs": [],
      "name": "takeALoanAndAcceptLoanTerms",
      "outputs": [],
      "stateMutability": "payable",
      "type": "function"
    },
    {
      "inputs": [],
      "name": "terms",
      "outputs": [
        {
          "internalType": "uint256",
          "name": "loanDaiAmount",
          "type": "uint256"
        },
        {
          "internalType": "uint256",
          "name": "feeDaiAmount",
          "type": "uint256"
        },
        {
          "internalType": "uint256",
          "name": "ethCollateralAmount",
          "type": "uint256"
        },
        {
          "internalType": "uint256",
          "name": "repayByTimestamp",
          "type": "uint256"
        },
        {
          "internalType": "uint256",
          "name": "fixedRate",
          "type": "uint256"
        },
        {
          "internalType": "uint256",
          "name": "floatingRate",
          "type": "uint256"
        }
      ],
      "stateMutability": "view",
      "type": "function"
    },
    {
      "inputs": [],
      "name": "updateFloatingRate",
      "outputs": [],
      "stateMutability": "nonpayable",
      "type": "function"
    }
  ],
  "bytecode": "0x608060405234801561001057600080fd5b50604051611e66380380611e6683398181016040528101906100329190610219565b87600b8190555086600c8190555085600d8190555084600e8190555083600f819055508260108190555081600a60006101000a81548173ffffffffffffffffffffffffffffffffffffffff021916908373ffffffffffffffffffffffffffffffffffffffff16021790555080600060026101000a81548173ffffffffffffffffffffffffffffffffffffffff021916908373ffffffffffffffffffffffffffffffffffffffff16021790555060008060006101000a81548160ff02191690836004811115610103576101026102cf565b5b021790555060008060016101000a81548160ff0219169083600181111561012d5761012c6102cf565b5b021790555033600860006101000a81548173ffffffffffffffffffffffffffffffffffffffff021916908373ffffffffffffffffffffffffffffffffffffffff16021790555050505050505050506102fe565b600080fd5b6000819050919050565b61019881610185565b81146101a357600080fd5b50565b6000815190506101b58161018f565b92915050565b600073ffffffffffffffffffffffffffffffffffffffff82169050919050565b60006101e6826101bb565b9050919050565b6101f6816101db565b811461020157600080fd5b50565b600081519050610213816101ed565b92915050565b600080600080600080600080610100898b03121561023a57610239610180565b5b60006102488b828c016101a6565b98505060206102598b828c016101a6565b975050604061026a8b828c016101a6565b965050606061027b8b828c016101a6565b955050608061028c8b828c016101a6565b94505060a061029d8b828c016101a6565b93505060c06102ae8b828c01610204565b92505060e06102bf8b828c01610204565b9150509295985092959890939650565b7f4e487b7100000000000000000000000000000000000000000000000000000000600052602160045260246000fd5b611b598061030d6000396000f3fe6080604052600436106101145760003560e01c80638db57994116100a0578063c19d93fb11610064578063c19d93fb146102ee578063d502562514610319578063f551335414610349578063f71dd46c14610374578063fb760d821461039f57610114565b80638db579941461023f57806398a88f2c14610256578063ab2078d11461026d578063bcead63e14610298578063be22f546146102c357610114565b80634c4b28f6116100e75780634c4b28f61461019d57806374eddc19146101a75780637df1f1b9146101be578063802d1422146101e957806385dfc5791461021457610114565b806328a07025146101195780632c3fecd114610130578063402d88831461015b57806344d0d0c614610172575b600080fd5b34801561012557600080fd5b5061012e6103ca565b005b34801561013c57600080fd5b506101456106ba565b6040516101529190610fcf565b60405180910390f35b34801561016757600080fd5b506101706106c0565b005b34801561017e57600080fd5b50610187610a6b565b6040516101949190610fcf565b60405180910390f35b6101a5610a71565b005b3480156101b357600080fd5b506101bc610c26565b005b3480156101ca57600080fd5b506101d3610d0c565b6040516101e0919061102b565b60405180910390f35b3480156101f557600080fd5b506101fe610d32565b60405161020b9190610fcf565b60405180910390f35b34801561022057600080fd5b50610229610d38565b6040516102369190610fcf565b60405180910390f35b34801561024b57600080fd5b50610254610d42565b005b34801561026257600080fd5b5061026b610e72565b005b34801561027957600080fd5b50610282610f0a565b60405161028f9190610fcf565b60405180910390f35b3480156102a457600080fd5b506102ad610f10565b6040516102ba919061102b565b60405180910390f35b3480156102cf57600080fd5b506102d8610f36565b6040516102e591906110a5565b60405180910390f35b3480156102fa57600080fd5b50610303610f5c565b6040516103109190611137565b60405180910390f35b34801561032557600080fd5b5061032e610f6d565b60405161034096959493929190611152565b60405180910390f35b34801561035557600080fd5b5061035e610f97565b60405161036b91906111fb565b60405180910390f35b34801561038057600080fd5b50610389610faa565b6040516103969190610fcf565b60405180910390f35b3480156103ab57600080fd5b506103b4610fb0565b6040516103c19190610fcf565b60405180910390f35b600260048111156103de576103dd6110c0565b5b60008054906101000a900460ff1660048111156103fe576103fd6110c0565b5b1461043e576040517f08c379a000000000000000000000000000000000000000000000000000000000815260040161043590611273565b60405180910390fd5b600e544211610482576040517f08c379a000000000000000000000000000000000000000000000000000000000815260040161047990611305565b60405180910390fd5b600860009054906101000a900473ffffffffffffffffffffffffffffffffffffffff1673ffffffffffffffffffffffffffffffffffffffff163373ffffffffffffffffffffffffffffffffffffffff1614610512576040517f08c379a000000000000000000000000000000000000000000000000000000000815260040161050990611397565b60405180910390fd5b60046000806101000a81548160ff02191690836004811115610537576105366110c0565b5b02179055506000600860009054906101000a900473ffffffffffffffffffffffffffffffffffffffff1673ffffffffffffffffffffffffffffffffffffffff16600d54604051610586906113e8565b60006040518083038185875af1925050503d80600081146105c3576040519150601f19603f3d011682016040523d82523d6000602084013e6105c8565b606091505b505090508061060c576040517f08c379a000000000000000000000000000000000000000000000000000000000815260040161060390611449565b60405180910390fd5b600860009054906101000a900473ffffffffffffffffffffffffffffffffffffffff1673ffffffffffffffffffffffffffffffffffffffff16600960009054906101000a900473ffffffffffffffffffffffffffffffffffffffff1673ffffffffffffffffffffffffffffffffffffffff167fd4bfdcd3d7029abe0d70d4a6f1f560c5eac8d3cd6ecef801c6d3d67a49be6068600d546040516106af9190610fcf565b60405180910390a350565b600b5481565b600260048111156106d4576106d36110c0565b5b60008054906101000a900460ff1660048111156106f4576106f36110c0565b5b14610734576040517f08c379a000000000000000000000000000000000000000000000000000000000815260040161072b90611273565b60405180910390fd5b600960009054906101000a900473ffffffffffffffffffffffffffffffffffffffff1673ffffffffffffffffffffffffffffffffffffffff163373ffffffffffffffffffffffffffffffffffffffff16146107c4576040517f08c379a00000000000000000000000000000000000000000000000000000000081526004016107bb906114b5565b60405180910390fd5b6000612710600f54600b546107d99190611504565b6107e39190611575565b9050600081600b546107f591906115a6565b9050600a60009054906101000a900473ffffffffffffffffffffffffffffffffffffffff1673ffffffffffffffffffffffffffffffffffffffff166323b872dd600960009054906101000a900473ffffffffffffffffffffffffffffffffffffffff16600860009054906101000a900473ffffffffffffffffffffffffffffffffffffffff16846040518463ffffffff1660e01b815260040161089a939291906115da565b6020604051808303816000875af11580156108b9573d6000803e3d6000fd5b505050506040513d601f19601f820116820180604052508101906108dd919061164e565b61091c576040517f08c379a0000000000000000000000000000000000000000000000000000000008152600401610913906116c7565b60405180910390fd5b60036000806101000a81548160ff02191690836004811115610941576109406110c0565b5b02179055506000600960009054906101000a900473ffffffffffffffffffffffffffffffffffffffff1673ffffffffffffffffffffffffffffffffffffffff16600d54604051610990906113e8565b60006040518083038185875af1925050503d80600081146109cd576040519150601f19603f3d011682016040523d82523d6000602084013e6109d2565b606091505b5050905080610a16576040517f08c379a0000000000000000000000000000000000000000000000000000000008152600401610a0d90611733565b60405180910390fd5b3373ffffffffffffffffffffffffffffffffffffffff167fc7ce0a35f17b490de2a317e7fecb2cae86b1abffb03800b2f4928235213826988385604051610a5e929190611753565b60405180910390a2505050565b600d5481565b60016004811115610a8557610a846110c0565b5b60008054906101000a900460ff166004811115610aa557610aa46110c0565b5b14610ae5576040517f08c379a0000000000000000000000000000000000000000000000000000000008152600401610adc906117c8565b60405180910390fd5b600860009054906101000a900473ffffffffffffffffffffffffffffffffffffffff1673ffffffffffffffffffffffffffffffffffffffff163373ffffffffffffffffffffffffffffffffffffffff1603610b75576040517f08c379a0000000000000000000000000000000000000000000000000000000008152600401610b6c90611834565b60405180910390fd5b600d543414610bb9576040517f08c379a0000000000000000000000000000000000000000000000000000000008152600401610bb0906118a0565b60405180910390fd5b33600960006101000a81548173ffffffffffffffffffffffffffffffffffffffff021916908373ffffffffffffffffffffffffffffffffffffffff16021790555060026000806101000a81548160ff02191690836004811115610c1f57610c1e6110c0565b5b0217905550565b6000600160009054906101000a900473ffffffffffffffffffffffffffffffffffffffff1673ffffffffffffffffffffffffffffffffffffffff1663feaf968c6040518163ffffffff1660e01b815260040160a060405180830381865afa158015610c95573d6000803e3d6000fd5b505050506040513d601f19601f82011682018060405250810190610cb99190611964565b50505091505060008113610d02576040517f08c379a0000000000000000000000000000000000000000000000000000000008152600401610cf990611a2b565b60405180910390fd5b8060108190555050565b600960009054906101000a900473ffffffffffffffffffffffffffffffffffffffff1681565b600f5481565b6000601054905090565b60006004811115610d5657610d556110c0565b5b60008054906101000a900460ff166004811115610d7657610d756110c0565b5b14610db6576040517f08c379a0000000000000000000000000000000000000000000000000000000008152600401610dad90611a97565b60405180910390fd5b600860009054906101000a900473ffffffffffffffffffffffffffffffffffffffff1673ffffffffffffffffffffffffffffffffffffffff163373ffffffffffffffffffffffffffffffffffffffff1614610e46576040517f08c379a0000000000000000000000000000000000000000000000000000000008152600401610e3d90611b03565b60405180910390fd5b60016000806101000a81548160ff02191690836004811115610e6b57610e6a6110c0565b5b0217905550565b60006001811115610e8657610e856110c0565b5b600060019054906101000a900460ff166001811115610ea857610ea76110c0565b5b03610edd576001600060016101000a81548160ff02191690836001811115610ed357610ed26110c0565b5b0217905550610f08565b60008060016101000a81548160ff02191690836001811115610f0257610f016110c0565b5b02179055505b565b600e5481565b600860009054906101000a900473ffffffffffffffffffffffffffffffffffffffff1681565b600a60009054906101000a900473ffffffffffffffffffffffffffffffffffffffff1681565b60008054906101000a900460ff1681565b60028060000154908060010154908060020154908060030154908060040154908060050154905086565b600060019054906101000a900460ff1681565b60105481565b600c5481565b6000819050919050565b610fc981610fb6565b82525050565b6000602082019050610fe46000830184610fc0565b92915050565b600073ffffffffffffffffffffffffffffffffffffffff82169050919050565b600061101582610fea565b9050919050565b6110258161100a565b82525050565b6000602082019050611040600083018461101c565b92915050565b6000819050919050565b600061106b61106661106184610fea565b611046565b610fea565b9050919050565b600061107d82611050565b9050919050565b600061108f82611072565b9050919050565b61109f81611084565b82525050565b60006020820190506110ba6000830184611096565b92915050565b7f4e487b7100000000000000000000000000000000000000000000000000000000600052602160045260246000fd5b60058110611100576110ff6110c0565b5b50565b6000819050611111826110ef565b919050565b600061112182611103565b9050919050565b61113181611116565b82525050565b600060208201905061114c6000830184611128565b92915050565b600060c0820190506111676000830189610fc0565b6111746020830188610fc0565b6111816040830187610fc0565b61118e6060830186610fc0565b61119b6080830185610fc0565b6111a860a0830184610fc0565b979650505050505050565b600281106111c4576111c36110c0565b5b50565b60008190506111d5826111b3565b919050565b60006111e5826111c7565b9050919050565b6111f5816111da565b82525050565b600060208201905061121060008301846111ec565b92915050565b600082825260208201905092915050565b7f4c6f616e206973206e6f7420696e2054616b656e207374617465000000000000600082015250565b600061125d601a83611216565b915061126882611227565b602082019050919050565b6000602082019050818103600083015261128c81611250565b9050919050565b7f52657061796d656e7420646561646c696e6520686173206e6f7420706173736560008201527f6400000000000000000000000000000000000000000000000000000000000000602082015250565b60006112ef602183611216565b91506112fa82611293565b604082019050919050565b6000602082019050818103600083015261131e816112e2565b9050919050565b7f4f6e6c79206c656e6465722063616e206c697175696461746520746865206c6f60008201527f616e000000000000000000000000000000000000000000000000000000000000602082015250565b6000611381602283611216565b915061138c82611325565b604082019050919050565b600060208201905081810360008301526113b081611374565b9050919050565b600081905092915050565b50565b60006113d26000836113b7565b91506113dd826113c2565b600082019050919050565b60006113f3826113c5565b9150819050919050565b7f436f6c6c61746572616c207472616e73666572206661696c6564000000000000600082015250565b6000611433601a83611216565b915061143e826113fd565b602082019050919050565b6000602082019050818103600083015261146281611426565b9050919050565b7f4f6e6c7920626f72726f7765722063616e20726570617920746865206c6f616e600082015250565b600061149f602083611216565b91506114aa82611469565b602082019050919050565b600060208201905081810360008301526114ce81611492565b9050919050565b7f4e487b7100000000000000000000000000000000000000000000000000000000600052601160045260246000fd5b600061150f82610fb6565b915061151a83610fb6565b925082820261152881610fb6565b9150828204841483151761153f5761153e6114d5565b5b5092915050565b7f4e487b7100000000000000000000000000000000000000000000000000000000600052601260045260246000fd5b600061158082610fb6565b915061158b83610fb6565b92508261159b5761159a611546565b5b828204905092915050565b60006115b182610fb6565b91506115bc83610fb6565b92508282019050808211156115d4576115d36114d5565b5b92915050565b60006060820190506115ef600083018661101c565b6115fc602083018561101c565b6116096040830184610fc0565b949350505050565b600080fd5b60008115159050919050565b61162b81611616565b811461163657600080fd5b50565b60008151905061164881611622565b92915050565b60006020828403121561166457611663611611565b5b600061167284828501611639565b91505092915050565b7f444149207472616e73666572206661696c656400000000000000000000000000600082015250565b60006116b1601383611216565b91506116bc8261167b565b602082019050919050565b600060208201905081810360008301526116e0816116a4565b9050919050565b7f436f6c6c61746572616c20726566756e64206661696c65640000000000000000600082015250565b600061171d601883611216565b9150611728826116e7565b602082019050919050565b6000602082019050818103600083015261174c81611710565b9050919050565b60006040820190506117686000830185610fc0565b6117756020830184610fc0565b9392505050565b7f4c6f616e206973206e6f7420696e2046756e6465642073746174650000000000600082015250565b60006117b2601b83611216565b91506117bd8261177c565b602082019050919050565b600060208201905081810360008301526117e1816117a5565b9050919050565b7f4c656e6465722063616e6e6f742074616b6520746865206c6f616e0000000000600082015250565b600061181e601b83611216565b9150611829826117e8565b602082019050919050565b6000602082019050818103600083015261184d81611811565b9050919050565b7f496e636f727265637420636f6c6c61746572616c20616d6f756e740000000000600082015250565b600061188a601b83611216565b915061189582611854565b602082019050919050565b600060208201905081810360008301526118b98161187d565b9050919050565b600069ffffffffffffffffffff82169050919050565b6118df816118c0565b81146118ea57600080fd5b50565b6000815190506118fc816118d6565b92915050565b6000819050919050565b61191581611902565b811461192057600080fd5b50565b6000815190506119328161190c565b92915050565b61194181610fb6565b811461194c57600080fd5b50565b60008151905061195e81611938565b92915050565b600080600080600060a086880312156119805761197f611611565b5b600061198e888289016118ed565b955050602061199f88828901611923565b94505060406119b08882890161194f565b93505060606119c18882890161194f565b92505060806119d2888289016118ed565b9150509295509295909350565b7f496e76616c696420707269636500000000000000000000000000000000000000600082015250565b6000611a15600d83611216565b9150611a20826119df565b602082019050919050565b60006020820190508181036000830152611a4481611a08565b9050919050565b7f4c6f616e206973206e6f7420696e204372656174656420737461746500000000600082015250565b6000611a81601c83611216565b9150611a8c82611a4b565b602082019050919050565b60006020820190508181036000830152611ab081611a74565b9050919050565b7f4f6e6c79206c656e6465722063616e2066756e6420746865206c6f616e000000600082015250565b6000611aed601d83611216565b9150611af882611ab7565b602082019050919050565b60006020820190508181036000830152611b1c81611ae0565b905091905056fea2646970667358221220ee7709fb1c361a245270d18c1c00ead6180ad0dfa8124ec47bbc80a2f17c08eb64736f6c634300081c0033",
  "linkReferences": {},
  "deployedLinkReferences": {}
}