{
  "_format": "hh-sol-artifact-1",
  "contractName": "LoanRequest",
  "sourceName": "contracts/LoanRequest.sol",
  "abi": [
    {
      "inputs": [
        {
          "internalType": "uint256",
          "name": "_loanDaiAmount",
          "type": "uint256"
        },
        {
          "internalType": "uint256",
          "name": "_feeDaiAmount",
          "type": "uint256"
        },
        {
          "internalType": "uint256",
          "name": "_ethCollateralAmount",
          "type": "uint256"
        },
        {
          "internalType": "uint256",
          "name": "_repayByTimestamp",
          "type": "uint256"
        },
        {
          "internalType": "uint256",
          "name": "_fixedRate",
          "type": "uint256"
        },
        {
          "internalType": "uint256",
          "name": "_floatingRate",
          "type": "uint256"
        },
        {
          "internalType": "address",
          "name": "_daiToken",
          "type": "address"
        },
        {
          "internalType": "address",
          "name": "_oracleAddress",
          "type": "address"
        }
      ],
      "stateMutability": "nonpayable",
      "type": "constructor"
    },
    {
      "anonymous": false,
      "inputs": [
        {
          "indexed": true,
          "internalType": "address",
          "name": "borrower",
          "type": "address"
        },
        {
          "indexed": true,
          "internalType": "address",
          "name": "lender",
          "type": "address"
        },
        {
          "indexed": false,
          "internalType": "uint256",
          "name": "collateralAmount",
          "type": "uint256"
        }
      ],
      "name": "LoanLiquidated",
      "type": "event"
    },
    {
      "anonymous": false,
      "inputs": [
        {
          "indexed": true,
          "internalType": "address",
          "name": "borrower",
          "type": "address"
        },
        {
          "indexed": false,
          "internalType": "uint256",
          "name": "repaymentAmount",
          "type": "uint256"
        },
        {
          "indexed": false,
          "internalType": "uint256",
          "name": "interestPaid",
          "type": "uint256"
        }
      ],
      "name": "LoanRepaid",
      "type": "event"
    },
    {
      "inputs": [],
      "name": "borrower",
      "outputs": [
        {
          "internalType": "address",
          "name": "",
          "type": "address"
        }
      ],
      "stateMutability": "view",
      "type": "function"
    },
    {
      "inputs": [],
      "name": "currentRateType",
      "outputs": [
        {
          "internalType": "enum LoanRequest.InterestRateType",
          "name": "",
          "type": "uint8"
        }
      ],
      "stateMutability": "view",
      "type": "function"
    },
    {
      "inputs": [],
      "name": "daiToken",
      "outputs": [
        {
          "internalType": "contract IERC20",
          "name": "",
          "type": "address"
        }
      ],
      "stateMutability": "view",
      "type": "function"
    },
    {
      "inputs": [],
      "name": "ethCollateralAmount",
      "outputs": [
        {
          "internalType": "uint256",
          "name": "",
          "type": "uint256"
        }
      ],
      "stateMutability": "view",
      "type": "function"
    },
    {
      "inputs": [],
      "name": "feeDaiAmount",
      "outputs": [
        {
          "internalType": "uint256",
          "name": "",
          "type": "uint256"
        }
      ],
      "stateMutability": "view",
      "type": "function"
    },
    {
      "inputs": [],
      "name": "fixedRate",
      "outputs": [
        {
          "internalType": "uint256",
          "name": "",
          "type": "uint256"
        }
      ],
      "stateMutability": "view",
      "type": "function"
    },
    {
      "inputs": [],
      "name": "floatingRate",
      "outputs": [
        {
          "internalType": "uint256",
          "name": "",
          "type": "uint256"
        }
      ],
      "stateMutability": "view",
      "type": "function"
    },
    {
      "inputs": [],
      "name": "fundLoan",
      "outputs": [],
      "stateMutability": "payable",
      "type": "function"
    },
    {
      "inputs": [],
      "name": "getFloatingRate",
      "outputs": [
        {
          "internalType": "uint256",
          "name": "",
          "type": "uint256"
        }
      ],
      "stateMutability": "view",
      "type": "function"
    },
    {
      "inputs": [],
      "name": "lender",
      "outputs": [
        {
          "internalType": "address",
          "name": "",
          "type": "address"
        }
      ],
      "stateMutability": "view",
      "type": "function"
    },
    {
      "inputs": [],
      "name": "liquidate",
      "outputs": [],
      "stateMutability": "nonpayable",
      "type": "function"
    },
    {
      "inputs": [],
      "name": "loanDaiAmount",
      "outputs": [
        {
          "internalType": "uint256",
          "name": "",
          "type": "uint256"
        }
      ],
      "stateMutability": "view",
      "type": "function"
    },
    {
      "inputs": [],
      "name": "repay",
      "outputs": [],
      "stateMutability": "nonpayable",
      "type": "function"
    },
    {
      "inputs": [],
      "name": "repayByTimestamp",
      "outputs": [
        {
          "internalType": "uint256",
          "name": "",
          "type": "uint256"
        }
      ],
      "stateMutability": "view",
      "type": "function"
    },
    {
      "inputs": [],
      "name": "state",
      "outputs": [
        {
          "internalType": "enum LoanRequest.LoanState",
          "name": "",
          "type": "uint8"
        }
      ],
      "stateMutability": "view",
      "type": "function"
    },
    {
      "inputs": [],
      "name": "switchRateType",
      "outputs": [],
      "stateMutability": "nonpayable",
      "type": "function"
    },
    {
      "inputs": [],
      "name": "takeALoanAndAcceptLoanTerms",
      "outputs": [],
      "stateMutability": "payable",
      "type": "function"
    },
    {
      "inputs": [],
      "name": "terms",
      "outputs": [
        {
          "internalType": "uint256",
          "name": "loanDaiAmount",
          "type": "uint256"
        },
        {
          "internalType": "uint256",
          "name": "feeDaiAmount",
          "type": "uint256"
        },
        {
          "internalType": "uint256",
          "name": "ethCollateralAmount",
          "type": "uint256"
        },
        {
          "internalType": "uint256",
          "name": "repayByTimestamp",
          "type": "uint256"
        },
        {
          "internalType": "uint256",
          "name": "fixedRate",
          "type": "uint256"
        },
        {
          "internalType": "uint256",
          "name": "floatingRate",
          "type": "uint256"
        }
      ],
      "stateMutability": "view",
      "type": "function"
    },
    {
      "inputs": [],
      "name": "updateFloatingRate",
      "outputs": [],
      "stateMutability": "nonpayable",
      "type": "function"
    }
  ],
  "bytecode": "0x608060405234801561001057600080fd5b50604051611ec4380380611ec483398181016040528101906100329190610219565b87600b8190555086600c8190555085600d8190555084600e8190555083600f819055508260108190555081600a60006101000a81548173ffffffffffffffffffffffffffffffffffffffff021916908373ffffffffffffffffffffffffffffffffffffffff16021790555080600060026101000a81548173ffffffffffffffffffffffffffffffffffffffff021916908373ffffffffffffffffffffffffffffffffffffffff16021790555060008060006101000a81548160ff02191690836004811115610103576101026102cf565b5b021790555060008060016101000a81548160ff0219169083600181111561012d5761012c6102cf565b5b021790555033600860006101000a81548173ffffffffffffffffffffffffffffffffffffffff021916908373ffffffffffffffffffffffffffffffffffffffff16021790555050505050505050506102fe565b600080fd5b6000819050919050565b61019881610185565b81146101a357600080fd5b50565b6000815190506101b58161018f565b92915050565b600073ffffffffffffffffffffffffffffffffffffffff82169050919050565b60006101e6826101bb565b9050919050565b6101f6816101db565b811461020157600080fd5b50565b600081519050610213816101ed565b92915050565b600080600080600080600080610100898b03121561023a57610239610180565b5b60006102488b828c016101a6565b98505060206102598b828c016101a6565b975050604061026a8b828c016101a6565b965050606061027b8b828c016101a6565b955050608061028c8b828c016101a6565b94505060a061029d8b828c016101a6565b93505060c06102ae8b828c01610204565b92505060e06102bf8b828c01610204565b9150509295985092959890939650565b7f4e487b7100000000000000000000000000000000000000000000000000000000600052602160045260246000fd5b611bb78061030d6000396000f3fe6080604052600436106101145760003560e01c80638db57994116100a0578063c19d93fb11610064578063c19d93fb146102e1578063d50256251461030c578063f55133541461033c578063f71dd46c14610367578063fb760d821461039257610114565b80638db579941461023f57806398a88f2c14610249578063ab2078d114610260578063bcead63e1461028b578063be22f546146102b657610114565b80634c4b28f6116100e75780634c4b28f61461019d57806374eddc19146101a75780637df1f1b9146101be578063802d1422146101e957806385dfc5791461021457610114565b806328a07025146101195780632c3fecd114610130578063402d88831461015b57806344d0d0c614610172575b600080fd5b34801561012557600080fd5b5061012e6103bd565b005b34801561013c57600080fd5b506101456106ad565b604051610152919061102d565b60405180910390f35b34801561016757600080fd5b506101706106b3565b005b34801561017e57600080fd5b50610187610a5e565b604051610194919061102d565b60405180910390f35b6101a5610a64565b005b3480156101b357600080fd5b506101bc610c40565b005b3480156101ca57600080fd5b506101d3610d26565b6040516101e09190611089565b60405180910390f35b3480156101f557600080fd5b506101fe610d4c565b60405161020b919061102d565b60405180910390f35b34801561022057600080fd5b50610229610d52565b604051610236919061102d565b60405180910390f35b610247610d5c565b005b34801561025557600080fd5b5061025e610ed0565b005b34801561026c57600080fd5b50610275610f68565b604051610282919061102d565b60405180910390f35b34801561029757600080fd5b506102a0610f6e565b6040516102ad9190611089565b60405180910390f35b3480156102c257600080fd5b506102cb610f94565b6040516102d89190611103565b60405180910390f35b3480156102ed57600080fd5b506102f6610fba565b6040516103039190611195565b60405180910390f35b34801561031857600080fd5b50610321610fcb565b604051610333969594939291906111b0565b60405180910390f35b34801561034857600080fd5b50610351610ff5565b60405161035e9190611259565b60405180910390f35b34801561037357600080fd5b5061037c611008565b604051610389919061102d565b60405180910390f35b34801561039e57600080fd5b506103a761100e565b6040516103b4919061102d565b60405180910390f35b600260048111156103d1576103d061111e565b5b60008054906101000a900460ff1660048111156103f1576103f061111e565b5b14610431576040517f08c379a0000000000000000000000000000000000000000000000000000000008152600401610428906112d1565b60405180910390fd5b600e544211610475576040517f08c379a000000000000000000000000000000000000000000000000000000000815260040161046c90611363565b60405180910390fd5b600860009054906101000a900473ffffffffffffffffffffffffffffffffffffffff1673ffffffffffffffffffffffffffffffffffffffff163373ffffffffffffffffffffffffffffffffffffffff1614610505576040517f08c379a00000000000000000000000000000000000000000000000000000000081526004016104fc906113f5565b60405180910390fd5b60046000806101000a81548160ff0219169083600481111561052a5761052961111e565b5b02179055506000600860009054906101000a900473ffffffffffffffffffffffffffffffffffffffff1673ffffffffffffffffffffffffffffffffffffffff16600d5460405161057990611446565b60006040518083038185875af1925050503d80600081146105b6576040519150601f19603f3d011682016040523d82523d6000602084013e6105bb565b606091505b50509050806105ff576040517f08c379a00000000000000000000000000000000000000000000000000000000081526004016105f6906114a7565b60405180910390fd5b600860009054906101000a900473ffffffffffffffffffffffffffffffffffffffff1673ffffffffffffffffffffffffffffffffffffffff16600960009054906101000a900473ffffffffffffffffffffffffffffffffffffffff1673ffffffffffffffffffffffffffffffffffffffff167fd4bfdcd3d7029abe0d70d4a6f1f560c5eac8d3cd6ecef801c6d3d67a49be6068600d546040516106a2919061102d565b60405180910390a350565b600b5481565b600260048111156106c7576106c661111e565b5b60008054906101000a900460ff1660048111156106e7576106e661111e565b5b14610727576040517f08c379a000000000000000000000000000000000000000000000000000000000815260040161071e906112d1565b60405180910390fd5b600960009054906101000a900473ffffffffffffffffffffffffffffffffffffffff1673ffffffffffffffffffffffffffffffffffffffff163373ffffffffffffffffffffffffffffffffffffffff16146107b7576040517f08c379a00000000000000000000000000000000000000000000000000000000081526004016107ae90611513565b60405180910390fd5b6000612710600f54600b546107cc9190611562565b6107d691906115d3565b9050600081600b546107e89190611604565b9050600a60009054906101000a900473ffffffffffffffffffffffffffffffffffffffff1673ffffffffffffffffffffffffffffffffffffffff166323b872dd600960009054906101000a900473ffffffffffffffffffffffffffffffffffffffff16600860009054906101000a900473ffffffffffffffffffffffffffffffffffffffff16846040518463ffffffff1660e01b815260040161088d93929190611638565b6020604051808303816000875af11580156108ac573d6000803e3d6000fd5b505050506040513d601f19601f820116820180604052508101906108d091906116ac565b61090f576040517f08c379a000000000000000000000000000000000000000000000000000000000815260040161090690611725565b60405180910390fd5b60036000806101000a81548160ff021916908360048111156109345761093361111e565b5b02179055506000600960009054906101000a900473ffffffffffffffffffffffffffffffffffffffff1673ffffffffffffffffffffffffffffffffffffffff16600d5460405161098390611446565b60006040518083038185875af1925050503d80600081146109c0576040519150601f19603f3d011682016040523d82523d6000602084013e6109c5565b606091505b5050905080610a09576040517f08c379a0000000000000000000000000000000000000000000000000000000008152600401610a0090611791565b60405180910390fd5b3373ffffffffffffffffffffffffffffffffffffffff167fc7ce0a35f17b490de2a317e7fecb2cae86b1abffb03800b2f4928235213826988385604051610a519291906117b1565b60405180910390a2505050565b600d5481565b60016004811115610a7857610a7761111e565b5b60008054906101000a900460ff166004811115610a9857610a9761111e565b5b14610ad8576040517f08c379a0000000000000000000000000000000000000000000000000000000008152600401610acf90611826565b60405180910390fd5b600860009054906101000a900473ffffffffffffffffffffffffffffffffffffffff1673ffffffffffffffffffffffffffffffffffffffff163373ffffffffffffffffffffffffffffffffffffffff1603610b68576040517f08c379a0000000000000000000000000000000000000000000000000000000008152600401610b5f90611892565b60405180910390fd5b33600960006101000a81548173ffffffffffffffffffffffffffffffffffffffff021916908373ffffffffffffffffffffffffffffffffffffffff16021790555060026000806101000a81548160ff02191690836004811115610bce57610bcd61111e565b5b0217905550600960009054906101000a900473ffffffffffffffffffffffffffffffffffffffff1673ffffffffffffffffffffffffffffffffffffffff166108fc600d549081150290604051600060405180830381858888f19350505050158015610c3d573d6000803e3d6000fd5b50565b6000600160009054906101000a900473ffffffffffffffffffffffffffffffffffffffff1673ffffffffffffffffffffffffffffffffffffffff1663feaf968c6040518163ffffffff1660e01b815260040160a060405180830381865afa158015610caf573d6000803e3d6000fd5b505050506040513d601f19601f82011682018060405250810190610cd39190611956565b50505091505060008113610d1c576040517f08c379a0000000000000000000000000000000000000000000000000000000008152600401610d1390611a1d565b60405180910390fd5b8060108190555050565b600960009054906101000a900473ffffffffffffffffffffffffffffffffffffffff1681565b600f5481565b6000601054905090565b60006004811115610d7057610d6f61111e565b5b60008054906101000a900460ff166004811115610d9057610d8f61111e565b5b14610dd0576040517f08c379a0000000000000000000000000000000000000000000000000000000008152600401610dc790611a89565b60405180910390fd5b600860009054906101000a900473ffffffffffffffffffffffffffffffffffffffff1673ffffffffffffffffffffffffffffffffffffffff163373ffffffffffffffffffffffffffffffffffffffff1614610e60576040517f08c379a0000000000000000000000000000000000000000000000000000000008152600401610e5790611af5565b60405180910390fd5b600d543414610ea4576040517f08c379a0000000000000000000000000000000000000000000000000000000008152600401610e9b90611b61565b60405180910390fd5b60016000806101000a81548160ff02191690836004811115610ec957610ec861111e565b5b0217905550565b60006001811115610ee457610ee361111e565b5b600060019054906101000a900460ff166001811115610f0657610f0561111e565b5b03610f3b576001600060016101000a81548160ff02191690836001811115610f3157610f3061111e565b5b0217905550610f66565b60008060016101000a81548160ff02191690836001811115610f6057610f5f61111e565b5b02179055505b565b600e5481565b600860009054906101000a900473ffffffffffffffffffffffffffffffffffffffff1681565b600a60009054906101000a900473ffffffffffffffffffffffffffffffffffffffff1681565b60008054906101000a900460ff1681565b60028060000154908060010154908060020154908060030154908060040154908060050154905086565b600060019054906101000a900460ff1681565b60105481565b600c5481565b6000819050919050565b61102781611014565b82525050565b6000602082019050611042600083018461101e565b92915050565b600073ffffffffffffffffffffffffffffffffffffffff82169050919050565b600061107382611048565b9050919050565b61108381611068565b82525050565b600060208201905061109e600083018461107a565b92915050565b6000819050919050565b60006110c96110c46110bf84611048565b6110a4565b611048565b9050919050565b60006110db826110ae565b9050919050565b60006110ed826110d0565b9050919050565b6110fd816110e2565b82525050565b600060208201905061111860008301846110f4565b92915050565b7f4e487b7100000000000000000000000000000000000000000000000000000000600052602160045260246000fd5b6005811061115e5761115d61111e565b5b50565b600081905061116f8261114d565b919050565b600061117f82611161565b9050919050565b61118f81611174565b82525050565b60006020820190506111aa6000830184611186565b92915050565b600060c0820190506111c5600083018961101e565b6111d2602083018861101e565b6111df604083018761101e565b6111ec606083018661101e565b6111f9608083018561101e565b61120660a083018461101e565b979650505050505050565b600281106112225761122161111e565b5b50565b600081905061123382611211565b919050565b600061124382611225565b9050919050565b61125381611238565b82525050565b600060208201905061126e600083018461124a565b92915050565b600082825260208201905092915050565b7f4c6f616e206973206e6f7420696e2054616b656e207374617465000000000000600082015250565b60006112bb601a83611274565b91506112c682611285565b602082019050919050565b600060208201905081810360008301526112ea816112ae565b9050919050565b7f52657061796d656e7420646561646c696e6520686173206e6f7420706173736560008201527f6400000000000000000000000000000000000000000000000000000000000000602082015250565b600061134d602183611274565b9150611358826112f1565b604082019050919050565b6000602082019050818103600083015261137c81611340565b9050919050565b7f4f6e6c79206c656e6465722063616e206c697175696461746520746865206c6f60008201527f616e000000000000000000000000000000000000000000000000000000000000602082015250565b60006113df602283611274565b91506113ea82611383565b604082019050919050565b6000602082019050818103600083015261140e816113d2565b9050919050565b600081905092915050565b50565b6000611430600083611415565b915061143b82611420565b600082019050919050565b600061145182611423565b9150819050919050565b7f436f6c6c61746572616c207472616e73666572206661696c6564000000000000600082015250565b6000611491601a83611274565b915061149c8261145b565b602082019050919050565b600060208201905081810360008301526114c081611484565b9050919050565b7f4f6e6c7920626f72726f7765722063616e20726570617920746865206c6f616e600082015250565b60006114fd602083611274565b9150611508826114c7565b602082019050919050565b6000602082019050818103600083015261152c816114f0565b9050919050565b7f4e487b7100000000000000000000000000000000000000000000000000000000600052601160045260246000fd5b600061156d82611014565b915061157883611014565b925082820261158681611014565b9150828204841483151761159d5761159c611533565b5b5092915050565b7f4e487b7100000000000000000000000000000000000000000000000000000000600052601260045260246000fd5b60006115de82611014565b91506115e983611014565b9250826115f9576115f86115a4565b5b828204905092915050565b600061160f82611014565b915061161a83611014565b925082820190508082111561163257611631611533565b5b92915050565b600060608201905061164d600083018661107a565b61165a602083018561107a565b611667604083018461101e565b949350505050565b600080fd5b60008115159050919050565b61168981611674565b811461169457600080fd5b50565b6000815190506116a681611680565b92915050565b6000602082840312156116c2576116c161166f565b5b60006116d084828501611697565b91505092915050565b7f444149207472616e73666572206661696c656400000000000000000000000000600082015250565b600061170f601383611274565b915061171a826116d9565b602082019050919050565b6000602082019050818103600083015261173e81611702565b9050919050565b7f436f6c6c61746572616c20726566756e64206661696c65640000000000000000600082015250565b600061177b601883611274565b915061178682611745565b602082019050919050565b600060208201905081810360008301526117aa8161176e565b9050919050565b60006040820190506117c6600083018561101e565b6117d3602083018461101e565b9392505050565b7f4c6f616e206973206e6f7420696e2046756e6465642073746174650000000000600082015250565b6000611810601b83611274565b915061181b826117da565b602082019050919050565b6000602082019050818103600083015261183f81611803565b9050919050565b7f4c656e6465722063616e6e6f742074616b6520746865206c6f616e0000000000600082015250565b600061187c601b83611274565b915061188782611846565b602082019050919050565b600060208201905081810360008301526118ab8161186f565b9050919050565b600069ffffffffffffffffffff82169050919050565b6118d1816118b2565b81146118dc57600080fd5b50565b6000815190506118ee816118c8565b92915050565b6000819050919050565b611907816118f4565b811461191257600080fd5b50565b600081519050611924816118fe565b92915050565b61193381611014565b811461193e57600080fd5b50565b6000815190506119508161192a565b92915050565b600080600080600060a086880312156119725761197161166f565b5b6000611980888289016118df565b955050602061199188828901611915565b94505060406119a288828901611941565b93505060606119b388828901611941565b92505060806119c4888289016118df565b9150509295509295909350565b7f496e76616c696420707269636500000000000000000000000000000000000000600082015250565b6000611a07600d83611274565b9150611a12826119d1565b602082019050919050565b60006020820190508181036000830152611a36816119fa565b9050919050565b7f4c6f616e206973206e6f7420696e204372656174656420737461746500000000600082015250565b6000611a73601c83611274565b9150611a7e82611a3d565b602082019050919050565b60006020820190508181036000830152611aa281611a66565b9050919050565b7f4f6e6c79206c656e6465722063616e2066756e6420746865206c6f616e000000600082015250565b6000611adf601d83611274565b9150611aea82611aa9565b602082019050919050565b60006020820190508181036000830152611b0e81611ad2565b9050919050565b7f496e636f727265637420636f6c6c61746572616c20616d6f756e740000000000600082015250565b6000611b4b601b83611274565b9150611b5682611b15565b602082019050919050565b60006020820190508181036000830152611b7a81611b3e565b905091905056fea2646970667358221220a3e73a645c3d461b2248828fb5d81d9fe3b95fabdde2711d909a2a25dabd16e964736f6c634300081c0033",
  "linkReferences": {},
  "deployedLinkReferences": {}
}