{
  "_format": "hh-sol-artifact-1",
  "contractName": "LoanRequest",
  "sourceName": "contracts/LoanRequest.sol",
  "abi": [
    {
      "inputs": [
        {
          "internalType": "uint256",
          "name": "_loanAmount",
          "type": "uint256"
        },
        {
          "internalType": "uint256",
          "name": "_feeAmount",
          "type": "uint256"
        },
        {
          "internalType": "uint256",
          "name": "_ethCollateralAmount",
          "type": "uint256"
        },
        {
          "internalType": "uint256",
          "name": "_repayByTimestamp",
          "type": "uint256"
        },
        {
          "internalType": "uint256",
          "name": "_fixedRate",
          "type": "uint256"
        },
        {
          "internalType": "uint256",
          "name": "_floatingRate",
          "type": "uint256"
        },
        {
          "internalType": "address",
          "name": "_oracle",
          "type": "address"
        },
        {
          "internalType": "address",
          "name": "_loanFactory",
          "type": "address"
        }
      ],
      "stateMutability": "nonpayable",
      "type": "constructor"
    },
    {
      "anonymous": false,
      "inputs": [
        {
          "indexed": true,
          "internalType": "address",
          "name": "lender",
          "type": "address"
        },
        {
          "indexed": false,
          "internalType": "uint256",
          "name": "loanAmount",
          "type": "uint256"
        }
      ],
      "name": "LoanFunded",
      "type": "event"
    },
    {
      "anonymous": false,
      "inputs": [
        {
          "indexed": true,
          "internalType": "address",
          "name": "borrower",
          "type": "address"
        },
        {
          "indexed": true,
          "internalType": "address",
          "name": "lender",
          "type": "address"
        },
        {
          "indexed": false,
          "internalType": "uint256",
          "name": "collateralAmount",
          "type": "uint256"
        }
      ],
      "name": "LoanLiquidated",
      "type": "event"
    },
    {
      "anonymous": false,
      "inputs": [
        {
          "indexed": true,
          "internalType": "address",
          "name": "borrower",
          "type": "address"
        },
        {
          "indexed": false,
          "internalType": "uint256",
          "name": "repaymentAmount",
          "type": "uint256"
        }
      ],
      "name": "LoanRepaid",
      "type": "event"
    },
    {
      "anonymous": false,
      "inputs": [
        {
          "indexed": true,
          "internalType": "address",
          "name": "borrower",
          "type": "address"
        },
        {
          "indexed": false,
          "internalType": "uint256",
          "name": "loanAmount",
          "type": "uint256"
        }
      ],
      "name": "LoanTaken",
      "type": "event"
    },
    {
      "anonymous": false,
      "inputs": [
        {
          "indexed": true,
          "internalType": "address",
          "name": "borrower",
          "type": "address"
        },
        {
          "indexed": false,
          "internalType": "uint256",
          "name": "collateralAmount",
          "type": "uint256"
        }
      ],
      "name": "LoanTermsAccepted",
      "type": "event"
    },
    {
      "inputs": [],
      "name": "acceptLoanTerms",
      "outputs": [],
      "stateMutability": "payable",
      "type": "function"
    },
    {
      "inputs": [],
      "name": "borrower",
      "outputs": [
        {
          "internalType": "address payable",
          "name": "",
          "type": "address"
        }
      ],
      "stateMutability": "view",
      "type": "function"
    },
    {
      "inputs": [],
      "name": "calculateInterest",
      "outputs": [],
      "stateMutability": "nonpayable",
      "type": "function"
    },
    {
      "inputs": [],
      "name": "currentRateType",
      "outputs": [
        {
          "internalType": "enum LoanRequest.InterestRateType",
          "name": "",
          "type": "uint8"
        }
      ],
      "stateMutability": "view",
      "type": "function"
    },
    {
      "inputs": [],
      "name": "ethCollateralAmount",
      "outputs": [
        {
          "internalType": "uint256",
          "name": "",
          "type": "uint256"
        }
      ],
      "stateMutability": "view",
      "type": "function"
    },
    {
      "inputs": [],
      "name": "factory",
      "outputs": [
        {
          "internalType": "address",
          "name": "",
          "type": "address"
        }
      ],
      "stateMutability": "view",
      "type": "function"
    },
    {
      "inputs": [],
      "name": "feeAmount",
      "outputs": [
        {
          "internalType": "uint256",
          "name": "",
          "type": "uint256"
        }
      ],
      "stateMutability": "view",
      "type": "function"
    },
    {
      "inputs": [],
      "name": "fixedRate",
      "outputs": [
        {
          "internalType": "uint256",
          "name": "",
          "type": "uint256"
        }
      ],
      "stateMutability": "view",
      "type": "function"
    },
    {
      "inputs": [],
      "name": "floatingRate",
      "outputs": [
        {
          "internalType": "uint256",
          "name": "",
          "type": "uint256"
        }
      ],
      "stateMutability": "view",
      "type": "function"
    },
    {
      "inputs": [],
      "name": "fundLoan",
      "outputs": [],
      "stateMutability": "payable",
      "type": "function"
    },
    {
      "inputs": [],
      "name": "getEthCollateralAmount",
      "outputs": [
        {
          "internalType": "uint256",
          "name": "",
          "type": "uint256"
        }
      ],
      "stateMutability": "view",
      "type": "function"
    },
    {
      "inputs": [],
      "name": "getFeeAmount",
      "outputs": [
        {
          "internalType": "uint256",
          "name": "",
          "type": "uint256"
        }
      ],
      "stateMutability": "view",
      "type": "function"
    },
    {
      "inputs": [],
      "name": "getFixedRate",
      "outputs": [
        {
          "internalType": "uint256",
          "name": "",
          "type": "uint256"
        }
      ],
      "stateMutability": "view",
      "type": "function"
    },
    {
      "inputs": [],
      "name": "getFloatingRate",
      "outputs": [
        {
          "internalType": "uint256",
          "name": "",
          "type": "uint256"
        }
      ],
      "stateMutability": "view",
      "type": "function"
    },
    {
      "inputs": [],
      "name": "getInterest",
      "outputs": [
        {
          "internalType": "uint256",
          "name": "",
          "type": "uint256"
        }
      ],
      "stateMutability": "view",
      "type": "function"
    },
    {
      "inputs": [],
      "name": "getLoanAmount",
      "outputs": [
        {
          "internalType": "uint256",
          "name": "",
          "type": "uint256"
        }
      ],
      "stateMutability": "view",
      "type": "function"
    },
    {
      "inputs": [],
      "name": "getLoanState",
      "outputs": [
        {
          "internalType": "enum LoanRequest.LoanState",
          "name": "",
          "type": "uint8"
        }
      ],
      "stateMutability": "view",
      "type": "function"
    },
    {
      "inputs": [],
      "name": "getRepayByTimestamp",
      "outputs": [
        {
          "internalType": "uint256",
          "name": "",
          "type": "uint256"
        }
      ],
      "stateMutability": "view",
      "type": "function"
    },
    {
      "inputs": [],
      "name": "interest",
      "outputs": [
        {
          "internalType": "uint256",
          "name": "",
          "type": "uint256"
        }
      ],
      "stateMutability": "view",
      "type": "function"
    },
    {
      "inputs": [],
      "name": "lender",
      "outputs": [
        {
          "internalType": "address payable",
          "name": "",
          "type": "address"
        }
      ],
      "stateMutability": "view",
      "type": "function"
    },
    {
      "inputs": [],
      "name": "liquidate",
      "outputs": [],
      "stateMutability": "nonpayable",
      "type": "function"
    },
    {
      "inputs": [],
      "name": "loanAmount",
      "outputs": [
        {
          "internalType": "uint256",
          "name": "",
          "type": "uint256"
        }
      ],
      "stateMutability": "view",
      "type": "function"
    },
    {
      "inputs": [],
      "name": "loanTakenTimestamp",
      "outputs": [
        {
          "internalType": "uint256",
          "name": "",
          "type": "uint256"
        }
      ],
      "stateMutability": "view",
      "type": "function"
    },
    {
      "inputs": [],
      "name": "repay",
      "outputs": [],
      "stateMutability": "payable",
      "type": "function"
    },
    {
      "inputs": [],
      "name": "repayByTimestamp",
      "outputs": [
        {
          "internalType": "uint256",
          "name": "",
          "type": "uint256"
        }
      ],
      "stateMutability": "view",
      "type": "function"
    },
    {
      "inputs": [],
      "name": "state",
      "outputs": [
        {
          "internalType": "enum LoanRequest.LoanState",
          "name": "",
          "type": "uint8"
        }
      ],
      "stateMutability": "view",
      "type": "function"
    },
    {
      "inputs": [],
      "name": "switchRateType",
      "outputs": [],
      "stateMutability": "nonpayable",
      "type": "function"
    },
    {
      "inputs": [],
      "name": "takeLoan",
      "outputs": [],
      "stateMutability": "payable",
      "type": "function"
    },
    {
      "inputs": [],
      "name": "terms",
      "outputs": [
        {
          "internalType": "uint256",
          "name": "loanAmount",
          "type": "uint256"
        },
        {
          "internalType": "uint256",
          "name": "feeAmount",
          "type": "uint256"
        },
        {
          "internalType": "uint256",
          "name": "ethCollateralAmount",
          "type": "uint256"
        },
        {
          "internalType": "uint256",
          "name": "repayByTimestamp",
          "type": "uint256"
        },
        {
          "internalType": "uint256",
          "name": "fixedRate",
          "type": "uint256"
        },
        {
          "internalType": "uint256",
          "name": "floatingRate",
          "type": "uint256"
        }
      ],
      "stateMutability": "view",
      "type": "function"
    },
    {
      "inputs": [],
      "name": "updateRates",
      "outputs": [],
      "stateMutability": "nonpayable",
      "type": "function"
    }
  ],
  "bytecode": "0x608060405234801561001057600080fd5b506040516123d63803806123d68339818101604052810190610032919061021a565b87600c8190555086600d8190555085600e8190555084600f81905550836010819055508260118190555081600360006101000a81548173ffffffffffffffffffffffffffffffffffffffff021916908373ffffffffffffffffffffffffffffffffffffffff16021790555080600260016101000a81548173ffffffffffffffffffffffffffffffffffffffff021916908373ffffffffffffffffffffffffffffffffffffffff16021790555060008060006101000a81548160ff02191690836005811115610103576101026102d0565b5b02179055506000600260006101000a81548160ff0219169083600181111561012e5761012d6102d0565b5b021790555033600a60006101000a81548173ffffffffffffffffffffffffffffffffffffffff021916908373ffffffffffffffffffffffffffffffffffffffff16021790555050505050505050506102ff565b600080fd5b6000819050919050565b61019981610186565b81146101a457600080fd5b50565b6000815190506101b681610190565b92915050565b600073ffffffffffffffffffffffffffffffffffffffff82169050919050565b60006101e7826101bc565b9050919050565b6101f7816101dc565b811461020257600080fd5b50565b600081519050610214816101ee565b92915050565b600080600080600080600080610100898b03121561023b5761023a610181565b5b60006102498b828c016101a7565b985050602061025a8b828c016101a7565b975050604061026b8b828c016101a7565b965050606061027c8b828c016101a7565b955050608061028d8b828c016101a7565b94505060a061029e8b828c016101a7565b93505060c06102af8b828c01610205565b92505060e06102c08b828c01610205565b9150509295985092959890939650565b7f4e487b7100000000000000000000000000000000000000000000000000000000600052602160045260246000fd5b6120c88061030e6000396000f3fe6080604052600436106101cd5760003560e01c80639e9f669c116100f7578063c392f76611610095578063eb0c495511610064578063eb0c495514610575578063f4b01b181461058c578063f5513354146105b7578063f71dd46c146105e2576101cd565b8063c392f766146104c4578063c45a0155146104ef578063d50256251461051a578063e5a4bed31461054a576101cd565b8063bcead63e116100d1578063bcead63e14610439578063bf5c982214610464578063bf5e67341461048f578063c19d93fb14610499576101cd565b80639e9f669c146103b8578063ab2078d1146103e3578063b11388851461040e576101cd565b80637df1f1b91161016f5780638db579941161013e5780638db579941461036257806398a88f2c1461036c57806398e05a49146103835780639d585f7f1461038d576101cd565b80637df1f1b9146102b6578063802d1422146102e157806385dfc5791461030c57806387b8f9eb14610337576101cd565b806340963da0116101ab57806340963da01461020a57806344d0d0c61461023557806369e154041461026057806373c051781461028b576101cd565b806328a07025146101d25780633c3821f4146101e9578063402d888314610200575b600080fd5b3480156101de57600080fd5b506101e761060d565b005b3480156101f557600080fd5b506101fe610897565b005b610208610975565b005b34801561021657600080fd5b5061021f610c1e565b60405161022c91906115cb565b60405180910390f35b34801561024157600080fd5b5061024a610c28565b60405161025791906115cb565b60405180910390f35b34801561026c57600080fd5b50610275610c2e565b60405161028291906115cb565b60405180910390f35b34801561029757600080fd5b506102a0610c34565b6040516102ad91906115cb565b60405180910390f35b3480156102c257600080fd5b506102cb610c3e565b6040516102d89190611627565b60405180910390f35b3480156102ed57600080fd5b506102f6610c64565b60405161030391906115cb565b60405180910390f35b34801561031857600080fd5b50610321610c6a565b60405161032e91906115cb565b60405180910390f35b34801561034357600080fd5b5061034c610c74565b60405161035991906115cb565b60405180910390f35b61036a610c7a565b005b34801561037857600080fd5b50610381610e7f565b005b61038b610f18565b005b34801561039957600080fd5b506103a261110a565b6040516103af91906115cb565b60405180910390f35b3480156103c457600080fd5b506103cd611110565b6040516103da91906116b9565b60405180910390f35b3480156103ef57600080fd5b506103f8611126565b60405161040591906115cb565b60405180910390f35b34801561041a57600080fd5b5061042361112c565b60405161043091906115cb565b60405180910390f35b34801561044557600080fd5b5061044e611136565b60405161045b9190611627565b60405180910390f35b34801561047057600080fd5b5061047961115c565b60405161048691906115cb565b60405180910390f35b610497611166565b005b3480156104a557600080fd5b506104ae61141c565b6040516104bb91906116b9565b60405180910390f35b3480156104d057600080fd5b506104d961142d565b6040516104e691906115cb565b60405180910390f35b3480156104fb57600080fd5b50610504611433565b60405161051191906116f5565b60405180910390f35b34801561052657600080fd5b5061052f611459565b60405161054196959493929190611710565b60405180910390f35b34801561055657600080fd5b5061055f611483565b60405161056c91906115cb565b60405180910390f35b34801561058157600080fd5b5061058a61148d565b005b34801561059857600080fd5b506105a161158f565b6040516105ae91906115cb565b60405180910390f35b3480156105c357600080fd5b506105cc611599565b6040516105d991906117b9565b60405180910390f35b3480156105ee57600080fd5b506105f76115ac565b60405161060491906115cb565b60405180910390f35b6003600581111561062157610620611642565b5b60008054906101000a900460ff16600581111561064157610640611642565b5b14610681576040517f08c379a000000000000000000000000000000000000000000000000000000000815260040161067890611831565b60405180910390fd5b600f5442116106c5576040517f08c379a00000000000000000000000000000000000000000000000000000000081526004016106bc906118c3565b60405180910390fd5b600a60009054906101000a900473ffffffffffffffffffffffffffffffffffffffff1673ffffffffffffffffffffffffffffffffffffffff163373ffffffffffffffffffffffffffffffffffffffff1614610755576040517f08c379a000000000000000000000000000000000000000000000000000000000815260040161074c90611955565b60405180910390fd5b60056000806101000a81548160ff0219169083600581111561077a57610779611642565b5b0217905550600a60009054906101000a900473ffffffffffffffffffffffffffffffffffffffff1673ffffffffffffffffffffffffffffffffffffffff166108fc600e549081150290604051600060405180830381858888f193505050501580156107e9573d6000803e3d6000fd5b50600a60009054906101000a900473ffffffffffffffffffffffffffffffffffffffff1673ffffffffffffffffffffffffffffffffffffffff16600b60009054906101000a900473ffffffffffffffffffffffffffffffffffffffff1673ffffffffffffffffffffffffffffffffffffffff167fd4bfdcd3d7029abe0d70d4a6f1f560c5eac8d3cd6ecef801c6d3d67a49be6068600e5460405161088d91906115cb565b60405180910390a3565b6000600360009054906101000a900473ffffffffffffffffffffffffffffffffffffffff1673ffffffffffffffffffffffffffffffffffffffff1663feaf968c6040518163ffffffff1660e01b815260040160a060405180830381865afa158015610906573d6000803e3d6000fd5b505050506040513d601f19601f8201168201806040525081019061092a9190611a1e565b5050509150506000620f42406064836109439190611ac8565b61094d9190611b39565b9050806011819055506000600190508060115461096a9190611b6a565b601081905550505050565b6003600581111561098957610988611642565b5b60008054906101000a900460ff1660058111156109a9576109a8611642565b5b146109e9576040517f08c379a00000000000000000000000000000000000000000000000000000000081526004016109e090611831565b60405180910390fd5b600b60009054906101000a900473ffffffffffffffffffffffffffffffffffffffff1673ffffffffffffffffffffffffffffffffffffffff163373ffffffffffffffffffffffffffffffffffffffff1614610a79576040517f08c379a0000000000000000000000000000000000000000000000000000000008152600401610a7090611bea565b60405180910390fd5b6000600154600c54610a8b9190611b6a565b9050803414610acf576040517f08c379a0000000000000000000000000000000000000000000000000000000008152600401610ac690611c56565b60405180910390fd5b60046000806101000a81548160ff02191690836005811115610af457610af3611642565b5b0217905550600a60009054906101000a900473ffffffffffffffffffffffffffffffffffffffff1673ffffffffffffffffffffffffffffffffffffffff166108fc829081150290604051600060405180830381858888f19350505050158015610b61573d6000803e3d6000fd5b50600b60009054906101000a900473ffffffffffffffffffffffffffffffffffffffff1673ffffffffffffffffffffffffffffffffffffffff166108fc600e549081150290604051600060405180830381858888f19350505050158015610bcc573d6000803e3d6000fd5b503373ffffffffffffffffffffffffffffffffffffffff167fc200a1f31dd659e356e0f112c82558e25f49f7b0f84438691cd96f5cb355882382604051610c1391906115cb565b60405180910390a250565b6000600f54905090565b600e5481565b600d5481565b6000601054905090565b600b60009054906101000a900473ffffffffffffffffffffffffffffffffffffffff1681565b60105481565b6000601154905090565b60125481565b60006005811115610c8e57610c8d611642565b5b60008054906101000a900460ff166005811115610cae57610cad611642565b5b14610cee576040517f08c379a0000000000000000000000000000000000000000000000000000000008152600401610ce590611cc2565b60405180910390fd5b600a60009054906101000a900473ffffffffffffffffffffffffffffffffffffffff1673ffffffffffffffffffffffffffffffffffffffff163373ffffffffffffffffffffffffffffffffffffffff1614610d7e576040517f08c379a0000000000000000000000000000000000000000000000000000000008152600401610d7590611d2e565b60405180910390fd5b600c543414610dc2576040517f08c379a0000000000000000000000000000000000000000000000000000000008152600401610db990611d9a565b60405180910390fd5b33600a60006101000a81548173ffffffffffffffffffffffffffffffffffffffff021916908373ffffffffffffffffffffffffffffffffffffffff16021790555060016000806101000a81548160ff02191690836005811115610e2857610e27611642565b5b02179055503373ffffffffffffffffffffffffffffffffffffffff167f726d5f1a838fe31748f737fa3ae5539ccff95952adfc593a1299532b643ff7a8600c54604051610e7591906115cb565b60405180910390a2565b60006001811115610e9357610e92611642565b5b600260009054906101000a900460ff166001811115610eb557610eb4611642565b5b03610eea576001600260006101000a81548160ff02191690836001811115610ee057610edf611642565b5b0217905550610f16565b6000600260006101000a81548160ff02191690836001811115610f1057610f0f611642565b5b02179055505b565b60026005811115610f2c57610f2b611642565b5b60008054906101000a900460ff166005811115610f4c57610f4b611642565b5b14610f8c576040517f08c379a0000000000000000000000000000000000000000000000000000000008152600401610f8390611e06565b60405180910390fd5b600b60009054906101000a900473ffffffffffffffffffffffffffffffffffffffff1673ffffffffffffffffffffffffffffffffffffffff163373ffffffffffffffffffffffffffffffffffffffff161461101c576040517f08c379a000000000000000000000000000000000000000000000000000000000815260040161101390611e72565b60405180910390fd5b60036000806101000a81548160ff0219169083600581111561104157611040611642565b5b021790555042601281905550600b60009054906101000a900473ffffffffffffffffffffffffffffffffffffffff1673ffffffffffffffffffffffffffffffffffffffff166108fc600c549081150290604051600060405180830381858888f193505050501580156110b7573d6000803e3d6000fd5b503373ffffffffffffffffffffffffffffffffffffffff167fd5c776eab9418d89c040ffee59f2310d225f5ff682191bcee59b0413a7fd4835600c5460405161110091906115cb565b60405180910390a2565b600c5481565b60008060009054906101000a900460ff16905090565b600f5481565b6000600e54905090565b600a60009054906101000a900473ffffffffffffffffffffffffffffffffffffffff1681565b6000600d54905090565b6001600581111561117a57611179611642565b5b60008054906101000a900460ff16600581111561119a57611199611642565b5b146111da576040517f08c379a00000000000000000000000000000000000000000000000000000000081526004016111d190611ede565b60405180910390fd5b600a60009054906101000a900473ffffffffffffffffffffffffffffffffffffffff1673ffffffffffffffffffffffffffffffffffffffff163373ffffffffffffffffffffffffffffffffffffffff160361126a576040517f08c379a000000000000000000000000000000000000000000000000000000000815260040161126190611f4a565b60405180910390fd5b600e5434146112ae576040517f08c379a00000000000000000000000000000000000000000000000000000000081526004016112a590611fb6565b60405180910390fd5b33600b60006101000a81548173ffffffffffffffffffffffffffffffffffffffff021916908373ffffffffffffffffffffffffffffffffffffffff160217905550600260019054906101000a900473ffffffffffffffffffffffffffffffffffffffff1673ffffffffffffffffffffffffffffffffffffffff1663811ca7d5600b60009054906101000a900473ffffffffffffffffffffffffffffffffffffffff16306040518363ffffffff1660e01b815260040161136e929190612035565b600060405180830381600087803b15801561138857600080fd5b505af115801561139c573d6000803e3d6000fd5b5050505060026000806101000a81548160ff021916908360058111156113c5576113c4611642565b5b02179055503373ffffffffffffffffffffffffffffffffffffffff167f329f3f0a323b6707cfce03bd3ca41f8b814a00b01c6a417528c8e3ea66422e47600e5460405161141291906115cb565b60405180910390a2565b60008054906101000a900460ff1681565b60015481565b600260019054906101000a900473ffffffffffffffffffffffffffffffffffffffff1681565b60048060000154908060010154908060020154908060030154908060040154908060050154905086565b6000600154905090565b600360058111156114a1576114a0611642565b5b60008054906101000a900460ff1660058111156114c1576114c0611642565b5b14611501576040517f08c379a00000000000000000000000000000000000000000000000000000000081526004016114f890611831565b60405180910390fd5b600080600181111561151657611515611642565b5b600260009054906101000a900460ff16600181111561153857611537611642565b5b1461154557601154611549565b6010545b905060006012544261155b919061205e565b905063bbf81e008183600c546115719190611ac8565b61157b9190611ac8565b6115859190611b39565b6001819055505050565b6000600c54905090565b600260009054906101000a900460ff1681565b60115481565b6000819050919050565b6115c5816115b2565b82525050565b60006020820190506115e060008301846115bc565b92915050565b600073ffffffffffffffffffffffffffffffffffffffff82169050919050565b6000611611826115e6565b9050919050565b61162181611606565b82525050565b600060208201905061163c6000830184611618565b92915050565b7f4e487b7100000000000000000000000000000000000000000000000000000000600052602160045260246000fd5b6006811061168257611681611642565b5b50565b600081905061169382611671565b919050565b60006116a382611685565b9050919050565b6116b381611698565b82525050565b60006020820190506116ce60008301846116aa565b92915050565b60006116df826115e6565b9050919050565b6116ef816116d4565b82525050565b600060208201905061170a60008301846116e6565b92915050565b600060c08201905061172560008301896115bc565b61173260208301886115bc565b61173f60408301876115bc565b61174c60608301866115bc565b61175960808301856115bc565b61176660a08301846115bc565b979650505050505050565b6002811061178257611781611642565b5b50565b600081905061179382611771565b919050565b60006117a382611785565b9050919050565b6117b381611798565b82525050565b60006020820190506117ce60008301846117aa565b92915050565b600082825260208201905092915050565b7f4c6f616e206973206e6f7420696e2054616b656e207374617465000000000000600082015250565b600061181b601a836117d4565b9150611826826117e5565b602082019050919050565b6000602082019050818103600083015261184a8161180e565b9050919050565b7f52657061796d656e7420646561646c696e6520686173206e6f7420706173736560008201527f6400000000000000000000000000000000000000000000000000000000000000602082015250565b60006118ad6021836117d4565b91506118b882611851565b604082019050919050565b600060208201905081810360008301526118dc816118a0565b9050919050565b7f4f6e6c79206c656e6465722063616e206c697175696461746520746865206c6f60008201527f616e000000000000000000000000000000000000000000000000000000000000602082015250565b600061193f6022836117d4565b915061194a826118e3565b604082019050919050565b6000602082019050818103600083015261196e81611932565b9050919050565b600080fd5b600069ffffffffffffffffffff82169050919050565b6119998161197a565b81146119a457600080fd5b50565b6000815190506119b681611990565b92915050565b6000819050919050565b6119cf816119bc565b81146119da57600080fd5b50565b6000815190506119ec816119c6565b92915050565b6119fb816115b2565b8114611a0657600080fd5b50565b600081519050611a18816119f2565b92915050565b600080600080600060a08688031215611a3a57611a39611975565b5b6000611a48888289016119a7565b9550506020611a59888289016119dd565b9450506040611a6a88828901611a09565b9350506060611a7b88828901611a09565b9250506080611a8c888289016119a7565b9150509295509295909350565b7f4e487b7100000000000000000000000000000000000000000000000000000000600052601160045260246000fd5b6000611ad3826115b2565b9150611ade836115b2565b9250828202611aec816115b2565b91508282048414831517611b0357611b02611a99565b5b5092915050565b7f4e487b7100000000000000000000000000000000000000000000000000000000600052601260045260246000fd5b6000611b44826115b2565b9150611b4f836115b2565b925082611b5f57611b5e611b0a565b5b828204905092915050565b6000611b75826115b2565b9150611b80836115b2565b9250828201905080821115611b9857611b97611a99565b5b92915050565b7f4f6e6c7920626f72726f7765722063616e20726570617920746865206c6f616e600082015250565b6000611bd46020836117d4565b9150611bdf82611b9e565b602082019050919050565b60006020820190508181036000830152611c0381611bc7565b9050919050565b7f496e636f72726563742072657061796d656e7420616d6f756e74000000000000600082015250565b6000611c40601a836117d4565b9150611c4b82611c0a565b602082019050919050565b60006020820190508181036000830152611c6f81611c33565b9050919050565b7f4c6f616e206973206e6f7420696e204372656174656420737461746500000000600082015250565b6000611cac601c836117d4565b9150611cb782611c76565b602082019050919050565b60006020820190508181036000830152611cdb81611c9f565b9050919050565b7f4f6e6c79206c656e6465722063616e2066756e6420746865206c6f616e000000600082015250565b6000611d18601d836117d4565b9150611d2382611ce2565b602082019050919050565b60006020820190508181036000830152611d4781611d0b565b9050919050565b7f496e636f7272656374206c6f616e20616d6f756e740000000000000000000000600082015250565b6000611d846015836117d4565b9150611d8f82611d4e565b602082019050919050565b60006020820190508181036000830152611db381611d77565b9050919050565b7f4c6f616e206973206e6f7420696e206163636570746564207374617465000000600082015250565b6000611df0601d836117d4565b9150611dfb82611dba565b602082019050919050565b60006020820190508181036000830152611e1f81611de3565b9050919050565b7f4f6e6c7920626f72726f7765722063616e2074616b6520746865206c6f616e00600082015250565b6000611e5c601f836117d4565b9150611e6782611e26565b602082019050919050565b60006020820190508181036000830152611e8b81611e4f565b9050919050565b7f4c6f616e206973206e6f7420696e2046756e6465642073746174650000000000600082015250565b6000611ec8601b836117d4565b9150611ed382611e92565b602082019050919050565b60006020820190508181036000830152611ef781611ebb565b9050919050565b7f4c656e6465722063616e6e6f742074616b6520746865206c6f616e0000000000600082015250565b6000611f34601b836117d4565b9150611f3f82611efe565b602082019050919050565b60006020820190508181036000830152611f6381611f27565b9050919050565b7f496e636f727265637420636f6c6c61746572616c20616d6f756e740000000000600082015250565b6000611fa0601b836117d4565b9150611fab82611f6a565b602082019050919050565b60006020820190508181036000830152611fcf81611f93565b9050919050565b6000819050919050565b6000611ffb611ff6611ff1846115e6565b611fd6565b6115e6565b9050919050565b600061200d82611fe0565b9050919050565b600061201f82612002565b9050919050565b61202f81612014565b82525050565b600060408201905061204a6000830185612026565b61205760208301846116e6565b9392505050565b6000612069826115b2565b9150612074836115b2565b925082820390508181111561208c5761208b611a99565b5b9291505056fea264697066735822122090ea1b00f01e2824ab9270a09acbf0c32c5d9d47278f5db65f9ab247472cbd7c64736f6c634300081c0033",
  "linkReferences": {},
  "deployedLinkReferences": {}
}