{
  "_format": "hh-sol-artifact-1",
  "contractName": "LoanRequest",
  "sourceName": "contracts/LoanRequest.sol",
  "abi": [
    {
      "inputs": [
        {
          "internalType": "uint256",
          "name": "_loanDaiAmount",
          "type": "uint256"
        },
        {
          "internalType": "uint256",
          "name": "_feeDaiAmount",
          "type": "uint256"
        },
        {
          "internalType": "uint256",
          "name": "_ethCollateralAmount",
          "type": "uint256"
        },
        {
          "internalType": "uint256",
          "name": "_repayByTimestamp",
          "type": "uint256"
        },
        {
          "internalType": "uint256",
          "name": "_fixedRate",
          "type": "uint256"
        },
        {
          "internalType": "uint256",
          "name": "_floatingRate",
          "type": "uint256"
        },
        {
          "internalType": "address",
          "name": "_daiToken",
          "type": "address"
        },
        {
          "internalType": "address",
          "name": "_oracleAddress",
          "type": "address"
        }
      ],
      "stateMutability": "nonpayable",
      "type": "constructor"
    },
    {
      "anonymous": false,
      "inputs": [
        {
          "indexed": true,
          "internalType": "address",
          "name": "borrower",
          "type": "address"
        },
        {
          "indexed": true,
          "internalType": "address",
          "name": "lender",
          "type": "address"
        },
        {
          "indexed": false,
          "internalType": "uint256",
          "name": "collateralAmount",
          "type": "uint256"
        }
      ],
      "name": "LoanLiquidated",
      "type": "event"
    },
    {
      "anonymous": false,
      "inputs": [
        {
          "indexed": true,
          "internalType": "address",
          "name": "borrower",
          "type": "address"
        },
        {
          "indexed": false,
          "internalType": "uint256",
          "name": "repaymentAmount",
          "type": "uint256"
        },
        {
          "indexed": false,
          "internalType": "uint256",
          "name": "interestPaid",
          "type": "uint256"
        }
      ],
      "name": "LoanRepaid",
      "type": "event"
    },
    {
      "inputs": [],
      "name": "borrower",
      "outputs": [
        {
          "internalType": "address",
          "name": "",
          "type": "address"
        }
      ],
      "stateMutability": "view",
      "type": "function"
    },
    {
      "inputs": [],
      "name": "currentRateType",
      "outputs": [
        {
          "internalType": "enum LoanRequest.InterestRateType",
          "name": "",
          "type": "uint8"
        }
      ],
      "stateMutability": "view",
      "type": "function"
    },
    {
      "inputs": [],
      "name": "daiToken",
      "outputs": [
        {
          "internalType": "contract IERC20",
          "name": "",
          "type": "address"
        }
      ],
      "stateMutability": "view",
      "type": "function"
    },
    {
      "inputs": [],
      "name": "ethCollateralAmount",
      "outputs": [
        {
          "internalType": "uint256",
          "name": "",
          "type": "uint256"
        }
      ],
      "stateMutability": "view",
      "type": "function"
    },
    {
      "inputs": [],
      "name": "feeDaiAmount",
      "outputs": [
        {
          "internalType": "uint256",
          "name": "",
          "type": "uint256"
        }
      ],
      "stateMutability": "view",
      "type": "function"
    },
    {
      "inputs": [],
      "name": "fixedRate",
      "outputs": [
        {
          "internalType": "uint256",
          "name": "",
          "type": "uint256"
        }
      ],
      "stateMutability": "view",
      "type": "function"
    },
    {
      "inputs": [],
      "name": "floatingRate",
      "outputs": [
        {
          "internalType": "uint256",
          "name": "",
          "type": "uint256"
        }
      ],
      "stateMutability": "view",
      "type": "function"
    },
    {
      "inputs": [],
      "name": "fundLoan",
      "outputs": [],
      "stateMutability": "nonpayable",
      "type": "function"
    },
    {
      "inputs": [],
      "name": "getFloatingRate",
      "outputs": [
        {
          "internalType": "uint256",
          "name": "",
          "type": "uint256"
        }
      ],
      "stateMutability": "view",
      "type": "function"
    },
    {
      "inputs": [],
      "name": "lender",
      "outputs": [
        {
          "internalType": "address",
          "name": "",
          "type": "address"
        }
      ],
      "stateMutability": "view",
      "type": "function"
    },
    {
      "inputs": [],
      "name": "liquidate",
      "outputs": [],
      "stateMutability": "nonpayable",
      "type": "function"
    },
    {
      "inputs": [],
      "name": "loanDaiAmount",
      "outputs": [
        {
          "internalType": "uint256",
          "name": "",
          "type": "uint256"
        }
      ],
      "stateMutability": "view",
      "type": "function"
    },
    {
      "inputs": [],
      "name": "repay",
      "outputs": [],
      "stateMutability": "nonpayable",
      "type": "function"
    },
    {
      "inputs": [],
      "name": "repayByTimestamp",
      "outputs": [
        {
          "internalType": "uint256",
          "name": "",
          "type": "uint256"
        }
      ],
      "stateMutability": "view",
      "type": "function"
    },
    {
      "inputs": [],
      "name": "state",
      "outputs": [
        {
          "internalType": "enum LoanRequest.LoanState",
          "name": "",
          "type": "uint8"
        }
      ],
      "stateMutability": "view",
      "type": "function"
    },
    {
      "inputs": [],
      "name": "switchRateType",
      "outputs": [],
      "stateMutability": "nonpayable",
      "type": "function"
    },
    {
      "inputs": [],
      "name": "takeALoanAndAcceptLoanTerms",
      "outputs": [],
      "stateMutability": "payable",
      "type": "function"
    },
    {
      "inputs": [],
      "name": "updateFloatingRate",
      "outputs": [],
      "stateMutability": "nonpayable",
      "type": "function"
    }
  ],
  "bytecode": "0x608060405234801561001057600080fd5b50604051611d9f380380611d9f83398181016040528101906100329190610219565b33600160006101000a81548173ffffffffffffffffffffffffffffffffffffffff021916908373ffffffffffffffffffffffffffffffffffffffff16021790555087600481905550866005819055508560068190555084600781905550836008819055508260098190555081600360006101000a81548173ffffffffffffffffffffffffffffffffffffffff021916908373ffffffffffffffffffffffffffffffffffffffff16021790555060008060006101000a81548160ff02191690836004811115610103576101026102cf565b5b021790555060008060016101000a81548160ff0219169083600181111561012d5761012c6102cf565b5b021790555080600060026101000a81548173ffffffffffffffffffffffffffffffffffffffff021916908373ffffffffffffffffffffffffffffffffffffffff16021790555050505050505050506102fe565b600080fd5b6000819050919050565b61019881610185565b81146101a357600080fd5b50565b6000815190506101b58161018f565b92915050565b600073ffffffffffffffffffffffffffffffffffffffff82169050919050565b60006101e6826101bb565b9050919050565b6101f6816101db565b811461020157600080fd5b50565b600081519050610213816101ed565b92915050565b600080600080600080600080610100898b03121561023a57610239610180565b5b60006102488b828c016101a6565b98505060206102598b828c016101a6565b975050604061026a8b828c016101a6565b965050606061027b8b828c016101a6565b955050608061028c8b828c016101a6565b94505060a061029d8b828c016101a6565b93505060c06102ae8b828c01610204565b92505060e06102bf8b828c01610204565b9150509295985092959890939650565b7f4e487b7100000000000000000000000000000000000000000000000000000000600052602160045260246000fd5b611a928061030d6000396000f3fe6080604052600436106101095760003560e01c80638db5799411610095578063be22f54611610064578063be22f546146102b8578063c19d93fb146102e3578063f55133541461030e578063f71dd46c14610339578063fb760d821461036457610109565b80638db579941461023457806398a88f2c1461024b578063ab2078d114610262578063bcead63e1461028d57610109565b80634c4b28f6116100dc5780634c4b28f61461019257806374eddc191461019c5780637df1f1b9146101b3578063802d1422146101de57806385dfc5791461020957610109565b806328a070251461010e5780632c3fecd114610125578063402d88831461015057806344d0d0c614610167575b600080fd5b34801561011a57600080fd5b5061012361038f565b005b34801561013157600080fd5b5061013a61067f565b6040516101479190610f69565b60405180910390f35b34801561015c57600080fd5b50610165610685565b005b34801561017357600080fd5b5061017c610a30565b6040516101899190610f69565b60405180910390f35b61019a610a36565b005b3480156101a857600080fd5b506101b1610beb565b005b3480156101bf57600080fd5b506101c8610cd0565b6040516101d59190610fc5565b60405180910390f35b3480156101ea57600080fd5b506101f3610cf6565b6040516102009190610f69565b60405180910390f35b34801561021557600080fd5b5061021e610cfc565b60405161022b9190610f69565b60405180910390f35b34801561024057600080fd5b50610249610d06565b005b34801561025757600080fd5b50610260610e36565b005b34801561026e57600080fd5b50610277610ece565b6040516102849190610f69565b60405180910390f35b34801561029957600080fd5b506102a2610ed4565b6040516102af9190610fc5565b60405180910390f35b3480156102c457600080fd5b506102cd610efa565b6040516102da919061103f565b60405180910390f35b3480156102ef57600080fd5b506102f8610f20565b60405161030591906110d1565b60405180910390f35b34801561031a57600080fd5b50610323610f31565b6040516103309190611134565b60405180910390f35b34801561034557600080fd5b5061034e610f44565b60405161035b9190610f69565b60405180910390f35b34801561037057600080fd5b50610379610f4a565b6040516103869190610f69565b60405180910390f35b600260048111156103a3576103a261105a565b5b60008054906101000a900460ff1660048111156103c3576103c261105a565b5b14610403576040517f08c379a00000000000000000000000000000000000000000000000000000000081526004016103fa906111ac565b60405180910390fd5b6007544211610447576040517f08c379a000000000000000000000000000000000000000000000000000000000815260040161043e9061123e565b60405180910390fd5b600160009054906101000a900473ffffffffffffffffffffffffffffffffffffffff1673ffffffffffffffffffffffffffffffffffffffff163373ffffffffffffffffffffffffffffffffffffffff16146104d7576040517f08c379a00000000000000000000000000000000000000000000000000000000081526004016104ce906112d0565b60405180910390fd5b60046000806101000a81548160ff021916908360048111156104fc576104fb61105a565b5b02179055506000600160009054906101000a900473ffffffffffffffffffffffffffffffffffffffff1673ffffffffffffffffffffffffffffffffffffffff1660065460405161054b90611321565b60006040518083038185875af1925050503d8060008114610588576040519150601f19603f3d011682016040523d82523d6000602084013e61058d565b606091505b50509050806105d1576040517f08c379a00000000000000000000000000000000000000000000000000000000081526004016105c890611382565b60405180910390fd5b600160009054906101000a900473ffffffffffffffffffffffffffffffffffffffff1673ffffffffffffffffffffffffffffffffffffffff16600260009054906101000a900473ffffffffffffffffffffffffffffffffffffffff1673ffffffffffffffffffffffffffffffffffffffff167fd4bfdcd3d7029abe0d70d4a6f1f560c5eac8d3cd6ecef801c6d3d67a49be60686006546040516106749190610f69565b60405180910390a350565b60045481565b600260048111156106995761069861105a565b5b60008054906101000a900460ff1660048111156106b9576106b861105a565b5b146106f9576040517f08c379a00000000000000000000000000000000000000000000000000000000081526004016106f0906111ac565b60405180910390fd5b600260009054906101000a900473ffffffffffffffffffffffffffffffffffffffff1673ffffffffffffffffffffffffffffffffffffffff163373ffffffffffffffffffffffffffffffffffffffff1614610789576040517f08c379a0000000000000000000000000000000000000000000000000000000008152600401610780906113ee565b60405180910390fd5b600061271060085460045461079e919061143d565b6107a891906114ae565b90506000816004546107ba91906114df565b9050600360009054906101000a900473ffffffffffffffffffffffffffffffffffffffff1673ffffffffffffffffffffffffffffffffffffffff166323b872dd600260009054906101000a900473ffffffffffffffffffffffffffffffffffffffff16600160009054906101000a900473ffffffffffffffffffffffffffffffffffffffff16846040518463ffffffff1660e01b815260040161085f93929190611513565b6020604051808303816000875af115801561087e573d6000803e3d6000fd5b505050506040513d601f19601f820116820180604052508101906108a29190611587565b6108e1576040517f08c379a00000000000000000000000000000000000000000000000000000000081526004016108d890611600565b60405180910390fd5b60036000806101000a81548160ff021916908360048111156109065761090561105a565b5b02179055506000600260009054906101000a900473ffffffffffffffffffffffffffffffffffffffff1673ffffffffffffffffffffffffffffffffffffffff1660065460405161095590611321565b60006040518083038185875af1925050503d8060008114610992576040519150601f19603f3d011682016040523d82523d6000602084013e610997565b606091505b50509050806109db576040517f08c379a00000000000000000000000000000000000000000000000000000000081526004016109d29061166c565b60405180910390fd5b3373ffffffffffffffffffffffffffffffffffffffff167fc7ce0a35f17b490de2a317e7fecb2cae86b1abffb03800b2f4928235213826988385604051610a2392919061168c565b60405180910390a2505050565b60065481565b60016004811115610a4a57610a4961105a565b5b60008054906101000a900460ff166004811115610a6a57610a6961105a565b5b14610aaa576040517f08c379a0000000000000000000000000000000000000000000000000000000008152600401610aa190611701565b60405180910390fd5b600160009054906101000a900473ffffffffffffffffffffffffffffffffffffffff1673ffffffffffffffffffffffffffffffffffffffff163373ffffffffffffffffffffffffffffffffffffffff1603610b3a576040517f08c379a0000000000000000000000000000000000000000000000000000000008152600401610b319061176d565b60405180910390fd5b6006543414610b7e576040517f08c379a0000000000000000000000000000000000000000000000000000000008152600401610b75906117d9565b60405180910390fd5b33600260006101000a81548173ffffffffffffffffffffffffffffffffffffffff021916908373ffffffffffffffffffffffffffffffffffffffff16021790555060026000806101000a81548160ff02191690836004811115610be457610be361105a565b5b0217905550565b60008060029054906101000a900473ffffffffffffffffffffffffffffffffffffffff1673ffffffffffffffffffffffffffffffffffffffff1663feaf968c6040518163ffffffff1660e01b815260040160a060405180830381865afa158015610c59573d6000803e3d6000fd5b505050506040513d601f19601f82011682018060405250810190610c7d919061189d565b50505091505060008113610cc6576040517f08c379a0000000000000000000000000000000000000000000000000000000008152600401610cbd90611964565b60405180910390fd5b8060098190555050565b600260009054906101000a900473ffffffffffffffffffffffffffffffffffffffff1681565b60085481565b6000600954905090565b60006004811115610d1a57610d1961105a565b5b60008054906101000a900460ff166004811115610d3a57610d3961105a565b5b14610d7a576040517f08c379a0000000000000000000000000000000000000000000000000000000008152600401610d71906119d0565b60405180910390fd5b600160009054906101000a900473ffffffffffffffffffffffffffffffffffffffff1673ffffffffffffffffffffffffffffffffffffffff163373ffffffffffffffffffffffffffffffffffffffff1614610e0a576040517f08c379a0000000000000000000000000000000000000000000000000000000008152600401610e0190611a3c565b60405180910390fd5b60016000806101000a81548160ff02191690836004811115610e2f57610e2e61105a565b5b0217905550565b60006001811115610e4a57610e4961105a565b5b600060019054906101000a900460ff166001811115610e6c57610e6b61105a565b5b03610ea1576001600060016101000a81548160ff02191690836001811115610e9757610e9661105a565b5b0217905550610ecc565b60008060016101000a81548160ff02191690836001811115610ec657610ec561105a565b5b02179055505b565b60075481565b600160009054906101000a900473ffffffffffffffffffffffffffffffffffffffff1681565b600360009054906101000a900473ffffffffffffffffffffffffffffffffffffffff1681565b60008054906101000a900460ff1681565b600060019054906101000a900460ff1681565b60095481565b60055481565b6000819050919050565b610f6381610f50565b82525050565b6000602082019050610f7e6000830184610f5a565b92915050565b600073ffffffffffffffffffffffffffffffffffffffff82169050919050565b6000610faf82610f84565b9050919050565b610fbf81610fa4565b82525050565b6000602082019050610fda6000830184610fb6565b92915050565b6000819050919050565b6000611005611000610ffb84610f84565b610fe0565b610f84565b9050919050565b600061101782610fea565b9050919050565b60006110298261100c565b9050919050565b6110398161101e565b82525050565b60006020820190506110546000830184611030565b92915050565b7f4e487b7100000000000000000000000000000000000000000000000000000000600052602160045260246000fd5b6005811061109a5761109961105a565b5b50565b60008190506110ab82611089565b919050565b60006110bb8261109d565b9050919050565b6110cb816110b0565b82525050565b60006020820190506110e660008301846110c2565b92915050565b600281106110fd576110fc61105a565b5b50565b600081905061110e826110ec565b919050565b600061111e82611100565b9050919050565b61112e81611113565b82525050565b60006020820190506111496000830184611125565b92915050565b600082825260208201905092915050565b7f4c6f616e206973206e6f7420696e2054616b656e207374617465000000000000600082015250565b6000611196601a8361114f565b91506111a182611160565b602082019050919050565b600060208201905081810360008301526111c581611189565b9050919050565b7f52657061796d656e7420646561646c696e6520686173206e6f7420706173736560008201527f6400000000000000000000000000000000000000000000000000000000000000602082015250565b600061122860218361114f565b9150611233826111cc565b604082019050919050565b600060208201905081810360008301526112578161121b565b9050919050565b7f4f6e6c79206c656e6465722063616e206c697175696461746520746865206c6f60008201527f616e000000000000000000000000000000000000000000000000000000000000602082015250565b60006112ba60228361114f565b91506112c58261125e565b604082019050919050565b600060208201905081810360008301526112e9816112ad565b9050919050565b600081905092915050565b50565b600061130b6000836112f0565b9150611316826112fb565b600082019050919050565b600061132c826112fe565b9150819050919050565b7f436f6c6c61746572616c207472616e73666572206661696c6564000000000000600082015250565b600061136c601a8361114f565b915061137782611336565b602082019050919050565b6000602082019050818103600083015261139b8161135f565b9050919050565b7f4f6e6c7920626f72726f7765722063616e20726570617920746865206c6f616e600082015250565b60006113d860208361114f565b91506113e3826113a2565b602082019050919050565b60006020820190508181036000830152611407816113cb565b9050919050565b7f4e487b7100000000000000000000000000000000000000000000000000000000600052601160045260246000fd5b600061144882610f50565b915061145383610f50565b925082820261146181610f50565b915082820484148315176114785761147761140e565b5b5092915050565b7f4e487b7100000000000000000000000000000000000000000000000000000000600052601260045260246000fd5b60006114b982610f50565b91506114c483610f50565b9250826114d4576114d361147f565b5b828204905092915050565b60006114ea82610f50565b91506114f583610f50565b925082820190508082111561150d5761150c61140e565b5b92915050565b60006060820190506115286000830186610fb6565b6115356020830185610fb6565b6115426040830184610f5a565b949350505050565b600080fd5b60008115159050919050565b6115648161154f565b811461156f57600080fd5b50565b6000815190506115818161155b565b92915050565b60006020828403121561159d5761159c61154a565b5b60006115ab84828501611572565b91505092915050565b7f444149207472616e73666572206661696c656400000000000000000000000000600082015250565b60006115ea60138361114f565b91506115f5826115b4565b602082019050919050565b60006020820190508181036000830152611619816115dd565b9050919050565b7f436f6c6c61746572616c20726566756e64206661696c65640000000000000000600082015250565b600061165660188361114f565b915061166182611620565b602082019050919050565b6000602082019050818103600083015261168581611649565b9050919050565b60006040820190506116a16000830185610f5a565b6116ae6020830184610f5a565b9392505050565b7f4c6f616e206973206e6f7420696e2046756e6465642073746174650000000000600082015250565b60006116eb601b8361114f565b91506116f6826116b5565b602082019050919050565b6000602082019050818103600083015261171a816116de565b9050919050565b7f4c656e6465722063616e6e6f742074616b6520746865206c6f616e0000000000600082015250565b6000611757601b8361114f565b915061176282611721565b602082019050919050565b600060208201905081810360008301526117868161174a565b9050919050565b7f496e636f727265637420636f6c6c61746572616c20616d6f756e740000000000600082015250565b60006117c3601b8361114f565b91506117ce8261178d565b602082019050919050565b600060208201905081810360008301526117f2816117b6565b9050919050565b600069ffffffffffffffffffff82169050919050565b611818816117f9565b811461182357600080fd5b50565b6000815190506118358161180f565b92915050565b6000819050919050565b61184e8161183b565b811461185957600080fd5b50565b60008151905061186b81611845565b92915050565b61187a81610f50565b811461188557600080fd5b50565b60008151905061189781611871565b92915050565b600080600080600060a086880312156118b9576118b861154a565b5b60006118c788828901611826565b95505060206118d88882890161185c565b94505060406118e988828901611888565b93505060606118fa88828901611888565b925050608061190b88828901611826565b9150509295509295909350565b7f496e76616c696420707269636500000000000000000000000000000000000000600082015250565b600061194e600d8361114f565b915061195982611918565b602082019050919050565b6000602082019050818103600083015261197d81611941565b9050919050565b7f4c6f616e206973206e6f7420696e204372656174656420737461746500000000600082015250565b60006119ba601c8361114f565b91506119c582611984565b602082019050919050565b600060208201905081810360008301526119e9816119ad565b9050919050565b7f4f6e6c79206c656e6465722063616e2066756e6420746865206c6f616e000000600082015250565b6000611a26601d8361114f565b9150611a31826119f0565b602082019050919050565b60006020820190508181036000830152611a5581611a19565b905091905056fea264697066735822122002b1568cbf2ca0a53c893e9b8ecf6f28768e2dcca0cb173c1c7cacc6dba2b4d064736f6c634300081c0033",
  "linkReferences": {},
  "deployedLinkReferences": {}
}