{
  "contractName": "LoanRequest",
  "abi": [
    {
      "inputs": [
        {
          "internalType": "uint256",
          "name": "_loanDaiAmount",
          "type": "uint256"
        },
        {
          "internalType": "uint256",
          "name": "_feeDaiAmount",
          "type": "uint256"
        },
        {
          "internalType": "uint256",
          "name": "_ethCollateralAmount",
          "type": "uint256"
        },
        {
          "internalType": "uint256",
          "name": "_repayByTimestamp",
          "type": "uint256"
        },
        {
          "internalType": "uint256",
          "name": "_fixedRate",
          "type": "uint256"
        },
        {
          "internalType": "uint256",
          "name": "_floatingRate",
          "type": "uint256"
        },
        {
          "internalType": "address",
          "name": "_daiToken",
          "type": "address"
        },
        {
          "internalType": "address",
          "name": "_oracleAddress",
          "type": "address"
        }
      ],
      "stateMutability": "nonpayable",
      "type": "constructor"
    },
    {
      "anonymous": false,
      "inputs": [
        {
          "indexed": true,
          "internalType": "address",
          "name": "borrower",
          "type": "address"
        },
        {
          "indexed": true,
          "internalType": "address",
          "name": "lender",
          "type": "address"
        },
        {
          "indexed": false,
          "internalType": "uint256",
          "name": "collateralAmount",
          "type": "uint256"
        }
      ],
      "name": "LoanLiquidated",
      "type": "event"
    },
    {
      "anonymous": false,
      "inputs": [
        {
          "indexed": true,
          "internalType": "address",
          "name": "borrower",
          "type": "address"
        },
        {
          "indexed": false,
          "internalType": "uint256",
          "name": "repaymentAmount",
          "type": "uint256"
        },
        {
          "indexed": false,
          "internalType": "uint256",
          "name": "interestPaid",
          "type": "uint256"
        }
      ],
      "name": "LoanRepaid",
      "type": "event"
    },
    {
      "inputs": [],
      "name": "borrower",
      "outputs": [
        {
          "internalType": "address",
          "name": "",
          "type": "address"
        }
      ],
      "stateMutability": "view",
      "type": "function"
    },
    {
      "inputs": [],
      "name": "currentRateType",
      "outputs": [
        {
          "internalType": "enum LoanRequest.InterestRateType",
          "name": "",
          "type": "uint8"
        }
      ],
      "stateMutability": "view",
      "type": "function"
    },
    {
      "inputs": [],
      "name": "daiToken",
      "outputs": [
        {
          "internalType": "contract IERC20",
          "name": "",
          "type": "address"
        }
      ],
      "stateMutability": "view",
      "type": "function"
    },
    {
      "inputs": [],
      "name": "ethCollateralAmount",
      "outputs": [
        {
          "internalType": "uint256",
          "name": "",
          "type": "uint256"
        }
      ],
      "stateMutability": "view",
      "type": "function"
    },
    {
      "inputs": [],
      "name": "feeDaiAmount",
      "outputs": [
        {
          "internalType": "uint256",
          "name": "",
          "type": "uint256"
        }
      ],
      "stateMutability": "view",
      "type": "function"
    },
    {
      "inputs": [],
      "name": "fixedRate",
      "outputs": [
        {
          "internalType": "uint256",
          "name": "",
          "type": "uint256"
        }
      ],
      "stateMutability": "view",
      "type": "function"
    },
    {
      "inputs": [],
      "name": "floatingRate",
      "outputs": [
        {
          "internalType": "uint256",
          "name": "",
          "type": "uint256"
        }
      ],
      "stateMutability": "view",
      "type": "function"
    },
    {
      "inputs": [],
      "name": "lender",
      "outputs": [
        {
          "internalType": "address",
          "name": "",
          "type": "address"
        }
      ],
      "stateMutability": "view",
      "type": "function"
    },
    {
      "inputs": [],
      "name": "loanDaiAmount",
      "outputs": [
        {
          "internalType": "uint256",
          "name": "",
          "type": "uint256"
        }
      ],
      "stateMutability": "view",
      "type": "function"
    },
    {
      "inputs": [],
      "name": "repayByTimestamp",
      "outputs": [
        {
          "internalType": "uint256",
          "name": "",
          "type": "uint256"
        }
      ],
      "stateMutability": "view",
      "type": "function"
    },
    {
      "inputs": [],
      "name": "state",
      "outputs": [
        {
          "internalType": "enum LoanRequest.LoanState",
          "name": "",
          "type": "uint8"
        }
      ],
      "stateMutability": "view",
      "type": "function"
    },
    {
      "inputs": [],
      "name": "fundLoan",
      "outputs": [],
      "stateMutability": "nonpayable",
      "type": "function"
    },
    {
      "inputs": [],
      "name": "takeALoanAndAcceptLoanTerms",
      "outputs": [],
      "stateMutability": "payable",
      "type": "function"
    },
    {
      "inputs": [],
      "name": "repay",
      "outputs": [],
      "stateMutability": "nonpayable",
      "type": "function"
    },
    {
      "inputs": [],
      "name": "liquidate",
      "outputs": [],
      "stateMutability": "nonpayable",
      "type": "function"
    },
    {
      "inputs": [],
      "name": "updateRates",
      "outputs": [],
      "stateMutability": "nonpayable",
      "type": "function"
    },
    {
      "inputs": [],
      "name": "getFloatingRate",
      "outputs": [
        {
          "internalType": "uint256",
          "name": "",
          "type": "uint256"
        }
      ],
      "stateMutability": "view",
      "type": "function"
    },
    {
      "inputs": [],
      "name": "switchRateType",
      "outputs": [],
      "stateMutability": "nonpayable",
      "type": "function"
    }
  ],
  "bytecode": "0x60806040523480156200001157600080fd5b5060405162001e0538038062001e05833981810160405281019062000037919062000231565b33600160006101000a81548173ffffffffffffffffffffffffffffffffffffffff021916908373ffffffffffffffffffffffffffffffffffffffff16021790555087600481905550866005819055508560068190555084600781905550836008819055508260098190555081600360006101000a81548173ffffffffffffffffffffffffffffffffffffffff021916908373ffffffffffffffffffffffffffffffffffffffff16021790555060008060006101000a81548160ff021916908360048111156200010b576200010a620002fa565b5b021790555060008060016101000a81548160ff02191690836001811115620001385762000137620002fa565b5b021790555080600060026101000a81548173ffffffffffffffffffffffffffffffffffffffff021916908373ffffffffffffffffffffffffffffffffffffffff160217905550505050505050505062000329565b600080fd5b6000819050919050565b620001a68162000191565b8114620001b257600080fd5b50565b600081519050620001c6816200019b565b92915050565b600073ffffffffffffffffffffffffffffffffffffffff82169050919050565b6000620001f982620001cc565b9050919050565b6200020b81620001ec565b81146200021757600080fd5b50565b6000815190506200022b8162000200565b92915050565b600080600080600080600080610100898b0312156200025557620002546200018c565b5b6000620002658b828c01620001b5565b9850506020620002788b828c01620001b5565b97505060406200028b8b828c01620001b5565b96505060606200029e8b828c01620001b5565b9550506080620002b18b828c01620001b5565b94505060a0620002c48b828c01620001b5565b93505060c0620002d78b828c016200021a565b92505060e0620002ea8b828c016200021a565b9150509295985092959890939650565b7f4e487b7100000000000000000000000000000000000000000000000000000000600052602160045260246000fd5b611acc80620003396000396000f3fe6080604052600436106101095760003560e01c80638db5799411610095578063be22f54611610064578063be22f546146102b8578063c19d93fb146102e3578063f55133541461030e578063f71dd46c14610339578063fb760d821461036457610109565b80638db579941461023457806398a88f2c1461024b578063ab2078d114610262578063bcead63e1461028d57610109565b80634c4b28f6116100dc5780634c4b28f61461019257806374eddc191461019c5780637df1f1b9146101b3578063802d1422146101de57806385dfc5791461020957610109565b806328a070251461010e5780632c3fecd114610125578063402d88831461015057806344d0d0c614610167575b600080fd5b34801561011a57600080fd5b5061012361038f565b005b34801561013157600080fd5b5061013a61067f565b6040516101479190610f69565b60405180910390f35b34801561015c57600080fd5b50610165610685565b005b34801561017357600080fd5b5061017c610a30565b6040516101899190610f69565b60405180910390f35b61019a610a36565b005b3480156101a857600080fd5b506101b1610beb565b005b3480156101bf57600080fd5b506101c8610cd0565b6040516101d59190610fc5565b60405180910390f35b3480156101ea57600080fd5b506101f3610cf6565b6040516102009190610f69565b60405180910390f35b34801561021557600080fd5b5061021e610cfc565b60405161022b9190610f69565b60405180910390f35b34801561024057600080fd5b50610249610d06565b005b34801561025757600080fd5b50610260610e36565b005b34801561026e57600080fd5b50610277610ece565b6040516102849190610f69565b60405180910390f35b34801561029957600080fd5b506102a2610ed4565b6040516102af9190610fc5565b60405180910390f35b3480156102c457600080fd5b506102cd610efa565b6040516102da919061103f565b60405180910390f35b3480156102ef57600080fd5b506102f8610f20565b60405161030591906110d1565b60405180910390f35b34801561031a57600080fd5b50610323610f31565b6040516103309190611134565b60405180910390f35b34801561034557600080fd5b5061034e610f44565b60405161035b9190610f69565b60405180910390f35b34801561037057600080fd5b50610379610f4a565b6040516103869190610f69565b60405180910390f35b600260048111156103a3576103a261105a565b5b60008054906101000a900460ff1660048111156103c3576103c261105a565b5b14610403576040517f08c379a00000000000000000000000000000000000000000000000000000000081526004016103fa906111ac565b60405180910390fd5b6007544211610447576040517f08c379a000000000000000000000000000000000000000000000000000000000815260040161043e9061123e565b60405180910390fd5b600160009054906101000a900473ffffffffffffffffffffffffffffffffffffffff1673ffffffffffffffffffffffffffffffffffffffff163373ffffffffffffffffffffffffffffffffffffffff16146104d7576040517f08c379a00000000000000000000000000000000000000000000000000000000081526004016104ce906112d0565b60405180910390fd5b60046000806101000a81548160ff021916908360048111156104fc576104fb61105a565b5b02179055506000600160009054906101000a900473ffffffffffffffffffffffffffffffffffffffff1673ffffffffffffffffffffffffffffffffffffffff1660065460405161054b90611321565b60006040518083038185875af1925050503d8060008114610588576040519150601f19603f3d011682016040523d82523d6000602084013e61058d565b606091505b50509050806105d1576040517f08c379a00000000000000000000000000000000000000000000000000000000081526004016105c890611382565b60405180910390fd5b600160009054906101000a900473ffffffffffffffffffffffffffffffffffffffff1673ffffffffffffffffffffffffffffffffffffffff16600260009054906101000a900473ffffffffffffffffffffffffffffffffffffffff1673ffffffffffffffffffffffffffffffffffffffff167fd4bfdcd3d7029abe0d70d4a6f1f560c5eac8d3cd6ecef801c6d3d67a49be60686006546040516106749190610f69565b60405180910390a350565b60045481565b600260048111156106995761069861105a565b5b60008054906101000a900460ff1660048111156106b9576106b861105a565b5b146106f9576040517f08c379a00000000000000000000000000000000000000000000000000000000081526004016106f0906111ac565b60405180910390fd5b600260009054906101000a900473ffffffffffffffffffffffffffffffffffffffff1673ffffffffffffffffffffffffffffffffffffffff163373ffffffffffffffffffffffffffffffffffffffff1614610789576040517f08c379a0000000000000000000000000000000000000000000000000000000008152600401610780906113ee565b60405180910390fd5b600061271060085460045461079e919061143d565b6107a891906114c6565b90506000816004546107ba91906114f7565b9050600360009054906101000a900473ffffffffffffffffffffffffffffffffffffffff1673ffffffffffffffffffffffffffffffffffffffff166323b872dd600260009054906101000a900473ffffffffffffffffffffffffffffffffffffffff16600160009054906101000a900473ffffffffffffffffffffffffffffffffffffffff16846040518463ffffffff1660e01b815260040161085f9392919061154d565b6020604051808303816000875af115801561087e573d6000803e3d6000fd5b505050506040513d601f19601f820116820180604052508101906108a291906115c1565b6108e1576040517f08c379a00000000000000000000000000000000000000000000000000000000081526004016108d89061163a565b60405180910390fd5b60036000806101000a81548160ff021916908360048111156109065761090561105a565b5b02179055506000600260009054906101000a900473ffffffffffffffffffffffffffffffffffffffff1673ffffffffffffffffffffffffffffffffffffffff1660065460405161095590611321565b60006040518083038185875af1925050503d8060008114610992576040519150601f19603f3d011682016040523d82523d6000602084013e610997565b606091505b50509050806109db576040517f08c379a00000000000000000000000000000000000000000000000000000000081526004016109d2906116a6565b60405180910390fd5b3373ffffffffffffffffffffffffffffffffffffffff167fc7ce0a35f17b490de2a317e7fecb2cae86b1abffb03800b2f4928235213826988385604051610a239291906116c6565b60405180910390a2505050565b60065481565b60016004811115610a4a57610a4961105a565b5b60008054906101000a900460ff166004811115610a6a57610a6961105a565b5b14610aaa576040517f08c379a0000000000000000000000000000000000000000000000000000000008152600401610aa19061173b565b60405180910390fd5b600160009054906101000a900473ffffffffffffffffffffffffffffffffffffffff1673ffffffffffffffffffffffffffffffffffffffff163373ffffffffffffffffffffffffffffffffffffffff1603610b3a576040517f08c379a0000000000000000000000000000000000000000000000000000000008152600401610b31906117a7565b60405180910390fd5b6006543414610b7e576040517f08c379a0000000000000000000000000000000000000000000000000000000008152600401610b7590611813565b60405180910390fd5b33600260006101000a81548173ffffffffffffffffffffffffffffffffffffffff021916908373ffffffffffffffffffffffffffffffffffffffff16021790555060026000806101000a81548160ff02191690836004811115610be457610be361105a565b5b0217905550565b60008060029054906101000a900473ffffffffffffffffffffffffffffffffffffffff1673ffffffffffffffffffffffffffffffffffffffff1663feaf968c6040518163ffffffff1660e01b815260040160a060405180830381865afa158015610c59573d6000803e3d6000fd5b505050506040513d601f19601f82011682018060405250810190610c7d91906118d7565b50505091505060008113610cc6576040517f08c379a0000000000000000000000000000000000000000000000000000000008152600401610cbd9061199e565b60405180910390fd5b8060098190555050565b600260009054906101000a900473ffffffffffffffffffffffffffffffffffffffff1681565b60085481565b6000600954905090565b60006004811115610d1a57610d1961105a565b5b60008054906101000a900460ff166004811115610d3a57610d3961105a565b5b14610d7a576040517f08c379a0000000000000000000000000000000000000000000000000000000008152600401610d7190611a0a565b60405180910390fd5b600160009054906101000a900473ffffffffffffffffffffffffffffffffffffffff1673ffffffffffffffffffffffffffffffffffffffff163373ffffffffffffffffffffffffffffffffffffffff1614610e0a576040517f08c379a0000000000000000000000000000000000000000000000000000000008152600401610e0190611a76565b60405180910390fd5b60016000806101000a81548160ff02191690836004811115610e2f57610e2e61105a565b5b0217905550565b60006001811115610e4a57610e4961105a565b5b600060019054906101000a900460ff166001811115610e6c57610e6b61105a565b5b03610ea1576001600060016101000a81548160ff02191690836001811115610e9757610e9661105a565b5b0217905550610ecc565b60008060016101000a81548160ff02191690836001811115610ec657610ec561105a565b5b02179055505b565b60075481565b600160009054906101000a900473ffffffffffffffffffffffffffffffffffffffff1681565b600360009054906101000a900473ffffffffffffffffffffffffffffffffffffffff1681565b60008054906101000a900460ff1681565b600060019054906101000a900460ff1681565b60095481565b60055481565b6000819050919050565b610f6381610f50565b82525050565b6000602082019050610f7e6000830184610f5a565b92915050565b600073ffffffffffffffffffffffffffffffffffffffff82169050919050565b6000610faf82610f84565b9050919050565b610fbf81610fa4565b82525050565b6000602082019050610fda6000830184610fb6565b92915050565b6000819050919050565b6000611005611000610ffb84610f84565b610fe0565b610f84565b9050919050565b600061101782610fea565b9050919050565b60006110298261100c565b9050919050565b6110398161101e565b82525050565b60006020820190506110546000830184611030565b92915050565b7f4e487b7100000000000000000000000000000000000000000000000000000000600052602160045260246000fd5b6005811061109a5761109961105a565b5b50565b60008190506110ab82611089565b919050565b60006110bb8261109d565b9050919050565b6110cb816110b0565b82525050565b60006020820190506110e660008301846110c2565b92915050565b600281106110fd576110fc61105a565b5b50565b600081905061110e826110ec565b919050565b600061111e82611100565b9050919050565b61112e81611113565b82525050565b60006020820190506111496000830184611125565b92915050565b600082825260208201905092915050565b7f4c6f616e206973206e6f7420696e2054616b656e207374617465000000000000600082015250565b6000611196601a8361114f565b91506111a182611160565b602082019050919050565b600060208201905081810360008301526111c581611189565b9050919050565b7f52657061796d656e7420646561646c696e6520686173206e6f7420706173736560008201527f6400000000000000000000000000000000000000000000000000000000000000602082015250565b600061122860218361114f565b9150611233826111cc565b604082019050919050565b600060208201905081810360008301526112578161121b565b9050919050565b7f4f6e6c79206c656e6465722063616e206c697175696461746520746865206c6f60008201527f616e000000000000000000000000000000000000000000000000000000000000602082015250565b60006112ba60228361114f565b91506112c58261125e565b604082019050919050565b600060208201905081810360008301526112e9816112ad565b9050919050565b600081905092915050565b50565b600061130b6000836112f0565b9150611316826112fb565b600082019050919050565b600061132c826112fe565b9150819050919050565b7f436f6c6c61746572616c207472616e73666572206661696c6564000000000000600082015250565b600061136c601a8361114f565b915061137782611336565b602082019050919050565b6000602082019050818103600083015261139b8161135f565b9050919050565b7f4f6e6c7920626f72726f7765722063616e20726570617920746865206c6f616e600082015250565b60006113d860208361114f565b91506113e3826113a2565b602082019050919050565b60006020820190508181036000830152611407816113cb565b9050919050565b7f4e487b7100000000000000000000000000000000000000000000000000000000600052601160045260246000fd5b600061144882610f50565b915061145383610f50565b9250817fffffffffffffffffffffffffffffffffffffffffffffffffffffffffffffffff048311821515161561148c5761148b61140e565b5b828202905092915050565b7f4e487b7100000000000000000000000000000000000000000000000000000000600052601260045260246000fd5b60006114d182610f50565b91506114dc83610f50565b9250826114ec576114eb611497565b5b828204905092915050565b600061150282610f50565b915061150d83610f50565b9250827fffffffffffffffffffffffffffffffffffffffffffffffffffffffffffffffff038211156115425761154161140e565b5b828201905092915050565b60006060820190506115626000830186610fb6565b61156f6020830185610fb6565b61157c6040830184610f5a565b949350505050565b600080fd5b60008115159050919050565b61159e81611589565b81146115a957600080fd5b50565b6000815190506115bb81611595565b92915050565b6000602082840312156115d7576115d6611584565b5b60006115e5848285016115ac565b91505092915050565b7f444149207472616e73666572206661696c656400000000000000000000000000600082015250565b600061162460138361114f565b915061162f826115ee565b602082019050919050565b6000602082019050818103600083015261165381611617565b9050919050565b7f436f6c6c61746572616c20726566756e64206661696c65640000000000000000600082015250565b600061169060188361114f565b915061169b8261165a565b602082019050919050565b600060208201905081810360008301526116bf81611683565b9050919050565b60006040820190506116db6000830185610f5a565b6116e86020830184610f5a565b9392505050565b7f4c6f616e206973206e6f7420696e2046756e6465642073746174650000000000600082015250565b6000611725601b8361114f565b9150611730826116ef565b602082019050919050565b6000602082019050818103600083015261175481611718565b9050919050565b7f4c656e6465722063616e6e6f742074616b6520746865206c6f616e0000000000600082015250565b6000611791601b8361114f565b915061179c8261175b565b602082019050919050565b600060208201905081810360008301526117c081611784565b9050919050565b7f496e636f727265637420636f6c6c61746572616c20616d6f756e740000000000600082015250565b60006117fd601b8361114f565b9150611808826117c7565b602082019050919050565b6000602082019050818103600083015261182c816117f0565b9050919050565b600069ffffffffffffffffffff82169050919050565b61185281611833565b811461185d57600080fd5b50565b60008151905061186f81611849565b92915050565b6000819050919050565b61188881611875565b811461189357600080fd5b50565b6000815190506118a58161187f565b92915050565b6118b481610f50565b81146118bf57600080fd5b50565b6000815190506118d1816118ab565b92915050565b600080600080600060a086880312156118f3576118f2611584565b5b600061190188828901611860565b955050602061191288828901611896565b9450506040611923888289016118c2565b9350506060611934888289016118c2565b925050608061194588828901611860565b9150509295509295909350565b7f496e76616c696420707269636500000000000000000000000000000000000000600082015250565b6000611988600d8361114f565b915061199382611952565b602082019050919050565b600060208201905081810360008301526119b78161197b565b9050919050565b7f4c6f616e206973206e6f7420696e204372656174656420737461746500000000600082015250565b60006119f4601c8361114f565b91506119ff826119be565b602082019050919050565b60006020820190508181036000830152611a23816119e7565b9050919050565b7f4f6e6c79206c656e6465722063616e2066756e6420746865206c6f616e000000600082015250565b6000611a60601d8361114f565b9150611a6b82611a2a565b602082019050919050565b60006020820190508181036000830152611a8f81611a53565b905091905056fea26469706673582212206503d177d4cace8c5dfae75f8a6fb58123de6ea872556ba767cd4386ab70382564736f6c634300080d0033",
  "immutableReferences": {},
  "source": "// SPDX-License-Identifier: UNLICENSED\r\npragma solidity ^0.8.13;\r\nimport {IERC20} from \"./IERC20.sol\";\r\nimport \"hardhat/console.sol\";\r\nimport {AggregatorV3Interface} from \"./AggregatorV3Interface.sol\";\r\n\r\n\r\ncontract LoanRequest {\r\n    enum LoanState { Created, Funded, Taken, Repaid, Liquidated }\r\n    enum InterestRateType { Fixed, Floating }\r\n\r\n    LoanState public state;\r\n    InterestRateType public currentRateType;\r\n\r\n    AggregatorV3Interface internal interestRateFeed;\r\n\r\n\r\n    address public lender;\r\n    address public borrower;\r\n    IERC20 public daiToken;\r\n    uint256 public loanDaiAmount;\r\n    uint256 public feeDaiAmount;\r\n    uint256 public ethCollateralAmount;\r\n    uint256 public repayByTimestamp;\r\n    uint256 public fixedRate; // in basis points\r\n    uint256 public floatingRate; // in basis points\r\n\r\n    constructor(\r\n        uint256 _loanDaiAmount,\r\n        uint256 _feeDaiAmount,\r\n        uint256 _ethCollateralAmount,\r\n        uint256 _repayByTimestamp,\r\n        uint256 _fixedRate,\r\n        uint256 _floatingRate,\r\n        address _daiToken,\r\n        address _oracleAddress\r\n    ) {\r\n        lender = msg.sender;\r\n        loanDaiAmount = _loanDaiAmount;\r\n        feeDaiAmount = _feeDaiAmount;\r\n        ethCollateralAmount = _ethCollateralAmount;\r\n        repayByTimestamp = _repayByTimestamp;\r\n        fixedRate = _fixedRate;\r\n        floatingRate = _floatingRate;\r\n        daiToken = IERC20(_daiToken);\r\n        state = LoanState.Created;\r\n        currentRateType = InterestRateType.Fixed; // Default to fixed rate\r\n        interestRateFeed = AggregatorV3Interface(_oracleAddress);\r\n    }\r\n\r\n    function fundLoan() external {\r\n        require(state == LoanState.Created, \"Loan is not in Created state\");\r\n        require(msg.sender == lender, \"Only lender can fund the loan\");\r\n        state = LoanState.Funded;\r\n    }\r\n\r\n    function takeALoanAndAcceptLoanTerms() external payable {\r\n        require(state == LoanState.Funded, \"Loan is not in Funded state\");\r\n        require(msg.sender != lender, \"Lender cannot take the loan\");\r\n        require(msg.value == ethCollateralAmount, \"Incorrect collateral amount\");\r\n        borrower = msg.sender;\r\n        state = LoanState.Taken;\r\n    }\r\n\r\n    function repay() external {\r\n        require(state == LoanState.Taken, \"Loan is not in Taken state\");\r\n        require(msg.sender == borrower, \"Only borrower can repay the loan\");\r\n\r\n        uint256 interestPaid = (loanDaiAmount * fixedRate) / 10000; // Using fixed rate for now\r\n        uint256 repaymentAmount = loanDaiAmount + interestPaid;\r\n\r\n        require(daiToken.transferFrom(borrower, lender, repaymentAmount), \"DAI transfer failed\");\r\n\r\n        state = LoanState.Repaid;\r\n\r\n        (bool success,) = borrower.call{value: ethCollateralAmount}(\"\");\r\n        require(success, \"Collateral refund failed\");\r\n\r\n        emit LoanRepaid(msg.sender, repaymentAmount, interestPaid);\r\n    }\r\n\r\n    function liquidate() external {\r\n        require(state == LoanState.Taken, \"Loan is not in Taken state\");\r\n        require(block.timestamp > repayByTimestamp, \"Repayment deadline has not passed\");\r\n        require(msg.sender == lender, \"Only lender can liquidate the loan\");\r\n\r\n        state = LoanState.Liquidated;\r\n\r\n        (bool success,) = lender.call{value: ethCollateralAmount}(\"\");\r\n        require(success, \"Collateral transfer failed\");\r\n\r\n        emit LoanLiquidated(borrower, lender, ethCollateralAmount);\r\n    }\r\n\r\n    function updateRates() public{\r\n        (, int rate,,,) = interestRateFeed.latestRoundData();\r\n        require(rate > 0, \"Invalid price\");\r\n        floatingRate = uint256(rate);\r\n\r\n    }\r\n    \r\n    function getFloatingRate() public view returns (uint256){\r\n        return floatingRate;\r\n    }\r\n\r\n    function switchRateType() public {\r\n        if (currentRateType == InterestRateType.Fixed) {\r\n            currentRateType = InterestRateType.Floating;\r\n        } else {\r\n            currentRateType = InterestRateType.Fixed;\r\n        }\r\n    }\r\n\r\n    event LoanRepaid(address indexed borrower, uint256 repaymentAmount, uint256 interestPaid);\r\n    event LoanLiquidated(address indexed borrower, address indexed lender, uint256 collateralAmount);\r\n}\r\n",
  "sourcePath": "C:\\Users\\Bakri\\IdeaProjects\\Loan Switching Smart Contract\\src\\contracts\\LoanRequest.sol",
  "compiler": {
    "name": "solc",
    "version": "0.8.13+commit.abaa5c0e.Emscripten.clang"
  },
  "schemaVersion": "3.4.16",
  "updatedAt": "2025-02-26T14:52:26.507Z",
  "devdoc": {
    "kind": "dev",
    "methods": {},
    "version": 1
  },
  "userdoc": {
    "kind": "user",
    "methods": {},
    "version": 1
  }
}