{
  "contractName": "LoanRequest",
  "abi": [
    {
      "inputs": [
        {
          "internalType": "uint256",
          "name": "_loanDaiAmount",
          "type": "uint256"
        },
        {
          "internalType": "uint256",
          "name": "_feeDaiAmount",
          "type": "uint256"
        },
        {
          "internalType": "uint256",
          "name": "_ethCollateralAmount",
          "type": "uint256"
        },
        {
          "internalType": "uint256",
          "name": "_repayByTimestamp",
          "type": "uint256"
        },
        {
          "internalType": "uint256",
          "name": "_fixedRate",
          "type": "uint256"
        },
        {
          "internalType": "uint256",
          "name": "_floatingRate",
          "type": "uint256"
        },
        {
          "internalType": "address",
          "name": "_daiToken",
          "type": "address"
        }
      ],
      "stateMutability": "nonpayable",
      "type": "constructor"
    },
    {
      "anonymous": false,
      "inputs": [
        {
          "indexed": true,
          "internalType": "address",
          "name": "borrower",
          "type": "address"
        },
        {
          "indexed": true,
          "internalType": "address",
          "name": "lender",
          "type": "address"
        },
        {
          "indexed": false,
          "internalType": "uint256",
          "name": "collateralAmount",
          "type": "uint256"
        }
      ],
      "name": "LoanLiquidated",
      "type": "event"
    },
    {
      "anonymous": false,
      "inputs": [
        {
          "indexed": true,
          "internalType": "address",
          "name": "borrower",
          "type": "address"
        },
        {
          "indexed": false,
          "internalType": "uint256",
          "name": "repaymentAmount",
          "type": "uint256"
        },
        {
          "indexed": false,
          "internalType": "uint256",
          "name": "interestPaid",
          "type": "uint256"
        }
      ],
      "name": "LoanRepaid",
      "type": "event"
    },
    {
      "inputs": [],
      "name": "borrower",
      "outputs": [
        {
          "internalType": "address",
          "name": "",
          "type": "address"
        }
      ],
      "stateMutability": "view",
      "type": "function",
      "constant": true
    },
    {
      "inputs": [],
      "name": "currentRateType",
      "outputs": [
        {
          "internalType": "enum LoanRequest.InterestRateType",
          "name": "",
          "type": "uint8"
        }
      ],
      "stateMutability": "view",
      "type": "function",
      "constant": true
    },
    {
      "inputs": [],
      "name": "daiToken",
      "outputs": [
        {
          "internalType": "contract IERC20",
          "name": "",
          "type": "address"
        }
      ],
      "stateMutability": "view",
      "type": "function",
      "constant": true
    },
    {
      "inputs": [],
      "name": "ethCollateralAmount",
      "outputs": [
        {
          "internalType": "uint256",
          "name": "",
          "type": "uint256"
        }
      ],
      "stateMutability": "view",
      "type": "function",
      "constant": true
    },
    {
      "inputs": [],
      "name": "feeDaiAmount",
      "outputs": [
        {
          "internalType": "uint256",
          "name": "",
          "type": "uint256"
        }
      ],
      "stateMutability": "view",
      "type": "function",
      "constant": true
    },
    {
      "inputs": [],
      "name": "fixedRate",
      "outputs": [
        {
          "internalType": "uint256",
          "name": "",
          "type": "uint256"
        }
      ],
      "stateMutability": "view",
      "type": "function",
      "constant": true
    },
    {
      "inputs": [],
      "name": "floatingRate",
      "outputs": [
        {
          "internalType": "uint256",
          "name": "",
          "type": "uint256"
        }
      ],
      "stateMutability": "view",
      "type": "function",
      "constant": true
    },
    {
      "inputs": [],
      "name": "lender",
      "outputs": [
        {
          "internalType": "address",
          "name": "",
          "type": "address"
        }
      ],
      "stateMutability": "view",
      "type": "function",
      "constant": true
    },
    {
      "inputs": [],
      "name": "loanDaiAmount",
      "outputs": [
        {
          "internalType": "uint256",
          "name": "",
          "type": "uint256"
        }
      ],
      "stateMutability": "view",
      "type": "function",
      "constant": true
    },
    {
      "inputs": [],
      "name": "repayByTimestamp",
      "outputs": [
        {
          "internalType": "uint256",
          "name": "",
          "type": "uint256"
        }
      ],
      "stateMutability": "view",
      "type": "function",
      "constant": true
    },
    {
      "inputs": [],
      "name": "state",
      "outputs": [
        {
          "internalType": "enum LoanRequest.LoanState",
          "name": "",
          "type": "uint8"
        }
      ],
      "stateMutability": "view",
      "type": "function",
      "constant": true
    },
    {
      "inputs": [],
      "name": "fundLoan",
      "outputs": [],
      "stateMutability": "nonpayable",
      "type": "function"
    },
    {
      "inputs": [],
      "name": "takeALoanAndAcceptLoanTerms",
      "outputs": [],
      "stateMutability": "payable",
      "type": "function",
      "payable": true
    },
    {
      "inputs": [],
      "name": "repay",
      "outputs": [],
      "stateMutability": "nonpayable",
      "type": "function"
    },
    {
      "inputs": [],
      "name": "liquidate",
      "outputs": [],
      "stateMutability": "nonpayable",
      "type": "function"
    }
  ],
  "bytecode": "0x60806040523480156200001157600080fd5b5060405162001a2038038062001a208339818101604052810190620000379190620001ef565b33600060026101000a81548173ffffffffffffffffffffffffffffffffffffffff021916908373ffffffffffffffffffffffffffffffffffffffff16021790555086600381905550856004819055508460058190555083600681905550826007819055508160088190555080600260006101000a81548173ffffffffffffffffffffffffffffffffffffffff021916908373ffffffffffffffffffffffffffffffffffffffff16021790555060008060006101000a81548160ff021916908360048111156200010b576200010a620002a2565b5b021790555060008060016101000a81548160ff02191690836001811115620001385762000137620002a2565b5b021790555050505050505050620002d1565b600080fd5b6000819050919050565b62000164816200014f565b81146200017057600080fd5b50565b600081519050620001848162000159565b92915050565b600073ffffffffffffffffffffffffffffffffffffffff82169050919050565b6000620001b7826200018a565b9050919050565b620001c981620001aa565b8114620001d557600080fd5b50565b600081519050620001e981620001be565b92915050565b600080600080600080600060e0888a0312156200021157620002106200014a565b5b6000620002218a828b0162000173565b9750506020620002348a828b0162000173565b9650506040620002478a828b0162000173565b95505060606200025a8a828b0162000173565b94505060806200026d8a828b0162000173565b93505060a0620002808a828b0162000173565b92505060c0620002938a828b01620001d8565b91505092959891949750929550565b7f4e487b7100000000000000000000000000000000000000000000000000000000600052602160045260246000fd5b61173f80620002e16000396000f3fe6080604052600436106100e85760003560e01c80638db579941161008a578063c19d93fb11610059578063c19d93fb14610269578063f551335414610294578063f71dd46c146102bf578063fb760d82146102ea576100e8565b80638db57994146101d1578063ab2078d1146101e8578063bcead63e14610213578063be22f5461461023e576100e8565b806344d0d0c6116100c657806344d0d0c6146101465780634c4b28f6146101715780637df1f1b91461017b578063802d1422146101a6576100e8565b806328a07025146100ed5780632c3fecd114610104578063402d88831461012f575b600080fd5b3480156100f957600080fd5b50610102610315565b005b34801561011057600080fd5b50610119610604565b6040516101269190610d67565b60405180910390f35b34801561013b57600080fd5b5061014461060a565b005b34801561015257600080fd5b5061015b6109b5565b6040516101689190610d67565b60405180910390f35b6101796109bb565b005b34801561018757600080fd5b50610190610b70565b60405161019d9190610dc3565b60405180910390f35b3480156101b257600080fd5b506101bb610b96565b6040516101c89190610d67565b60405180910390f35b3480156101dd57600080fd5b506101e6610b9c565b005b3480156101f457600080fd5b506101fd610ccc565b60405161020a9190610d67565b60405180910390f35b34801561021f57600080fd5b50610228610cd2565b6040516102359190610dc3565b60405180910390f35b34801561024a57600080fd5b50610253610cf8565b6040516102609190610e3d565b60405180910390f35b34801561027557600080fd5b5061027e610d1e565b60405161028b9190610ecf565b60405180910390f35b3480156102a057600080fd5b506102a9610d2f565b6040516102b69190610f32565b60405180910390f35b3480156102cb57600080fd5b506102d4610d42565b6040516102e19190610d67565b60405180910390f35b3480156102f657600080fd5b506102ff610d48565b60405161030c9190610d67565b60405180910390f35b6002600481111561032957610328610e58565b5b60008054906101000a900460ff16600481111561034957610348610e58565b5b14610389576040517f08c379a000000000000000000000000000000000000000000000000000000000815260040161038090610faa565b60405180910390fd5b60065442116103cd576040517f08c379a00000000000000000000000000000000000000000000000000000000081526004016103c49061103c565b60405180910390fd5b600060029054906101000a900473ffffffffffffffffffffffffffffffffffffffff1673ffffffffffffffffffffffffffffffffffffffff163373ffffffffffffffffffffffffffffffffffffffff161461045d576040517f08c379a0000000000000000000000000000000000000000000000000000000008152600401610454906110ce565b60405180910390fd5b60046000806101000a81548160ff0219169083600481111561048257610481610e58565b5b021790555060008060029054906101000a900473ffffffffffffffffffffffffffffffffffffffff1673ffffffffffffffffffffffffffffffffffffffff166005546040516104d09061111f565b60006040518083038185875af1925050503d806000811461050d576040519150601f19603f3d011682016040523d82523d6000602084013e610512565b606091505b5050905080610556576040517f08c379a000000000000000000000000000000000000000000000000000000000815260040161054d90611180565b60405180910390fd5b600060029054906101000a900473ffffffffffffffffffffffffffffffffffffffff1673ffffffffffffffffffffffffffffffffffffffff16600160009054906101000a900473ffffffffffffffffffffffffffffffffffffffff1673ffffffffffffffffffffffffffffffffffffffff167fd4bfdcd3d7029abe0d70d4a6f1f560c5eac8d3cd6ecef801c6d3d67a49be60686005546040516105f99190610d67565b60405180910390a350565b60035481565b6002600481111561061e5761061d610e58565b5b60008054906101000a900460ff16600481111561063e5761063d610e58565b5b1461067e576040517f08c379a000000000000000000000000000000000000000000000000000000000815260040161067590610faa565b60405180910390fd5b600160009054906101000a900473ffffffffffffffffffffffffffffffffffffffff1673ffffffffffffffffffffffffffffffffffffffff163373ffffffffffffffffffffffffffffffffffffffff161461070e576040517f08c379a0000000000000000000000000000000000000000000000000000000008152600401610705906111ec565b60405180910390fd5b6000612710600754600354610723919061123b565b61072d91906112c4565b905060008160035461073f91906112f5565b9050600260009054906101000a900473ffffffffffffffffffffffffffffffffffffffff1673ffffffffffffffffffffffffffffffffffffffff166323b872dd600160009054906101000a900473ffffffffffffffffffffffffffffffffffffffff16600060029054906101000a900473ffffffffffffffffffffffffffffffffffffffff16846040518463ffffffff1660e01b81526004016107e49392919061134b565b6020604051808303816000875af1158015610803573d6000803e3d6000fd5b505050506040513d601f19601f8201168201806040525081019061082791906113bf565b610866576040517f08c379a000000000000000000000000000000000000000000000000000000000815260040161085d90611438565b60405180910390fd5b60036000806101000a81548160ff0219169083600481111561088b5761088a610e58565b5b02179055506000600160009054906101000a900473ffffffffffffffffffffffffffffffffffffffff1673ffffffffffffffffffffffffffffffffffffffff166005546040516108da9061111f565b60006040518083038185875af1925050503d8060008114610917576040519150601f19603f3d011682016040523d82523d6000602084013e61091c565b606091505b5050905080610960576040517f08c379a0000000000000000000000000000000000000000000000000000000008152600401610957906114a4565b60405180910390fd5b3373ffffffffffffffffffffffffffffffffffffffff167fc7ce0a35f17b490de2a317e7fecb2cae86b1abffb03800b2f49282352138269883856040516109a89291906114c4565b60405180910390a2505050565b60055481565b600160048111156109cf576109ce610e58565b5b60008054906101000a900460ff1660048111156109ef576109ee610e58565b5b14610a2f576040517f08c379a0000000000000000000000000000000000000000000000000000000008152600401610a2690611539565b60405180910390fd5b600060029054906101000a900473ffffffffffffffffffffffffffffffffffffffff1673ffffffffffffffffffffffffffffffffffffffff163373ffffffffffffffffffffffffffffffffffffffff1603610abf576040517f08c379a0000000000000000000000000000000000000000000000000000000008152600401610ab6906115a5565b60405180910390fd5b6005543414610b03576040517f08c379a0000000000000000000000000000000000000000000000000000000008152600401610afa90611611565b60405180910390fd5b33600160006101000a81548173ffffffffffffffffffffffffffffffffffffffff021916908373ffffffffffffffffffffffffffffffffffffffff16021790555060026000806101000a81548160ff02191690836004811115610b6957610b68610e58565b5b0217905550565b600160009054906101000a900473ffffffffffffffffffffffffffffffffffffffff1681565b60075481565b60006004811115610bb057610baf610e58565b5b60008054906101000a900460ff166004811115610bd057610bcf610e58565b5b14610c10576040517f08c379a0000000000000000000000000000000000000000000000000000000008152600401610c079061167d565b60405180910390fd5b600060029054906101000a900473ffffffffffffffffffffffffffffffffffffffff1673ffffffffffffffffffffffffffffffffffffffff163373ffffffffffffffffffffffffffffffffffffffff1614610ca0576040517f08c379a0000000000000000000000000000000000000000000000000000000008152600401610c97906116e9565b60405180910390fd5b60016000806101000a81548160ff02191690836004811115610cc557610cc4610e58565b5b0217905550565b60065481565b600060029054906101000a900473ffffffffffffffffffffffffffffffffffffffff1681565b600260009054906101000a900473ffffffffffffffffffffffffffffffffffffffff1681565b60008054906101000a900460ff1681565b600060019054906101000a900460ff1681565b60085481565b60045481565b6000819050919050565b610d6181610d4e565b82525050565b6000602082019050610d7c6000830184610d58565b92915050565b600073ffffffffffffffffffffffffffffffffffffffff82169050919050565b6000610dad82610d82565b9050919050565b610dbd81610da2565b82525050565b6000602082019050610dd86000830184610db4565b92915050565b6000819050919050565b6000610e03610dfe610df984610d82565b610dde565b610d82565b9050919050565b6000610e1582610de8565b9050919050565b6000610e2782610e0a565b9050919050565b610e3781610e1c565b82525050565b6000602082019050610e526000830184610e2e565b92915050565b7f4e487b7100000000000000000000000000000000000000000000000000000000600052602160045260246000fd5b60058110610e9857610e97610e58565b5b50565b6000819050610ea982610e87565b919050565b6000610eb982610e9b565b9050919050565b610ec981610eae565b82525050565b6000602082019050610ee46000830184610ec0565b92915050565b60028110610efb57610efa610e58565b5b50565b6000819050610f0c82610eea565b919050565b6000610f1c82610efe565b9050919050565b610f2c81610f11565b82525050565b6000602082019050610f476000830184610f23565b92915050565b600082825260208201905092915050565b7f4c6f616e206973206e6f7420696e2054616b656e207374617465000000000000600082015250565b6000610f94601a83610f4d565b9150610f9f82610f5e565b602082019050919050565b60006020820190508181036000830152610fc381610f87565b9050919050565b7f52657061796d656e7420646561646c696e6520686173206e6f7420706173736560008201527f6400000000000000000000000000000000000000000000000000000000000000602082015250565b6000611026602183610f4d565b915061103182610fca565b604082019050919050565b6000602082019050818103600083015261105581611019565b9050919050565b7f4f6e6c79206c656e6465722063616e206c697175696461746520746865206c6f60008201527f616e000000000000000000000000000000000000000000000000000000000000602082015250565b60006110b8602283610f4d565b91506110c38261105c565b604082019050919050565b600060208201905081810360008301526110e7816110ab565b9050919050565b600081905092915050565b50565b60006111096000836110ee565b9150611114826110f9565b600082019050919050565b600061112a826110fc565b9150819050919050565b7f436f6c6c61746572616c207472616e73666572206661696c6564000000000000600082015250565b600061116a601a83610f4d565b915061117582611134565b602082019050919050565b600060208201905081810360008301526111998161115d565b9050919050565b7f4f6e6c7920626f72726f7765722063616e20726570617920746865206c6f616e600082015250565b60006111d6602083610f4d565b91506111e1826111a0565b602082019050919050565b60006020820190508181036000830152611205816111c9565b9050919050565b7f4e487b7100000000000000000000000000000000000000000000000000000000600052601160045260246000fd5b600061124682610d4e565b915061125183610d4e565b9250817fffffffffffffffffffffffffffffffffffffffffffffffffffffffffffffffff048311821515161561128a5761128961120c565b5b828202905092915050565b7f4e487b7100000000000000000000000000000000000000000000000000000000600052601260045260246000fd5b60006112cf82610d4e565b91506112da83610d4e565b9250826112ea576112e9611295565b5b828204905092915050565b600061130082610d4e565b915061130b83610d4e565b9250827fffffffffffffffffffffffffffffffffffffffffffffffffffffffffffffffff038211156113405761133f61120c565b5b828201905092915050565b60006060820190506113606000830186610db4565b61136d6020830185610db4565b61137a6040830184610d58565b949350505050565b600080fd5b60008115159050919050565b61139c81611387565b81146113a757600080fd5b50565b6000815190506113b981611393565b92915050565b6000602082840312156113d5576113d4611382565b5b60006113e3848285016113aa565b91505092915050565b7f444149207472616e73666572206661696c656400000000000000000000000000600082015250565b6000611422601383610f4d565b915061142d826113ec565b602082019050919050565b6000602082019050818103600083015261145181611415565b9050919050565b7f436f6c6c61746572616c20726566756e64206661696c65640000000000000000600082015250565b600061148e601883610f4d565b915061149982611458565b602082019050919050565b600060208201905081810360008301526114bd81611481565b9050919050565b60006040820190506114d96000830185610d58565b6114e66020830184610d58565b9392505050565b7f4c6f616e206973206e6f7420696e2046756e6465642073746174650000000000600082015250565b6000611523601b83610f4d565b915061152e826114ed565b602082019050919050565b6000602082019050818103600083015261155281611516565b9050919050565b7f4c656e6465722063616e6e6f742074616b6520746865206c6f616e0000000000600082015250565b600061158f601b83610f4d565b915061159a82611559565b602082019050919050565b600060208201905081810360008301526115be81611582565b9050919050565b7f496e636f727265637420636f6c6c61746572616c20616d6f756e740000000000600082015250565b60006115fb601b83610f4d565b9150611606826115c5565b602082019050919050565b6000602082019050818103600083015261162a816115ee565b9050919050565b7f4c6f616e206973206e6f7420696e204372656174656420737461746500000000600082015250565b6000611667601c83610f4d565b915061167282611631565b602082019050919050565b600060208201905081810360008301526116968161165a565b9050919050565b7f4f6e6c79206c656e6465722063616e2066756e6420746865206c6f616e000000600082015250565b60006116d3601d83610f4d565b91506116de8261169d565b602082019050919050565b60006020820190508181036000830152611702816116c6565b905091905056fea2646970667358221220f1717a10a9db763c0fb1ef32035a47022f743fee5c5ebafec5721c3ee7260c7464736f6c634300080d0033",
  "immutableReferences": {},
  "source": "// SPDX-License-Identifier: UNLICENSED\r\npragma solidity ^0.8.13;\r\nimport {IERC20} from \"./IERC20.sol\";\r\nimport \"hardhat/console.sol\";\r\n\r\ncontract LoanRequest {\r\n    enum LoanState { Created, Funded, Taken, Repaid, Liquidated }\r\n    enum InterestRateType { Fixed, Floating }\r\n\r\n    LoanState public state;\r\n    InterestRateType public currentRateType;\r\n\r\n    address public lender;\r\n    address public borrower;\r\n    IERC20 public daiToken;\r\n    uint256 public loanDaiAmount;\r\n    uint256 public feeDaiAmount;\r\n    uint256 public ethCollateralAmount;\r\n    uint256 public repayByTimestamp;\r\n    uint256 public fixedRate; // in basis points\r\n    uint256 public floatingRate; // in basis points\r\n\r\n    constructor(\r\n        uint256 _loanDaiAmount,\r\n        uint256 _feeDaiAmount,\r\n        uint256 _ethCollateralAmount,\r\n        uint256 _repayByTimestamp,\r\n        uint256 _fixedRate,\r\n        uint256 _floatingRate,\r\n        address _daiToken\r\n    ) {\r\n        lender = msg.sender;\r\n        loanDaiAmount = _loanDaiAmount;\r\n        feeDaiAmount = _feeDaiAmount;\r\n        ethCollateralAmount = _ethCollateralAmount;\r\n        repayByTimestamp = _repayByTimestamp;\r\n        fixedRate = _fixedRate;\r\n        floatingRate = _floatingRate;\r\n        daiToken = IERC20(_daiToken);\r\n        state = LoanState.Created;\r\n        currentRateType = InterestRateType.Fixed; // Default to fixed rate\r\n    }\r\n\r\n    function fundLoan() external {\r\n        require(state == LoanState.Created, \"Loan is not in Created state\");\r\n        require(msg.sender == lender, \"Only lender can fund the loan\");\r\n        state = LoanState.Funded;\r\n    }\r\n\r\n    function takeALoanAndAcceptLoanTerms() external payable {\r\n        require(state == LoanState.Funded, \"Loan is not in Funded state\");\r\n        require(msg.sender != lender, \"Lender cannot take the loan\");\r\n        require(msg.value == ethCollateralAmount, \"Incorrect collateral amount\");\r\n        borrower = msg.sender;\r\n        state = LoanState.Taken;\r\n    }\r\n\r\n    function repay() external {\r\n        require(state == LoanState.Taken, \"Loan is not in Taken state\");\r\n        require(msg.sender == borrower, \"Only borrower can repay the loan\");\r\n\r\n        uint256 interestPaid = (loanDaiAmount * fixedRate) / 10000; // Using fixed rate for now\r\n        uint256 repaymentAmount = loanDaiAmount + interestPaid;\r\n\r\n        require(daiToken.transferFrom(borrower, lender, repaymentAmount), \"DAI transfer failed\");\r\n\r\n        state = LoanState.Repaid;\r\n\r\n        (bool success,) = borrower.call{value: ethCollateralAmount}(\"\");\r\n        require(success, \"Collateral refund failed\");\r\n\r\n        emit LoanRepaid(msg.sender, repaymentAmount, interestPaid);\r\n    }\r\n\r\n    function liquidate() external {\r\n        require(state == LoanState.Taken, \"Loan is not in Taken state\");\r\n        require(block.timestamp > repayByTimestamp, \"Repayment deadline has not passed\");\r\n        require(msg.sender == lender, \"Only lender can liquidate the loan\");\r\n\r\n        state = LoanState.Liquidated;\r\n\r\n        (bool success,) = lender.call{value: ethCollateralAmount}(\"\");\r\n        require(success, \"Collateral transfer failed\");\r\n\r\n        emit LoanLiquidated(borrower, lender, ethCollateralAmount);\r\n    }\r\n\r\n    event LoanRepaid(address indexed borrower, uint256 repaymentAmount, uint256 interestPaid);\r\n    event LoanLiquidated(address indexed borrower, address indexed lender, uint256 collateralAmount);\r\n}\r\n",
  "sourcePath": "C:\\Users\\Bakri\\IdeaProjects\\Loan Switching Smart Contract\\src\\contracts\\LoanRequest.sol",
  "compiler": {
    "name": "solc",
    "version": "0.8.13+commit.abaa5c0e.Emscripten.clang"
  },
  "schemaVersion": "3.4.16",
  "updatedAt": "2025-02-21T17:53:45.448Z",
  "networkType": "ethereum",
  "devdoc": {
    "kind": "dev",
    "methods": {},
    "version": 1
  },
  "userdoc": {
    "kind": "user",
    "methods": {},
    "version": 1
  }
}