{
  "contractName": "LoanRequest",
  "abi": [
    {
      "inputs": [
        {
          "internalType": "uint256",
          "name": "_loanDaiAmount",
          "type": "uint256"
        },
        {
          "internalType": "uint256",
          "name": "_feeDaiAmount",
          "type": "uint256"
        },
        {
          "internalType": "uint256",
          "name": "_ethCollateralAmount",
          "type": "uint256"
        },
        {
          "internalType": "uint256",
          "name": "_repayByTimestamp",
          "type": "uint256"
        },
        {
          "internalType": "uint256",
          "name": "_fixedRate",
          "type": "uint256"
        },
        {
          "internalType": "uint256",
          "name": "_floatingRate",
          "type": "uint256"
        },
        {
          "internalType": "address",
          "name": "_daiToken",
          "type": "address"
        },
        {
          "internalType": "address",
          "name": "_oracleAddress",
          "type": "address"
        }
      ],
      "stateMutability": "nonpayable",
      "type": "constructor"
    },
    {
      "anonymous": false,
      "inputs": [
        {
          "indexed": true,
          "internalType": "address",
          "name": "borrower",
          "type": "address"
        },
        {
          "indexed": true,
          "internalType": "address",
          "name": "lender",
          "type": "address"
        },
        {
          "indexed": false,
          "internalType": "uint256",
          "name": "collateralAmount",
          "type": "uint256"
        }
      ],
      "name": "LoanLiquidated",
      "type": "event"
    },
    {
      "anonymous": false,
      "inputs": [
        {
          "indexed": true,
          "internalType": "address",
          "name": "borrower",
          "type": "address"
        },
        {
          "indexed": false,
          "internalType": "uint256",
          "name": "repaymentAmount",
          "type": "uint256"
        },
        {
          "indexed": false,
          "internalType": "uint256",
          "name": "interestPaid",
          "type": "uint256"
        }
      ],
      "name": "LoanRepaid",
      "type": "event"
    },
    {
      "inputs": [],
      "name": "borrower",
      "outputs": [
        {
          "internalType": "address",
          "name": "",
          "type": "address"
        }
      ],
      "stateMutability": "view",
      "type": "function"
    },
    {
      "inputs": [],
      "name": "currentRateType",
      "outputs": [
        {
          "internalType": "enum LoanRequest.InterestRateType",
          "name": "",
          "type": "uint8"
        }
      ],
      "stateMutability": "view",
      "type": "function"
    },
    {
      "inputs": [],
      "name": "daiToken",
      "outputs": [
        {
          "internalType": "contract IERC20",
          "name": "",
          "type": "address"
        }
      ],
      "stateMutability": "view",
      "type": "function"
    },
    {
      "inputs": [],
      "name": "ethCollateralAmount",
      "outputs": [
        {
          "internalType": "uint256",
          "name": "",
          "type": "uint256"
        }
      ],
      "stateMutability": "view",
      "type": "function"
    },
    {
      "inputs": [],
      "name": "feeDaiAmount",
      "outputs": [
        {
          "internalType": "uint256",
          "name": "",
          "type": "uint256"
        }
      ],
      "stateMutability": "view",
      "type": "function"
    },
    {
      "inputs": [],
      "name": "fixedRate",
      "outputs": [
        {
          "internalType": "uint256",
          "name": "",
          "type": "uint256"
        }
      ],
      "stateMutability": "view",
      "type": "function"
    },
    {
      "inputs": [],
      "name": "floatingRate",
      "outputs": [
        {
          "internalType": "uint256",
          "name": "",
          "type": "uint256"
        }
      ],
      "stateMutability": "view",
      "type": "function"
    },
    {
      "inputs": [],
      "name": "lender",
      "outputs": [
        {
          "internalType": "address",
          "name": "",
          "type": "address"
        }
      ],
      "stateMutability": "view",
      "type": "function"
    },
    {
      "inputs": [],
      "name": "loanDaiAmount",
      "outputs": [
        {
          "internalType": "uint256",
          "name": "",
          "type": "uint256"
        }
      ],
      "stateMutability": "view",
      "type": "function"
    },
    {
      "inputs": [],
      "name": "repayByTimestamp",
      "outputs": [
        {
          "internalType": "uint256",
          "name": "",
          "type": "uint256"
        }
      ],
      "stateMutability": "view",
      "type": "function"
    },
    {
      "inputs": [],
      "name": "state",
      "outputs": [
        {
          "internalType": "enum LoanRequest.LoanState",
          "name": "",
          "type": "uint8"
        }
      ],
      "stateMutability": "view",
      "type": "function"
    },
    {
      "inputs": [],
      "name": "fundLoan",
      "outputs": [],
      "stateMutability": "nonpayable",
      "type": "function"
    },
    {
      "inputs": [],
      "name": "takeALoanAndAcceptLoanTerms",
      "outputs": [],
      "stateMutability": "payable",
      "type": "function"
    },
    {
      "inputs": [],
      "name": "repay",
      "outputs": [],
      "stateMutability": "nonpayable",
      "type": "function"
    },
    {
      "inputs": [],
      "name": "liquidate",
      "outputs": [],
      "stateMutability": "nonpayable",
      "type": "function"
    },
    {
      "inputs": [],
      "name": "updateFloatingRate",
      "outputs": [],
      "stateMutability": "nonpayable",
      "type": "function"
    }
  ],
  "bytecode": "0x60806040523480156200001157600080fd5b5060405162001a9d38038062001a9d833981810160405281019062000037919062000231565b33600160006101000a81548173ffffffffffffffffffffffffffffffffffffffff021916908373ffffffffffffffffffffffffffffffffffffffff16021790555087600481905550866005819055508560068190555084600781905550836008819055508260098190555081600360006101000a81548173ffffffffffffffffffffffffffffffffffffffff021916908373ffffffffffffffffffffffffffffffffffffffff16021790555060008060006101000a81548160ff021916908360048111156200010b576200010a620002fa565b5b021790555060008060016101000a81548160ff02191690836001811115620001385762000137620002fa565b5b021790555080600060026101000a81548173ffffffffffffffffffffffffffffffffffffffff021916908373ffffffffffffffffffffffffffffffffffffffff160217905550505050505050505062000329565b600080fd5b6000819050919050565b620001a68162000191565b8114620001b257600080fd5b50565b600081519050620001c6816200019b565b92915050565b600073ffffffffffffffffffffffffffffffffffffffff82169050919050565b6000620001f982620001cc565b9050919050565b6200020b81620001ec565b81146200021757600080fd5b50565b6000815190506200022b8162000200565b92915050565b600080600080600080600080610100898b0312156200025557620002546200018c565b5b6000620002658b828c01620001b5565b9850506020620002788b828c01620001b5565b97505060406200028b8b828c01620001b5565b96505060606200029e8b828c01620001b5565b9550506080620002b18b828c01620001b5565b94505060a0620002c48b828c01620001b5565b93505060c0620002d78b828c016200021a565b92505060e0620002ea8b828c016200021a565b9150509295985092959890939650565b7f4e487b7100000000000000000000000000000000000000000000000000000000600052602160045260246000fd5b61176480620003396000396000f3fe6080604052600436106100f35760003560e01c80638db579941161008a578063c19d93fb11610059578063c19d93fb1461028b578063f5513354146102b6578063f71dd46c146102e1578063fb760d821461030c576100f3565b80638db57994146101f3578063ab2078d11461020a578063bcead63e14610235578063be22f54614610260576100f3565b80634c4b28f6116100c65780634c4b28f61461017c57806374eddc19146101865780637df1f1b91461019d578063802d1422146101c8576100f3565b806328a07025146100f85780632c3fecd11461010f578063402d88831461013a57806344d0d0c614610151575b600080fd5b34801561010457600080fd5b5061010d610337565b005b34801561011b57600080fd5b50610124610627565b6040516101319190610d8c565b60405180910390f35b34801561014657600080fd5b5061014f61062d565b005b34801561015d57600080fd5b506101666109d8565b6040516101739190610d8c565b60405180910390f35b6101846109de565b005b34801561019257600080fd5b5061019b610b93565b005b3480156101a957600080fd5b506101b2610b95565b6040516101bf9190610de8565b60405180910390f35b3480156101d457600080fd5b506101dd610bbb565b6040516101ea9190610d8c565b60405180910390f35b3480156101ff57600080fd5b50610208610bc1565b005b34801561021657600080fd5b5061021f610cf1565b60405161022c9190610d8c565b60405180910390f35b34801561024157600080fd5b5061024a610cf7565b6040516102579190610de8565b60405180910390f35b34801561026c57600080fd5b50610275610d1d565b6040516102829190610e62565b60405180910390f35b34801561029757600080fd5b506102a0610d43565b6040516102ad9190610ef4565b60405180910390f35b3480156102c257600080fd5b506102cb610d54565b6040516102d89190610f57565b60405180910390f35b3480156102ed57600080fd5b506102f6610d67565b6040516103039190610d8c565b60405180910390f35b34801561031857600080fd5b50610321610d6d565b60405161032e9190610d8c565b60405180910390f35b6002600481111561034b5761034a610e7d565b5b60008054906101000a900460ff16600481111561036b5761036a610e7d565b5b146103ab576040517f08c379a00000000000000000000000000000000000000000000000000000000081526004016103a290610fcf565b60405180910390fd5b60075442116103ef576040517f08c379a00000000000000000000000000000000000000000000000000000000081526004016103e690611061565b60405180910390fd5b600160009054906101000a900473ffffffffffffffffffffffffffffffffffffffff1673ffffffffffffffffffffffffffffffffffffffff163373ffffffffffffffffffffffffffffffffffffffff161461047f576040517f08c379a0000000000000000000000000000000000000000000000000000000008152600401610476906110f3565b60405180910390fd5b60046000806101000a81548160ff021916908360048111156104a4576104a3610e7d565b5b02179055506000600160009054906101000a900473ffffffffffffffffffffffffffffffffffffffff1673ffffffffffffffffffffffffffffffffffffffff166006546040516104f390611144565b60006040518083038185875af1925050503d8060008114610530576040519150601f19603f3d011682016040523d82523d6000602084013e610535565b606091505b5050905080610579576040517f08c379a0000000000000000000000000000000000000000000000000000000008152600401610570906111a5565b60405180910390fd5b600160009054906101000a900473ffffffffffffffffffffffffffffffffffffffff1673ffffffffffffffffffffffffffffffffffffffff16600260009054906101000a900473ffffffffffffffffffffffffffffffffffffffff1673ffffffffffffffffffffffffffffffffffffffff167fd4bfdcd3d7029abe0d70d4a6f1f560c5eac8d3cd6ecef801c6d3d67a49be606860065460405161061c9190610d8c565b60405180910390a350565b60045481565b6002600481111561064157610640610e7d565b5b60008054906101000a900460ff16600481111561066157610660610e7d565b5b146106a1576040517f08c379a000000000000000000000000000000000000000000000000000000000815260040161069890610fcf565b60405180910390fd5b600260009054906101000a900473ffffffffffffffffffffffffffffffffffffffff1673ffffffffffffffffffffffffffffffffffffffff163373ffffffffffffffffffffffffffffffffffffffff1614610731576040517f08c379a000000000000000000000000000000000000000000000000000000000815260040161072890611211565b60405180910390fd5b60006127106008546004546107469190611260565b61075091906112e9565b9050600081600454610762919061131a565b9050600360009054906101000a900473ffffffffffffffffffffffffffffffffffffffff1673ffffffffffffffffffffffffffffffffffffffff166323b872dd600260009054906101000a900473ffffffffffffffffffffffffffffffffffffffff16600160009054906101000a900473ffffffffffffffffffffffffffffffffffffffff16846040518463ffffffff1660e01b815260040161080793929190611370565b6020604051808303816000875af1158015610826573d6000803e3d6000fd5b505050506040513d601f19601f8201168201806040525081019061084a91906113e4565b610889576040517f08c379a00000000000000000000000000000000000000000000000000000000081526004016108809061145d565b60405180910390fd5b60036000806101000a81548160ff021916908360048111156108ae576108ad610e7d565b5b02179055506000600260009054906101000a900473ffffffffffffffffffffffffffffffffffffffff1673ffffffffffffffffffffffffffffffffffffffff166006546040516108fd90611144565b60006040518083038185875af1925050503d806000811461093a576040519150601f19603f3d011682016040523d82523d6000602084013e61093f565b606091505b5050905080610983576040517f08c379a000000000000000000000000000000000000000000000000000000000815260040161097a906114c9565b60405180910390fd5b3373ffffffffffffffffffffffffffffffffffffffff167fc7ce0a35f17b490de2a317e7fecb2cae86b1abffb03800b2f49282352138269883856040516109cb9291906114e9565b60405180910390a2505050565b60065481565b600160048111156109f2576109f1610e7d565b5b60008054906101000a900460ff166004811115610a1257610a11610e7d565b5b14610a52576040517f08c379a0000000000000000000000000000000000000000000000000000000008152600401610a499061155e565b60405180910390fd5b600160009054906101000a900473ffffffffffffffffffffffffffffffffffffffff1673ffffffffffffffffffffffffffffffffffffffff163373ffffffffffffffffffffffffffffffffffffffff1603610ae2576040517f08c379a0000000000000000000000000000000000000000000000000000000008152600401610ad9906115ca565b60405180910390fd5b6006543414610b26576040517f08c379a0000000000000000000000000000000000000000000000000000000008152600401610b1d90611636565b60405180910390fd5b33600260006101000a81548173ffffffffffffffffffffffffffffffffffffffff021916908373ffffffffffffffffffffffffffffffffffffffff16021790555060026000806101000a81548160ff02191690836004811115610b8c57610b8b610e7d565b5b0217905550565b565b600260009054906101000a900473ffffffffffffffffffffffffffffffffffffffff1681565b60085481565b60006004811115610bd557610bd4610e7d565b5b60008054906101000a900460ff166004811115610bf557610bf4610e7d565b5b14610c35576040517f08c379a0000000000000000000000000000000000000000000000000000000008152600401610c2c906116a2565b60405180910390fd5b600160009054906101000a900473ffffffffffffffffffffffffffffffffffffffff1673ffffffffffffffffffffffffffffffffffffffff163373ffffffffffffffffffffffffffffffffffffffff1614610cc5576040517f08c379a0000000000000000000000000000000000000000000000000000000008152600401610cbc9061170e565b60405180910390fd5b60016000806101000a81548160ff02191690836004811115610cea57610ce9610e7d565b5b0217905550565b60075481565b600160009054906101000a900473ffffffffffffffffffffffffffffffffffffffff1681565b600360009054906101000a900473ffffffffffffffffffffffffffffffffffffffff1681565b60008054906101000a900460ff1681565b600060019054906101000a900460ff1681565b60095481565b60055481565b6000819050919050565b610d8681610d73565b82525050565b6000602082019050610da16000830184610d7d565b92915050565b600073ffffffffffffffffffffffffffffffffffffffff82169050919050565b6000610dd282610da7565b9050919050565b610de281610dc7565b82525050565b6000602082019050610dfd6000830184610dd9565b92915050565b6000819050919050565b6000610e28610e23610e1e84610da7565b610e03565b610da7565b9050919050565b6000610e3a82610e0d565b9050919050565b6000610e4c82610e2f565b9050919050565b610e5c81610e41565b82525050565b6000602082019050610e776000830184610e53565b92915050565b7f4e487b7100000000000000000000000000000000000000000000000000000000600052602160045260246000fd5b60058110610ebd57610ebc610e7d565b5b50565b6000819050610ece82610eac565b919050565b6000610ede82610ec0565b9050919050565b610eee81610ed3565b82525050565b6000602082019050610f096000830184610ee5565b92915050565b60028110610f2057610f1f610e7d565b5b50565b6000819050610f3182610f0f565b919050565b6000610f4182610f23565b9050919050565b610f5181610f36565b82525050565b6000602082019050610f6c6000830184610f48565b92915050565b600082825260208201905092915050565b7f4c6f616e206973206e6f7420696e2054616b656e207374617465000000000000600082015250565b6000610fb9601a83610f72565b9150610fc482610f83565b602082019050919050565b60006020820190508181036000830152610fe881610fac565b9050919050565b7f52657061796d656e7420646561646c696e6520686173206e6f7420706173736560008201527f6400000000000000000000000000000000000000000000000000000000000000602082015250565b600061104b602183610f72565b915061105682610fef565b604082019050919050565b6000602082019050818103600083015261107a8161103e565b9050919050565b7f4f6e6c79206c656e6465722063616e206c697175696461746520746865206c6f60008201527f616e000000000000000000000000000000000000000000000000000000000000602082015250565b60006110dd602283610f72565b91506110e882611081565b604082019050919050565b6000602082019050818103600083015261110c816110d0565b9050919050565b600081905092915050565b50565b600061112e600083611113565b91506111398261111e565b600082019050919050565b600061114f82611121565b9150819050919050565b7f436f6c6c61746572616c207472616e73666572206661696c6564000000000000600082015250565b600061118f601a83610f72565b915061119a82611159565b602082019050919050565b600060208201905081810360008301526111be81611182565b9050919050565b7f4f6e6c7920626f72726f7765722063616e20726570617920746865206c6f616e600082015250565b60006111fb602083610f72565b9150611206826111c5565b602082019050919050565b6000602082019050818103600083015261122a816111ee565b9050919050565b7f4e487b7100000000000000000000000000000000000000000000000000000000600052601160045260246000fd5b600061126b82610d73565b915061127683610d73565b9250817fffffffffffffffffffffffffffffffffffffffffffffffffffffffffffffffff04831182151516156112af576112ae611231565b5b828202905092915050565b7f4e487b7100000000000000000000000000000000000000000000000000000000600052601260045260246000fd5b60006112f482610d73565b91506112ff83610d73565b92508261130f5761130e6112ba565b5b828204905092915050565b600061132582610d73565b915061133083610d73565b9250827fffffffffffffffffffffffffffffffffffffffffffffffffffffffffffffffff0382111561136557611364611231565b5b828201905092915050565b60006060820190506113856000830186610dd9565b6113926020830185610dd9565b61139f6040830184610d7d565b949350505050565b600080fd5b60008115159050919050565b6113c1816113ac565b81146113cc57600080fd5b50565b6000815190506113de816113b8565b92915050565b6000602082840312156113fa576113f96113a7565b5b6000611408848285016113cf565b91505092915050565b7f444149207472616e73666572206661696c656400000000000000000000000000600082015250565b6000611447601383610f72565b915061145282611411565b602082019050919050565b600060208201905081810360008301526114768161143a565b9050919050565b7f436f6c6c61746572616c20726566756e64206661696c65640000000000000000600082015250565b60006114b3601883610f72565b91506114be8261147d565b602082019050919050565b600060208201905081810360008301526114e2816114a6565b9050919050565b60006040820190506114fe6000830185610d7d565b61150b6020830184610d7d565b9392505050565b7f4c6f616e206973206e6f7420696e2046756e6465642073746174650000000000600082015250565b6000611548601b83610f72565b915061155382611512565b602082019050919050565b600060208201905081810360008301526115778161153b565b9050919050565b7f4c656e6465722063616e6e6f742074616b6520746865206c6f616e0000000000600082015250565b60006115b4601b83610f72565b91506115bf8261157e565b602082019050919050565b600060208201905081810360008301526115e3816115a7565b9050919050565b7f496e636f727265637420636f6c6c61746572616c20616d6f756e740000000000600082015250565b6000611620601b83610f72565b915061162b826115ea565b602082019050919050565b6000602082019050818103600083015261164f81611613565b9050919050565b7f4c6f616e206973206e6f7420696e204372656174656420737461746500000000600082015250565b600061168c601c83610f72565b915061169782611656565b602082019050919050565b600060208201905081810360008301526116bb8161167f565b9050919050565b7f4f6e6c79206c656e6465722063616e2066756e6420746865206c6f616e000000600082015250565b60006116f8601d83610f72565b9150611703826116c2565b602082019050919050565b60006020820190508181036000830152611727816116eb565b905091905056fea26469706673582212201dc0faed5c02158e892fd6342b75eb03e0ec557f927194c0249862e0b326f0bd64736f6c634300080d0033",
  "immutableReferences": {},
  "source": "// SPDX-License-Identifier: UNLICENSED\r\npragma solidity ^0.8.13;\r\nimport {IERC20} from \"./IERC20.sol\";\r\nimport \"hardhat/console.sol\";\r\nimport {AggregatorV3Interface} from \"./AggregatorV3Interface.sol\";\r\n\r\n\r\ncontract LoanRequest {\r\n    enum LoanState { Created, Funded, Taken, Repaid, Liquidated }\r\n    enum InterestRateType { Fixed, Floating }\r\n\r\n    LoanState public state;\r\n    InterestRateType public currentRateType;\r\n\r\n    AggregatorV3Interface internal interestRateFeed;\r\n\r\n\r\n    address public lender;\r\n    address public borrower;\r\n    IERC20 public daiToken;\r\n    uint256 public loanDaiAmount;\r\n    uint256 public feeDaiAmount;\r\n    uint256 public ethCollateralAmount;\r\n    uint256 public repayByTimestamp;\r\n    uint256 public fixedRate; // in basis points\r\n    uint256 public floatingRate; // in basis points\r\n\r\n    constructor(\r\n        uint256 _loanDaiAmount,\r\n        uint256 _feeDaiAmount,\r\n        uint256 _ethCollateralAmount,\r\n        uint256 _repayByTimestamp,\r\n        uint256 _fixedRate,\r\n        uint256 _floatingRate,\r\n        address _daiToken,\r\n        address _oracleAddress\r\n    ) {\r\n        lender = msg.sender;\r\n        loanDaiAmount = _loanDaiAmount;\r\n        feeDaiAmount = _feeDaiAmount;\r\n        ethCollateralAmount = _ethCollateralAmount;\r\n        repayByTimestamp = _repayByTimestamp;\r\n        fixedRate = _fixedRate;\r\n        floatingRate = _floatingRate;\r\n        daiToken = IERC20(_daiToken);\r\n        state = LoanState.Created;\r\n        currentRateType = InterestRateType.Fixed; // Default to fixed rate\r\n        interestRateFeed = AggregatorV3Interface(_oracleAddress);\r\n    }\r\n\r\n    function fundLoan() external {\r\n        require(state == LoanState.Created, \"Loan is not in Created state\");\r\n        require(msg.sender == lender, \"Only lender can fund the loan\");\r\n        state = LoanState.Funded;\r\n    }\r\n\r\n    function takeALoanAndAcceptLoanTerms() external payable {\r\n        require(state == LoanState.Funded, \"Loan is not in Funded state\");\r\n        require(msg.sender != lender, \"Lender cannot take the loan\");\r\n        require(msg.value == ethCollateralAmount, \"Incorrect collateral amount\");\r\n        borrower = msg.sender;\r\n        state = LoanState.Taken;\r\n    }\r\n\r\n    function repay() external {\r\n        require(state == LoanState.Taken, \"Loan is not in Taken state\");\r\n        require(msg.sender == borrower, \"Only borrower can repay the loan\");\r\n\r\n        uint256 interestPaid = (loanDaiAmount * fixedRate) / 10000; // Using fixed rate for now\r\n        uint256 repaymentAmount = loanDaiAmount + interestPaid;\r\n\r\n        require(daiToken.transferFrom(borrower, lender, repaymentAmount), \"DAI transfer failed\");\r\n\r\n        state = LoanState.Repaid;\r\n\r\n        (bool success,) = borrower.call{value: ethCollateralAmount}(\"\");\r\n        require(success, \"Collateral refund failed\");\r\n\r\n        emit LoanRepaid(msg.sender, repaymentAmount, interestPaid);\r\n    }\r\n\r\n    function liquidate() external {\r\n        require(state == LoanState.Taken, \"Loan is not in Taken state\");\r\n        require(block.timestamp > repayByTimestamp, \"Repayment deadline has not passed\");\r\n        require(msg.sender == lender, \"Only lender can liquidate the loan\");\r\n\r\n        state = LoanState.Liquidated;\r\n\r\n        (bool success,) = lender.call{value: ethCollateralAmount}(\"\");\r\n        require(success, \"Collateral transfer failed\");\r\n\r\n        emit LoanLiquidated(borrower, lender, ethCollateralAmount);\r\n    }\r\n\r\n    function updateFloatingRate() public{\r\n\r\n    }\r\n\r\n    event LoanRepaid(address indexed borrower, uint256 repaymentAmount, uint256 interestPaid);\r\n    event LoanLiquidated(address indexed borrower, address indexed lender, uint256 collateralAmount);\r\n}\r\n",
  "sourcePath": "C:\\Users\\Bakri\\IdeaProjects\\Loan Switching Smart Contract\\src\\contracts\\LoanRequest.sol",
  "compiler": {
    "name": "solc",
    "version": "0.8.13+commit.abaa5c0e.Emscripten.clang"
  },
  "schemaVersion": "3.4.16",
  "updatedAt": "2025-02-22T23:29:51.301Z",
  "devdoc": {
    "kind": "dev",
    "methods": {},
    "version": 1
  },
  "userdoc": {
    "kind": "user",
    "methods": {},
    "version": 1
  }
}