{
  "contractName": "LoanRequest",
  "abi": [
    {
      "inputs": [
        {
          "components": [
            {
              "internalType": "uint256",
              "name": "loanDaiAmount",
              "type": "uint256"
            },
            {
              "internalType": "uint256",
              "name": "feeDaiAmount",
              "type": "uint256"
            },
            {
              "internalType": "uint256",
              "name": "ethCollateralAmount",
              "type": "uint256"
            },
            {
              "internalType": "uint256",
              "name": "repayByTimestamp",
              "type": "uint256"
            },
            {
              "internalType": "uint256",
              "name": "fixedRate",
              "type": "uint256"
            },
            {
              "internalType": "uint256",
              "name": "floatingRate",
              "type": "uint256"
            }
          ],
          "internalType": "struct LoanRequest.Terms",
          "name": "_terms",
          "type": "tuple"
        },
        {
          "internalType": "address",
          "name": "_daiAddress",
          "type": "address"
        }
      ],
      "stateMutability": "nonpayable",
      "type": "constructor"
    },
    {
      "anonymous": false,
      "inputs": [
        {
          "indexed": false,
          "internalType": "uint256",
          "name": "loanDaiAmount",
          "type": "uint256"
        },
        {
          "indexed": false,
          "internalType": "uint256",
          "name": "feeDaiAmount",
          "type": "uint256"
        },
        {
          "indexed": false,
          "internalType": "uint256",
          "name": "ethCollateralAmount",
          "type": "uint256"
        },
        {
          "indexed": false,
          "internalType": "uint256",
          "name": "repayByTimestamp",
          "type": "uint256"
        },
        {
          "indexed": false,
          "internalType": "uint256",
          "name": "fixedRate",
          "type": "uint256"
        },
        {
          "indexed": false,
          "internalType": "uint256",
          "name": "floatingRate",
          "type": "uint256"
        },
        {
          "indexed": false,
          "internalType": "address",
          "name": "daiAddress",
          "type": "address"
        }
      ],
      "name": "ConstructorInitialized",
      "type": "event"
    },
    {
      "anonymous": false,
      "inputs": [
        {
          "indexed": true,
          "internalType": "address",
          "name": "lender",
          "type": "address"
        },
        {
          "indexed": false,
          "internalType": "uint256",
          "name": "loanDaiAmount",
          "type": "uint256"
        }
      ],
      "name": "LoanFunded",
      "type": "event"
    },
    {
      "anonymous": false,
      "inputs": [
        {
          "indexed": true,
          "internalType": "address",
          "name": "lender",
          "type": "address"
        },
        {
          "indexed": false,
          "internalType": "uint256",
          "name": "collateralAmount",
          "type": "uint256"
        }
      ],
      "name": "LoanLiquidated",
      "type": "event"
    },
    {
      "anonymous": false,
      "inputs": [
        {
          "indexed": true,
          "internalType": "address",
          "name": "borrower",
          "type": "address"
        },
        {
          "indexed": false,
          "internalType": "uint256",
          "name": "repaymentAmount",
          "type": "uint256"
        },
        {
          "indexed": false,
          "internalType": "uint256",
          "name": "interestAmount",
          "type": "uint256"
        }
      ],
      "name": "LoanRepaid",
      "type": "event"
    },
    {
      "anonymous": false,
      "inputs": [
        {
          "indexed": true,
          "internalType": "address",
          "name": "borrower",
          "type": "address"
        },
        {
          "indexed": false,
          "internalType": "uint256",
          "name": "collateralAmount",
          "type": "uint256"
        },
        {
          "indexed": false,
          "internalType": "uint256",
          "name": "loanAmount",
          "type": "uint256"
        }
      ],
      "name": "LoanTaken",
      "type": "event"
    },
    {
      "anonymous": false,
      "inputs": [
        {
          "indexed": true,
          "internalType": "address",
          "name": "borrower",
          "type": "address"
        },
        {
          "indexed": false,
          "internalType": "enum LoanRequest.InterestRateType",
          "name": "newLoanType",
          "type": "uint8"
        }
      ],
      "name": "RateSwitched",
      "type": "event"
    },
    {
      "inputs": [],
      "name": "borrower",
      "outputs": [
        {
          "internalType": "address payable",
          "name": "",
          "type": "address"
        }
      ],
      "stateMutability": "view",
      "type": "function",
      "constant": true
    },
    {
      "inputs": [],
      "name": "daiAddress",
      "outputs": [
        {
          "internalType": "address",
          "name": "",
          "type": "address"
        }
      ],
      "stateMutability": "view",
      "type": "function",
      "constant": true
    },
    {
      "inputs": [],
      "name": "lender",
      "outputs": [
        {
          "internalType": "address payable",
          "name": "",
          "type": "address"
        }
      ],
      "stateMutability": "view",
      "type": "function",
      "constant": true
    },
    {
      "inputs": [],
      "name": "rateType",
      "outputs": [
        {
          "internalType": "enum LoanRequest.InterestRateType",
          "name": "",
          "type": "uint8"
        }
      ],
      "stateMutability": "view",
      "type": "function",
      "constant": true
    },
    {
      "inputs": [],
      "name": "state",
      "outputs": [
        {
          "internalType": "enum LoanRequest.LoanState",
          "name": "",
          "type": "uint8"
        }
      ],
      "stateMutability": "view",
      "type": "function",
      "constant": true
    },
    {
      "inputs": [],
      "name": "terms",
      "outputs": [
        {
          "internalType": "uint256",
          "name": "loanDaiAmount",
          "type": "uint256"
        },
        {
          "internalType": "uint256",
          "name": "feeDaiAmount",
          "type": "uint256"
        },
        {
          "internalType": "uint256",
          "name": "ethCollateralAmount",
          "type": "uint256"
        },
        {
          "internalType": "uint256",
          "name": "repayByTimestamp",
          "type": "uint256"
        },
        {
          "internalType": "uint256",
          "name": "fixedRate",
          "type": "uint256"
        },
        {
          "internalType": "uint256",
          "name": "floatingRate",
          "type": "uint256"
        }
      ],
      "stateMutability": "view",
      "type": "function",
      "constant": true
    },
    {
      "inputs": [],
      "name": "fundLoan",
      "outputs": [],
      "stateMutability": "nonpayable",
      "type": "function"
    },
    {
      "inputs": [],
      "name": "takeALoanAndAcceptLoanTerms",
      "outputs": [],
      "stateMutability": "payable",
      "type": "function",
      "payable": true
    },
    {
      "inputs": [],
      "name": "switchRate",
      "outputs": [],
      "stateMutability": "nonpayable",
      "type": "function"
    },
    {
      "inputs": [],
      "name": "repay",
      "outputs": [],
      "stateMutability": "nonpayable",
      "type": "function"
    },
    {
      "inputs": [],
      "name": "liquidate",
      "outputs": [],
      "stateMutability": "nonpayable",
      "type": "function"
    }
  ],
  "bytecode": "0x60806040523480156200001157600080fd5b50604051620026093803806200260983398181016040528101906200003791906200054f565b600073ffffffffffffffffffffffffffffffffffffffff168173ffffffffffffffffffffffffffffffffffffffff1603620000a9576040517f08c379a0000000000000000000000000000000000000000000000000000000008152600401620000a090620005f7565b60405180910390fd5b6000826000015111620000f3576040517f08c379a0000000000000000000000000000000000000000000000000000000008152600401620000ea906200068f565b60405180910390fd5b6000826020015110156200013e576040517f08c379a0000000000000000000000000000000000000000000000000000000008152600401620001359062000701565b60405180910390fd5b600082604001511162000188576040517f08c379a00000000000000000000000000000000000000000000000000000000081526004016200017f9062000799565b60405180910390fd5b42826060015111620001d1576040517f08c379a0000000000000000000000000000000000000000000000000000000008152600401620001c89062000831565b60405180910390fd5b8160008082015181600001556020820151816001015560408201518160020155606082015181600301556080820151816004015560a0820151816005015590505080600860006101000a81548173ffffffffffffffffffffffffffffffffffffffff021916908373ffffffffffffffffffffffffffffffffffffffff16021790555033600660026101000a81548173ffffffffffffffffffffffffffffffffffffffff021916908373ffffffffffffffffffffffffffffffffffffffff1602179055506000600660006101000a81548160ff02191690836004811115620002bd57620002bc62000853565b5b02179055506000600660016101000a81548160ff02191690836001811115620002eb57620002ea62000853565b5b02179055507fb38c181517a614c0ecdb27aea5c0ee553c4be7930c359ebf0eb40693cacc1231826000015183602001518460400151856060015186608001518760a0015187604051620003459796959493929190620008a4565b60405180910390a1505062000921565b6000604051905090565b600080fd5b600080fd5b6000601f19601f8301169050919050565b7f4e487b7100000000000000000000000000000000000000000000000000000000600052604160045260246000fd5b620003b48262000369565b810181811067ffffffffffffffff82111715620003d657620003d56200037a565b5b80604052505050565b6000620003eb62000355565b9050620003f98282620003a9565b919050565b6000819050919050565b6200041381620003fe565b81146200041f57600080fd5b50565b600081519050620004338162000408565b92915050565b600060c0828403121562000452576200045162000364565b5b6200045e60c0620003df565b90506000620004708482850162000422565b6000830152506020620004868482850162000422565b60208301525060406200049c8482850162000422565b6040830152506060620004b28482850162000422565b6060830152506080620004c88482850162000422565b60808301525060a0620004de8482850162000422565b60a08301525092915050565b600073ffffffffffffffffffffffffffffffffffffffff82169050919050565b60006200051782620004ea565b9050919050565b62000529816200050a565b81146200053557600080fd5b50565b60008151905062000549816200051e565b92915050565b60008060e083850312156200056957620005686200035f565b5b6000620005798582860162000439565b92505060c06200058c8582860162000538565b9150509250929050565b600082825260208201905092915050565b7f496e76616c696420444149206164647265737300000000000000000000000000600082015250565b6000620005df60138362000596565b9150620005ec82620005a7565b602082019050919050565b600060208201905081810360008301526200061281620005d0565b9050919050565b7f4c6f616e20616d6f756e74206d7573742062652067726561746572207468616e60008201527f2030000000000000000000000000000000000000000000000000000000000000602082015250565b60006200067760228362000596565b9150620006848262000619565b604082019050919050565b60006020820190508181036000830152620006aa8162000668565b9050919050565b7f466565206d757374206265206e6f6e2d6e656761746976650000000000000000600082015250565b6000620006e960188362000596565b9150620006f682620006b1565b602082019050919050565b600060208201905081810360008301526200071c81620006da565b9050919050565b7f436f6c6c61746572616c206d7573742062652067726561746572207468616e2060008201527f3000000000000000000000000000000000000000000000000000000000000000602082015250565b60006200078160218362000596565b91506200078e8262000723565b604082019050919050565b60006020820190508181036000830152620007b48162000772565b9050919050565b7f52657061792074696d657374616d70206d75737420626520696e20746865206660008201527f7574757265000000000000000000000000000000000000000000000000000000602082015250565b60006200081960258362000596565b91506200082682620007bb565b604082019050919050565b600060208201905081810360008301526200084c816200080a565b9050919050565b7f4e487b7100000000000000000000000000000000000000000000000000000000600052602160045260246000fd5b6200088d81620003fe565b82525050565b6200089e816200050a565b82525050565b600060e082019050620008bb600083018a62000882565b620008ca602083018962000882565b620008d9604083018862000882565b620008e8606083018762000882565b620008f7608083018662000882565b6200090660a083018562000882565b6200091560c083018462000893565b98975050505050505050565b611cd880620009316000396000f3fe60806040526004361061009c5760003560e01c80637df1f1b9116100645780637df1f1b91461012f578063818a60f01461015a5780638db5799414610171578063bcead63e14610188578063c19d93fb146101b3578063d5025625146101de5761009c565b806328a07025146100a15780632c387275146100b8578063402d8883146100e35780634c4b28f6146100fa5780636b3f345e14610104575b600080fd5b3480156100ad57600080fd5b506100b661020e565b005b3480156100c457600080fd5b506100cd6104b2565b6040516100da91906111c4565b60405180910390f35b3480156100ef57600080fd5b506100f86104d8565b005b6101026109e0565b005b34801561011057600080fd5b50610119610c65565b6040516101269190611256565b60405180910390f35b34801561013b57600080fd5b50610144610c78565b6040516101519190611292565b60405180910390f35b34801561016657600080fd5b5061016f610c9e565b005b34801561017d57600080fd5b50610186610e73565b005b34801561019457600080fd5b5061019d611120565b6040516101aa9190611292565b60405180910390f35b3480156101bf57600080fd5b506101c8611146565b6040516101d591906112f5565b60405180910390f35b3480156101ea57600080fd5b506101f3611159565b60405161020596959493929190611329565b60405180910390f35b6002806004811115610223576102226111df565b5b600660009054906101000a900460ff166004811115610245576102446111df565b5b14610285576040517f08c379a000000000000000000000000000000000000000000000000000000000815260040161027c906113e7565b60405180910390fd5b600660029054906101000a900473ffffffffffffffffffffffffffffffffffffffff1673ffffffffffffffffffffffffffffffffffffffff163373ffffffffffffffffffffffffffffffffffffffff1614610315576040517f08c379a000000000000000000000000000000000000000000000000000000000815260040161030c90611453565b60405180910390fd5b60006003015442101561035d576040517f08c379a0000000000000000000000000000000000000000000000000000000008152600401610354906114e5565b60405180910390fd5b6004600660006101000a81548160ff02191690836004811115610383576103826111df565b5b02179055506000600660029054906101000a900473ffffffffffffffffffffffffffffffffffffffff1673ffffffffffffffffffffffffffffffffffffffff166000600201546040516103d590611536565b60006040518083038185875af1925050503d8060008114610412576040519150601f19603f3d011682016040523d82523d6000602084013e610417565b606091505b505090508061045b576040517f08c379a000000000000000000000000000000000000000000000000000000000815260040161045290611597565b60405180910390fd5b3373ffffffffffffffffffffffffffffffffffffffff167fd75168f1c9346a6c18eaeba0d3c95ea70b5dc2c0c280274a670c97cb8e4f415b6000600201546040516104a691906115b7565b60405180910390a25050565b600860009054906101000a900473ffffffffffffffffffffffffffffffffffffffff1681565b60028060048111156104ed576104ec6111df565b5b600660009054906101000a900460ff16600481111561050f5761050e6111df565b5b1461054f576040517f08c379a0000000000000000000000000000000000000000000000000000000008152600401610546906113e7565b60405180910390fd5b600760009054906101000a900473ffffffffffffffffffffffffffffffffffffffff1673ffffffffffffffffffffffffffffffffffffffff163373ffffffffffffffffffffffffffffffffffffffff16146105df576040517f08c379a00000000000000000000000000000000000000000000000000000000081526004016105d690611644565b60405180910390fd5b60008060018111156105f4576105f36111df565b5b600660019054906101000a900460ff166001811115610616576106156111df565b5b146106265760006005015461062d565b6000600401545b905060006127108260008001546106449190611693565b61064e919061171c565b90506000816000800154610662919061174d565b905080600860009054906101000a900473ffffffffffffffffffffffffffffffffffffffff1673ffffffffffffffffffffffffffffffffffffffff1663dd62ed3e600760009054906101000a900473ffffffffffffffffffffffffffffffffffffffff16306040518363ffffffff1660e01b81526004016106e4929190611802565b602060405180830381865afa158015610701573d6000803e3d6000fd5b505050506040513d601f19601f82011682018060405250810190610725919061185c565b1015610766576040517f08c379a000000000000000000000000000000000000000000000000000000000815260040161075d906118d5565b60405180910390fd5b600860009054906101000a900473ffffffffffffffffffffffffffffffffffffffff1673ffffffffffffffffffffffffffffffffffffffff166323b872dd600760009054906101000a900473ffffffffffffffffffffffffffffffffffffffff16600660029054906101000a900473ffffffffffffffffffffffffffffffffffffffff16846040518463ffffffff1660e01b8152600401610809939291906118f5565b6020604051808303816000875af1158015610828573d6000803e3d6000fd5b505050506040513d601f19601f8201168201806040525081019061084c9190611964565b61088b576040517f08c379a0000000000000000000000000000000000000000000000000000000008152600401610882906119dd565b60405180910390fd5b6003600660006101000a81548160ff021916908360048111156108b1576108b06111df565b5b02179055506000600760009054906101000a900473ffffffffffffffffffffffffffffffffffffffff1673ffffffffffffffffffffffffffffffffffffffff1660006002015460405161090390611536565b60006040518083038185875af1925050503d8060008114610940576040519150601f19603f3d011682016040523d82523d6000602084013e610945565b606091505b5050905080610989576040517f08c379a000000000000000000000000000000000000000000000000000000000815260040161098090611597565b60405180910390fd5b3373ffffffffffffffffffffffffffffffffffffffff167fc7ce0a35f17b490de2a317e7fecb2cae86b1abffb03800b2f49282352138269883856040516109d19291906119fd565b60405180910390a25050505050565b60018060048111156109f5576109f46111df565b5b600660009054906101000a900460ff166004811115610a1757610a166111df565b5b14610a57576040517f08c379a0000000000000000000000000000000000000000000000000000000008152600401610a4e906113e7565b60405180910390fd5b6000600201543414610a9e576040517f08c379a0000000000000000000000000000000000000000000000000000000008152600401610a9590611a72565b60405180910390fd5b33600760006101000a81548173ffffffffffffffffffffffffffffffffffffffff021916908373ffffffffffffffffffffffffffffffffffffffff1602179055506002600660006101000a81548160ff02191690836004811115610b0557610b046111df565b5b0217905550600860009054906101000a900473ffffffffffffffffffffffffffffffffffffffff1673ffffffffffffffffffffffffffffffffffffffff1663a9059cbb600760009054906101000a900473ffffffffffffffffffffffffffffffffffffffff1660008001546040518363ffffffff1660e01b8152600401610b8d929190611a92565b6020604051808303816000875af1158015610bac573d6000803e3d6000fd5b505050506040513d601f19601f82011682018060405250810190610bd09190611964565b610c0f576040517f08c379a0000000000000000000000000000000000000000000000000000000008152600401610c0690611b07565b60405180910390fd5b3373ffffffffffffffffffffffffffffffffffffffff167e6b9bb4766cf5ab74b890df959e4fad0e54b1c3885e49c9541d36253a6e39e6346000800154604051610c5a9291906119fd565b60405180910390a250565b600660019054906101000a900460ff1681565b600760009054906101000a900473ffffffffffffffffffffffffffffffffffffffff1681565b6002806004811115610cb357610cb26111df565b5b600660009054906101000a900460ff166004811115610cd557610cd46111df565b5b14610d15576040517f08c379a0000000000000000000000000000000000000000000000000000000008152600401610d0c906113e7565b60405180910390fd5b600760009054906101000a900473ffffffffffffffffffffffffffffffffffffffff1673ffffffffffffffffffffffffffffffffffffffff163373ffffffffffffffffffffffffffffffffffffffff1614610da5576040517f08c379a0000000000000000000000000000000000000000000000000000000008152600401610d9c90611b73565b60405180910390fd5b60006001811115610db957610db86111df565b5b600660019054906101000a900460ff166001811115610ddb57610dda6111df565b5b14610de7576000610dea565b60015b600660016101000a81548160ff02191690836001811115610e0e57610e0d6111df565b5b02179055503373ffffffffffffffffffffffffffffffffffffffff167ffbeb344693e2af6892dd30703df8c6b064a49ed841f1b7948639c802548f2976600660019054906101000a900460ff16604051610e689190611256565b60405180910390a250565b6000806004811115610e8857610e876111df565b5b600660009054906101000a900460ff166004811115610eaa57610ea96111df565b5b14610eea576040517f08c379a0000000000000000000000000000000000000000000000000000000008152600401610ee1906113e7565b60405180910390fd5b600760009054906101000a900473ffffffffffffffffffffffffffffffffffffffff1673ffffffffffffffffffffffffffffffffffffffff163373ffffffffffffffffffffffffffffffffffffffff1603610f7a576040517f08c379a0000000000000000000000000000000000000000000000000000000008152600401610f7190611bdf565b60405180910390fd5b600860009054906101000a900473ffffffffffffffffffffffffffffffffffffffff1673ffffffffffffffffffffffffffffffffffffffff166323b872dd333060008001546040518463ffffffff1660e01b8152600401610fdd93929190611bff565b6020604051808303816000875af1158015610ffc573d6000803e3d6000fd5b505050506040513d601f19601f820116820180604052508101906110209190611964565b61105f576040517f08c379a000000000000000000000000000000000000000000000000000000000815260040161105690611c82565b60405180910390fd5b6001600660006101000a81548160ff02191690836004811115611085576110846111df565b5b021790555033600660026101000a81548173ffffffffffffffffffffffffffffffffffffffff021916908373ffffffffffffffffffffffffffffffffffffffff1602179055503373ffffffffffffffffffffffffffffffffffffffff167f726d5f1a838fe31748f737fa3ae5539ccff95952adfc593a1299532b643ff7a8600080015460405161111591906115b7565b60405180910390a250565b600660029054906101000a900473ffffffffffffffffffffffffffffffffffffffff1681565b600660009054906101000a900460ff1681565b60008060000154908060010154908060020154908060030154908060040154908060050154905086565b600073ffffffffffffffffffffffffffffffffffffffff82169050919050565b60006111ae82611183565b9050919050565b6111be816111a3565b82525050565b60006020820190506111d960008301846111b5565b92915050565b7f4e487b7100000000000000000000000000000000000000000000000000000000600052602160045260246000fd5b6002811061121f5761121e6111df565b5b50565b60008190506112308261120e565b919050565b600061124082611222565b9050919050565b61125081611235565b82525050565b600060208201905061126b6000830184611247565b92915050565b600061127c82611183565b9050919050565b61128c81611271565b82525050565b60006020820190506112a76000830184611283565b92915050565b600581106112be576112bd6111df565b5b50565b60008190506112cf826112ad565b919050565b60006112df826112c1565b9050919050565b6112ef816112d4565b82525050565b600060208201905061130a60008301846112e6565b92915050565b6000819050919050565b61132381611310565b82525050565b600060c08201905061133e600083018961131a565b61134b602083018861131a565b611358604083018761131a565b611365606083018661131a565b611372608083018561131a565b61137f60a083018461131a565b979650505050505050565b600082825260208201905092915050565b7f4e6f7420616c6c6f77656420696e207468697320737461746500000000000000600082015250565b60006113d160198361138a565b91506113dc8261139b565b602082019050919050565b60006020820190508181036000830152611400816113c4565b9050919050565b7f4f6e6c79206c656e6465722063616e206c6971756964617465206c6f616e0000600082015250565b600061143d601e8361138a565b915061144882611407565b602082019050919050565b6000602082019050818103600083015261146c81611430565b9050919050565b7f43616e206e6f74206c6971756964617465206265666f7265206c6f616e20697360008201527f2064756500000000000000000000000000000000000000000000000000000000602082015250565b60006114cf60248361138a565b91506114da82611473565b604082019050919050565b600060208201905081810360008301526114fe816114c2565b9050919050565b600081905092915050565b50565b6000611520600083611505565b915061152b82611510565b600082019050919050565b600061154182611513565b9150819050919050565b7f436f6c6c61746572616c20726566756e64206661696c65640000000000000000600082015250565b600061158160188361138a565b915061158c8261154b565b602082019050919050565b600060208201905081810360008301526115b081611574565b9050919050565b60006020820190506115cc600083018461131a565b92915050565b7f4f6e6c792074686520626f72726f7765722063616e207265706179207468652060008201527f6c6f616e00000000000000000000000000000000000000000000000000000000602082015250565b600061162e60248361138a565b9150611639826115d2565b604082019050919050565b6000602082019050818103600083015261165d81611621565b9050919050565b7f4e487b7100000000000000000000000000000000000000000000000000000000600052601160045260246000fd5b600061169e82611310565b91506116a983611310565b9250817fffffffffffffffffffffffffffffffffffffffffffffffffffffffffffffffff04831182151516156116e2576116e1611664565b5b828202905092915050565b7f4e487b7100000000000000000000000000000000000000000000000000000000600052601260045260246000fd5b600061172782611310565b915061173283611310565b925082611742576117416116ed565b5b828204905092915050565b600061175882611310565b915061176383611310565b9250827fffffffffffffffffffffffffffffffffffffffffffffffffffffffffffffffff0382111561179857611797611664565b5b828201905092915050565b6000819050919050565b60006117c86117c36117be84611183565b6117a3565b611183565b9050919050565b60006117da826117ad565b9050919050565b60006117ec826117cf565b9050919050565b6117fc816117e1565b82525050565b600060408201905061181760008301856117f3565b61182460208301846111b5565b9392505050565b600080fd5b61183981611310565b811461184457600080fd5b50565b60008151905061185681611830565b92915050565b6000602082840312156118725761187161182b565b5b600061188084828501611847565b91505092915050565b7f496e73756666696369656e7420616c6c6f77616e636500000000000000000000600082015250565b60006118bf60168361138a565b91506118ca82611889565b602082019050919050565b600060208201905081810360008301526118ee816118b2565b9050919050565b600060608201905061190a60008301866117f3565b61191760208301856117f3565b611924604083018461131a565b949350505050565b60008115159050919050565b6119418161192c565b811461194c57600080fd5b50565b60008151905061195e81611938565b92915050565b60006020828403121561197a5761197961182b565b5b60006119888482850161194f565b91505092915050565b7f444149207472616e73666572206661696c656400000000000000000000000000600082015250565b60006119c760138361138a565b91506119d282611991565b602082019050919050565b600060208201905081810360008301526119f6816119ba565b9050919050565b6000604082019050611a12600083018561131a565b611a1f602083018461131a565b9392505050565b7f496e76616c696420636f6c6c61746572616c20616d6f756e7400000000000000600082015250565b6000611a5c60198361138a565b9150611a6782611a26565b602082019050919050565b60006020820190508181036000830152611a8b81611a4f565b9050919050565b6000604082019050611aa760008301856117f3565b611ab4602083018461131a565b9392505050565b7f5472616e7366657220746f20626f72726f776572206661696c65640000000000600082015250565b6000611af1601b8361138a565b9150611afc82611abb565b602082019050919050565b60006020820190508181036000830152611b2081611ae4565b9050919050565b7f4f6e6c7920626f72726f7765722063616e207377697463682072617465730000600082015250565b6000611b5d601e8361138a565b9150611b6882611b27565b602082019050919050565b60006020820190508181036000830152611b8c81611b50565b9050919050565b7f426f72726f7765722063616e6e6f742066756e64206c6f616e00000000000000600082015250565b6000611bc960198361138a565b9150611bd482611b93565b602082019050919050565b60006020820190508181036000830152611bf881611bbc565b9050919050565b6000606082019050611c1460008301866111b5565b611c2160208301856111b5565b611c2e604083018461131a565b949350505050565b7f5472616e73666572206661696c65640000000000000000000000000000000000600082015250565b6000611c6c600f8361138a565b9150611c7782611c36565b602082019050919050565b60006020820190508181036000830152611c9b81611c5f565b905091905056fea264697066735822122039664e9822fd1bf20032569fc158e33c491df8ce9207b1b99ca43e4340295ca864736f6c634300080d0033",
  "immutableReferences": {},
  "source": "// SPDX-License-Identifier: UNLICENSED\r\npragma solidity 0.8.13;\r\nimport {IERC20} from \"./IERC20.sol\";\r\nimport \"hardhat/console.sol\";\r\n\r\n\r\ncontract LoanRequest {\r\n    struct Terms {\r\n        \r\n        uint256 loanDaiAmount;\r\n        uint256 feeDaiAmount;\r\n        uint256 ethCollateralAmount;\r\n        uint256 repayByTimestamp;\r\n\r\n        uint256 fixedRate;\r\n        uint256 floatingRate;\r\n    }\r\n        \r\n    Terms public terms;\r\n    \r\n    enum LoanState {Created, Funded, Taken, Repaid, Liquidated}\r\n    enum InterestRateType {Fixed, Floating}\r\n    LoanState public state;\r\n    InterestRateType public rateType;\r\n\r\n    event LoanFunded(address indexed lender, uint256 loanDaiAmount);\r\n    event LoanTaken(address indexed borrower, uint256 collateralAmount, uint256 loanAmount);\r\n    event LoanRepaid(address indexed borrower, uint256 repaymentAmount, uint256 interestAmount);\r\n    event LoanLiquidated(address indexed lender, uint256 collateralAmount);\r\n\r\n    event RateSwitched(address indexed borrower, InterestRateType newLoanType);\r\n    event ConstructorInitialized(\r\n                uint256 loanDaiAmount,\r\n                uint256 feeDaiAmount,\r\n                uint256 ethCollateralAmount,\r\n                uint256 repayByTimestamp,\r\n                uint256 fixedRate,\r\n                uint256 floatingRate,\r\n                address daiAddress\r\n        );\r\n\r\n\r\n    modifier onlyInState(LoanState expectedState) { require(state == expectedState, \"Not allowed in this state\");_;}\r\n\r\n    address payable public lender;\r\n    address payable public borrower;\r\n    address public daiAddress;\r\n\r\n    constructor(Terms memory _terms, address _daiAddress){\r\n        require(_daiAddress != address(0), \"Invalid DAI address\");\r\n        require(_terms.loanDaiAmount > 0, \"Loan amount must be greater than 0\");\r\n        require(_terms.feeDaiAmount >= 0, \"Fee must be non-negative\");\r\n        require(_terms.ethCollateralAmount > 0, \"Collateral must be greater than 0\");\r\n        require(_terms.repayByTimestamp > block.timestamp, \"Repay timestamp must be in the future\");\r\n\r\n        terms = _terms;\r\n        daiAddress = _daiAddress;\r\n        lender = payable(msg.sender);\r\n\r\n        state = LoanState.Created;\r\n\r\n        rateType = InterestRateType.Fixed;\r\n\r\n        emit ConstructorInitialized(\r\n            _terms.loanDaiAmount,\r\n            _terms.feeDaiAmount,\r\n            _terms.ethCollateralAmount,\r\n            _terms.repayByTimestamp,\r\n            _terms.fixedRate,\r\n            _terms.floatingRate,\r\n            _daiAddress\r\n        );\r\n    }\r\n\r\nfunction fundLoan() public onlyInState(LoanState.Created){\r\n        require(msg.sender != borrower, \"Borrower cannot fund loan\");\r\n        require(IERC20(daiAddress).transferFrom(msg.sender,address(this), terms.loanDaiAmount), \"Transfer failed\");\r\n        state = LoanState.Funded;\r\n        lender = payable(msg.sender);\r\n        emit LoanFunded(msg.sender, terms.loanDaiAmount);\r\n}\r\n\r\nfunction takeALoanAndAcceptLoanTerms() public payable onlyInState(LoanState.Funded){\r\n        require(msg.value == terms.ethCollateralAmount, \"Invalid collateral amount\");\r\n        borrower = payable(msg.sender);\r\n        state = LoanState.Taken;\r\n        require(IERC20(daiAddress).transfer(borrower, terms.loanDaiAmount), \"Transfer to borrower failed\");\r\n        emit LoanTaken(msg.sender, msg.value, terms.loanDaiAmount);\r\n}\r\n\r\nfunction switchRate() public onlyInState(LoanState.Taken){\r\n        require(msg.sender == borrower, \"Only borrower can switch rates\");\r\n        rateType = (rateType == InterestRateType.Fixed) ? InterestRateType.Floating : InterestRateType.Fixed;\r\n        emit RateSwitched(msg.sender, rateType);\r\n}\r\n\r\n\r\n    function repay() public onlyInState(LoanState.Taken) {\r\n        require(msg.sender == borrower, \"Only the borrower can repay the loan\");\r\n\r\n        uint256 interestRate = (rateType == InterestRateType.Fixed) ? terms.fixedRate : terms.floatingRate;\r\n        uint256 interestPaid = (terms.loanDaiAmount * interestRate) / 10000; // Using basis points for precision\r\n        uint256 repaymentAmount = terms.loanDaiAmount + interestPaid;\r\n\r\n        // Ensure the borrower has approved the contract to transfer the repayment amount\r\n        require(IERC20(daiAddress).allowance(borrower, address(this)) >= repaymentAmount, \"Insufficient allowance\");\r\n\r\n        // Transfer the repayment amount from the borrower to the lender\r\n        require(IERC20(daiAddress).transferFrom(borrower, lender, repaymentAmount), \"DAI transfer failed\");\r\n\r\n        // Update the loan state to Repaid\r\n        state = LoanState.Repaid;\r\n\r\n        // Refund the ETH collateral to the borrower\r\n        (bool success, ) = borrower.call{value: terms.ethCollateralAmount}(\"\");\r\n        require(success, \"Collateral refund failed\");\r\n\r\n        emit LoanRepaid(msg.sender, repaymentAmount, interestPaid);\r\n    }\r\n\r\nfunction liquidate() public onlyInState(LoanState.Taken){\r\nrequire(msg.sender == lender, \"Only lender can liquidate loan\");\r\nrequire(block.timestamp >= terms.repayByTimestamp, \"Can not liquidate before loan is due\");\r\nstate = LoanState.Liquidated;\r\n\r\n(bool success,) = lender.call{value:terms.ethCollateralAmount}(\"\");\r\nrequire(success,\"Collateral refund failed\");\r\n\r\nemit LoanLiquidated(msg.sender,terms.ethCollateralAmount);\r\n}\r\n\r\n\r\n}\r\n",
  "sourcePath": "C:\\Users\\Bakri\\IdeaProjects\\Loan Switching Smart Contract\\src\\contracts\\LoanRequest.sol",
  "compiler": {
    "name": "solc",
    "version": "0.8.13+commit.abaa5c0e.Emscripten.clang"
  },
  "schemaVersion": "3.4.16",
  "updatedAt": "2025-01-04T17:56:54.034Z",
  "networkType": "ethereum",
  "devdoc": {
    "kind": "dev",
    "methods": {},
    "version": 1
  },
  "userdoc": {
    "kind": "user",
    "methods": {},
    "version": 1
  }
}